:100000000C9485000C94AF000C94AF000C94AF00DE
:100010000C94AF000C94AF000C94AF000C94AF00A4
:100020000C94AF000C94AF000C94AF000C94AF0094
:100030000C94AF000C94AF000C94AF000C94AF0084
:100040000C94AF000C94AF000C9471100C94AF00A2
:100050000C94440D0C947A0D0C94AF000C94AF00EA
:100060000C94AF000C94AF000C94E80A0C94AF0011
:100070000C94AF000C94AF000C94AF000C94AF0044
:100080000C94AF000C94AF000C94AF000000000281
:1000900003000A0B0000000005040908000000002E
:1000A0000000000000000000000000000102040841
:1000B0001020408001020408102040800102040842
:1000C0001020408001020408102040800202020239
:1000D00002020202040404040404040403030303EC
:1000E00003030303010101010101010100002200DA
:1000F000250028002B0000002100240027002A00F2
:10010000B100CF06EE09AE0DBD0011241FBECFEF2A
:10011000D0E4DEBFCDBF11E0A0E0B1E0E2EBFAE257
:1001200000E00BBF02C007900D92A439B107D9F7C8
:1001300023E0A4E9B1E001C01D92AF32B207E1F7BC
:1001400010E0C4E8D0E004C02197FE010E947212C2
:10015000C038D107C9F70E9462100C944C150C945A
:10016000000064E371E08CEB91E00E94C10E6CE34F
:1001700071E086EB91E00C94C10E86EB91E00E9459
:10018000520E8CEB91E00C94520E4F925F926F9254
:100190007F928F929F92AF92BF92CF92DF92EF9217
:1001A000FF920F931F93CF93DF93CDB7DEB7CC5061
:1001B000D4400FB6F894DEBF0FBECDBF809195013D
:1001C0008823B9F060E087E10E94CA1161E083E111
:1001D0000E94CA1164E670E080E090E00E94E010A6
:1001E00060E083E10E94CA111092950181E0809342
:1001F0009401FE0131968E010F5F1B4F7F0111921A
:100200001192E017F107D9F78091060120E4829F4F
:10021000C0011124816180937C0062E370E080E082
:1002200090E00E94E01010927B0080917A00806242
:1002300080937A0080917A00806480937A00809124
:100240007A00846080937A0080917A008260809343
:100250007A0080917A00816080937A0080917A00A0
:10026000806180937A0080917A0084FFFCCF809136
:100270007A00806180937A00809178008093AD014C
:10028000809179008093AC018091060130E4839FD6
:10029000C0011124806180937C0010927B008091CA
:1002A0007A00806280937A0080917A0080648093E3
:1002B0007A0080917A00846080937A0080917A003D
:1002C000826080937A0080917A00816080937A00C6
:1002D0008091AC01E0E88E9FC00111242091AD0116
:1002E00030E035952795822B932B8F3F910511F0A8
:1002F0000CF0B5C093959093AB018093AA018091C7
:10030000AA019091AB019093AF018093AE0181E07F
:1003100085B980917A00806180937A0080917A001B
:1003200084FFFCCF8FE984B984E690E00E94191124
:100330008EE984B980917A00806180937A008091FF
:100340007A0084FFFCCF8FE984B900000000000030
:10035000000000008EE984B980917A00806180936A
:100360007A0070E6872E77E6972EAA24A394B12C04
:10037000D12CC12CEFE97E2EFEE96F2E80917A0000
:1003800084FFFCCF88E190E00E94191174B887E0E7
:1003900090E00E94191164B880917A008061809386
:1003A0007A00209178002093AD01809179008093AC
:1003B000AC01F0E88F9FC001112430E035952795FE
:1003C000822B932B8F3F910511F00CF04AC093952F
:1003D0009093AB018093AA018091AA019091AB0107
:1003E000E091A801F091A901E817F90708F03BC0D6
:1003F0009093A9018093A8012FEFC21AD20A31E08D
:10040000831A9108A108B10809F0B8CF50E040E084
:1004100066E971E082EC91E00E94E70786E991E0ED
:100420000E9447052B013C012091070130910801F2
:10043000C9010496FC01EE0FFF1FEE0DFF1D812C7C
:10044000912C540124503F4F82179307D0F44191CF
:100450005191840E951EA11CB11C0196F5CF9A9561
:100460004ACF9A95B5CFEE0FFF1FEE0DFF1D80818D
:1004700091810196918380831092A9011092A80125
:10048000BECF63E971E0CE01895F9B4F0E94C10E30
:100490006FE371E0CE01895F9B4F0E941210609163
:1004A000B4017091B5014AE0C8010E94390FB8014A
:1004B000CE01895F9B4F0E940B10C8010E94520E13
:1004C00062E671E0CE01895F9B4F0E941210B3017A
:1004D000A201405853446D4678432AE0C8010E9467
:1004E000650FB801CE01895F9B4F0E940B10C801B8
:1004F0000E94520E62E671E0CE01895F9B4F0E941E
:1005000012104AE0B601C8010E94390FB801CE01AD
:10051000895F9B4F0E940B10C8010E94520E62E639
:1005200071E0CE01895F9B4F0E9412102AE0B50155
:10053000A401C8010E94920FB801CE01895F9B4FB0
:100540000E940B10C8010E94520E62E671E0CE01BB
:10055000895F9B4F0E9412106091AE017091AF01B4
:100560004AE0C8010E94390FB801CE01895F9B4F54
:100570000E940B10C8010E94520E62E671E0CE018B
:10058000895F9B4F0E941210809194018823A1F1F2
:1005900061E3CE01895F9B4F0E942110C09007014B
:1005A000D0900801C601880F991FE80EF91E8091AE
:1005B00007019091080184509F4FC816D90620F575
:1005C00062E671E0CE01895F9B4F0E941210F70135
:1005D000619171917F014AE0C8010E94390FB80111
:1005E000CE01895F9B4F0E940B10C8010E94520EE2
:1005F000FFEFCF1ADF0ADBCF67E471E0CE01895F3E
:100600009B4F0E941210CACF8091B4019091B50106
:1006100001969093B5018093B40111E085E892E0D2
:100620000E940C0C892B59F085E892E00E94260C60
:100630008237A1F71093950110929401EFCF80912A
:1006400094018823A1F060E083E10E94CA1161E077
:1006500087E10E94CA1164E670E080E090E00E94A9
:10066000E01060E087E10E94CA1110929401BE017F
:10067000695F7B4F85E892E00E94290ECE01895F79
:100680009B4F0E94520EC45FDB4F0FB6F894DEBF43
:100690000FBECDBFDF91CF911F910F91FF90EF90D3
:1006A000DF90CF90BF90AF909F908F907F906F9092
:1006B0005F904F9008950F931F93CF93DF93CDB723
:1006C000DEB762970FB6F894DEBF0FBECDBF26E04F
:1006D00040E855E260E070E085E892E00E94EC0CB2
:1006E00069E471E085E892E00E943B0E809106018A
:1006F00020E4829FC0011124806180937C001092CD
:100700007B0080917A00806280937A0080917A00E9
:10071000806480937A0080917A00846080937A006C
:1007200080917A00826080937A0080917A00816063
:1007300080937A0061E080E00E948E118EE984B996
:1007400015B88CEF81B912B89CEE97B918B88AB970
:1007500080E88BB961E083E10E948E1161E087E15E
:100760000E948E1160E083E10E94CA1161E087E17E
:100770000E94CA1164E670E080E090E00E94E01000
:1007800060E087E10E94CA1160E080E00E94CA1127
:1007900040EA56E861E070E085EC91E00E94620971
:1007A00062E571E085E892E00E943B0E4AE06FEF5F
:1007B00070E0CE0101960E940D0F6BE571E0CE0155
:1007C00007960E94C10E66EB71E0CE0107960E946B
:1007D000341062E671E00E944710BE016F5F7F4FE8
:1007E0000E94341062E671E00E9447106CEB71E0E9
:1007F0000E94341062E671E00E944710BC01CE01F5
:100800000D960E94D60FCE0107960E94520ECE0181
:1008100001960E94520E68E570E085EC91E00E941E
:10082000700968E085EC91E00E94060960E085ECC3
:1008300091E00E94060985EC91E00E94EB0940E1FD
:1008400068E585EC91E00E94E80910E185EC91E013
:100850000E94E308082F803130F467E471E0CE0194
:100860000D960E94121040E1602FCE0101960E9469
:10087000E00EBE016F5F7F4FCE010D960E940B1000
:10088000CE0101960E94520E8091B0019091B1016B
:10089000A091B201B091B301800F911DA11DB11DB6
:1008A0008093B0019093B101A093B201B093B301D2
:1008B000115061F6BE01635F7F4F85E892E00E94B0
:1008C000290E8091060120E4829FC00111248161DC
:1008D00080937C0068EC70E080E090E00E94E01083
:1008E00010927B0080917A00806280937A008091E0
:1008F0007A00806480937A0080917A00846080938B
:100900007A0080917A00826080937A0080917A00E8
:10091000816080937A0080917A00806180937A0070
:1009200080917A0084FFFCCF80917A00806180936F
:100930007A00809178008093AD0180917900809356
:10094000AC018091060120E4829FC00111248061E6
:1009500080937C0010927B0080917A00806280936B
:100960007A0080917A00806480937A0080917A0086
:10097000846080937A0080917A00826080937A000C
:1009800080917A00816080937A008091AC0120E8A8
:10099000829FC00111242091AD0130E0359527954B
:1009A000822B932B8F3F910509F00CF59395909333
:1009B000AB018093AA0126E044E651E067E671E0CE
:1009C00082EC91E00E94FE0682EC91E00E94F0062B
:1009D000CE010D960E94520E62960FB6F894DEBFBD
:1009E0000FBECDBFDF91CF911F910F9108959A95C2
:1009F000DECFCF93DF93CDB7DEB72D970FB6F89448
:100A0000DEBF0FBECDBF2DE0E9E0F1E0DE011196C3
:100A100001900D922A95E1F7623021F483709927B5
:100A2000892B81F0E1E0F0E0EC0FFD1FE60FF11DF6
:100A300080812D960FB6F894DEBF0FBECDBFDF913B
:100A4000CF9108958DE1F5CFDF92EF92FF920F9352
:100A50001F93CF93DF937C01D62E142F61E0D0E05B
:100A6000C0E06D1548F401E0060FC7010E94F904CB
:100A7000C80FD11D602FF5CFCE01810F911DDF91E1
:100A8000CF911F910F91FF90EF90DF9008957F928B
:100A90008F929F92AF92BF92CF92DF92EF92FF928E
:100AA0000F931F93CF93DF93EC01888199816CE3BF
:100AB00070E00E941D122A813B81620F731F7B83AD
:100AC0006A8397FD33C0998388838A819B816CE315
:100AD00070E00E941D122C813D81620F731F7D8387
:100AE0006C8397FD2BC09B838A838C819D8168E1F9
:100AF00070E00E941D122E813F81620F731F7F8361
:100B00006E8397FD23C09D838C83888599850C9780
:100B100040F48E819F813BE0A32EB12C181619065C
:100B2000FCF0CC24CA94DC2C7601D4C0CC969983FA
:100B30008883615071097B836A83C7CFCC969B837E
:100B40008A83615071097D836C83CFCF48969D83E2
:100B50008C83615071097F836E83D7CFD986C88615
:100B6000C884D984772473947C0C0A851B8548013A
:100B700084E9881A88EF980A672DC4010E94F90455
:100B8000EE80FF8090E08E159F0594F4E81AF90A34
:100B9000FF82EE828FEFC81AD80A8CE0C816D10403
:100BA000E9F6198618860F5F1F4F1B870A87D8CF73
:100BB0001E141F04DCF081E0C81AD10880F0D98629
:100BC000C88668856F5F8A859B858459984F0E9487
:100BD000F9048E0D9F2D911D9F838E83C1CFB98601
:100BE000A886015011091B870A87EBCF4E2D672D70
:100BF000C4010E942405FC013197FF87EE8706544B
:100C00008DE691E0089F9001099F300D1124032E7D
:100C1000000C440B550B802F86958695280F311DAF
:100C2000411D511D60E871E581E090E00E94F911DD
:100C30000370C12CD12C7601033039F420E8C22E88
:100C400021E5D22EEE24E394F12CC60ED71EE81E29
:100C5000F91EDF0120E831E541E050E00E948D12ED
:100C6000C60ED71EE81EF91EAC81BD8120E13EE014
:100C70000E947B12C60ED71EE81EF91E2A813B81F8
:100C80004CE3429FC001439F900D1124C80ED91E12
:100C9000E11CF11C88819981092E000CAA0BBB0B69
:100CA000C80ED91EEA1EFB1EC701B60120E831E5B9
:100CB00041E050E00E945312CA01B9016C5F7F4FBE
:100CC0008F4F9F4F27E030E040E050E00E9431120C
:100CD0007D876C87C701B601DF91CF911F910F917E
:100CE000FF90EF90DF90CF90BF90AF909F908F904C
:100CF0007F900895982F92959F708F702AE0929F11
:100D0000800D11240895CF93DF93CDB7DEB76E9792
:100D10000FB6F894DEBF0FBECDBF9C018FE0E6E1B9
:100D2000F1E0DE01509601900D928A95E1F78FE097
:100D3000E5E2F1E0DE01119601900D928A95E1F76E
:100D4000F901A181B28195E09A9FF0019B9FF00D7E
:100D50001124A1E0B0E0AC0FBD1FEA0FFB1FE60FAE
:100D6000F71F8081FA018083D90111962D913C9162
:100D7000929FF001939FF00D112481E090E08C0F81
:100D80009D1FE80FF91FE60FF71F87856E960FB6B8
:100D9000F894DEBF0FBECDBFDF91CF910895E2EC96
:100DA000F1E088E68083128211820895CF93DF9369
:100DB000D62FC42FFC01608185EC91E00E9466096A
:100DC0006D2F85EC91E00E9406096C2F85EC91E077
:100DD0000E94060985EC91E0DF91CF910C94EB091C
:100DE000FC01218132812230310531F44CE26FE285
:100DF0000E94D60681E0089580E008958F929F9228
:100E0000AF92BF92CF92DF92EF92FF920F931F9318
:100E1000CF93DF934C017B018A01C22ED12CD0E00D
:100E2000C0E0CC15DD05E9F15801F801608185ECE1
:100E300091E00E94660960E085EC91E00E9406095D
:100E400085EC91E00E94EB0941E0F80161918F018E
:100E500085EC91E00E94E80985EC91E00E94DC08B5
:100E60009E012F5F3F4F892BD1F0CC0FDD1FCE0DA0
:100E7000DF1D88819981F5012081F401208392830F
:100E8000818381E0DF91CF911F910F91FF90EF90CF
:100E9000DF90CF90BF90AF909F908F900895E90121
:100EA000C0CF80E0EFCF1F93CF93DF93EC01162FDD
:100EB000688185EC91E00E946609612F85EC91E0E4
:100EC0000E94060985EC91E00E94EB0941E06881EF
:100ED00085EC91E00E94E80985EC91E00E94E3082E
:100EE000C82F85EC91E00E94EB098C2FDF91CF9108
:100EF0001F910895EF92FF920F931F93CF93DF936B
:100F00008C01EB01E42EF22EFC01608185EC91E076
:100F10000E9466096E2D85EC91E00E94060985EC21
:100F200091E00E94EB094F2DF801608185EC91E082
:100F30000E94E8091982188285EC91E00E94E3087A
:100F40008F770E947A0690E09B838A8385EC91E0FC
:100F50000E94E3088F730E947A0690E09D838C8341
:100F60001D861C8685EC91E00E94E3088F730E9429
:100F70007A0690E09F838E8385EC91E00E94E308DF
:100F80008C018F710E947A068150990B998788870E
:100F900085E0159507958A95E1F7077011270150AF
:100FA00011091D870C8786E490E09B878A878FEF65
:100FB0009FEF9F878E8785EC91E00E94EB0981E08F
:100FC000DF91CF911F910F91FF90EF9008955F9265
:100FD0006F927F928F929F92AF92BF92CF92DF9249
:100FE000EF92FF920F931F93CF93DF931F92CDB792
:100FF000DEB77C018B016A011982AE014F5F5F4F42
:10100000B6010E948306582E298180E0222371F0C8
:10101000F701818192810197D1F4C601039702976C
:10102000B0F4452DB801C7010E947A070F90DF91F7
:10103000CF911F910F91FF90EF90DF90CF90BF90D5
:10104000AF909F908F907F906F905F90089586E40F
:10105000882E912C66246A94762CF701608185ECA9
:1010600091E00E946609652D85EC91E00E940609D9
:1010700085EC91E00E94EB094981F701608185ECE4
:1010800091E00E94E80985EC91E00E94E3088F77E7
:101090000E947A0690E0F8019183808385EC91E0CC
:1010A0000E94E3088F770E947A0690E0F80193830C
:1010B000828385EC91E00E94E308B82E86FF4CC045
:1010C0008F710E947A0690E0B5FC44C0F8019583C8
:1010D0008483F70181819281029709F042C085ECF7
:1010E00091E00E94E3088F730E947A0690E0F80175
:1010F0009783868385EC91E00E94E30887709927A7
:10110000F8019587848785EC91E00E94E3088F7150
:101110000E947A068150990BF80191878087898116
:101120008730A8F185EC91E00E94E3080E947A06DE
:1011300090E08C599F4FF80193878287F80177865A
:10114000668685EC91E00E94EB09C114D10411F18F
:1011500081E06CCF0C96BACF8F730E947A0690E034
:10116000B5CF85EC91E00E94E3088770992701973D
:10117000F8019587848785EC91E00E94E3088F73DE
:101180000E947A0690E0F80197838683BCCF93860D
:101190008286D4CFF801A080B180652DC7010E945E
:1011A00053078F770E947A068A151B0409F055CFE2
:1011B000CFCF90E080E008958091F5019091F60105
:1011C000891B990B08959091F6018091F5012FEFFD
:1011D0003FEF981748F4E92FF0E0E950FE4F2081E7
:1011E00030E09F5F9093F601C9010895E091F60108
:1011F0008091F501E81730F4F0E0E950FE4F80816E
:1012000090E008958FEF9FEF08950895CF93DF93B7
:101210001F92CDB7DEB769832091D1012223F9F067
:101220002091D201203258F021E030E0FC013383DC
:10123000228390E080E00F90DF91CF91089580911C
:10124000D301E82FF0E0EC52FE4F998190838F5F3D
:101250008093D3018093D20181E090E0ECCF61E0F4
:10126000CE0101960E94B10AF7CFCF92DF92EF92A2
:10127000FF920F931F93CF93DF937C01CB018A01E1
:101280002091D101222389F0EB016B01C40ED51E00
:10129000CC15DD0569F06991D701ED91FC910190C4
:1012A000F081E02DC7010995F3CF642F0E94B10AA8
:1012B000C801DF91CF911F910F91FF90EF90DF90C8
:1012C000CF900895CB01BA010C94FF0981E080937F
:1012D000D1016093F4011092D3011092D2010895CC
:1012E0000C9466090F93062F21E04091D20164ED22
:1012F00071E08091F4010E945A0A1092D301109279
:10130000D2011092D1010F9108954F925F926F9286
:101310007F92AF92BF92CF92EF92FF920F931F9363
:10132000CF93DF935C01F62ED42F28013901EE20F4
:1013300019F10E946609CE2DC43008F0C3E0C150F7
:10134000B8F028E0C29FC0011124A301920104C09B
:1013500056954795379527958A95D2F7B901D501C6
:10136000ED91FC910190F081E02DC5010995E7CF49
:1013700060E0C5010E9472094D2FD13208F040E2B1
:101380002C2D67EF71E08F2D0E94120A1092F6014A
:101390008093F501DF91CF911F910F91FF90EF9016
:1013A000CF90BF90AF907F906F905F904F900895D7
:1013B000CF92EF920F931F93C22EE12C00E010E02A
:1013C00098010E9485091F910F91EF90CF90089589
:1013D00021E00C94D80961E00C947209E5ECF1E08D
:1013E0001382128288EE93E0A0E0B0E084839583BC
:1013F000A683B78381E791E09183808308959B0161
:10140000AC0160E074E284EF90E00E943112205160
:1014100031094109510956954795379527952093EC
:10142000B8000895413208F043C0909184029111B0
:10143000FCCF91E090938402209382022FEF2093BF
:10144000170210925C02240F20935B029093830298
:1014500090918302880F892B80938302809181026F
:10146000813009F510928102809183028093BB0044
:101470008091BC0083FDF8CF85EC8093BC00809107
:1014800084028130E1F380915C02841710F4409172
:101490005C02ADE5B2E0962FFB018E2F891B84170D
:1014A00020F0842F089585EEE8CF8D918193F5CFBC
:1014B00040E0F7CF0F93413208F04BC09091840287
:1014C0009111FCCF92E090938402009382029FEFEF
:1014D0009093170210925C0240935B02362FADE5A9
:1014E000B2E0FB019E2F931B941770F110928302C0
:1014F00090918302880F892B8093830280918102CF
:10150000813029F510928102809183028093BB0083
:101510008091BC0083FDF8CF85EC8093BC00222332
:1015200021F0809184028230D1F3809117028F3FA5
:1015300091F080911702803281F080911702803300
:1015400071F084E00F91089591919D93CBCF85EE3A
:10155000E4CF81E0F7CF80E0F5CF82E0F3CF83E006
:10156000F1CF20913902260F3327331F2132310565
:10157000ECF420918402FC0190E080E0243069F0DA
:1015800082E00895A09139022191AC01455C5D4F44
:10159000A40FB52FB11D2C930196861798F3809157
:1015A0003902680F6093390280E0089581E0089560
:1015B00085ED8093BC008091BC0084FDFCCF10922F
:1015C0008402089585EC8093BC00109284020895F3
:1015D0001F920F920FB60F9211240BB60F922F93FA
:1015E0003F934F935F936F937F938F939F93AF93AB
:1015F000BF93EF93FF938091B900887F803609F401
:101600004EC008F041C0883209F4AAC028F58031E4
:1016100009F49EC0C8F4882309F4FBC0883009F49B
:1016200097C0FF91EF91BF91AF919F918F917F9163
:101630006F915F914F913F912F910F900BBE0F9043
:101640000FBE0F901F901895883109F489C0803221
:1016500041F78093170215C0803409F49EC048F406
:101660008033B9F38833E9F6809317020E94E20AC7
:10167000D8CF803509F485C0883509F496C0883400
:1016800081F60E94D80ACDCF883909F48CC038F58C
:10169000883729F050F4883611F0803711F683E04E
:1016A000809384021092180257C0883809F47BC0D6
:1016B000803919F0803809F0B4CF80911802803257
:1016C00008F071C0E091180281E08E0F809318023B
:1016D0008091BB00F0E0E75EFD4F80833DC0803B22
:1016E00039F0E0F4803A09F479C0883A09F099CFEA
:1016F00084E08093840210923A0210923902E091C1
:101700007F02F091800209958091390281110FC00A
:1017100081E08093390210923B0209C0803C09F4B9
:1017200076C0883C09F473C0883B09F07ACFE09119
:101730003A0281E08E0F80933A02F0E0E55CFD4FC3
:1017400080818093BB0090913A028091390229C038
:10175000809183028093BB0085EC8093BC0061CFB5
:1017600090915C0280915B02981758F5E0915C02C1
:1017700081E08E0F80935C02F0E0E35AFD4F8081A0
:10178000E9CFE0915C0281E08E0F80935C02809152
:10179000BB00F0E0E35AFD4F808390915C028091A2
:1017A0005B029817C8F285E8D8CFE0915C0281E02F
:1017B0008E0F80935C028091BB00F0E0E35AFD4FF6
:1017C00080838091820281115CCF81E080938102CD
:1017D00084EA8093BC001092840223CF0E94E20A24
:1017E00080911802803230F4E0911802F0E0E75E58
:1017F000FD4F10826091180270E0E0917D02F0913F
:101800007E0289E192E00995109218020ACF85ECD8
:10181000E0CF1092170235CFFC01918D228D892FD8
:1018200090E0805C9F4F821B91098F7399270895E8
:10183000FC01918D828D981731F0828DE80FF11D9A
:10184000858D90E008958FEF9FEF0895FC01918DB5
:10185000828D981761F0A28DAE0FBF2FB11D5D96DE
:101860008C91928D9F5F9F73928F90E008958FEF80
:101870009FEF0895FC01538D448D252F30E0842F78
:1018800090E0821B930B541710F0CF9608950197A8
:10189000089584EA9DE0892B49F080E090E0892B4F
:1018A00029F00E94A40D81110E94000080E090E0C8
:1018B000892B49F080E090E0892B29F00E940000FC
:1018C00081110C9400000895FC01A48DA80FB92F7C
:1018D000B11DA35ABF4F2C91848D90E001968F7358
:1018E0009927848FA689B7892C93A089B1898C9177
:1018F00080648C93938D848D981306C00288F3893D
:10190000E02D80818F7D80830895CF93DF93EC015C
:10191000888D8823B9F0AA89BB89E889F9898C91D7
:1019200085FD03C0808186FD0DC00FB607FCF7CF93
:101930008C9185FFF2CF808185FFEDCFCE010E9493
:10194000640CE9CFDF91CF910895EF92FF920F934E
:101950001F93CF93DF93EC0181E0888F9B8D8C8D5B
:10196000981316C0E889F989808185FF11C0EE8936
:10197000FF896083E889F98980818064808381E0C0
:1019800090E0DF91CF911F910F91FF90EF9008951C
:10199000F62E0B8D10E00F5F1F4F0F731127E02EF7
:1019A0008C8D8E110CC00FB607FCFACFE889F9892F
:1019B000808185FFF5CFCE010E94640CF1CFEB8DC5
:1019C000EC0FFD2FF11DE35AFF4FF0820B8FEA89D8
:1019D000FB8980818062D2CFCF92DF92EF92FF921B
:1019E0001F93CF93DF93EC016A017B01122FE889EB
:1019F000F98982E08083C11481EED806E104F10404
:101A0000A1F060E079E08DE390E0A70196010E94EB
:101A100031122150310941095109569547953795A1
:101A20002795211580E1380798F0E889F989108217
:101A300060E874E88EE190E0A70196010E943112FF
:101A400021503109410951095695479537952795F8
:101A5000EC85FD853083EE85FF852083188EEC892B
:101A6000FD891083EA89FB89808188698083EA89FE
:101A7000FB8980818F7D8083DF91CF911F91FF90C3
:101A8000EF90DF90CF9008951F920F920FB60F92B4
:101A900011240BB60F922F938F939F93EF93FF9385
:101AA000E0919502F09196028081E0919B02F09185
:101AB0009C0282FD1DC0908180919E028F5F8F737A
:101AC00020919F02821741F0E0919E02F0E0EB57D7
:101AD000FD4F958F80939E02FF91EF919F918F9183
:101AE0002F910F900BBE0F900FBE0F901F90189567
:101AF0008081F2CF1F920F920FB60F9211240BB676
:101B00000F922F933F934F935F936F937F938F9396
:101B10009F93AF93BF93EF93FF9385E892E00E946A
:101B2000640CFF91EF91BF91AF919F918F917F9145
:101B30006F915F914F913F912F910F900BBE0F903E
:101B40000FBE0F901F90189585E892E00E940C0C34
:101B500021E0892B09F420E0822F0895E5E8F2E0E6
:101B60001382128288EE93E0A0E0B0E08483958334
:101B7000A683B78383E891E09183808385EC90E02E
:101B80009587848784EC90E09787868780EC90E047
:101B9000918B808B81EC90E0938B828B82EC90E038
:101BA000958B848B86EC90E0978B868B118E128EB2
:101BB000138E148E0895AF92BF92CF92DF92EF9260
:101BC000FF920F931F93CF93DF936C017B018B01E7
:101BD000040F151FEB015E01AE18BF08C017D10737
:101BE00059F06991D601ED91FC910190F081E02DC1
:101BF000C6010995892B79F7C501DF91CF911F9116
:101C00000F91FF90EF90DF90CF90BF90AF9008952D
:101C1000FB0101900020E9F73197AF01461B570BFC
:101C2000DC01ED91FC910280F381E02D0994DB0150
:101C300014964D915C9115976D917C91DC01ED911D
:101C4000FC910280F381E02D099461E971E00C942C
:101C5000080E0F931F93CF93DF93EC010E94170E92
:101C60008C01CE010E94250E800F911FDF91CF9134
:101C70001F910F9108950F931F93CF93DF938C01C2
:101C8000D0E0C0E06115710519F00E94080EEC016A
:101C9000C8010E94250E8C0F9D1FDF91CF911F91CF
:101CA0000F910895FC01808191810C944013CF9392
:101CB000DF93EC0188819981009711F00E94401315
:101CC000198218821D821C821B821A82DF91CF9199
:101CD00008950F931F93CF93DF93EC018B016F5FF8
:101CE0007F4F888199810E94C913009751F0998391
:101CF00088831B830A8381E0DF91CF911F910F912D
:101D0000089580E0F9CFCF93DF93EC01888199812A
:101D1000892B49F08A819B818617970720F081E003
:101D2000DF91CF910895CE010E94690E8823C1F3FF
:101D30008C819D81892B99F7E881F9811082EFCF01
:101D4000EF92FF920F931F93CF93DF93EC017B01F0
:101D50008A01BA010E94830E81110BC0CE010E943C
:101D6000570ECE01DF91CF911F910F91FF90EF9011
:101D700008951D830C83B701888199810E94B31453
:101D8000F0CFFC011182108213821282158214821C
:101D90006115710551F0FB0101900020E9F73197C1
:101DA000AF01461B570B0C94A00E0895FB01019048
:101DB0000020E9F73197AF01461B570B0C94A00E9A
:101DC0000F931F93CF93DF93CDB7DEB729970FB64D
:101DD000F894DEBF0FBECDBF8C01862FF8011182B3
:101DE0001082138212821582148250E0BE016F5F4E
:101DF0007F4F90E00E941715BE016F5F7F4FC801B3
:101E00000E94D60E29960FB6F894DEBF0FBECDBF46
:101E1000DF91CF911F910F9108950F931F93CF934F
:101E2000DF93CDB7DEB762970FB6F894DEBF0FBE73
:101E3000CDBF8C01CB01F801118210821382128276
:101E40001582148250E0BE016F5F7F4F0E94BA146A
:101E5000BE016F5F7F4FC8010E94D60E62960FB61B
:101E6000F894DEBF0FBECDBFDF91CF911F910F91D0
:101E700008950F931F93CF93DF93CDB7DEB761978C
:101E80000FB6F894DEBF0FBECDBF8C01CB01F801B9
:101E900011821082138212821582148250E0BE01D8
:101EA0006F5F7F4F0E941715BE016F5F7F4FC801A4
:101EB0000E94D60E61960FB6F894DEBF0FBECDBF5E
:101EC000DF91CF911F910F9108950F931F93CF939F
:101ED000DF93CDB7DEB7A2970FB6F894DEBF0FBE83
:101EE000CDBF8C01CB01BA01F8011182108213829F
:101EF00012821582148230E0AE014F5F5F4F0E9464
:101F0000D014BE016F5F7F4FC8010E94D60EA2960B
:101F10000FB6F894DEBF0FBECDBFDF91CF911F91FA
:101F20000F9108950F931F93CF93DF93CDB7DEB733
:101F3000A1970FB6F894DEBF0FBECDBF8C01CB01C9
:101F4000BA01F80111821082138212821582148262
:101F500030E0AE014F5F5F4F0E94EA14BE016F5F39
:101F60007F4FC8010E94D60EA1960FB6F894DEBF2F
:101F70000FBECDBFDF91CF911F910F910895CF93E9
:101F8000DF93EC01FB018617970749F060817181AF
:101F90006115710541F0448155810E94A00ECE016A
:101FA000DF91CF9108950E94570EF9CFFC01118265
:101FB000108213821282158214820C94BF0FEF924A
:101FC000FF920F931F93CF93DF936115710541F437
:101FD00080E0DF91CF911F910F91FF90EF900895D6
:101FE00041155105B1F07B01EC010C811D81040FFD
:101FF000151FB8010E94830E882351F3288139816F
:102000008C819D81B701820F931F0E94B3141D83A1
:102010000C8381E0DECFFB014481558160817181B9
:102020000C94DF0F6115710551F0FB010190002048
:10203000E9F73197AF01461B570B0C94DF0F80E097
:102040000895CF93DF9300D0CDB7DEB769831A82AE
:1020500041E050E0BE016F5F7F4F0E94DF0F0F90A5
:102060000F90DF91CF910895CF93DF93EC01FB01A7
:1020700044815581608171810E94DF0F811103C00D
:10208000CE010E94570ECE01DF91CF910895CF93DC
:10209000DF93EC016115710539F4CE010E94570EF2
:1020A000CE01DF91CF910895FB0101900020E9F767
:1020B0003197AF01461B570B0E94DF0F882369F34E
:1020C000EFCF08950E9424110E9461100E945B03CB
:1020D000C9E4DCE00E94C5002097E1F30E94490CAE
:1020E000F9CF1F920F920FB60F9211242F933F93A7
:1020F0008F939F93AF93BF93809127039091280371
:10210000A0912903B0912A033091260323E0230FE5
:102110002D3768F126E8230F0296A11DB11D2093EB
:1021200026038093270390932803A0932903B09359
:102130002A038091220390912303A0912403B0915C
:1021400025030196A11DB11D8093220390932303C3
:10215000A0932403B0932503BF91AF919F918F91DA
:102160003F912F910F900FBE0F901F9018950196E1
:10217000A11DB11DD4CF3FB7F89480912203909157
:102180002303A0912403B091250326B5A89B05C085
:102190002F3F19F00196A11DB11D3FBFBA2FA92FE6
:1021A000982F8827BC01CD01620F711D811D911DE3
:1021B00042E0660F771F881F991F4A95D1F708954F
:1021C0008F929F92AF92BF92CF92DF92EF92FF9247
:1021D0006B017C010E94BB104B015C01C114D10456
:1021E000E104F104E9F00E94F8110E94BB106819A3
:1021F00079098A099B09683E73408105910570F34E
:1022000021E0C21AD108E108F10888EE880E83E0C7
:10221000981EA11CB11CC114D104E104F10429F7DA
:10222000FF90EF90DF90CF90BF90AF909F908F90F6
:1022300008958230910538F0880F991F880F991FF3
:1022400005970197F1F70895789484B5836084BD6C
:1022500085B5836085BDEEE6F0E080818160808396
:10226000E1E8F0E082E08083808181608083E0E8C3
:10227000F0E0808181608083E1EBF0E08081846028
:102280008083E0EBF0E0808181608083E1E9F0E031
:10229000808183608083E0E9F0E0808181608083D9
:1022A00087E880937A001092C100089582508A30A6
:1022B00088F5E82FF0E0E15AFE4E0C947212871177
:1022C0008B1169116F118A118A11731179117D11A6
:1022D0008311809180008F77809380000895809192
:1022E00080008F7DF9CF8091B0008F778093B00010
:1022F00008958091B0008F7DF9CF809190008F7705
:10230000809390000895809190008F7DF9CF84B5DF
:102310008F7784BD089584B58F7DFBCFCF93DF93F6
:1023200090E0FC01E455FF4F249184539F4FFC0142
:1023300084918823C9F090E0880F991FFC01EA502E
:10234000FF4FA591B491FC01E451FF4FC591D49189
:1023500061110DC09FB7F8948C91209582238C93C6
:102360008881282328839FBFDF91CF910895623011
:1023700051F49FB7F8943C91822F809583238C93DE
:10238000E8812E2BEFCF8FB7F894EC912E2B2C9366
:102390008FBFEACF1F93CF93DF93282F30E0F9014F
:1023A000E457FF4F8491F901E455FF4FD491F901AF
:1023B000E453FF4FC491CC23A9F0162F81110E9442
:1023C0005611EC2FF0E0EE0FFF1FE451FF4FA591E7
:1023D000B4918FB7F894EC91111108C0D095DE2319
:1023E000DC938FBFDF91CF911F910895DE2BF8CF43
:1023F0000895DB018F939F930E948212BF91AF914A
:10240000A29F800D911DA39F900DB29F900D11244E
:102410000895AA1BBB1B51E107C0AA1FBB1FA6172B
:10242000B70710F0A61BB70B881F991F5A95A9F77D
:1024300080959095BC01CD01089597FB072E16F469
:10244000009407D077FD09D00E94091207FC05D03F
:102450003EF4909581959F4F0895709561957F4FBB
:102460000895A1E21A2EAA1BBB1BFD010DC0AA1FD5
:10247000BB1FEE1FFF1FA217B307E407F50720F0ED
:10248000A21BB30BE40BF50B661F771F881F991F68
:102490001A9469F760957095809590959B01AC01B1
:1024A000BD01CF010895052E97FB1EF400940E94F4
:1024B0006A1257FD07D00E94311207FC03D04EF478
:1024C0000C946A1250954095309521953F4F4F4F8F
:1024D0005F4F089590958095709561957F4F8F4FD0
:1024E0009F4F0895EE0FFF1F0024001C0BBE0790A6
:1024F000F691E02D09940E949512B7FF0895821B72
:10250000930B08950E949512A59F900DB49F900D76
:10251000A49F800D911D11240895B7FF0C94821281
:102520000E948212821B930B0895A29FB001B39F59
:10253000C001A39F700D811D1124911DB29F700DCC
:10254000811D1124911D08950F931F93CF93DF9345
:102550008230910510F482E090E0E0912D03F0913B
:102560002E0330E020E0B0E0A0E0309799F4211590
:10257000310509F44AC0281B390B24303105D8F540
:102580008A819B816115710589F1FB0193838283A7
:10259000FE0111C040815181028113814817590702
:1025A000E0F04817590799F4109761F012960C93D0
:1025B000129713961C933296CF01DF91CF911F9102
:1025C0000F91089500932D0310932E03F4CF21153E
:1025D000310551F04217530738F0A901DB019A0188
:1025E000BD01DF01F801C1CFEF01F9CF90932E03B8
:1025F00080932D03CDCFFE01E20FF31F81939193C2
:102600002250310939832883D7CF20912B03309171
:102610002C03232B41F420910201309103013093CC
:102620002C0320932B0320910001309101012115EF
:10263000310541F42DB73EB7409104015091050199
:10264000241B350BE0912B03F0912C03E217F307C9
:10265000A0F42E1B3F0B2817390778F0AC014E5F12
:102660005F4F2417350748F04E0F5F1F50932C0320
:1026700040932B03819391939FCFF0E0E0E09CCFB8
:10268000CF93DF930097E9F0FC0132971382128217
:10269000A0912D03B0912E03ED0130E020E01097C2
:1026A000A1F420813181820F931F20912B0330915F
:1026B0002C032817390709F061C0F0932C03E0932D
:1026C0002B03DF91CF910895EA01CE17DF07E8F5DC
:1026D0004A815B819E0141155105B1F7E901FB83F8
:1026E000EA8349915991C40FD51FEC17FD0761F496
:1026F000808191810296840F951FE90199838883D7
:10270000828193819B838A83F0E0E0E012968D9131
:102710009C9113970097B9F52D913C911197CD019C
:102720000296820F931F20912B0330912C032817C0
:10273000390739F6309751F510922E0310922D0378
:10274000B0932C03A0932B03BCCFD383C2834081CF
:102750005181840F951FC817D90761F44E5F5F4FF1
:1027600088819981480F591F518340838A819B81B9
:10277000938382832115310509F0B0CFF0932E03A6
:10278000E0932D039ECFFD01DC01C0CF13821282A6
:10279000D7CF4F925F926F927F928F929F92AF921C
:1027A000BF92CF92DF92EF92FF920F931F93CF933E
:1027B000DF938C01009799F4CB01DF91CF911F91AA
:1027C0000F91FF90EF90DF90CF90BF90AF909F90D0
:1027D0008F907F906F905F904F900C94A412FC01AB
:1027E000E60FF71F9C0122503109E217F30708F4A6
:1027F000AEC0D901CD91DC911197C617D70720F152
:10280000C530D10578F0CE0104978617970750F0B0
:10281000C61BD70B2297C193D1936D937C93CF01A5
:102820000E944013C801DF91CF911F910F91FF903B
:10283000EF90DF90CF90BF90AF909F908F907F9060
:102840006F905F904F9008955B01AC1ABD0A4C01E8
:102850008C0E9D1EA0912D03B0912E03512C412C66
:10286000F12CE12C109731F580912B0390912C03E2
:102870008815990509F05CC04616570608F058C03F
:102880008091000190910101009741F48DB79EB7AE
:102890004091040150910501841B950BE817F9073D
:1028A00008F055C0F0932C03E0932B03F9017183DA
:1028B0006083B8CF8D919C91119712966C9012976E
:1028C00013967C901397A815B90559F56C0142E051
:1028D000C40ED11CCA14DB0420F1AC014A195B09F7
:1028E000DA011296159780F06282738251834083D9
:1028F000D9016D937C93E114F10471F0D701139623
:10290000FC93EE9312978ECF22968C0F9D1FF901A8
:1029100091838083F301EFCFF0932E03E0932D0397
:1029200081CF4816590608F42C017D01D3019ACFB6
:10293000CB010E94A4127C01009749F0AE01B801BE
:102940000E94AA14C8010E94401387016BCF10E0B7
:1029500000E068CFFB01DC0102C001900D92415004
:102960005040D8F70895FB01DC0101900D92002042
:10297000E1F708954532510520F4423010F00C94EF
:10298000C514FB011082CB010895BB274A3031F4F6
:10299000992322F4BDE2909581959F4F0C942315C5
:1029A0002532310520F4223010F00C94DB14FA01AA
:1029B0001082CA010895BB272A3051F4992342F4AA
:1029C000BDE290958095709561957F4F8F4F9F4F99
:1029D0000C94F6142532310520F4223010F00C94BA
:1029E000F514FA011082CA010895BB27FA01A62F37
:1029F0006217710581059105330B30FB66F0AA273C
:102A0000660F771F881F991FAA1FA21710F0A21B1D
:102A100063953850A9F7A05DAA3308F0A95DA1938A
:102A200036F7B111B1931082CA010C943C154532AE
:102A3000510520F4423010F00C942215FB01108255
:102A4000CB010895BB27FB015527AA27880F991FA3
:102A5000AA1FA41710F0A41B83955051B9F7A05DCD
:102A6000AA3308F0A95DA193009779F7B111B1934A
:102A70001192CB010C943C15DC01FC01672F719184
:102A80007723E1F7329704C07C916D937083629154
:102A9000AE17BF07C8F3089510E0C4E8D0E004C043
:102AA000FE010E9472122196C538D107C9F7F89429
:022AB000FFCF56
:102AB20000002F03800003FE00001F1C1F1E1F1EAC
:102AC2001F1F1E1F1E1F00FFFFFFFF000A11181C01
:102AD20001080DFFFF0700000000070606040407B7
:102AE2000000000033373932373661005232002499
:102AF20043414E44592C003000234376616B2E2E05
:102B02002E0023486D6D6D2E2E2E00244149524415
:102B12004F532C0051000002000000000000000092
:102B22000006093509D9080509DC08E308F608009A
:102B3200000000A50CDB0D3A0C850C0C0C260C18C1
:042B42000C0D0A006C
:00000001FF
