:100000000C948E000C94B8000C94B8000C94B800BA
:100010000C94B8000C94B8000C94B8000C94B80080
:100020000C94B8000C94B8000C94B8000C94B80070
:100030000C94B8000C94B8000C94B8000C94B80060
:100040000C94B8000C94B8000C94FF210C94B800E8
:100050000C94C81E0C94FE1E0C94B8000C94B800AE
:100060000C94B8000C94B8000C9444090C94B8009B
:100070000C94B8000C94B8000C94B8000C94B80020
:100080000C94B8000C94B8000C94B8007C3C3E5E14
:100090002B3D3F2F5B5D3B2C2A225C0000000002C1
:1000A00003000A0B0000000005040908000000001E
:1000B0000000000000000000000000000102040831
:1000C0001020408001020408102040800102040832
:1000D0001020408001020408102040800202020229
:1000E00002020202040404040404040403030303DC
:1000F00003030303010101010101010100002200CA
:10010000250028002B0000002100240027002A00E1
:10011000EB0059085D0E7711321FFD0011241FBE40
:10012000CFEFD0E4DEBFCDBF11E0A0E0B1E0E8E06A
:10013000FDE400E00BBF02C007900D92A03FB107A5
:10014000D9F725E0A0EFB1E001C01D92A83BB207AE
:10015000E1F710E0CDE8D0E004C02197FE010E9455
:10016000B523C838D107C9F70E94F0210C9477262F
:100170000C940000DC01ED91FC910190F081E02DE8
:100180000994982F92959F708F702AE0929F800D0E
:1001900011240895813041F08230A9F064E670E0C6
:1001A00080E090E00C947A2261E086E00E942823AF
:1001B00061E085E00E94282385B18E6085B960E00A
:1001C00084E00C94642361E084E00E94642385B1A0
:1001D000817F85B908956EE071E08DE092E00E9424
:1001E000BB2064E171E087E092E00E94BB206FEEEB
:1001F00071E081E092E00C94BB2081E092E00E94EB
:10020000492087E092E00E9449208DE092E00C9422
:100210004920CF93DF9361E570E083E192E00E9493
:10022000D80770E060E083E192E00E94BA0083E1C9
:1002300092E00E94560846E050E061E570E083E1FC
:1002400092E00E94530883E192E00E944B070E94D3
:10025000C1008093F00183E192E00E944B078F7709
:100260000E94C100D82F83E192E00E944B078F7754
:100270000E94C100C82F83E192E00E944B070E94B8
:10028000C10090E0B0E0A0E08093F1019093F20112
:10029000A093F301B093F40183E192E00E944B0735
:1002A0000E94C10024E6829FC0011124092E000C87
:1002B000AA0BBB0B4091F1015091F2016091F30147
:1002C0007091F401840F951FA61FB71F8093F10151
:1002D0009093F201A093F301B093F40183E192E0D3
:1002E0000E944B070E94C10040E157E2849F9001A9
:1002F000859F300D1124032E000C440B550B80916B
:10030000F1019091F201A091F301B091F401280F55
:10031000391F4A1F5B1FA0E1BEE00E94BE23AB0154
:10032000BC012CE3C29FC0011124092E000CAA0BB2
:10033000BB0B8D0F911DA11DB11D840F951FA61F15
:10034000B71F8093F1019093F201A093F301B09352
:10035000F401DF91CF9108956F927F928F929F92D7
:10036000AF92BF92CF92DF92EF92FF920F931F93C3
:10037000CF93DF93CDB7DEB7C752D4400FB6F89412
:10038000DEBF0FBECDBFFE0131968E010F5F1B4F4A
:100390007F0111921192E017F107D9F780910601C0
:1003A00020E4829FC0011124806180937C00109220
:1003B0007B0080917A00806280937A0080917A003D
:1003C000806480937A0080917A00846080937A00C0
:1003D00080917A00826080937A0080917A008E7F8B
:1003E00080937A0081E085B980917A008061809362
:1003F0007A0080917A0084FFFCCF8FE984B984E68B
:1004000090E00E94B3228EE984B980917A008061E5
:1004100080937A0080917A0084FFFCCF8FE984B9C1
:1004200087E090E00E94B3228EE984B980917A003F
:10043000806180937A00AA24AA94BA2C9924939478
:10044000D12CC12CEFE97E2EFEE96F2E80917A002F
:1004500084FFFCCF8CE090E00E94B32283B074B89C
:1004600087E090E00E94B32264B880917A008061B6
:1004700080937A00209178002093F8018091790090
:100480008093F70130E8839FC001112430E0359557
:100490002795822B932B8F3F910509F054F5939567
:1004A0009093F6018093F50190FE25C08FEFC81A56
:1004B000D80AE1E0AE1AB108982C41F62091080163
:1004C00030910901C9010296FC01EE0FFF1FEE0DEC
:1004D000FF1D812C912C54012C503F4F8217930704
:1004E000C0F441915191840E951EA11CB11C01963E
:1004F000F5CF9A95D5CFE091F501F091F601EE0F89
:10050000FF1FEE0DFF1D80819181019691838083F5
:10051000D0CF61E087E10E9464236FEE71E0CE01ED
:100520008E5D9B4F0E94BB200E94090167E471E031
:10053000CE018E5D9B4F0E94B3216091FD017091B1
:10054000FE014AE0C8010E940721B801CE018E5D7C
:100550009B4F0E94AC21C8010E94492067E971E0CD
:10056000CE018E5D9B4F0E94B3214091F1015091CD
:10057000F2016091F3017091F4012AE0C8010E9438
:100580003321B801CE018E5D9B4F0E94AC21C80182
:100590000E9449206EE771E0CE018E5D9B4F0E9464
:1005A000B3214AE06091F001C8010E94DA20B8014D
:1005B000CE018E5D9B4F0E94AC21C8010E94492054
:1005C00067E971E0CE018E5D9B4F0E94B3214AE046
:1005D000B601C8010E940721B801CE018E5D9B4F74
:1005E0000E94AC21C8010E94492067E971E0CE0158
:1005F0008E5D9B4F0E94B3212AE0B501A401C80182
:100600000E943321B801CE018E5D9B4F0E94AC2128
:10061000C8010E94492080910801909109016C0154
:10062000F1E0CF1AD10881509048880F991FE80E49
:10063000F91E80910801909109018D509F4FC816B5
:10064000D906E0F467E971E0CE018E5D9B4F0E9410
:10065000B321F701619171917F014AE0C8010E94C5
:100660000721B801CE018E5D9B4F0E94AC21C801CD
:100670000E944920FFEFCF1ADF0ADBCF80910701EC
:10068000882389F181E00E94CA0064E085EB92E052
:100690000E94A70C6EE471E0882309F459C04091D0
:1006A00001025091020223E165EB72E0C8010E9451
:1006B000C70DC8010E949B0B882309F447C061E065
:1006C00086E10E946423BE016E5D7B4FC8010E94DB
:1006D000B51FC8010E94890B60E086E10E94642377
:1006E00082E00E94CA00BE016E5D7B4F8EE095E005
:1006F0000E94B51F60E087E10E9464238091FD01A4
:100700009091FE010196893F2AE2920740F590936D
:10071000FE018093FD01CE018E5D9B4F0E9449201A
:10072000C95DDB4F0FB6F894DEBF0FBECDBFDF91C2
:10073000CF911F910F91FF90EF90DF90CF90BF90DE
:10074000AF909F908F907F906F9008956DE571E0CE
:100750008EE095E00E94C71F10920701C1CF109252
:10076000FE011092FD016091FF01709100026F5F28
:100770007F4F709300026093FF014AE0CE01845ED8
:100780009B4F0E940721BE01645E7B4FC8010E94FF
:10079000772167E671E0C8010E94D521BC0181E0A4
:1007A00092E00E946021C8010E944920CE01845E2F
:1007B0009B4F0E9449206CE671E08EE095E00E941C
:1007C000A91F61E072E08EE095E00E94B51FA3CF03
:1007D000CF92DF92EF92FF920F931F93CF93DF930D
:1007E000CDB7DEB7C254D1090FB6F894DEBF0FBE45
:1007F000CDBF61E085E10E94282361E085E10E9490
:10080000642364E670E080E090E00E947A2226E0B3
:1008100040E052EC61E070E08EE095E00E94761ED0
:1008200067E771E08EE095E00E94C71F61E080E01D
:100830000E9428238EE984B915B88CEF81B912B8CB
:100840009CEE97B918B88AB980E88BB940EA56E8A7
:1008500061E070E083E192E00E94CA0761E085E117
:100860000E94282361E085E10E94642360E871E032
:100870008EE095E00E94C71F8091060120E4829FD0
:10088000C0011124816180937C0062E370E080E00C
:1008900090E00E947A2210927B0080917A00806220
:1008A00080937A0080917A00806480937A008091AE
:1008B0007A00846080937A0080917A0082608093CD
:1008C0007A0080917A008E7F80937A0080917A00FE
:1008D000806180937A0080917A0084FFFCCF8091C0
:1008E0007A00806180937A0048E080917A0084FFEA
:1008F000FCCF80917A00806180937A00209178000B
:100900002093F801809179008093F70130E8839F6C
:10091000C001112430E035952795822B932B8F3F12
:10092000910511F00CF088C193959093F601809396
:10093000F5018091F5019091F601080F191F4150C2
:10094000A1F683E0169507958A95E1F710930901C2
:100950000093080161E570E083E192E00E94D8070E
:1009600063E283E192E00E946E0760E083E192E03F
:100970000E946E0760E083E192E00E946E0765E0EE
:1009800083E192E00E946E0760E083E192E00E94C2
:100990006E0760E083E192E00E946E0767E983E101
:1009A00092E00E946E0760E083E192E00E946E0791
:1009B00060E083E192E00E946E0783E192E00E9492
:1009C000560861E570E083E192E00E94D8076FE28B
:1009D00070E083E192E00E94BA006CE270E083E193
:1009E00092E00E94BA0083E192E00E94560861E51D
:1009F00070E083E192E00E94D80768E270E083E152
:100A000092E00E94BA0067E970E083E192E00E9400
:100A1000BA0083E192E00E94560861E570E083E14C
:100A200092E00E94D80760E083E192E00E946E07A6
:100A300060E083E192E00E946E0760E083E192E073
:100A40000E946E0760E083E192E00E946E0760E022
:100A500083E192E00E946E0760E083E192E00E94F1
:100A60006E0760E083E192E00E946E0783E192E00E
:100A70000E94560860910801709109014AE0CE0178
:100A800001960E94072169E871E0CE014C960E9410
:100A9000BB206DE072E0CE014C960E94C22169E954
:100AA00071E00E94D52167E971E00E94D521BE0165
:100AB0006F5F7F4F0E94C22167E971E00E94D521DC
:100AC00067E072E00E94C22167E971E00E94D521CF
:100AD000BC01CE01CD960E947721CE014C960E949A
:100AE0004920CE0101960E94492068E570E083E12B
:100AF00092E00E94D80768E070E083E192E00E94F3
:100B0000BA0070E060E083E192E00E94BA0083E105
:100B100092E00E94560840E168E583E192E00E947D
:100B2000500810E183E192E00E944B07082F8031CA
:100B300030F46CE971E0CE01CD960E94B32140E122
:100B4000602FCE0101960E94DA20BE016F5F7F4FB9
:100B5000CE01CD960E94AC21CE0101960E94492083
:100B60008091F9019091FA01A091FB01B091FC01F3
:100B7000800F911DA11DB11D8093F9019093FA0181
:100B8000A093FB01B093FC01115061F661E086E196
:100B90000E94282361E086E10E94642381E00E9494
:100BA000CA0064E085EB92E00E94A70C811108C0A6
:100BB0006EE471E08EE095E00E94C71F109207017D
:100BC00081E090E0909300028093FF016091FF012B
:100BD00070910002683C710588F54AE0CE014C96A0
:100BE0000E940721BE01645E7F4FCE0101960E94E4
:100BF000772167E671E0CE0101960E94D521BC0104
:100C000081E092E00E946021CE0101960E9449207D
:100C1000CE014C960E94492060910102709102021F
:100C200085EB92E00E94520E882341F08091FF01F3
:100C3000909100020196C6CF9A9577CE6091FF0100
:100C40007091000261507109709300026093FF017E
:100C50004AE0CE014C960E940721BE01645E7F4FA0
:100C6000CE0101960E94772167E671E0CE010196E0
:100C70000E94D521BC0181E092E00E946021CE015A
:100C800001960E944920CE014C960E944920409135
:100C900001025091020223E165EB72E0CE014C9615
:100CA0000E94C70DCE014C960E944B0B6B017C013C
:100CB0006EE971E08EE095E00E94A91F2AE030E025
:100CC000B701A6018EE095E00E94372089E6C8169C
:100CD00080E2D80689E5E806F10408F45BC0CE019D
:100CE0004C960E94890B6091FF01709100026F5F2A
:100CF0007F4F709300026093FF014AE0CE01C796D8
:100D00000E940721BE01695C7F4FCE0101960E94BF
:100D1000772167E671E0CE0101960E94D521BC01E2
:100D200081E092E00E946021CE0101960E9449205C
:100D3000CE01C7960E9449204091010250910202C3
:100D400023E165EB72E0CE0101960E94C70D8B8115
:100D50009C819F8F8E8F8D819E81AF81B88588A366
:100D600099A3AAA3BBA389859A85AB85BC858CA3CF
:100D70009DA3AEA3BFA3DE011D96FE01B896CE01D2
:100D8000C5962D912193E817F907D9F78A8D9B8D88
:100D90009EAB8DAB6CE671E08EE095E00E94A91FE2
:100DA00061E072E08EE095E00E94B51FCE014C96A6
:100DB0000E949B0B882309F45BC061E087E10E94DD
:100DC000282361E087E10E946423BE01635C7F4FBA
:100DD000CE014C960E94B51FCE014C960E94890B05
:100DE000BE01635C7F4F8EE095E00E94B51F82E0FC
:100DF0000E94CA0061E085E10E94282360E085E14D
:100E00000E94642364E670E080E090E00E947A2211
:100E100061E086E10E94282360E086E10E9464236D
:100E200064E670E080E090E00E947A2261E087E171
:100E30000E94282360E087E10E94642364E670E05A
:100E400080E090E00E947A22CE01CD960E94492057
:100E5000CE5BDF4F0FB6F894DEBF0FBECDBFDF9184
:100E6000CF911F910F91FF90EF90DF90CF90089559
:100E70006DE571E08EE095E00E94C71F10920701BA
:100E8000AFCF90E080E008958091430290914402BA
:100E9000891B990B089590914402809143022FEF92
:100EA0003FEF981748F4E92FF0E0EB5BFD4F20810E
:100EB00030E09F5F90934402C9010895E09144029D
:100EC00080914302E81730F4F0E0EB5BFD4F808146
:100ED00090E008958FEF9FEF08950895CF93DF93EB
:100EE0001F92CDB7DEB7698320911F022223F9F04C
:100EF00020912002203258F021E030E0FC013383C1
:100F0000228390E080E00F90DF91CF91089580914F
:100F10002102E82FF0E0EE5DFD4F998190838F5F15
:100F2000809321028093200281E090E0ECCF61E089
:100F3000CE0101960E940D09F7CFCF92DF92EF927A
:100F4000FF920F931F93CF93DF937C01CB018A0114
:100F500020911F02222389F0EB016B01C40ED51EE4
:100F6000CC15DD0569F06991D701ED91FC910190F7
:100F7000F081E02DC7010995F3CF642F0E940D0980
:100F8000C801DF91CF911F910F91FF90EF90DF90FB
:100F9000CF900895CB01BA010C946A0881E0809348
:100FA0001F026093420210922102109220020895C3
:100FB0000C94CE070F93062F21E04091200262E2AD
:100FC00072E0809142020E94BD08109221021092AC
:100FD000200210921F020F9108954F925F926F921C
:100FE0007F92AF92BF92CF92EF92FF920F931F9397
:100FF000CF93DF935C01F62ED42F28013901EE2028
:1010000019F10E94CE07CE2DC43008F0C3E0C150C4
:10101000B8F028E0C29FC0011124A301920104C0CE
:1010200056954795379527958A95D2F7B901D501F9
:10103000ED91FC910190F081E02DC5010995E7CF7C
:1010400060E0C5010E94DA074D2FD13208F040E27E
:101050002C2D65E472E08F2D0E947D0810924402D1
:1010600080934302DF91CF911F910F91FF90EF90FA
:10107000CF90BF90AF907F906F905F904F9008950A
:10108000CF92EF920F931F93C22EE12C00E010E05D
:1010900098010E94ED071F910F91EF90CF90089556
:1010A00021E00C94400821E00C94400861E00C948D
:1010B000DA07E3E1F2E01382128288EE93E0A0E027
:1010C000B0E084839583A683B7838DEA91E0918312
:1010D000808308959B01AC0160E072E18AE790E0B3
:1010E0000E94932320513109410951095695479592
:1010F000379527952093B80008954132E0F59091F7
:10110000B4029111FCCF91E09093B4022093B2020B
:101110002FEF209365027093AC026093AB021092A4
:10112000AA02240F2093A9029093B3029091B302D4
:10113000880F892B8093B3028091B1028130C9F46A
:101140001092B1028091B3028093BB008091BC00E9
:1011500083FDF8CF85EC8093BC008091B402813090
:10116000E1F38091AA02841710F44091AA02842F1F
:10117000089585EEF0CF40E0FACF0F93413208F0AA
:1011800044C09091B4029111FCCF92E09093B402CC
:101190000093B2029FEF909365027093AC0260934C
:1011A000AB021092AA024093A9021092B30290914E
:1011B000B302880F892B8093B3028091B1028130F2
:1011C00011F51092B1028091B3028093BB0080911F
:1011D000BC0083FDF8CF85EC8093BC00222321F076
:1011E0008091B4028230D1F3809165028F3F79F013
:1011F00080916502803269F080916502803359F0F8
:1012000084E00F91089585EEE7CF81E0FACF80E08A
:10121000F8CF82E0F6CF83E0F4CF20918702260F4B
:101220003327331F21323105ECF42091B402FC0145
:1012300090E080E0243069F082E00895A091870278
:101240002191AC0147575D4FA40FB52FB11D2C93D1
:101250000196861798F380918702680F6093870242
:1012600080E0089581E0089585ED8093BC00809131
:10127000BC0084FDFCCF1092B402089585EC8093ED
:10128000BC001092B40208951F920F920FB60F92F5
:1012900011240BB60F922F933F934F935F936F934D
:1012A0007F938F939F93AF93BF93EF93FF9380911F
:1012B000B900887F803609F44EC008F041C08832FA
:1012C00009F4AAC028F5803109F49EC0C8F4882327
:1012D00009F407C1883009F497C0FF91EF91BF91DD
:1012E000AF919F918F917F916F915F914F913F91BE
:1012F0002F910F900BBE0F900FBE0F901F9018955F
:10130000883109F489C0803241F78093650215C0A5
:10131000803409F4A6C048F48033B9F38833E9F681
:10132000809365020E943E09D8CF803509F489C0B8
:10133000883509F49EC0883481F60E943409CDCFE7
:10134000883909F494C038F5883729F050F4883684
:1013500011F0803711F683E08093B4021092660298
:1013600057C0883809F483C0803919F0803809F0F3
:10137000B4CF80916602803208F079C0E0916602B5
:1013800081E08E0F809366028091BB00F0E0E95906
:10139000FD4F80833DC0803B39F0E0F4803A09F492
:1013A00085C0883A09F099CF84E08093B402109206
:1013B000880210928702E091AF02F091B002099585
:1013C0008091870281110FC081E080938702109283
:1013D000890209C0803C09F482C0883C09F47FC0BE
:1013E000883B09F07ACFE091880281E08E0F8093EC
:1013F0008802F0E0E757FD4F80818093BB00909119
:1014000088028091870231C08091B3028093BB0033
:1014100085EC8093BC0061CF9091AA028091A902D3
:101420009817B8F58091AB029091AC02E091AA02B6
:1014300021E02E0F2093AA02E80FF92FF11D8081E1
:10144000E5CF2091AB023091AC02E091AA0281E09D
:101450008E0F8093AA028091BB00E20FF32FF11D43
:1014600080839091AA028091A902981788F285E85A
:10147000D0CF2091AB023091AC02E091AA0281E082
:101480008E0F8093AA028091BB00E20FF32FF11D13
:1014900080838091B202811150CF81E08093B102AC
:1014A00084EA8093BC001092B40217CF0E943E09D8
:1014B00080916602803230F4E0916602F0E0E959F2
:1014C000FD4F10826091660270E0E091AD02F091F4
:1014D000AE0287E692E0099510926602FECE85EC98
:1014E000E0CF1092650229CFCF93DF931F92CDB743
:1014F000DEB76983DC01ED91FC910280F381E02D80
:1015000041E050E0BE016F5F7F4F09950F90DF9182
:10151000CF910895CF93DF93EC01E98DFA8D309749
:1015200049F481E090E09B838A8390E080E0DF9142
:10153000CF91089513821282898D9A8D0E94FF1691
:10154000E98DFA8D22813381232B59F7F0CFFC01ED
:10155000818D928D009711F00C948E140895CF9385
:10156000DF931F92CDB7DEB741E050E0BE016F5F61
:101570007F4F0E94B212019731F4898190E00F9061
:10158000DF91CF9108958FEF9FEFF9CFFC01818D0F
:10159000928D009711F00C94AF0A8FEF9FEF089592
:1015A0000F931F93CF93DF93EC01898D9A8D10E0F9
:1015B00000E0009799F00E94AF0A8C010F3F1007DE
:1015C00069F0898D9A8DFC01428553856485758506
:1015D00041505109610971090E94FA13C801DF9154
:1015E000CF911F910F910895EF92FF920F931F9348
:1015F000CF93DF93EC017B018A011B821A8288EE74
:1016000093E0A0E0B0E08C839D83AE83BF838FEB3B
:1016100091E0998388838DE190E00E94D8239A8F8E
:10162000898F009779F02DE1F701DC0101900D928F
:101630002A95E1F74CE050E0B801CE010C960E94EB
:101640000626188EDF91CF911F910F91FF90EF909A
:101650000895FC011382128288EE93E0A0E0B0E0CE
:1016600084839583A683B7838FEB91E091838083F6
:10167000128E118E14860895DC015996ED91FC911D
:10168000309729F0628573858485958508956FEF7D
:101690007FEFCB010895DC015996ED91FC913097D5
:1016A00029F06389748985899689089560E070E0DE
:1016B000CB010895CF92DF92EF92FF92CF93DF9309
:1016C000FC01218D328D232B09F1EC010E944B0B83
:1016D0006B017C01CE010E943C0BA7019601261BE9
:1016E000370B480B590BDA01C901811530E8930714
:1016F000A105B10520F08FEF9FE7A0E0B0E0DF91FA
:10170000CF91FF90EF90DF90CF90089590E080E030
:10171000F6CFCF93DF93EC01898D9A8D009741F03E
:101720000E94D714898D9A8D0E9474241A8E198E66
:10173000DF91CF910895DC015996ED91FC9130979E
:1017400021F081E09581911101C080E008951F93FF
:10175000CF93DF93CDB7DEB76D970FB6F894DEBFAA
:101760000FBECDBFAB011C821B8223ED31E03A835B
:1017700029831E8221E0BC01CE0101960E9412162F
:1017800011E081110CC010E0812F6D960FB6F89416
:10179000DEBF0FBECDBFDF91CF911F910895CE0167
:1017A00001960E94D714F0CFEF92FF920F931F93F0
:1017B000CF93DF937B01DB012D913C91FC01E20F84
:1017C000F31F60816F3211F42F5F3F4F8C01020FC6
:1017D000131FEA01F0E0E0E0D8017D918D017F3236
:1017E00049F0772339F02F5F3F4F31967993EC30F2
:1017F000F10591F7E40FF51F1082FC01E20FF31FD2
:1018000040814F3211F42F5F3F4FF7013183208326
:10181000280F391F81E0D9019C91911101C080E00E
:10182000DF91CF911F910F91FF90EF9008954F920C
:101830005F926F927F928F929F92AF92BF92CF9260
:10184000DF92EF92FF920F931F93CF93DF93CDB769
:10185000DEB7C954D1090FB6F894DEBF0FBECDBFB5
:101860005C016B013A01490119A218A283ED91E0D4
:101870009F8F8E8F1BA21C821B829A8389831E825C
:101880002A961FAE1EAE2A978B017E018EE1E80ECE
:10189000F11C44244394AE01455C5F4FBE01685B7C
:1018A0007F4FC5010E94D40B582E482F4425940128
:1018B000BE01655C7F4FC801F3010995811120C00D
:1018C0000C151D05C9F480E0C75BDF4F0FB6F89417
:1018D000DEBF0FBECDBFDF91CF911F910F91FF9063
:1018E000EF90DF90CF90BF90AF909F908F907F90C0
:1018F0006F905F904F900895C8010E94D714E3CF76
:10190000552091F021E0AE01455C5F4FB801C70161
:101910000E941216582E0C151D0571F0C8010E9468
:10192000D71451100EC0CFCF0C151D0519F0C801EA
:101930000E94D71481E0C8CF882329F28E010F5F5F
:101940001F4F902F812F8701E92EF82EA4CF0F93E0
:101950001F93CF93DF93EC01162F8FA5882321F0DF
:10196000CE018A960E94D714412F61E0CE010E94D9
:10197000740F811102C090E012C08E01045F1F4FEE
:1019800041E0BE01C8010E94391C882371F0B801F2
:10199000CE018A960E94621291E0882361F3892F1A
:1019A000DF91CF911F910F91089540E0BE01C801D2
:1019B0000E94391C8823F9F2EACFFC01DB01129660
:1019C0008D919C9113979383828383ED91E0918312
:1019D000808314968C911497848315968C91159717
:1019E000858316964D915D916D917C9119974683F3
:1019F0005783608771871A964D915D916D917C91A7
:101A00001D9742875387648775871E964D915D9118
:101A10006D917C91519746875787608B718B529659
:101A20008C915297828B53964D915D916D917C91E3
:101A30005697438B548B658B768B57964D915D9162
:101A40006D917C915A97478B508F618F728F5B9607
:101A50008D919C91948F838F08954F925F926F9296
:101A60007F928F929F92AF92BF92CF92DF92EF922E
:101A7000FF920F931F93CF93DF93CDB7DEB7C75479
:101A8000D1090FB6F894DEBF0FBECDBF5C014A018D
:101A90003901665D7F4F7E018EE1E80EF11CC701C2
:101AA0000E94DD0C1C821B8283ED91E09A83898366
:101AB0001E828401FE0131966F015E2C4F2C6FE275
:101AC00070E0C8010E94F425009709F455C0F801A0
:101AD00020812F3219F40F5F1F4FF1CF801B8D3003
:101AE00008F08CE0E82EF12CA701B801CE01CB96CE
:101AF0000E940626EBE3F0E0EC0FFD1FEE0DFF1D4C
:101B00001082C6010E94D71421E0AE01455C5F4FF0
:101B1000652D742DC6010E941216811121C0F50198
:101B20001382128283ED91E0918380831582C50137
:101B3000C95BDF4F0FB6F894DEBF0FBECDBFDF919C
:101B4000CF911F910F91FF90EF90DF90CF90BF90BA
:101B5000AF909F908F907F906F905F904F9008957F
:101B60000E0D1F1D852D942D0E94D714C2015C2CD3
:101B70004D2CC92ED82EA3CF08191909F3011183B2
:101B80000083652D742DC5010E94DD0CD0CFAF926E
:101B9000BF92CF92DF92FF920F931F93CF93DF9369
:101BA000CDB7DEB7C955D1090FB6F894DEBF0FBE69
:101BB000CDBF6C015B018A01F22E9E01285A3F4F76
:101BC000CE01CB960E942D0D6A968EAD9FAD6A9781
:101BD000080F191FF8018081811110C0BE01655CDA
:101BE0007F4FCE0101960E94DD0C4DEC51E0BE010D
:101BF0006F5F7F4FC6010E94F40A0FC019A218A29E
:101C000083ED91E09F8F8E8F1BA221968FAD219740
:101C1000811115C0C6010E94290BC601C75ADF4FAA
:101C20000FB6F894DEBF0FBECDBFDF91CF911F91ED
:101C30000F91FF90DF90CF90BF90AF9008958250AA
:101C40008230F8F4B501665D7F4F2F2DA801CE01DB
:101C50004E960E9412168823E9F28F2D867041F06D
:101C600049A95AA96BA97CA9CE014E960E94FA13E4
:101C7000BE01625E7F4FCE0101960E94DD0CA8017D
:101C8000B6CF2F2DA801BE01655C7F4FCE014E96C9
:101C90000E941216882309F4BDCFCE01CB960E9474
:101CA000D714DBCFFB01BC01665D7F4F30E020E045
:101CB00047EA5BE0CF010C94170CE5EBF2E01582EC
:101CC00016821186138682E090E0A0E0B0E084875F
:101CD0009587A687B78713A215A614A683ED91E072
:101CE00093A782A717A608959FB7F89420910C0593
:101CF00080910A05213019F48DBB9FBF08958FBFD5
:101D0000089520910C05222381F03FB7F89420918B
:101D10000C05213069F42DB320930A054DB32091B1
:101D20000B05209524232DBB3FBF8CBD9DBD089581
:101D300030930A05FACF8EBD00000DB407FEFDCF2B
:101D40008EB508958FEF0C949B0E61E0FC018481A9
:101D50000E9464238091FE02882339F01092FE02D3
:101D600080910C0581110C94740E0895CF93DF932C
:101D7000EC018091FE02811109C081E08093FE0296
:101D80008091FF02909100030E94810E60E08C819F
:101D9000DF91CF910C946423CF93DF93EC018E817C
:101DA000882389F08F8198859C012F5F3F4F38876A
:101DB0002F838230924018F40E94A20EF3CFCE01FE
:101DC0000E94A50E1E82DF91CF910895673028F002
:101DD00026E1FC01258380E00895623079F038F037
:101DE0006430A9F090F06530A1F082E508C080E58C
:101DF0008093FF0281E080930003089580E5809343
:101E0000FF021092000381E0089581E5F1CF81E5A2
:101E1000F6CF82E5EDCF0F931F93CF93DF93EB01C6
:101E20000E9449228B010E94A20E8F3F69F00E94FE
:101E30004922601B710B6C177D07A8F380E0DF91CE
:101E4000CF911F910F91089581E0F9CF8F929F92CA
:101E5000AF92BF92FF920F931F93CF93DF93EC014A
:101E6000F62E49015A010E94CC0ECE010E94B60EF8
:101E70006CE271E0CE010E940B0F8F2D80640E94F6
:101E80009B0E08E110E0D501C401002E04C0B695F8
:101E9000A795979587950A94D2F70E949B0E0850B4
:101EA0001109083F8FEF180771F785E9FF2021F02E
:101EB00088E0F8120DC087E80E949B0E10E00E9497
:101EC000A20E8A8787FF06C01F3F21F01F5FF7CF52
:101ED0008FEFF2CFDF91CF911F910F91FF90BF90C5
:101EE000AF909F908F9008958F929F92AF92BF92E4
:101EF000EF92FF920F931F93CF93DF93EC01E62EA7
:101F00001B8619861E821D824C830E9449228B01EA
:101F100061E08C810E94282361E08C810E9464230F
:101F20000E94591D82E58093FF0281E080930003A7
:101F30008091FF02909100030E94810E2AE0F22E10
:101F40008FEF0E949B0EFA94F110FACF80910C054E
:101F500081110E94740ECE010E94B60E20E030E086
:101F6000A90160E0CE010E94260FF82E8A8781E049
:101F7000F816C1F00E944922601B710B613D774049
:101F800068F381E08D83CE010E94A50E80E0DF9191
:101F9000CF911F910F91FF90EF90BF90AF909F90C6
:101FA0008F9008952AEA31E040E050E068E0CE01E9
:101FB0000E94260F82FF25C0FB868B85812C912CE9
:101FC0005401823029F4812C912CA12C80E4B82E6C
:101FD00020E030E0A90167E3CE010E94260FA501B1
:101FE000940169E2CE010E94260F8A878823C1F0FE
:101FF0000E944922601B710B613D774048F388E0E5
:10200000C1CF94E0F92E0E94A20E8A87FA94F110B3
:10201000FACF8A3A11F082E0B5CF82E08B87CDCF3C
:102020008B858230C1F420E030E0A9016AE3CE0163
:102030000E94260F882311F086E0A4CF0E94A20EF2
:10204000807C803C11F483E08B870E94A20E0E946A
:10205000A20E0E94A20ECE010E94A50E6E2DCE01F0
:10206000DF91CF911F910F91FF90EF90BF90AF90B4
:102070009F908F900C94E60E0F931F93CF93DF9356
:10208000EC010E9449228B010E94A20E8A878F3F99
:1020900091F40E944922601B710B6D327140A0F3D4
:1020A0008FE08D83CE010E94A50E80E0DF91CF915D
:1020B0001F910F9108958E3F11F08DE0F2CF81E0D6
:1020C000F5CFCF92DF92EF92FF920F931F93CF93B2
:1020D000DF93EC016901C801820F931F81309240A8
:1020E00048F58E81882371F088819981AA81BB810E
:1020F00084179507A607B70729F48F819885C81616
:10210000D90670F5488359836A837B838B85833036
:1021100039F089E0440F551F661F771F8A95D1F764
:102120009A01AB0161E1CE010E94260F882379F06C
:1021300083E08D83CE010E94A50E80E0DF91CF91D8
:102140001F910F91FF90EF90DF90CF900895CE01F7
:102150000E943C10882371F318861F8281E08E83D1
:102160008F8198858C159D0560F06701E00EF11E4A
:10217000EC14FD0471F00E94A20EF60181936F0130
:10218000F7CF0E94A20E8F819885019698878F8342
:10219000E7CF8F819885080F191F18870F838985CE
:1021A000882319F00115124018F0CE010E94CC0EC0
:1021B00081E0C4CFEF92FF920F931F930115110599
:1021C00039F00E9461101F910F91FF90EF900895D8
:1021D00081E0F9CFEF92FF920F931F93790100E016
:1021E00012E030E020E00E9461101F910F91FF90FB
:1021F000EF900895EF92FF920F931F93CF93DF9389
:102200008C01862F7A010E949B0EE7018EEFF81A4F
:1022100089910E949B0ECE15DF05D1F78FEF0E94AA
:102220009B0E8FEF0E949B0E0E94A20EF8018287E8
:102230008F71853069F081E18583C8010E94A50E08
:1022400080E0DF91CF911F910F91FF90EF90089563
:1022500081E0F7CF0F931F93CF93DF93EC018901B8
:1022600082E1411551056105710599F08B85833037
:1022700039F089E0440F551F661F771F8A95D1F703
:102280009A01AB0168E1CE010E94260F882339F044
:1022900084E08D83CE010E94A50E80E023C0A801BA
:1022A0006EEFCE010E94FA108823A1F368E572E078
:1022B000CE010E940B0F811102C085E1EACF20E020
:1022C00030E0A9016DE0CE010E94260F882311F0B5
:1022D00084E1DFCF0E94A20E8111FACFCE010E94CD
:1022E000A50E81E0DF91CF911F910F910895EFEF3F
:1022F000F2E080E5808381E0818308950895CF93A3
:10230000DF93EC019C012A5F3F4F41E050E060E029
:1023100070E08B8D9C8D0E94D81A8823A1F08F8944
:10232000988DA98DBA8D892B8A2B8B2B59F48E8190
:102330009F81A885B9858F8B988FA98FBA8F8C8143
:1023400080688C8381E0DF91CF9108958F929F9276
:10235000AF92BF92CF92DF92EF92FF92CF93DF9333
:10236000EC010E947F1181110CC080E0DF91CF91C0
:10237000FF90EF90DF90CF90BF90AF909F908F90A5
:102380000895EB8DFC8DCE80DF80E884F98482E0B7
:10239000C81AD108E108F108858504C0CC0CDD1C01
:1023A000EE1CFF1C8A95D2F786859785A089B18996
:1023B000C80ED91EEA1EFB1E848146015701880EF5
:1023C000911CA11CB11C8C149D04AE04BF0461F0CF
:1023D00081E0881A9108A108B108C501B4010E94E2
:1023E00026198111F0CFC1CFEB8DFC8D258580E0C2
:1023F00092E0A0E0B0E004C0880F991FAA1FBB1FA5
:102400002A95D2F74B895C896D897E89840F951F47
:10241000A61FB71F8B8B9C8BAD8BBE8B81E0A6CF8D
:10242000CF93DF93EC01462F6E857F85888999894C
:102430000E94EB18882351F08A8920E2829FC00114
:102440001124865F9C4FDF91CF91089590E080E04A
:10245000FACFFB019B01255F3F4F40E241932E17CE
:102460003F07E1F7DC0120E037E09D91492F9923F8
:1024700019F19E3229F43A3059F028E03AE0F5CFCC
:10248000ECE8F0E08491882329F031969813FACF94
:1024900080E017C03217A8F05FED590F5E3588F461
:1024A0008FE9890F8A3110F440EE490FFB01E20FEA
:1024B000F11D40832F5FD9CF81E0FB0190819032E5
:1024C00039F308950F931F93CF93DF93FC01258178
:1024D000222331F080E0DF91CF911F910F91089579
:1024E0008B01EC01FB018789803139F582E08D8316
:1024F0001F8A188E198E1A8E808D918DB0E0A0E003
:1025000025E0880F991FAA1FBB1F2A95D1F78B8B37
:102510009C8BAD8BBE8B1C8F0B8F81E08C831E82BE
:102520001F82188619861A861B861C861D861E86A3
:102530001F86188A198A1A8ACECF803259F683E00C
:102540008D83428D538D648D758D4F8B588F698F20
:102550007A8F9E012D5E3F4FC8010E94CB198111D9
:10256000DACFB8CF2F923F924F925F926F927F92C5
:102570008F929F92AF92BF92CF92DF92EF92FF9293
:102580000F931F93CF93DF93EC015B012A018D81A1
:10259000811115C08FEF9FEFDF91CF911F910F91A8
:1025A000FF90EF90DF90CF90BF90AF909F908F9073
:1025B0007F906F905F904F903F902F9008958C8107
:1025C00080FFE8CF0B891C892D893E894A855B8570
:1025D0006C857D85C201B0E0A0E068017901C41A74
:1025E000D50AE60AF70AC816D906EA06FB0618F461
:1025F0002801441A550A42011E0126E0220E311C10
:102600008114910409F4B3C04A855B856C857D858E
:102610006A0181E0D8228B8D9C8D8A019B01E9E0C3
:102620003695279517950795EA95D1F7ED81E23014
:10263000E1F5FC01628D738D848D958D600F711FA6
:10264000821F931F612C22E0722E6C187D08861465
:10265000970408F434012C8126FD04C06114F2E0D3
:102660007F0671F400910A0110910B0120910C0179
:1026700030910D01061717072807390709F053C0D5
:1026800040E00E94EB18882309F484CFC601865FDE
:102690009C4FD5019C01260D371DFC012E173F07CD
:1026A00009F460C041914D93F9CFFC0174807A9494
:1026B0007022C114D10471F471100CC0452B462B4B
:1026C000472B39F58F89988DA98DBA8D8E839F837D
:1026D000A887B987EB8DFC8D6E817F818885998570
:1026E0006250710981099109258504C0660F771F21
:1026F000881F991F2A95D2F7068517852089318969
:10270000600F711F821F931F670D711D811D911D29
:1027100099CF4E815F816885798591010E944A1920
:102720008111D8CF37CF750183019601AB01BC0170
:1027300080910803909109030E94DA10882309F41C
:1027400029CFA60CB71C8A859B85AC85BD85860DD7
:10275000971DA11DB11D8A879B87AC87BD878618F1
:1027600097084ECF281B390BA20EB31EECCFC20127
:1027700013CFFF920F931F93CF93DF931F92CDB789
:10278000DEB7FC0125812230C8F08C0142855385DB
:102790006485758585E076956795579547958A9503
:1027A000D1F7F42FFF70FF2E41E050E0BE016F5FC4
:1027B0007F4FC8010E94B212019719F090E080E0AB
:1027C00012C0F80182859385A485B5854F96A11D19
:1027D000B11D82879387A487B587F0E2FF9EC00171
:1027E0001124865F9C4F0F90DF91CF911F910F9125
:1027F000FF9008958F929F92AF92BF92CF92DF92F7
:10280000EF92FF920F931F93CF93DF93EC018D8193
:1028100081110EC080E0DF91CF911F910F91FF9049
:10282000EF90DF90CF90BF90AF909F908F900895E2
:102830000B891C892D893E89041715072607370740
:1028400048F34A015B01823031F48A869B86AC866C
:10285000BD8681E0E0CF81149104A104B10449F464
:102860001E821F82188619861A861B861C861D8664
:10287000F0CF0A851B852C853D85EB8DFC8D8585EC
:1028800090E00996B901A801415051096109710907
:10289000082E04C076956795579547950A94D2F708
:1028A00075016401E1E0CE1AD108E108F10804C025
:1028B000F694E794D794C7948A95D2F7C416D506B0
:1028C000E606F70620F0012B022B032B11F58F896A
:1028D000988DA98DBA8D8E839F83A887B9878E0125
:1028E0000A5F1F4FC114D104E104F10409F4ADCF14
:1028F0004E815F816885798598018B8D9C8D0E94C2
:102900004A1991E0C91AD108E108F1088111EACF0A
:1029100081CFC41AD50AE60AF70AE1CF0F931F93B5
:10292000CF93DF93EC018D818823D9F18C8187FFD0
:1029300032C061E0CE010E9410128C01892B89F116
:102940008D81823048F48B899C89AD89BE89F801DC
:10295000848F958FA68FB78F8F89988DF801938F6D
:10296000828F8F89988DA98DBA8DB58BA48BE091BC
:102970000103F0910203309759F0B8016A5E7F4F6E
:10298000C80148960995F801808D918D938B828BB3
:102990008C818F778C83DF91CF911F910F910C9455
:1029A000B01880E0DF91CF911F910F910895CF93E0
:1029B000DF93EC010E948E14882311F01D8281E0C8
:1029C000DF91CF9108954F925F926F927F928F9295
:1029D0009F92AF92BF92EF92FF920F931F93CF936C
:1029E000DF9300D000D0CDB7DEB7FC018581813008
:1029F000A1F080E00F900F900F900F90DF91CF919A
:102A00001F910F91FF90EF90BF90AF909F908F908C
:102A10007F906F905F904F900895848181FFE9CF00
:102A200083899489A589B68984179507A607B7076E
:102A300000F3892B8A2B8B2B09F477C04A015B01A9
:102A40007F014284538464847584CF010E94FA1309
:102A5000882379F2F701838D948D81149104A10468
:102A6000B10449F54789508D618D728D0E94E31B39
:102A7000882309F4BECFF701178A108E118E128EAB
:102A8000F701838A948AA58AB68A848180688483C0
:102A9000C7010E948E14882309F4ABCFB501A401AD
:102AA000441655066606770610F4B301A201C70165
:102AB0000E94FA139FCF46815781608571859E01E0
:102AC0002F5F3F4F0E944A19882309F492CFF701E4
:102AD000838D948D49815A816B817C81FC0127898A
:102AE0002031F1F408EF1FEF20E030E040175107EC
:102AF0006207730728F60E94E31B882309F479CF45
:102B0000F70146815781608571850FEF1FEF2FEF29
:102B10003FE0838D948D0E94361A8111B1CF69CF29
:102B200008EF1FEF2FEF3FE0E1CF81E063CFCF92BF
:102B3000DF92EF92FF921F93CF93DF93EC0180E23D
:102B4000689FF0011124E65FFC4F9385917161F05D
:102B5000842F827449F080E0DF91CF911F91FF9024
:102B6000EF90DF90CF900895142F6A8B80910A0127
:102B700090910B01A0910C01B0910D018E879F8760
:102B8000A88BB98BC488D588F12CE12C7601DD2483
:102B9000CC24CF8AD88EE98EFA8E828D938DB0E0C8
:102BA000A0E0AC01BD014C295D296E297F294F8B26
:102BB000588F698F7A8F8385887129F5848D958DDB
:102BC000A68DB78D8B8B9C8BAD8BBE8B81E08D835F
:102BD000812F8F708C831E821F82188619861A8619
:102BE0001B861C861D8681E016FFB6CF40E050E0B4
:102BF000BA01CE01DF91CF911F91FF90EF90DF904E
:102C0000CF900C94E314803109F0A5CF9E012D5E86
:102C10003F4F8B8D9C8D0E94CB19882309F49BCF4D
:102C200084E0D5CFBF92CF92DF92EF92FF920F93C5
:102C30001F93CF93DF93CDB7DEB72B970FB6F894E2
:102C4000DEBF0FBECDBFFC01358131110BC0C22EDE
:102C50008B017C01BE016F5F7F4FCA010E94291268
:102C6000811102C080E0A1C0F801838D948DF7012D
:102C7000948F838FF8011682178210861186128630
:102C8000138614861586B12CF80182859385A48558
:102C9000B585438954896589768984179507A60780
:102CA000B70788F525E0B695A795979587952A9556
:102CB000D1F7F82FFF70DF2EC8010E94B9130097DB
:102CC00089F2FC012081222341F0253E09F059C000
:102CD000BB2029F0BB24B394D7CFB1100EC0F701AD
:102CE000D28A40910A0150910B0160910C017091C0
:102CF0000D0146875787608B718BFC0180818111A4
:102D0000E9CFBB24B3948C2D8271823109F0AACF14
:102D1000BB2009F45AC061E0C7010E9410128C0167
:102D2000892B09F49FCF80E2F80111928A95E9F787
:102D30008BE0FE013196D80101900D928A95E1F762
:102D4000E0910103F0910203309709F44EC0B801FD
:102D5000625F7F4FC80140960995F801808991898B
:102D6000938B828B918F808F86859785978B868BAF
:102D70000E94B018882309F475CF4C2DF7016289A1
:102D800011C04BE050E0BC01CE0101960E94DE254F
:102D9000892B09F079CF8C2D80734C2D6D2D8033CC
:102DA00009F460CFC7010E9497152B960FB6F894CF
:102DB000DEBF0FBECDBFDF91CF911F910F91FF906E
:102DC000EF90DF90CF90BF900895F8018581823019
:102DD00009F448CFC8010E94A611882309F442CF04
:102DE000F701128A0AE013E09ECF81E298E2F8012F
:102DF000918B808B80E098E097878687AECF2F926B
:102E00003F924F925F926F927F928F929F92AF927A
:102E1000BF92CF92DF92EF92FF920F931F93CF93C7
:102E2000DF9300D000D0CDB7DEB78C016B011A0163
:102E3000DC0115968C911597813009F0C8C0149665
:102E40008C9181FFC4C082FDAEC04101D8011A96A9
:102E50004D915D916D917C911D978114910409F4C0
:102E600029C15B968D919C915C97FC0174802FEF3A
:102E7000270D2A013B0139E07694679457944794D3
:102E80003A95D1F7722E74207A01F1E0FF22711089
:102E900020C0E114F104E9F416964D915D916D9115
:102EA0007C911997411551056105710509F098C08C
:102EB00057968D919D910D90BC91A02D0097A105E5
:102EC000B10509F0AFC0C8010E947F11882309F441
:102ED0007EC080E092E08E199F0954018815990503
:102EE00008F45C01D8015B964D915C915C97169655
:102EF0008D919D910D90BC91A02D0297A109B109D2
:102F0000FA01258504C0880F991FAA1FBB1F2A95A7
:102F1000D2F74685578560897189840F951FA61F52
:102F2000B71F9C01AD01270D311D411D511D290108
:102F30003A01A11432E0B30609F07AC080910A0187
:102F400090910B01A0910C01B0910D018415950594
:102F5000A605B70559F48FEF9FEFDC0180930A01B6
:102F600090930B01A0930C01B0930D019601B30156
:102F7000A20180910803909109030E942A118823DD
:102F800031F19EEFD91A8A189B08F8018285938542
:102F9000A485B5858A0D9B1DA11DB11D82879387D0
:102FA000A487B58753CFF801438954896589768909
:102FB00082859385A485B585481759076A077B07DD
:102FC00009F443CFC8010E94FA1381113ECF81E07A
:102FD00090E0D80113969C938E93129780E007C0DF
:102FE0009E012F5F3F4F0E944A19811102C090E05D
:102FF0007BC089819A81AB81BC81F801238D348D9E
:10300000F901278948EF5FEF60E070E0203121F09F
:1030100048EF5FEF6FEF7FE084179507A607B707CC
:1030200008F051CFF80186839783A087B18751CFED
:10303000E114F10491F5D8011A964D915D916D91CD
:103040007C911D9753968D919D910D90BC91A02DD3
:10305000481759076A077B0700F10E94B0188823B8
:1030600009F4B5CF40920A0150920B0160920C0115
:1030700070920D018091070381608093070397018F
:10308000265F3C4FD601C9018A0D9B1DF9018E17A1
:103090009F0759F04D914193FACF41E0C301B2012E
:1030A0000E94EB188111EBCF92CF821B930BC80EBD
:1030B000D91E69CF14968C9114975396CD90DD90BC
:1030C000ED90FC905697C416D506E606F70618F55F
:1030D000F801438B548B658B768B80688483F80171
:1030E000848183FD25C0C1010F900F900F900F9038
:1030F000DF91CF911F910F91FF90EF90DF90CF90D4
:10310000BF90AF909F908F907F906F905F904F9007
:103110003F902F9008952091010330910203232BBB
:10312000F1F221143104D9F2806814968C93D7CF30
:10313000C8010E948E14882309F449CFD4CFCF93BD
:10314000DF931F92CDB7DEB7698341E050E0BE0147
:103150006F5F7F4F0E94FF160F90DF91CF91089510
:10316000809107038823A9F140910A0150910B0136
:1031700060910C0170910D012AE033E08091080309
:10318000909109030E942A11811102C080E00895E4
:10319000409103035091040360910503709106036D
:1031A000411551056105710591F02AE033E08091E8
:1031B0000803909109030E942A11882339F3109281
:1031C0000303109204031092050310920603109259
:1031D000070381E00895CF92DF92EF92FF92CF93A1
:1031E0006B017C01C42F80910A0190910B01A09189
:1031F0000C01B0910D018C159D05AE05BF05F9F0D0
:103200000E94B018811107C080E0CF91FF90EF902D
:10321000DF90CF9008952AE033E0B701A6018091B6
:103220000803909109030E94EA10882369F3C09271
:103230000A01D0920B01E0920C01F0920D01409135
:1032400007034C2B4093070381E0DFCFCF92DF923F
:10325000EF92FF926B017C010E94B0188823A9F0C5
:10326000EAE0F3E0119285E0EA30F807D9F7C0927E
:103270000A01D0920B01E0920C01F0920D018091B5
:10328000070381608093070381E0FF90EF90DF9058
:10329000CF9008958F929F92AF92BF92CF92DF927C
:1032A000EF92FF920F931F93CF93DF93FC018185E1
:1032B0009285A385B4850196A11DB11D841795073C
:1032C000A607B70770F480E0DF91CF911F910F91AF
:1032D000FF90EF90DF90CF90BF90AF909F908F9036
:1032E000089583889488A588B6888789803189F570
:1032F000BB27A72F962F852FE9016A017B018F013C
:10330000BC01CD01680D791D8A1D9B1D80900A01AD
:1033100090900B01A0900C01B0900D0186169706BD
:10332000A806B90601F5F8018789803111F5DD2479
:10333000EE24FF24F601EE0FFF1FE65FFC4F8081B5
:103340009181B0E0A0E088839983AA83BB8381E068
:10335000BBCFDB01CA01C7E0B695A79597958795C6
:10336000CA95D1F7C9CF40E00E94EB188111DBCF9D
:10337000AACFE894C7F8DD24EE24FF24F601EE0F6F
:10338000FF1FEE0FFF1FE65FFC4F80819181A2813E
:10339000B381BF70D8CF4F925F926F927F92AF92FE
:1033A000BF92CF92DF92EF92FF920F931F93CF9332
:1033B000DF9300D000D0CDB7DEB78C0149835A83AC
:1033C0006B837C835901C12CD12C7601412C82E086
:1033D000582E612C712C49815A816B817C819E0110
:1033E0002F5F3F4FC8010E944A19882339F1F80125
:1033F0008585A301920104C0220F331F441F551F6E
:103400008A95D2F7DA01C901C80ED91EEA1EFB1E41
:1034100049815A816B817C818789803111F188EFE4
:103420009FEFAFEFBFE0481759076A077B0798F295
:10343000F501C082D182E282F38281E00F900F9089
:103440000F900F90DF91CF911F910F91FF90EF9010
:10345000DF90CF90BF90AF907F906F905F904F9034
:10346000089588EF9FEFA0E0B0E0DDCF4F925F922C
:103470006F927F928F929F92AF92BF92CF92DF9284
:10348000EF92FF920F931F93CF93DF93EC014230A3
:1034900051056105710590F480E0DF91CF911F9196
:1034A0000F91FF90EF90DF90CF90BF90AF909F90E3
:1034B0008F907F906F905F904F90089589859A8547
:1034C000AB85BC850196A11DB11D84179507A60784
:1034D000B70710F3CB88DC88ED88FE888F898031B0
:1034E00009F042C0BB27A72F962F852F480159010D
:1034F0002A013B01C80ED91EEA1EFB1E80910A015B
:1035000090910B01A0910C01B0910D01C816D90644
:10351000EA06FB0699F58F898031C1F5B301A20156
:10352000552766277727440F551F465F5C4FFA01E2
:1035300091828082809107038160809307038A894A
:10354000823080F08D819E81AF81B8858C0D9D1D6C
:10355000AE1DBF1D8093030390930403A093050346
:10356000B093060381E099CFDB01CA01E7E0B6958D
:10357000A79597958795EA95D1F7B8CF40E0C70111
:10358000B6010E94EB188111C6CF86CFB301A2010C
:103590004F77552766277727440F551F440F551F30
:1035A000465F5C4FFA0180829182A282B382C2CFD1
:1035B0002F923F924F925F926F927F928F929F9243
:1035C000AF92BF92CF92DF92EF92FF920F931F9331
:1035D000CF93DF93CDB7DEB72F970FB6F894DEBF4A
:1035E0000FBECDBF3C01488759876A877B873F83E1
:1035F0002E83D901CD90DD90ED90FC90C114D104C3
:10360000E104F10439F0BFEFCB1ADB0AEB0AFB0A45
:103610001D8210C0FC01C080D180E280F380F1E007
:10362000FD83088519852A853B8501301105210513
:10363000310571F7F30181859285A385B4858C01ED
:103640009D010F5F1F4F2F4F3F4F0C871D872E8708
:103650003F8746015701212C312C2101F30181853F
:103660009285A385B485281639064A065B0608F0BC
:1036700044C00C851D852E853F85081519052A0532
:103680003B0550F482E0882E912CA12CB12C92E0C5
:10369000C92ED12CE12CF12C9E012F5F3F4FB5019B
:1036A000A401C3010E944A19882339F1D501C4013C
:1036B0000196A11DB11D49815A816B817C81452BE9
:1036C000462B472BA9F5AC01BD014C195D096E09CC
:1036D0007F09088519852A853B85401751076207B0
:1036E000730741F50FEF1FEF2FEF3FE0B501A40186
:1036F000C3010E94361A811125C01D828D812F962B
:103700000FB6F894DEBF0FBECDBFDF91CF911F91F2
:103710000F91FF90EF90DF90CF90BF90AF909F9070
:103720008F907F906F905F904F903F902F90089573
:103730006C017D011FEF211A310A410A510A4C0127
:103740005D018CCFC814D904EA04FB0488F4140189
:10375000250121E0221A3108410851089501840110
:10376000B201A101C3010E94361A52014101C3CF27
:10377000AE81BF814D915D916D917C914115510557
:103780006105710561F4EE81FF81C082D182E28220
:10379000F382FD81F1110BC001E00D83AFCF9701E2
:1037A0008601C3010E94361A8111EDCFA6CF1FEF0B
:1037B000C11AD10AE10AF10AD301CD92DD92ED924C
:1037C000FC9213979BCFAF92BF92CF92DF92EF9272
:1037D000FF920F931F93CF93DF9300D000D0CDB70C
:1037E000DEB75C016A017B0182E090E0A0E0B0E01E
:1037F000F50180839183A283B3839E012F5F3F4FA6
:10380000B701A601C5010E944A19882381F100E091
:1038100010E09801B701A601C5010E94361A88235D
:1038200031F1C980DA80EB80FC80F5018789803135
:10383000C9F088EF9FEFAFEFBFE0C816D906EA06E0
:10384000FB06D8F281E00F900F900F900F90DF9160
:10385000CF911F910F91FF90EF90DF90CF90BF908D
:10386000AF90089588EF9FEFA0E0B0E0E6CF80E052
:10387000EACF8F929F92AF92BF92CF92DF92EF9258
:10388000FF920F931F93CF93DF93EC01142F70934C
:10389000090360930803442309F478C0453070F0AD
:1038A00080E0DF91CF911F910F91FF90EF90DF901B
:1038B000CF90BF90AF909F908F90089540E060E0D0
:1038C00070E0CB010E94EB18882351F3812F8150C7
:1038D000990BAC0164E0440F551F6A95E1F7465F10
:1038E0005C4FFA01E254FE4F80818F77C9F63C9617
:1038F00080819181A281B38184369105A105B105B2
:1039000078F24A535E4FFA01C080D180E280F380A2
:10391000C114D104E104F10419F240E0C701B60179
:103920000E94EB18882309F4BBCF80911503909176
:1039300016038115924009F0B3CF90911A03992391
:1039400009F4AECF2091180330911903232B09F409
:10395000A7CF80911703882309F4A2CF9A8B8C8379
:103960001D8690E041E050E02D85E22FBA01022E45
:1039700002C0660F771F0A94E2F78617970751F087
:1039800031E0320F3D87283078F38ACFC12CD12C1B
:103990007601C3CF209120033091210350E040E015
:1039A0002115310541F420912E0330912F034091D0
:1039B0003003509131032D833E834F83588780918C
:1039C00018039091190346015701880E991EA11CF6
:1039D000B11C8B8A9C8AAD8ABE8A00911B03109110
:1039E0001C03198F088FA0911A03B0E00E94BE2318
:1039F000DC01CB01880D991DAA1DBB1D8A8F9B8FF1
:103A0000AC8FBD8F25E0000F111F2A95E1F7015003
:103A10001E4F012F11270695800F911FA11DB11D6B
:103A20008E879F87A88BB98B00911D0310911E0371
:103A300030E020E00115110541F400912A031091B6
:103A40002B0320912C0330912D03C81AD90AEA0ABE
:103A5000FB0AC00ED11EE21EF31E04C0F694E794CA
:103A6000D794C794EA95D2F7C986DA86EB86FC86A6
:103A70008CE025EFC2162FE0D206E104F10440F0FD
:103A800085EFC8168FEFD806E104F10420F480E139
:103A90008F8B81E006CF8091360390913703A09100
:103AA0003803B09139038A8F9B8FAC8FBD8F80E232
:103AB000EFCFCF93CFB7F89480910D05811127C038
:103AC000E0EEF0E08491E0ECF0E09491E82FF0E09B
:103AD000EE0FFF1FEA5FFE4FA591B491EC91E92331
:103AE00021F461E084E00E94642361E084E00E94AC
:103AF00028238CB580618CBD8CB580648CBD61E061
:103B000087E00E94282361E085E00E9428238091BD
:103B10000D058F5F80930D05CFBFCF910895FC01F8
:103B2000918D228D892F90E0805C9F4F821B91099F
:103B30008F7399270895FC01918D828D981731F02C
:103B4000828DE80FF11D858D90E008958FEF9FEF36
:103B50000895FC01918D828D981761F0A28DAE0FB2
:103B6000BF2FB11D5D968C91928D9F5F9F73928F39
:103B700090E008958FEF9FEF0895FC01538D448DE1
:103B8000252F30E0842F90E0821B930B541710F008
:103B9000CF9608950197089588E29FE1892B49F017
:103BA00080E090E0892B29F00E94281F81110E945B
:103BB000000080E090E0892B49F080E090E0892BC4
:103BC00029F00E94000081110C9400000895FC016E
:103BD000A48DA80FB92FB11DA35ABF4F2C91848D6E
:103BE00090E001968F739927848FA689B7892C93CB
:103BF000A089B1898C91837080648C93938D848D1E
:103C0000981306C00288F389E02D80818F7D808320
:103C10000895CF93DF93EC01888D8823B9F0AA89AA
:103C2000BB89E889F9898C9185FD03C0808186FD77
:103C30000DC00FB607FCF7CF8C9185FFF2CF8081C6
:103C400085FFEDCFCE010E94E71DE9CFDF91CF9137
:103C50000895EF92FF920F931F93CF93DF93EC01A0
:103C600081E0888F9B8D8C8D98131AC0E889F98923
:103C7000808185FF15C09FB7F894EE89FF89608326
:103C8000E889F98980818370806480839FBF81E0A7
:103C900090E0DF91CF911F910F91FF90EF900895E9
:103CA000F62E0B8D10E00F5F1F4F0F731127E02EC4
:103CB0008C8D8E110CC00FB607FCFACFE889F989FC
:103CC000808185FFF5CFCE010E94E71DF1CFEB8DFE
:103CD000EC0FFD2FF11DE35AFF4FF0829FB7F894D0
:103CE0000B8FEA89FB8980818062CFCFCF92DF92F0
:103CF000EF92FF921F93CF93DF93EC016A017B0158
:103D0000122F60E874E88EE190E0A70196010E940E
:103D1000932321503109410951095695479537950B
:103D20002795E889F98982E08083211580E13807A9
:103D300098F0E889F989108260E472E48FE090E0FD
:103D4000A70196010E94932321503109410951098D
:103D50005695479537952795EC85FD853083EE85FB
:103D6000FF852083188EEC89FD891083EA89FB8901
:103D7000808188698083EA89FB8980818F7D808347
:103D8000DF91CF911F91FF90EF90DF90CF9008953A
:103D90001F920F920FB60F9211240BB60F922F9312
:103DA0008F939F93EF93FF93E0911E05F0911F0572
:103DB0008081E0912405F091250582FD1DC0908150
:103DC000809127058F5F8F7320912805821741F01E
:103DD000E0912705F0E0E25FFA4F958F8093270589
:103DE000FF91EF919F918F912F910F900BBE0F90AC
:103DF0000FBE0F901F9018958081F2CF1F920F92E7
:103E00000FB60F9211240BB60F922F933F934F933F
:103E10005F936F937F938F939F93AF93BF93EF9332
:103E2000FF938EE095E00E94E71DFF91EF91BF9117
:103E3000AF919F918F917F916F915F914F913F9142
:103E40002F910F900BBE0F900FBE0F901F901895E3
:103E50008EE095E00E948F1D21E0892B09F420E07F
:103E6000822F0895EEE0F5E01382128288EE93E04F
:103E7000A0E0B0E084839583A683B7838FED91E0C3
:103E80009183808385EC90E09587848784EC90E033
:103E90009787868780EC90E0918B808B81EC90E017
:103EA000938B828B82EC90E0958B848B86EC90E0F8
:103EB000978B868B118E128E138E148E0895AF926F
:103EC000BF92CF92DF92EF92FF920F931F93CF9307
:103ED000DF936C017B018B01040F151FEB015E0169
:103EE000AE18BF08C017D10759F06991D601ED91FE
:103EF000FC910190F081E02DC6010995892B79F79D
:103F0000C501DF91CF911F910F91FF90EF90DF904E
:103F1000CF90BF90AF900895FB0101900020E9F78A
:103F20003197AF01461B570BDC01ED91FC910280EC
:103F3000F381E02D0994DB0114964D915C91159766
:103F40006D917C91DC01ED91FC910280F381E02D7B
:103F500009946115710511F00C948C1F90E080E0BC
:103F600008956DEE71E00C948C1F0F931F93CF9307
:103F7000DF93EC010E949B1F8C01CE010E94B11FB8
:103F8000800F911FDF91CF911F910F9108950F9393
:103F90001F93CF93DF938C01D0E0C0E061157105D2
:103FA00019F00E948C1FEC01C8010E94B11F8C0FF8
:103FB0009D1FDF91CF911F910F9108958F929F9236
:103FC000AF92BF92EF92FF920F931F93CF93DF9325
:103FD000CDB7DEB7A1970FB6F894DEBF0FBECDBF49
:103FE0007C01FA01CB0119A2223008F42AE08E01EB
:103FF0000F5D1F4F822E912CB12CA12CBF01A5016A
:1040000094010E949323F901CA016A300CF5605DA6
:10401000D8016E938D01232B242B252B79F790E06B
:1040200080E0109721F0BD01C7010E948C1FA1966E
:104030000FB6F894DEBF0FBECDBFDF91CF911F91B9
:104040000F91FF90EF90BF90AF909F908F90089549
:10405000695CDECF2115310541F4DC01ED91FC9165
:104060000190F081E02D642F09940C94DE1F0F93D2
:104070001F93CF93DF93EC010E942A208C01CE0185
:104080000E94B11F800F911FDF91CF911F910F915F
:104090000895FC0180819181009711F00C947424A3
:1040A0000895CF93DF93EC0188819981009711F0F7
:1040B0000E947424198218821D821C821B821A821B
:1040C000DF91CF9108950F931F93CF93DF93EC016E
:1040D0008B016F5F7F4F888199810E94FD2400973B
:1040E00051F0998388831B830A8381E0DF91CF910C
:1040F0001F910F91089580E0F9CFCF93DF93EC01EA
:1041000088819981892B49F08A819B81861797073D
:1041100020F081E0DF91CF910895CE010E946320CD
:104120008823C1F38C819D81892B99F7E881F981DE
:104130001082EFCFEF92FF920F931F93CF93DF93F5
:10414000EC017B018A01BA010E947D2081110BC024
:10415000CE010E945120CE01DF91CF911F910F918E
:10416000FF90EF9008951D830C83B701888199819A
:104170000E94FF25F0CFFC0111821082138212826F
:10418000158214826115710551F0FB010190002028
:10419000E9F73197AF01461B570B0C949A2008950D
:1041A000FB0101900020E9F73197AF01461B570B47
:1041B0000C949A200F931F93CF93DF93CDB7DEB764
:1041C00029970FB6F894DEBF0FBECDBF8C01862FA6
:1041D000F80111821082138212821582148250E03B
:1041E000BE016F5F7F4F90E00E944226BE016F5F6D
:1041F0007F4FC8010E94D02029960FB6F894DEBFE9
:104200000FBECDBFDF91CF911F910F9108950F93F6
:104210001F93CF93DF93CDB7DEB761970FB6F894B6
:10422000DEBF0FBECDBF8C01CB01F8011182108221
:10423000138212821582148250E0BE016F5F7F4F9D
:104240000E944226BE016F5F7F4FC8010E94D020AE
:1042500061960FB6F894DEBF0FBECDBFDF91CF9150
:104260001F910F9108950F931F93CF93DF93CDB7B5
:10427000DEB7A1970FB6F894DEBF0FBECDBF8C019D
:10428000CB01BA01F80111821082138212821582C9
:10429000148230E0AE014F5F5F4F0E941526BE01D1
:1042A0006F5F7F4FC8010E94D020A1960FB6F8948F
:1042B000DEBF0FBECDBFDF91CF911F910F9108954B
:1042C000CF93DF93EC01FB018617970749F06081DC
:1042D00071816115710541F0448155810E949A20D8
:1042E000CE01DF91CF9108950E945120F9CFFC01BA
:1042F0001182108213821282158214820C94602122
:10430000EF92FF920F931F93CF93DF936115710587
:1043100041F480E0DF91CF911F910F91FF90EF90DA
:10432000089541155105B1F07B01EC010C811D810F
:10433000040F151FB8010E947D20882351F32881A6
:1043400039818C819D81B701820F931F0E94FF25C7
:104350001D830C8381E0DECFFB01448155816081A8
:1043600071810C9480216115710551F0FB01019060
:104370000020E9F73197AF01461B570B0C948021C1
:1043800080E00895CF93DF93EC01FB0144815581D8
:10439000608171810E948021811103C0CE010E9441
:1043A0005120CE01DF91CF910895CF93DF93EC019F
:1043B0006115710539F4CE010E945120CE01DF91C3
:1043C000CF910895FB0101900020E9F73197AF01EB
:1043D000461B570B0E948021882369F3EFCF089575
:1043E0000E94BE220E94EF210E94E803CCECDDE196
:1043F0000E94AC012097E1F30E94CC1DF9CF1F92DF
:104400000F920FB60F9211242F933F938F939F9388
:10441000AF93BF938091B0059091B105A091B20583
:10442000B091B3053091AF0526E0230F2D3768F129
:1044300029E8230F0396A11DB11D2093AF0580939A
:10444000B0059093B105A093B205B093B3058091E8
:10445000AB059091AC05A091AD05B091AE0501966C
:10446000A11DB11D8093AB059093AC05A093AD0544
:10447000B093AE05BF91AF919F918F913F912F91D6
:104480000F900FBE0F901F9018950296A11DB11DA1
:10449000D4CF2FB7F8946091B0057091B105809199
:1044A000B2059091B3052FBF08953FB7F89480915E
:1044B000AB059091AC05A091AD05B091AE0526B5C8
:1044C000A89B05C02F3F19F00196A11DB11D3FBF4C
:1044D000BA2FA92F982F8827BC01CD01620F711D1B
:1044E000811D911D43E0660F771F881F991F4A9514
:1044F000D1F708958F929F92AF92BF92CF92DF92A1
:10450000EF92FF926B017C010E9455224B015C01EE
:10451000C114D104E104F104E9F00E9492230E9445
:104520005522681979098A099B09683E73408105FB
:10453000910570F321E0C21AD108E108F10888EE74
:10454000880E83E0981EA11CB11CC114D104E104A3
:10455000F10429F7FF90EF90DF90CF90BF90AF90DC
:104560009F908F900895000000008330910528F0FF
:10457000880F991F05970197F1F70895789484B5EE
:10458000836084BD85B5836085BDEEE6F0E0808103
:1045900081608083E1E8F0E082E080838081816057
:1045A0008083E0E8F0E0808181608083E1EBF0E0EF
:1045B000808184608083E0EBF0E080818160808393
:1045C000E1E9F0E0808183608083E0E9F0E08081D0
:1045D0008160808386E880937A001092C1000895FC
:1045E00082508A3088F5E82FF0E0E750FD4D0C94BA
:1045F000B5232123252303230923242324230D2347
:10460000132317231D23809180008F7780938000D0
:104610000895809180008F7DF9CF8091B0008F77D1
:104620008093B00008958091B0008F7DF9CF809184
:1046300090008F77809390000895809190008F7DF7
:10464000F9CF84B58F7784BD089584B58F7DFBCF76
:10465000CF93DF9390E0FC01E454FF4F2491845208
:104660009F4FFC0184918823C9F090E0880F991F27
:10467000FC01EA5FFE4FA591B491FC01E450FF4FAD
:10468000C591D49161110DC09FB7F8948C9120957C
:1046900082238C938881282328839FBFDF91CF9129
:1046A0000895623051F49FB7F8943C91822F809521
:1046B00083238C93E8812E2BEFCF8FB7F894EC9166
:1046C0002E2B2C938FBFEACF1F93CF93DF93282FEE
:1046D00030E0F901E456FF4F8491F901E454FF4FB3
:1046E000D491F901E452FF4FC491CC23A9F0162FC5
:1046F00081110E94F022EC2FF0E0EE0FFF1FE4503A
:10470000FF4FA591B4918FB7F894EC91111108C0A7
:10471000D095DE23DC938FBFDF91CF911F91089559
:10472000DE2BF8CF0895A1E21A2EAA1BBB1BFD01B8
:104730000DC0AA1FBB1FEE1FFF1FA217B307E40780
:10474000F50720F0A21BB30BE40BF50B661F771FD8
:10475000881F991F1A9469F76095709580959095B8
:104760009B01AC01BD01CF010895EE0FFF1F002496
:10477000001C0BBE0790F691E02D09940E94C923FE
:10478000A59F900DB49F900DA49F800D911D1124A5
:104790000895A29FB001B39FC001A39F700D811D1A
:1047A0001124911DB29F700D811D1124911D08953A
:1047B0000F931F93CF93DF938230910510F482E023
:1047C00090E0E091B605F091B70530E020E0B0E070
:1047D000A0E0309799F42115310509F44AC0281B4F
:1047E000390B24303105D8F58A819B81611571051B
:1047F00089F1FB0193838283FE0111C040815181C5
:104800000281138148175907E0F04817590799F4B6
:10481000109761F012960C93129713961C93329690
:10482000CF01DF91CF911F910F9108950093B605AD
:104830001093B705F4CF2115310551F042175307F6
:1048400038F0A901DB019A01BD01DF01F801C1CFF8
:10485000EF01F9CF9093B7058093B605CDCFFE0158
:10486000E20FF31F819391932250310939832883FA
:10487000D7CF2091B4053091B505232B41F4209179
:104880000201309103013093B5052093B4052091C6
:104890000001309101012115310541F42DB73EB7DA
:1048A0004091040150910501241B350BE091B405A2
:1048B000F091B505E217F307A0F42E1B3F0B281764
:1048C000390778F0AC014E5F5F4F2417350748F089
:1048D0004E0F5F1F5093B5054093B405819391939C
:1048E0009FCFF0E0E0E09CCFCF93DF930097E9F01B
:1048F000FC01329713821282A091B605B091B705E0
:10490000ED0130E020E01097A1F420813181820F89
:10491000931F2091B4053091B5052817390709F088
:1049200061C0F093B505E093B405DF91CF91089590
:10493000EA01CE17DF07E8F54A815B819E01411548
:104940005105B1F7E901FB83EA8349915991C40FFD
:10495000D51FEC17FD0761F4808191810296840FC9
:10496000951FE90199838883828193819B838A8340
:10497000F0E0E0E012968D919C9113970097B9F5C5
:104980002D913C911197CD010296820F931F20919A
:10499000B4053091B5052817390739F6309751F528
:1049A0001092B7051092B605B093B505A093B40563
:1049B000BCCFD383C28340815181840F951FC81718
:1049C000D90761F44E5F5F4F88819981480F591F65
:1049D000518340838A819B81938382832115310592
:1049E00009F0B0CFF093B705E093B6059ECFFD0177
:1049F000DC01C0CF13821282D7CF4F925F926F92A9
:104A00007F928F929F92AF92BF92CF92DF92EF925E
:104A1000FF920F931F93CF93DF938C01009799F42C
:104A2000CB01DF91CF911F910F91FF90EF90DF901D
:104A3000CF90BF90AF909F908F907F906F905F903E
:104A40004F900C94D823FC01E60FF71F9C012250D5
:104A50003109E217F30708F4AEC0D901CD91DC911A
:104A60001197C617D70720F1C530D10578F0CE01D0
:104A700004978617970750F0C61BD70B2297C19350
:104A8000D1936D937C93CF010E947424C801DF9170
:104A9000CF911F910F91FF90EF90DF90CF90BF903B
:104AA000AF909F908F907F906F905F904F90089500
:104AB0005B01AC1ABD0A4C018C0E9D1EA091B6057F
:104AC000B091B705512C412CF12CE12C109731F508
:104AD0008091B4059091B5058815990509F05CC0E1
:104AE0004616570608F058C08091000190910101C8
:104AF000009741F48DB79EB7409104015091050194
:104B0000841B950BE817F90708F055C0F093B5051D
:104B1000E093B405F90171836083B8CF8D919C91C6
:104B2000119712966C90129713967C901397A81574
:104B3000B90559F56C0142E0C40ED11CCA14DB045E
:104B400020F1AC014A195B09DA011296159780F041
:104B50006282738251834083D9016D937C93E11407
:104B6000F10471F0D7011396FC93EE9312978ECF58
:104B700022968C0F9D1FF90191838083F301EFCF63
:104B8000F093B705E093B60581CF4816590608F4AF
:104B90002C017D01D3019ACFCB010E94D8237C0147
:104BA000009749F0AE01B8010E94EB25C8010E94B0
:104BB000742487016BCF10E000E068CFFB01DC01BB
:104BC00004C08D910190801921F441505040C8F7E4
:104BD000881B990B0895FB01DC0102C001900D9226
:104BE00041505040D8F70895FC018191861721F07B
:104BF0008823D9F7992708953197CF010895FB01AC
:104C0000DC0101900D920020E1F70895FB01DC0129
:104C10004150504048F001900D920020C9F701C06A
:104C20001D9241505040E0F708952532310520F49F
:104C3000223010F00C942026FA011082CA01089547
:104C4000BB27FA01A62F6217710581059105330B69
:104C500030FB66F0AA27660F771F881F991FAA1FCF
:104C6000A21710F0A21B63953850A9F7A05DAA33D4
:104C700008F0A95DA19336F7B111B1931082CA0172
:104C80000C9467264532510520F4423010F00C9404
:104C90004D26FB011082CB010895BB27FB01552750
:104CA000AA27880F991FAA1FA41710F0A41B839589
:104CB0005051B9F7A05DAA3308F0A95DA193009700
:104CC00079F7B111B1931192CB010C946726DC01F5
:104CD000FC01672F71917723E1F7329704C07C9133
:104CE0006D9370836291AE17BF07C8F3089510E00B
:104CF000CDE8D0E004C0FE010E94B5232196CE3855
:084D0000D107C9F7F894FFCFB9
:104D08000000B805800003010001FFFFFFFF4C32DF
:104D180034345F006533326261623561613964360B
:104D2800363030356532313961396331653239367B
:104D38006463393961363235306464312C43495FF4
:104D4800616374696F6E0024484953542C002353DF
:104D58004420696E69742066616C7365002353444E
:104D68002066616C7365002E747874002346696C44
:104D7800656E616D652C00234376616B2E2E2E00C7
:104D880023486D6D6D2E2E2E0024444F532C4C411C
:104D980042444F533031412C003037003000234615
:104DA800696C6573697A652C00000000006E079DC8
:104DB8000741076D0744074B075E070000000074B2
:104DC8000A8A0A4107A70A5A0BC60AD00A2F000006
:104DD8000000009F185F1F41077E11000000002996
:104DE8001E5F1FBD1D091E8F1DA91D9B1D0D0A00DD
:00000001FF
