:020000040000FA
:100000000C9484000C94AE000C94AE000C94AE00E2
:100010000C94AE000C94AE000C94AE000C94AE00A8
:100020000C94AE000C94AE000C94AE000C94AE0098
:100030000C94AE000C94AE000C94AE000C94AE0088
:100040000C94AE000C94AE000C94E0130C94AE0033
:100050000C944C110C9482110C94AE000C94AE00D4
:100060000C94AE000C94AE000C94F00E0C94AE0008
:100070000C94AE000C94AE000C94AE000C94AE0048
:100080000C94AE000C94AE000C94AE000000000284
:1000900003000A0B0000000005040908000000002E
:1000A0000000000000000000000000000102040841
:1000B0001020408001020408102040800102040842
:1000C0001020408001020408102040800202020239
:1000D00002020202040404040404040403030303EC
:1000E00003030303010101010101010100002200DA
:1000F000250028002B0000002100240027002A00F2
:100100000306F60DB6110F0611241FBECFEFD0E483
:10011000DEBFCDBF12E0A0E0B1E0EEEEFFE200E016
:100120000BBF02C007900D92A238B107D9F724E0A7
:10013000A2E8B2E001C01D92A536B207E1F710E0D7
:10014000C3E8D0E004C02197FE010E948A15C038A0
:10015000D107C9F70E94D1130C94EA170C94000040
:10016000FB019081892790E1899F900111248227CA
:1001700090E0382F2227AC0163E0440F551F6A95A9
:10018000E1F724273527418150E02427352774E003
:10019000959587957A95E1F78227932791838083B8
:1001A00008952F923F924F925F926F927F928F921B
:1001B0009F92AF92BF92CF92DF92EF92FF920F93F6
:1001C0001F93CF93DF93CDB7DEB7CA58D1400FB698
:1001D000F894DEBF0FBECDBF1C01CF59DE4F79832F
:1001E0006883C156D140C95BDE4F288339834A8377
:1001F0005B83C754D140DC01CD90DD90ED90FC9045
:10020000DA01C90113E0880F991FAA1FBB1F1A95B5
:10021000D1F78C0D9D1DAE1DBF1DF1018083918313
:10022000A283B3838C159D05AE05BF0558F4848168
:100230009581A681B7810196A11DB11D8483958307
:10024000A683B783A3E0F694E794D794C794AA95BE
:10025000D1F7FFE3CF22DD24EE24FF248101085DE6
:100260001F4FC957DE4F19830883C758D1408E01ED
:100270000F5B1E4FCF5BDE4F19830883C154D14003
:10028000C95BDE4F488059806A807B80C754D1406B
:10029000411451046104710409F49BC480E490E0AA
:1002A000A0E0B0E08C199D09AE09BF0953014201DD
:1002B00084159505A605B70510F44C015D01C957D5
:1002C000DE4F88819981C758D1408C0D9D1DA401B6
:1002D000CF59DE4F68817981C156D1400E94A51760
:1002E000C80CD91CEA1CFB1CCF59DE4F68807980F2
:1002F000C156D140680C791CCF59DE4F7982688293
:10030000C156D140C95BDE4F488059806A807B80EE
:10031000C754D140481859086A087B08C95BDE4FAA
:10032000488259826A827B82C754D14000E4C01659
:10033000D104E104F10409F0A3CFC957DE4F88814D
:100340009981C758D1408E010F5F1E4FF801DC0123
:1003500013962C911397208312962C911297218338
:1003600011962C91119722832C9123830496349615
:10037000CF5BDE4F48805980C154D1404E165F0696
:1003800031F7D1011896CD90DD90ED90FC901B9740
:10039000CD59DE4FC882D982EA82FB82C356D14052
:1003A0001C964D905D906D907C901F97C959DE4FC3
:1003B000488259826A827B82C756D14050964D90BE
:1003C0005D906D907C905397C559DE4F488259825D
:1003D0006A827B82CB56D14054964D905D906D9051
:1003E0007C905797C159DE4F488259826A827B823E
:1003F000CF56D14058964D905D906D907C905B9714
:10040000CD58DE4F488259826A827B82C357D140E1
:100410005C964D905D906D907C905F97C958DE4FD3
:10042000488259826A827B82C757D14090964D900C
:100430005D906D907C909397C558DE4F48825982AD
:100440006A827B82CB57D14094964D905D906D909F
:100450007C909797C158DE4F488259826A827B828E
:10046000CF57D1409E012F5F3F4FCD5ADE4F39838A
:100470002883C355D140C901D8014D915D916D913B
:100480007D918D01DC014D935D936D937D93CD0145
:10049000E017F10789F7CD5ADE4F48805980C355E0
:1004A000D140B0EC4B0E511CCD5ADE4F68807980A4
:1004B000C355D140CD5BDE4F79826882C354D140B1
:1004C000F30180AD91ADA2ADB3AD0481158126815C
:1004D0003781F4E06F0E711C6C017D014FE0CC0C94
:1004E000DD1CEE1CFF1C4A95D1F7AC01BD01E1E11A
:1004F0007695679557954795EA95D1F7C42AD52AF9
:10050000E62AF72AAC01BD01FDE0440F551F661F26
:10051000771FFA95D1F74C015D01E3E1B694A794FA
:1005200097948794EA95D1F7482959296A297B2914
:100530004C255D256E257F25FAE0B695A795979504
:100540008795FA95D1F784279527A627B727CD5BFE
:10055000DE4FE881F981C354D14044A155A166A181
:1005600077A1C080D180E280F3804C0D5D1D6E1DAF
:100570007F1D840F951FA61FB71F6801790147E0F3
:10058000F694E794D794C7944A95D1F7B901A80196
:10059000E9E1440F551F661F771FEA95D1F7C42A7A
:1005A000D52AE62AF72AB901A801FEE0440F551F13
:1005B000661F771FFA95D1F748015901E2E1B69419
:1005C000A79497948794EA95D1F7482959296A29DD
:1005D0007B294C255D256E257F25F3E036952795F3
:1005E00017950795FA95D1F740275127622773276A
:1005F000840F951FA61FB71FF30184AF95AFA6AF59
:10060000B7AF4614570409F055CF0AE511E0C757B4
:10061000DE4F19830883C958D140C159DE4F288164
:1006200039814A815B81CF56D140CD57DE4F288337
:1006300039834A835B83C358D140C559DE4F8881D3
:100640009981AA81BB81CB56D140C15BDE4F8883A3
:100650009983AA83BB83CF54D140C959DE4F4880C8
:1006600059806A807B80C756D140C55BDE4F488287
:1006700059826A827B82CB54D140CD59DE4F48816A
:1006800059816A817B81C356D140C558DE4FC880ED
:10069000D980EA80FB80CB57D140C75ADE4FC88251
:1006A000D982EA82FB82C955D140C958DE4FE88021
:1006B000F9800A811B81C757D140CB5ADE4FE882AF
:1006C000F9820A831B83C555D140C158DE4F08818A
:1006D00019812A813B81CF57D140CD5BDE4F088302
:1006E00019832A833B83C354D140CD58DE4F888180
:1006F0009981AA81BB81C357D140C757DE4FE8819A
:10070000F981C958D140E190F19001911191C757F9
:10071000DE4FF983E883C958D140C35ADE4FE882DF
:10072000F9820A831B83CD55D140CD5ADE4FE88133
:10073000F981C355D14081909190A190B190CD5A4B
:10074000DE4FF983E883C355D1402C013D012AE1F6
:10075000440C551C661C771C2A95D1F78C019D0111
:10076000E6E03695279517950795EA95D1F7402A43
:10077000512A622A732A8C019D01F5E1000F111F95
:10078000221F331FFA95D1F76C017D01EBE0F6943F
:10079000E794D794C794EA95D1F70C291D292E29FF
:1007A0003F2904251525262537252C013D01F9E192
:1007B0007694679457944794FA95D1F76C017D012C
:1007C000E7E0CC0CDD1CEE1CFF1CEA95D1F7C42839
:1007D000D528E628F7280C251D252E253F25C35AA8
:1007E000DE4F488059806A807B80CD55D140840C93
:1007F000951CA61CB71C080D191D2A1D3B1D4C017C
:100800005D0180949094A094B094C75ADE4FC88044
:10081000D980EA80FB80C955D1408C209D20AE2034
:10082000BF20CB5ADE4FC880D980EA80FB80C555F7
:10083000D140C822D922EA22FB228C249D24AE2456
:10084000BF24800E911EA21EB31ECD5BDE4FE8803A
:10085000F9800A811B81C354D1408E0C9F1CA01EBD
:10086000B11ECD57DE4F088119812A813B81C358C3
:10087000D140080D191D2A1D3B1DC35ADE4F0883A8
:1008800019832A833B83CD55D1406A017B01FEE168
:10089000CC0CDD1CEE1CFF1CFA95D1F78A019B01E4
:1008A000E2E03695279517950795EA95D1F7280147
:1008B00039014C285D286E287F288A019B01F3E1CD
:1008C000000F111F221F331FFA95D1F76A017B0118
:1008D000EDE0F694E794D794C794EA95D1F70C2904
:1008E0001D292E293F2904251525262537252A01CE
:1008F0003B01F6E17694679457944794FA95D1F7C3
:100900006A017B01EAE0CC0CDD1CEE1CFF1CEA95C1
:10091000D1F74C285D286E287F2873016201C0261C
:10092000D126E226F326CD5BDE4FC882D982EA8249
:10093000FB82C354D140C55BDE4F088119812A81F7
:100940003B81CB54D140C15BDE4F488059806A80E7
:100950007B80CF54D1400425152526253725042337
:10096000152326233723C55BDE4FC880D980EA8054
:10097000FB80CB54D140C420D520E620F7200C25A5
:100980001D252E253F25CD5BDE4FC880D980EA800E
:10099000FB80C354D1400C0D1D1D2E1D3F1D080DA5
:1009A000191D2A1D3B1DC75ADE4F488059806A8099
:1009B0007B80C955D140CD5BDE4F488259826A8227
:1009C0007B82C354D140C15BDE4FC880D980EA80AE
:1009D000FB80CF54D140CD57DE4FC882D982EA8206
:1009E000FB82C358D140FAE5EF2EF2E0FF2EC75745
:1009F000DE4FE881F981C958D140EE16FF0609F0B3
:100A0000ADC0CD59DE4F488059806A807B80C35687
:100A1000D140040D151D261D371DF10100871187DA
:100A200022873387C959DE4F488059806A807B808E
:100A3000C756D140440D551D661D771D4487558707
:100A400066877787C559DE4F488159816A817B81E6
:100A5000CB56D140C55BDE4F488059806A807B8091
:100A6000CB54D140440D551D661D771D408B518BD5
:100A7000628B738BC159DE4F488159816A817B81BA
:100A8000CF56D140C15BDE4F488059806A807B8061
:100A9000CF54D140440D551D661D771D448B558B99
:100AA000668B778BCD58DE4F488159816A817B8177
:100AB000C357D140C35ADE4F488059806A807B803B
:100AC000CD55D140440D551D661D771D408F518F6A
:100AD000628F738FC958DE4F488059806A807B804F
:100AE000C757D140840D951DA61DB71D848F958FC6
:100AF000A68FB78FC558DE4F88819981AA81BB81A7
:100B0000CB57D140CB5ADE4F488059806A807B80DA
:100B1000C555D140840D951DA61DB71D80A391A379
:100B2000A2A3B3A3C158DE4F88819981AA81BB815A
:100B3000CF57D140C75ADE4F488059806A807B80AA
:100B4000C955D140840D951DA61DB71D84A395A33D
:100B5000A6A3B7A3C12CD12C760192CBC55BDE4FE7
:100B6000488059806A807B80CB54D140C15BDE4F86
:100B7000488259826A827B82CF54D140C55BDE4F66
:100B8000488359836A837B83CB54D140B901A80140
:100B9000CB5ADE4FC880D980EA80FB80C555D14052
:100BA000C75ADE4FC882D982EA82FB82C955D1403A
:100BB000CB5ADE4F88839983AA83BB83C555D14026
:100BC000C35ADE4F88819981AA81BB81CD55D1401E
:100BD00094CDC657DE4F0FB6F894DEBF0FBECDBF23
:100BE000DF91CF911F910F91FF90EF90DF90CF9009
:100BF000BF90AF909F908F907F906F905F904F903D
:100C00003F902F90089569E071E085EF92E00E9497
:100C1000C9126FE071E08FEE92E00C94C9128FEE72
:100C200092E00E945A1285EF92E00C945A12AF9211
:100C3000BF92CF92DF92EF92FF920F931F93CF93C9
:100C4000DF93CDB7DEB7CF5FD2400FB6F894DEBFEB
:100C50000FBECDBFFC0150E0CC5DDE4F5983488311
:100C6000C452D140CA5DDE4F2883C652D140C95D0F
:100C7000DE4F0883C752D140C85DDE4F6883C8523B
:100C8000D140892BC9F580E8E4E2F1E0EC0FFD1FCB
:100C90003596DF011D928A95E9F785E8FE01EC5D46
:100CA000FE4FDE011D9601900D928A95E1F781E8D5
:100CB00091E0A0E08A879B87AC878091B302282FC0
:100CC000227081FD24C0E091B502F091B602F12CB2
:100CD000309719F080818170F82E8DEF8B83FE01A3
:100CE000EE56FF4F85E89291911103C081508130FB
:100CF000D1F73AE0E32E11C090E8A4E2B1E0AC0FE6
:100D0000BD1F159601900D929A95E1F7C6CF8EEF13
:100D10008B8346E0E42EF12C85E88C8391E0988764
:100D20003AE03987F11048C01D821E829091AE02D0
:100D30009F8331E0390F3093AE023B81C451DD4FC8
:100D40003883CC5ED240C351DD4F8883CD5ED24024
:100D50002223A1F1C251DD4F9883CE5ED24081E0C3
:100D6000C151DD4F8883CF5ED2408AE0C051DD4F54
:100D70008883C05FD24081E8CF50DD4F8883C15F58
:100D8000D2408FEF9FEFC45CDD4F99838883CC53B3
:100D9000D2408E0104511D4F6801CE0CD11C0F5F53
:100DA0001F4F0C151D05B9F1BE01645C7D4FF801A4
:100DB00080810E94B000F3CF9D83B7CF8D81C25157
:100DC000DD4F8883CE5ED240C151DD4F1882CF5EA9
:100DD000D240C051DD4F9883C05FD24081E0CF50F8
:100DE000DD4F8883C15FD2409AE0CE50DD4F9883BB
:100DF000C25FD24091E8CD50DD4F9883C35FD240AF
:100E0000CC50DD4F8883C45FD240CB50DD4F188279
:100E1000C55FD240B6CFC45CDD4F88819981CC5389
:100E2000D240C250DD4F99838883CE5FD2400C817F
:100E300010E05E01FDE0AF0EB11C6501015011092B
:100E400048F0BE0162507D4FD5018D915D010E9439
:100E5000B000F4CFBE0162507D4F83E90E94B00024
:100E6000C250DD4F9881CE5FD240C150DD4F8881A6
:100E7000CF5FD240EC81EC0DFD2DF11D9083EC8114
:100E8000EC0FFD2FF11D868799838A83FF2009F4DB
:100E9000A9C10091B5021091B6020115110509F41E
:100EA000A1C1F801808180FF9DC1FC808181C95E64
:100EB000DE4F8883C751D14072816381548145815F
:100EC0003681278190858185CA50DD4F7883C65F42
:100ED000D240C950DD4F6883C75FD240C850DD4F54
:100EE0005883C85FD240C750DD4F4883C95FD240A6
:100EF000C650DD4F3883CA5FD240C550DD4F2883CE
:100F0000CB5FD240C450DD4F9883CC5FD240C350FA
:100F1000DD4F8883CD5FD24086E0FE01EA50FD4F71
:100F2000DE01A85EBE4F01900D928A95E1F7D801CF
:100F300012962C91129713963C91139714964C91FC
:100F4000149715965C91159716966C9116971796AF
:100F50007C91179718968C91189719969C91A1E0FF
:100F60000E949315F801228333834483558366835B
:100F7000778380879187C45CDD4F188219821A823B
:100F80001B82CC53D240C05CDD4F188219821A827A
:100F90001B82C054D24087E696EEA9E0BAE6CC5B4D
:100FA000DD4F88839983AA83BB83C454D24085E8EC
:100FB0009EEAA7E6BBEBC85BDD4F88839983AA83D3
:100FC000BB83C854D24082E793EFAEE6BCE3C45B78
:100FD000DD4F88839983AA83BB83CC54D2408AE3B4
:100FE00095EFAFE4B5EAC05BDD4F88839983AA83B0
:100FF000BB83C055D2408FE792E5AEE0B1E5CC5A55
:10100000DD4F88839983AA83BB83C455D2408CE883
:1010100098E6A5E0BBE9C85ADD4F88839983AA8387
:10102000BB83C855D2408BEA99EDA3E8BFE1C45A0F
:10103000DD4F88839983AA83BB83CC55D24089E155
:101040009DECA0EEBBE5C05ADD4F88839983AA834F
:10105000BB83C056D240B801665F7F4F20E230E0CC
:1010600040E050E0CE01845C9D4F0E94D1002E2DC7
:1010700030E050E040E0BE0164517D4FCE01845C21
:101080009D4F0E94D1002F2D30E050E040E0B6018E
:10109000CE01845C9D4F0E94D100B6016F0D711D81
:1010A00022E030E040E050E0CE01845C9D4F0E94A1
:1010B000D10027E030E040E050E0BE01695E7E4FA5
:1010C000CE01845C9D4F0E94D100C45CDD4F8881BD
:1010D0009981AA81BB81CC53D240AC01BD0123E0F0
:1010E00076956795579547952A95D1F74F7355276C
:1010F00027E730E0241B350B2F733327BE016C55D7
:101100007D4F40E8FB01419347E411924A95E9F78E
:10111000E4EAF2E0EC0FFD1FE20FF31F80879783F4
:10112000A683B583C05CDD4F5881C054D240CF5BED
:10113000DD4F4881C154D240CE5BDD4F9881C2540F
:10114000D240CD5BDD4F8881C354D240548343836A
:1011500092838183275F3F4F50E040E0BE016C5592
:101160007D4FCE01845C9D4F0E94D100C95BDD4F55
:101170008881C754D240C25EDE4F8883CE51D140B1
:10118000CA5BDD4F8881C654D240C15EDE4F888382
:10119000CF51D140CB5BDD4F8881C554D240C05E7A
:1011A000DE4F8883C052D140CC5BDD4F8881C45470
:1011B000D240CF5DDE4F8883C152D140C55BDD4F49
:1011C0008881CB54D240CE5DDE4F8883C252D1405D
:1011D000C65BDD4F8881CA54D240CD5DDE4F888327
:1011E000C352D140FC802B815F81488539858A8537
:1011F0009B85AC850F2D10E02E3F09F48BC0E1E0FC
:10120000F0E0EC0FFD1FE00FF11FF02E61E0601722
:1012100040F4B385B801615071093197BB2309F4DB
:10122000ABC0CC5DDE4F2883C452D140CB5DDE4FD6
:10123000F882C552D140ED80CA5DDE4FE882C652C9
:10124000D1402E81C95DDE4F2883C752D140C85D91
:10125000DE4F5883C852D140C75DDE4F4883C95224
:10126000D140C65DDE4F3883CA52D140C55DDE4FE6
:101270008883CB52D140C45DDE4F9883CC52D1409D
:10128000C35DDE4FA883CD52D140A801B60184E2F0
:1012900091E08C0F9D1F0A960E94A517065F1F4FB5
:1012A000E4E2F1E0EC0FFD1FE00FF11F19E08DE02B
:1012B000E0FE60C029819A8120839183C82ED12CC1
:1012C000882341F0A601BE01695E7E4FCF010296E0
:1012D0000E94A517A601410F511D4D5F5F4F4F0D95
:1012E000511DBE016C5D7E4F8BEB93E00E94E311BC
:1012F000C150DD4F0FB6F894DEBF0FBECDBFDF91FA
:10130000CF911F910F91FF90EF90DF90CF90BF9002
:10131000AF900895CC5DDE4F2883C452D140CB5DA1
:10132000DE4FF882C552D140CA5DDE4F5883C652A7
:10133000D140C95DDE4F4883C752D140C85DDE4F02
:101340003883C852D140C75DDE4F8883C952D1402F
:10135000A801B60184E291E08C0F9D1F06960E94C1
:10136000A5170A5F1F4FE4E2F1E0EC0FFD1FE00F4D
:10137000F11F15E080E09ECF8B0147CF4F925F9227
:101380006F927F928F929F92AF92BF92CF92DF9295
:10139000EF92FF920F931F93CF93DF93CDB7DEB7FA
:1013A000C058D5400FB6F894DEBF0FBECDBF9E012A
:1013B0002F5F3F4F690180E094E0F9019C01119299
:1013C00021503040E1F77E013FEFE31A3AEFF30A94
:1013D00080E8F701282F11922A95E9F74E013FE79F
:1013E000831A3BEF930AF401282F11922A95E9F70B
:1013F0003E013FEF631A3BEF730AF30111928A95A6
:10140000E9F780910601F0E48F9FC001112480610B
:1014100080937C0010927B0080917A0080628093A0
:101420007A0080917A00806480937A0080917A00BB
:10143000846080937A0080917A00826080937A0041
:1014400080917A00816080937A0081E085B98091F3
:101450007A00806180937A0080917A0084FFFCCFCB
:101460008FE984B984E690E00E9488148EE984B9FB
:1014700080917A00806180937A0080917A0084FF65
:10148000FCCF8FE984B900000000000000000000DC
:101490008EE984B980917A00806180937A0070EF40
:1014A000A72E73E2B72E10E000E0EFE95E2EFEE912
:1014B0004F2E80917A0084FFFCCF86E990E00E9455
:1014C000881454B887E090E00E94881444B8809152
:1014D0007A00806180937A002091780020938702BF
:1014E000809179008093860230E8839FC0011124A7
:1014F00030E035952795822B932B8F3F910509F08E
:10150000B4F5939590938502809384028091840230
:1015100090918502E0918202F0918302E817F90729
:1015200040F590938302809382020F5F1F4F81E00A
:10153000A81AB10809F0BDCF209107013091080128
:10154000C9010296FC01EE0FFF1FEC0DFD1DA12C41
:10155000B12C650124503F4F82179307C0F441918D
:101560005191A40EB51EC11CD11C0196F5CF9A95C0
:10157000C9CFEE0FFF1FEC0DFD1D808191810196FB
:10158000918380831092830210928202D0CF61E017
:1015900087E10E94391580918C0290918D02F701AC
:1015A00090838183D282C382B482A582168307830B
:1015B0002091070130910801308721871286138618
:1015C000019690938D0280938C0200E020E04BE026
:1015D00060E8C7010E94170620E04CE060E8C40103
:1015E0000E94170620E04DE060E8C3010E94170644
:1015F00060E087E10E943915C058DA4F0FB6F894C1
:10160000DEBF0FBECDBFDF91CF911F910F91FF9035
:10161000EF90DF90CF90BF90AF909F908F907F9092
:101620006F905F904F900895FF920F931F93CF9309
:10163000DF93CDB7DEB762970FB6F894DEBF0FBE6B
:10164000CDBF61E085E10E94FD1461E085E10E946B
:10165000391564E670E080E090E00E944F14EEE8F7
:10166000F2E089E1DF011D928A95E9F726E040E08A
:1016700052EC61E070E08BEB93E00E94F41068E3C1
:1016800071E08BEB93E00E94431280910601B0E47D
:101690008B9FC0011124806180937C0010927B009D
:1016A00080917A00806280937A0080917A008064D1
:1016B00080937A0080917A00846080937A00809190
:1016C0007A00826080937A0080917A0081608093B2
:1016D0007A0061E080E00E94FD148EE984B915B8BB
:1016E0008CEF81B912B89CEE97B918B88AB980E826
:1016F0008BB940EA56E861E070E08BEF92E00E941F
:101700006A0D61E085E10E94FD1461E085E10E94BF
:10171000391564E670E080E090E00E944F1461E4C7
:1017200071E08BEB93E00E94431261E086E10E943E
:10173000FD1461E086E10E94391564E670E080E006
:1017400090E00E944F1458E0F52E8091060120E4AD
:10175000829FC0011124816180937C0062E370E06C
:1017600080E090E00E944F1410927B0080917A00FC
:10177000806280937A0080917A00806480937A00FE
:1017800080917A00846080937A0080917A008260F0
:1017900080937A0080917A00816080937A008091B2
:1017A0007A00806180937A0080917A0084FFFCCF78
:1017B00080917A00806180937A0020917800209354
:1017C0008702809179008093860230E8839FC00170
:1017D000112430E035952795822B932B8F3F91056F
:1017E00011F00CF0ECC093959093850280938402E5
:1017F0008091840290918502080F191FFA94F110CC
:10180000A4CF83E0169507958A95E1F71093080118
:101810000093070161E087E10E94FD1461E087E128
:101820000E94391564E670E080E090E00E944F1459
:1018300060910701709108014AE0CE0101960E9473
:1018400015136AE471E0CE0107960E94C91265EF94
:1018500072E0CE0107960E94A31368E571E00E9432
:10186000B613BE016F5F7F4F0E94A31368E571E05E
:101870000E94B6136FEE72E00E94A31368E571E058
:101880000E94B613BC01CE010D960E945813CE01E2
:1018900007960E945A12CE0101960E945A1268E5DC
:1018A00070E08BEF92E00E94780D68E08BEF92E0A1
:1018B0000E940E0D60E08BEF92E00E940E0D8BEF08
:1018C00092E00E94F30D40E168E58BEF92E00E9408
:1018D000F00D10E18BEF92E00E94EB0C082F8031AD
:1018E00030F46DE071E0CE010D960E94941340E15A
:1018F000602FCE0101960E94E812BE016F5F7F4FFC
:10190000CE010D960E948D13CE0101960E945A12AF
:101910008091880290918902A0918A02B0918B02F5
:10192000800F911DA11DB11D8093880290938902A3
:10193000A0938A02B0938B02115061F6BE01635FDF
:101940007F4F8BEB93E00E94311261E085E10E94B2
:10195000FD1460E085E10E94391564E670E080E0E6
:1019600090E00E944F1461E086E10E94FD1460E067
:1019700086E10E94391564E670E080E090E00E9404
:101980004F1461E087E10E94FD1460E087E10E944E
:10199000391564E670E080E090E00E944F14CE01BB
:1019A0000D960E945A1262960FB6F894DEBF0FBED3
:1019B000CDBFDF91CF911F910F91FF9008959A9520
:1019C00013CF90E080E0089580912B0390912C0339
:1019D000891B990B089590912C0380912B032FEF75
:1019E0003FEF981748F4E92FF0E0E35DFC4F2081CA
:1019F00030E09F5F90932C03C9010895E0912C0380
:101A000080912B03E81730F4F0E0E35DFC4F808118
:101A100090E008958FEF9FEF08950895CF93DF939F
:101A20001F92CDB7DEB76983209107032223F9F017
:101A300020910803203258F021E030E0FC0133838C
:101A4000228390E080E00F90DF91CF910895809104
:101A50000903E82FF0E0E65FFC4F998190838F5FE8
:101A6000809309038093080381E090E0ECCF61E06C
:101A7000CE0101960E94B90EF7CFCF92DF92EF927E
:101A8000FF920F931F93CF93DF937C01CB018A01C9
:101A900020910703222389F0EB016B01C40ED51EB0
:101AA000CC15DD0569F06991D701ED91FC910190AC
:101AB000F081E02DC7010995F3CF642F0E94B90E84
:101AC000C801DF91CF911F910F91FF90EF90DF90B0
:101AD000CF900895CB01BA010C94070E81E080935A
:101AE000070360932A0310920903109208030895D4
:101AF0000C946E0D0F93062F21E0409108036AE0CD
:101B000073E080912A030E94620E109209031092E2
:101B10000803109207030F9108954F925F926F92FE
:101B20007F92AF92BF92CF92EF92FF920F931F934B
:101B3000CF93DF935C01F62ED42F28013901EE20DC
:101B400019F10E946E0DCE2DC43008F0C3E0C150D3
:101B5000B8F028E0C29FC0011124A301920104C083
:101B600056954795379527958A95D2F7B901D501AE
:101B7000ED91FC910190F081E02DC5010995E7CF31
:101B800060E0C5010E947A0D4D2FD13208F040E28D
:101B90002C2D6DE273E08F2D0E941A0E10922C03F3
:101BA00080932B03DF91CF911F910F91FF90EF90C6
:101BB000CF90BF90AF907F906F905F904F900895BF
:101BC000CF92EF920F931F93C22EE12C00E010E012
:101BD00098010E948D0D1F910F91EF90CF90089565
:101BE00021E00C94E00D61E00C947A0DEBEFF2E053
:101BF0001382128288EE93E0A0E0B0E084839583A4
:101C0000A683B7838EE592E09183808308959B013C
:101C1000AC0160E074E284EF90E00E94681520510E
:101C200031094109510956954795379527952093D4
:101C3000B8000895413208F043C09091BA03911161
:101C4000FCCF91E09093BA032093B8032FEF209339
:101C50004D0310929203240F209391039093B903A4
:101C60009091B903880F892B8093B9038091B703B2
:101C7000813009F51092B7038091B9038093BB00BE
:101C80008091BC0083FDF8CF85EC8093BC008091EF
:101C9000BA038130E1F380919203841710F44091EC
:101CA0009203A3E9B3E0962FFB018E2F891B8417C3
:101CB00020F0842F089585EEE8CF8D918193F5CFA4
:101CC00040E0F7CF0F93413208F04BC09091BA0338
:101CD0009111FCCF92E09093BA030093B8039FEF69
:101CE00090934D031092920340939103362FA3E9F2
:101CF000B3E0FB019E2F931B941770F11092B90370
:101D00009091B903880F892B8093B9038091B70311
:101D1000813029F51092B7038091B9038093BB00FD
:101D20008091BC0083FDF8CF85EC8093BC0022231A
:101D300021F08091BA038230D1F380914D038F3F1F
:101D400091F080914D03803281F080914D0380337A
:101D500071F084E00F91089591919D93CBCF85EE22
:101D6000E4CF81E0F7CF80E0F5CF82E0F3CF83E0EE
:101D7000F1CF20916F03260F3327331F2132310516
:101D8000ECF42091BA03FC0190E080E0243069F08B
:101D900082E00895A0916F032191AC014F585C4FF0
:101DA000A40FB52FB11D2C930196861798F380913F
:101DB0006F03680F60936F0380E0089581E00895DA
:101DC00085ED8093BC008091BC0084FDFCCF109217
:101DD000BA03089585EC8093BC001092BA0308956D
:101DE0001F920F920FB60F9211240BB60F922F93E2
:101DF0003F934F935F936F937F938F939F93AF9393
:101E0000BF93EF93FF938091B900887F803609F4E8
:101E10004EC008F041C0883209F4AAC028F58031CC
:101E200009F49EC0C8F4882309F4FBC0883009F483
:101E300097C0FF91EF91BF91AF919F918F917F914B
:101E40006F915F914F913F912F910F900BBE0F902B
:101E50000FBE0F901F901895883109F489C0803209
:101E600041F780934D0315C0803409F49EC048F4B7
:101E70008033B9F38833E9F680934D030E94EA0E6C
:101E8000D8CF803509F485C0883509F496C08834E8
:101E900081F60E94E00ECDCF883909F48CC038F568
:101EA000883729F050F4883611F0803711F683E036
:101EB0008093BA0310924E0357C0883809F47BC050
:101EC000803919F0803809F0B4CF80914E03803208
:101ED00008F071C0E0914E0381E08E0F80934E03B5
:101EE0008091BB00F0E0E15BFC4F80833DC0803B14
:101EF00039F0E0F4803A09F479C0883A09F099CFD2
:101F000084E08093BA031092700310926F03E09103
:101F1000B503F091B603099580916F0381110FC04D
:101F200081E080936F031092710309C0803C09F433
:101F300076C0883C09F473C0883B09F07ACFE09101
:101F4000700381E08E0F80937003F0E0EF58FC4F38
:101F500080818093BB009091700380916F0329C0B2
:101F60008091B9038093BB0085EC8093BC0061CF66
:101F70009091920380919103981758F5E091920304
:101F800081E08E0F80939203F0E0ED56FC4F80814C
:101F9000E9CFE091920381E08E0F809392038091CC
:101FA000BB00F0E0ED56FC4F80839091920380914E
:101FB00091039817C8F285E8D8CFE091920381E0A9
:101FC0008E0F809392038091BB00F0E0ED56FC4FA2
:101FD00080838091B80381115CCF81E08093B70347
:101FE00084EA8093BC001092BA0323CF0E94EA0EC9
:101FF00080914E03803230F4E0914E03F0E0E15BDB
:10200000FC4F108260914E0370E0E091B303F091B9
:10201000B4038FE493E0099510924E030ACF85EC48
:10202000E0CF10924D0335CFFC01918D228D892F89
:1020300090E0805C9F4F821B91098F7399270895D0
:10204000FC01918D828D981731F0828DE80FF11D82
:10205000858D90E008958FEF9FEF0895FC01918D9D
:10206000828D981761F0A28DAE0FBF2FB11D5D96C6
:102070008C91928D9F5F9F73928F90E008958FEF68
:102080009FEF0895FC01538D448D252F30E0842F60
:1020900090E0821B930B541710F0CF960895019790
:1020A00008958CEA91E1892B49F080E090E0892B3A
:1020B00029F00E94AC1181110E94000080E090E0A4
:1020C000892B49F080E090E0892B29F00E940000E4
:1020D00081110C9400000895FC01A48DA80FB92F64
:1020E000B11DA35ABF4F2C91848D90E001968F7340
:1020F0009927848FA689B7892C93A089B1898C915F
:1021000080648C93938D848D981306C00288F38924
:10211000E02D80818F7D80830895CF93DF93EC0144
:10212000888D8823B9F0AA89BB89E889F9898C91BF
:1021300085FD03C0808186FD0DC00FB607FCF7CF7B
:102140008C9185FFF2CF808185FFEDCFCE010E947B
:102150006C10E9CFDF91CF910895EF92FF920F932A
:102160001F93CF93DF93EC0181E0888F9B8D8C8D43
:10217000981316C0E889F989808185FF11C0EE891E
:10218000FF896083E889F98980818064808381E0A8
:1021900090E0DF91CF911F910F91FF90EF90089504
:1021A000F62E0B8D10E00F5F1F4F0F731127E02EDF
:1021B0008C8D8E110CC00FB607FCFACFE889F98917
:1021C000808185FFF5CFCE010E946C10F1CFEB8DA1
:1021D000EC0FFD2FF11DE35AFF4FF0820B8FEA89C0
:1021E000FB8980818062D2CFCF92DF92EF92FF9203
:1021F0001F93CF93DF93EC016A017B01122FE889D3
:10220000F98982E08083C11481EED806E104F104EB
:10221000A1F060E079E08DE390E0A70196010E94D3
:10222000681521503109410951095695479537954F
:102230002795211580E1380798F0E889F9891082FF
:1022400060E874E88EE190E0A70196010E946815AD
:1022500021503109410951095695479537952795E0
:10226000EC85FD853083EE85FF852083188EEC8913
:10227000FD891083EA89FB89808188698083EA89E6
:10228000FB8980818F7D8083DF91CF911F91FF90AB
:10229000EF90DF90CF9008951F920F920FB60F929C
:1022A00011240BB60F922F938F939F93EF93FF936D
:1022B000E091CB03F091CC038081E091D103F091C8
:1022C000D20382FD1DC090818091D4038F5F8F73F4
:1022D0002091D503821741F0E091D403F0E0E5545A
:1022E000FC4F958F8093D403FF91EF919F918F9135
:1022F0002F910F900BBE0F900FBE0F901F9018954F
:102300008081F2CF1F920F920FB60F9211240BB65D
:102310000F922F933F934F935F936F937F938F937E
:102320009F93AF93BF93EF93FF938BEB93E00E9448
:102330006C10FF91EF91BF91AF919F918F917F9121
:102340006F915F914F913F912F910F900BBE0F9026
:102350000FBE0F901F9018958BEB93E00E94141006
:1023600021E0892B09F420E0822F0895EBEBF3E0C4
:102370001382128288EE93E0A0E0B0E0848395831C
:10238000A683B78380E792E09183808385EC90E019
:102390009587848784EC90E09787868780EC90E02F
:1023A000918B808B81EC90E0938B828B82EC90E020
:1023B000958B848B86EC90E0978B868B118E128E9A
:1023C000138E148E0895AF92BF92CF92DF92EF9248
:1023D000FF920F931F93CF93DF936C017B018B01CF
:1023E000040F151FEB015E01AE18BF08C017D1071F
:1023F00059F06991D601ED91FC910190F081E02DA9
:10240000C6010995892B79F7C501DF91CF911F91FD
:102410000F91FF90EF90DF90CF90BF90AF90089515
:10242000FB0101900020E9F73197AF01461B570BE4
:10243000DC01ED91FC910280F381E02D0994DB0138
:1024400014964D915C9115976D917C91DC01ED9105
:10245000FC910280F381E02D09946EE772E00C9408
:1024600010120F931F93CF93DF93EC010E941F1262
:102470008C01CE010E942D12800F911FDF91CF9110
:102480001F910F9108950F931F93CF93DF938C01AA
:10249000D0E0C0E06115710519F00E941012EC0146
:1024A000C8010E942D128C0F9D1FDF91CF911F91AB
:1024B0000F910895FC01808191810C943B16CF937C
:1024C000DF93EC0188819981009711F00E943B16FF
:1024D000198218821D821C821B821A82DF91CF9181
:1024E00008950F931F93CF93DF93EC018B016F5FE0
:1024F0007F4F888199810E94C416009751F099837B
:1025000088831B830A8381E0DF91CF911F910F9114
:10251000089580E0F9CFCF93DF93EC018881998112
:10252000892B49F08A819B818617970720F081E0EB
:10253000DF91CF910895CE010E9471128823C1F3DB
:102540008C819D81892B99F7E881F9811082EFCFE9
:10255000EF92FF920F931F93CF93DF93EC017B01D8
:102560008A01BA010E948B1281110BC0CE010E9418
:102570005F12CE01DF91CF911F910F91FF90EF90ED
:1025800008951D830C83B701888199810E94AE173D
:10259000F0CFFC0111821082138212821582148204
:1025A0006115710551F0FB0101900020E9F73197A9
:1025B000AF01461B570B0C94A8120895FB01019024
:1025C0000020E9F73197AF01461B570B0C94A81276
:1025D0000F931F93CF93DF93CDB7DEB729970FB635
:1025E000F894DEBF0FBECDBF8C01862FF80111829B
:1025F0001082138212821582148250E0BE016F5F36
:102600007F4F90E00E94B517BE016F5F7F4FC801FA
:102610000E94DE1229960FB6F894DEBF0FBECDBF22
:10262000DF91CF911F910F9108950F931F93CF9337
:10263000DF93CDB7DEB761970FB6F894DEBF0FBE5C
:10264000CDBF8C01CB01F80111821082138212825E
:102650001582148250E0BE016F5F7F4F0E94B51754
:10266000BE016F5F7F4FC8010E94DE1261960FB6F8
:10267000F894DEBF0FBECDBFDF91CF911F910F91B8
:102680000895CF93DF93EC01FB018617970749F07C
:10269000608171816115710541F0448155810E940D
:1026A000A812CE01DF91CF9108950E945F12F9CF59
:1026B000FC011182108213821282158214820C9402
:1026C0004113EF92FF920F931F93CF93DF93611506
:1026D000710541F480E0DF91CF911F910F91FF9040
:1026E000EF90089541155105B1F07B01EC010C818B
:1026F0001D81040F151FB8010E948B12882351F30E
:10270000288139818C819D81B701820F931F0E949E
:10271000AE171D830C8381E0DECFFB014481558120
:10272000608171810C9461136115710551F0FB0199
:1027300001900020E9F73197AF01461B570B0C942D
:10274000611380E00895CF93DF93EC01FB01448196
:102750005581608171810E946113811103C0CE0196
:102760000E945F12CE01DF91CF910895CF93DF9346
:10277000EC016115710539F4CE010E945F12CE01A2
:10278000DF91CF910895FB0101900020E9F7319787
:10279000AF01461B570B0E946113882369F3EFCFEB
:1027A00008950E9493140E94D0130E94140BC1E557
:1027B000D0E10E94BE092097E1F30E945110F9CFA9
:1027C0001F920F920FB60F9211242F933F938F9366
:1027D0009F93AF93BF9380915D0490915E04A0910D
:1027E0005F04B091600430915C0423E0230F2D3727
:1027F00068F126E8230F0296A11DB11D20935C0409
:1028000080935D0490935E04A0935F04B093600492
:102810008091580490915904A0915A04B0915B049E
:102820000196A11DB11D8093580490935904A09363
:102830005A04B0935B04BF91AF919F918F913F91E8
:102840002F910F900FBE0F901F9018950196A11D0C
:10285000B11DD4CF3FB7F89480915804909159049A
:10286000A0915A04B0915B0426B5A89B05C02F3FE8
:1028700019F00196A11DB11D3FBFBA2FA92F982FA6
:102880008827BC01CD01620F711D811D911D42E0A1
:10289000660F771F881F991F4A95D1F708958F9269
:1028A0009F92AF92BF92CF92DF92EF92FF926B0115
:1028B0007C010E942A144B015C01C114D104E10483
:1028C000F104E9F00E9467150E942A146819790939
:1028D0008A099B09683E73408105910570F321E0E8
:1028E000C21AD108E108F10888EE880E83E0981E2C
:1028F000A11CB11CC114D104E104F10429F7FF901B
:10290000EF90DF90CF90BF90AF909F908F90089501
:102910008230910538F0880F991F880F991F05970D
:102920000197F1F70895789484B5836084BD85B5E7
:10293000836085BDEEE6F0E0808181608083E1E820
:10294000F0E082E08083808181608083E0E8F0E0D5
:10295000808181608083E1EBF0E08081846080830E
:10296000E0EBF0E0808181608083E1E9F0E080814C
:1029700083608083E0E9F0E080818160808387E884
:1029800080937A001092C100089582508A3088F5B1
:10299000E82FF0E0E253FB4E0C948A15F614FA147B
:1029A000D814DE14F914F914E214E814EC14F21437
:1029B000809180008F7780938000089580918000BF
:1029C0008F7DF9CF8091B0008F778093B00008950C
:1029D0008091B0008F7DF9CF809190008F778093A8
:1029E00090000895809190008F7DF9CF84B58F7706
:1029F00084BD089584B58F7DFBCFCF93DF9390E0A6
:102A0000FC01E455FF4F249184539F4FFC018491B6
:102A10008823C9F090E0880F991FFC01EA50FF4F0E
:102A2000A591B491FC01E451FF4FC591D49161117E
:102A30000DC09FB7F8948C91209582238C93888148
:102A4000282328839FBFDF91CF910895623051F4EE
:102A50009FB7F8943C91822F809583238C93E881D3
:102A60002E2BEFCF8FB7F894EC912E2B2C938FBF9A
:102A7000EACF1F93CF93DF93282F30E0F901E4577B
:102A8000FF4F8491F901E455FF4FD491F901E453CC
:102A9000FF4FC491CC23A9F0162F81110E94C514B9
:102AA000EC2FF0E0EE0FFF1FE451FF4FA591B49122
:102AB0008FB7F894EC91111108C0D095DE23DC9308
:102AC0008FBFDF91CF911F910895DE2BF8CF08952E
:102AD000A1E21A2EAA1BBB1BFD010DC0AA1FBB1F22
:102AE000EE1FFF1FA217B307E407F50720F0A21B94
:102AF000B30BE40BF50B661F771F881F991F1A9401
:102B000069F760957095809590959B01AC01BD012A
:102B1000CF010895EE0FFF1F0024001C0BBE07908D
:102B2000F691E02D09940024A7FD00942A0F301D92
:102B3000401D501D601D701D801D901D08950F9338
:102B40001F93CF93DF938230910510F482E090E0E1
:102B5000E0916304F091640430E020E0B0E0A0E094
:102B6000309799F42115310509F44AC0281B390B17
:102B700024303105D8F58A819B816115710589F171
:102B8000FB0193838283FE0111C040815181028148
:102B9000138148175907E0F04817590799F410971F
:102BA00061F012960C93129713961C933296CF01F4
:102BB000DF91CF911F910F910895009363041093BB
:102BC0006404F4CF2115310551F04217530738F052
:102BD000A901DB019A01BD01DF01F801C1CFEF01BD
:102BE000F9CF9093640480936304CDCFFE01E20F8C
:102BF000F31F819391932250310939832883D7CFD2
:102C00002091610430916204232B41F42091020150
:102C100030910301309362042093610420910001FC
:102C2000309101012115310541F42DB73EB7409196
:102C3000040150910501241B350BE0916104F091D2
:102C40006204E217F307A0F42E1B3F0B2817390785
:102C500078F0AC014E5F5F4F2417350748F04E0FF8
:102C60005F1F5093620440936104819391939FCFBF
:102C7000F0E0E0E09CCFCF93DF930097E9F0FC0118
:102C8000329713821282A0916304B0916404ED0123
:102C900030E020E01097A1F420813181820F931F52
:102CA00020916104309162042817390709F061C04E
:102CB000F0936204E0936104DF91CF910895EA01FB
:102CC000CE17DF07E8F54A815B819E01411551056A
:102CD000B1F7E901FB83EA8349915991C40FD51FEC
:102CE000EC17FD0761F4808191810296840F951F96
:102CF000E90199838883828193819B838A83F0E0B1
:102D0000E0E012968D919C9113970097B9F52D9163
:102D10003C911197CD010296820F931F209161047F
:102D2000309162042817390739F6309751F510921F
:102D3000640410926304B0936204A0936104BCCF56
:102D4000D383C28340815181840F951FC817D9074F
:102D500061F44E5F5F4F88819981480F591F5183FD
:102D600040838A819B81938382832115310509F0F9
:102D7000B0CFF0936404E09363049ECFFD01DC01C7
:102D8000C0CF13821282D7CF4F925F926F927F9201
:102D90008F929F92AF92BF92CF92DF92EF92FF926B
:102DA0000F931F93CF93DF938C01009799F4CB017E
:102DB000DF91CF911F910F91FF90EF90DF90CF9017
:102DC000BF90AF909F908F907F906F905F904F904B
:102DD0000C949F15FC01E60FF71F9C01225031094E
:102DE000E217F30708F4AEC0D901CD91DC91119739
:102DF000C617D70720F1C530D10578F0CE0104976A
:102E00008617970750F0C61BD70B2297C193D19313
:102E10006D937C93CF010E943B16C801DF91CF9147
:102E20001F910F91FF90EF90DF90CF90BF90AF90E8
:102E30009F908F907F906F905F904F9008955B016F
:102E4000AC1ABD0A4C018C0E9D1EA0916304B0917A
:102E50006404512C412CF12CE12C109731F5809118
:102E60006104909162048815990509F05CC04616CA
:102E7000570608F058C08091000190910101009719
:102E800041F48DB79EB74091040150910501841B18
:102E9000950BE817F90708F055C0F0936204E0932A
:102EA0006104F90171836083B8CF8D919C91119772
:102EB00012966C90129713967C901397A815B905EB
:102EC00059F56C0142E0C40ED11CCA14DB0420F198
:102ED000AC014A195B09DA011296159780F06282FB
:102EE000738251834083D9016D937C93E114F10483
:102EF00071F0D7011396FC93EE9312978ECF229622
:102F00008C0F9D1FF90191838083F301EFCFF09324
:102F10006404E093630481CF4816590608F42C0139
:102F20007D01D3019ACFCB010E949F157C010097B0
:102F300049F0AE01B8010E94A517C8010E943B16D6
:102F400087016BCF10E000E068CFFB01DC0102C01D
:102F500001900D9241505040D8F70895FB01DC01DB
:102F600001900D920020E1F708954532510520F4BB
:102F7000423010F00C94C017FB011082CB01089571
:102F8000BB27FB015527AA27880F991FAA1FA41743
:102F900010F0A41B83955051B9F7A05DAA3308F037
:102FA000A95DA193009779F7B111B1931192CB016B
:102FB0000C94DA17DC01FC01672F71917723E1F79C
:102FC000329704C07C916D9370836291AE17BF07F6
:102FD000C8F3089510E0C3E8D0E004C0FE010E94E9
:102FE0008A152196C438D107C9F7F894FFCF00009D
:102FF0006504800003000155415630300034666698
:10300000643238356134373861616137366632325F
:103010003761383161326665383964343066643816
:10302000653434303900234376616B2E2E2E002315
:10303000486D6D6D2E2E2E0024444F532C4C414272
:10304000444F533031412C00982F8A4291443771BC
:10305000CFFBC0B5A5DBB5E95BC25639F111F1591B
:10306000A4823F92D55E1CAB98AA07D8015B83125D
:10307000BE853124C37D0C55745DBE72FEB1DE8009
:10308000A706DC9B74F19BC1C1699BE48647BEEF38
:10309000C69DC10FCCA10C246F2CE92DAA84744AC3
:1030A000DCA9B05CDA88F97652513E986DC631A839
:1030B000C82703B0C77F59BFF30BE0C64791A7D518
:1030C0005163CA0667292914850AB72738211B2EA0
:1030D000FC6D2C4D130D385354730A65BB0A6A7688
:1030E0002EC9C281852C7292A1E8BFA24B661AA894
:1030F000708B4BC2A3516CC719E892D1240699D6A4
:1031000085350EF470A06A1016C1A419086C371E1C
:103110004C774827B5BCB034B30C1C394AAAD84EFA
:103120004FCA9C5BF36F2E68EE828F746F63A57835
:103130001478C8840802C78CFAFFBE90EB6C50A4C8
:10314000F7A3F9BEF27871C6000000000E0D3D0D28
:10315000E10C0D0DE40CEB0CFE0C00000000AD10BA
:10316000E31142108D1014102E1020100D0A0000D3
:020000040001F9
:10FC000002C0F3C03BC1112484B790E89093610017
:10FC100010926100882369F0982F9A70923049F011
:10FC200081FF02C097EF94BF282E80E001D10C9491
:10FC3000000085E08093810082E08093C00088E12D
:10FC40008093C10080E18093C40086E08093C2006D
:10FC50008EE0EED0209A84E020E33CEF91E03093F8
:10FC600085002093840096BBB09BFECF189AA89580
:10FC70004091C00047FD02C0815089F7CDD081344A
:10FC800079F4CAD0C82FDAD0C23811F480E004C0A9
:10FC900088E0C13809F083E0B8D080E1B6D0EECF7B
:10FCA000823419F484E1D2D0F8CF853411F485E0A0
:10FCB000FACF853581F4B0D0E82EAED0F82E87FF8C
:10FCC00007C08BB781608BBFEE0CFF1CB7D0E5CFB0
:10FCD0008BB78E7FF8CF863579F49ED08D3451F472
:10FCE0009BD0CBB799D0C170880F8C2B8BBF81E094
:10FCF000ADD0CCCF83E0FCCF843609F045C08CD0AA
:10FD0000C82FD0E0DC2FCC2787D0C82B85D0D82EA9
:10FD10005E01B39400E011E04801EFEF8E1A9E0AF5
:10FD20007BD0F801808384018A149B04A9F786D0D4
:10FD3000F5E410E000E0DF1609F150E040E063E098
:10FD4000C70153D08701C12CDD24D394F601419122
:10FD500051916F0161E0C80148D00E5F1F4F22979B
:10FD6000A9F750E040E065E0C7013FD096CF608141
:10FD7000C8018E0D9F1D02D10F5F1F4FF801F39533
:10FD8000C017D107A1F789CF843701F545D0C82F17
:10FD9000D0E0DC2FCC2740D0C82B3ED0D82E4ED080
:10FDA0008701F5E4DF120BC0CE0DDF1DC801DED0E8
:10FDB0002CD00F5F1F4FC017D107C1F76ECFF801CE
:10FDC00087918F0122D02197D1F767CF853739F4FA
:10FDD00035D08EE11AD087E918D085E05DCF813526
:10FDE00009F074CF88E024D071CFFC010A0167BF0D
:10FDF000E895112407B600FCFDCF667029F0452B6D
:10FE000019F481E187BFE89508959091C00095FFAE
:10FE1000FCCF8093C60008958091C00087FFFCCF7F
:10FE20008091C00084FD01C0A8958091C60008950E
:10FE3000E0E6F0E098E1908380830895EDDF803282
:10FE400019F088E0F5DFFFCF84E1DFCFCF93C82F33
:10FE5000E3DFC150E9F7CF91F1CFCF92DF92EF927C
:10FE6000FF92DC01CB01642F6D01EE24FF24CBBE99
:10FE7000A901FF90EF90DF90CF90B7CF2F923F92E4
:10FE80004F925F926F927F928F929F92AF92BF92AA
:10FE9000CF92DF92EF92FF920F931F93CF93DF9356
:10FEA00000D01F92CDB7DEB71801E9826B017C014B
:10FEB00010E000E029013A014C185D086E087F0847
:10FEC00046015701840C951CA61CB71C021513058E
:10FED00031F489818823A1F188E0AADFFFCF30E0E7
:10FEE00020E043E0C701B601B8DF80E890E09B83E3
:10FEF0008A83ABBEF40127913691C501B401641920
:10FF000075098609970941E0A8DF8A819B810197DD
:10FF10009B838A8392E0890E911CA11CB11C8A816B
:10FF20009B81892B31F730E020E045E0C701B60125
:10FF300094DF9FEFD91AE90AF90A0F5F1F4FC0CF6C
:10FF40000F900F900F90DF91CF911F910F91FF9025
:10FF5000EF90DF90CF90BF90AF909F908F907F9069
:10FF60006F905F904F903F902F900895F999FECF3A
:10FF700092BD81BDF89A992780B50895262FF999E9
:10FF8000FECF1FBA92BD81BD20BD0FB6F894FA9A7C
:08FF9000F99A0FBE01960895D5
:02FFFE000008F9
:00000001FF
