:020000040000FA
:100000000C9484000C94AE000C94AE000C94AE00E2
:100010000C94AE000C94AE000C94AE000C94AE00A8
:100020000C94AE000C94AE000C94AE000C94AE0098
:100030000C94AE000C94AE000C94AE000C94AE0088
:100040000C94AE000C94AE000C944B0B0C94AE00D0
:100050000C948A080C94C0080C94AE000C94AE006A
:100060000C94AE000C94AE000C942E060C94AE00D2
:100070000C94AE000C94AE000C94AE000C94AE0048
:100080000C94AE000C94AE000C94AE000000000284
:1000900003000A0B0000000005040908000000002E
:1000A0000000000000000000000000000102040841
:1000B0001020408001020408102040800102040842
:1000C0001020408001020408102040800202020239
:1000D00002020202040404040404040403030303EC
:1000E00003030303010101010101010100002200DA
:1000F000250028002B0000002100240027002A00F2
:1001000045023405F408510211241FBECFEFD0E49C
:10011000DEBFCDBF11E0A0E0B1E0E6E0FFE100E02E
:100120000BBF02C007900D92AC36B107D9F722E0A1
:10013000ACE6B1E001C01D92AE3EB207E1F710E0BF
:10014000C3E8D0E004C02197FE010E94F50CC0383E
:10015000D107C9F70E943C0B0C94760F0C94000059
:100160008F929F92AF92BF92CF92DF92EF92FF92C7
:100170000F931F93CF93DF93CDB7DEB7CC50D4400E
:100180000FB6F894DEBF0FBECDBFFE0131968E01D3
:100190000F5F1B4F7F0111921192E017F107D9F702
:1001A0008091060120E4829FC00111248061809328
:1001B0007C0010927B0080917A00806280937A00AC
:1001C00080917A00806480937A0080917A008460C4
:1001D00080937A0080917A00826080937A00809187
:1001E0007A00816080937A0081E085B980917A00FD
:1001F000806180937A0080917A0084FFFCCF8FE940
:1002000084B984E690E00E94F30B8EE984B9809172
:100210007A00806180937A0080917A0084FFFCCF1D
:100220008FE984B9000000000000000000008EE9A2
:1002300084B980917A00806180937A0070EBA72E58
:1002400073EBB72ED12CC12CEFE99E2EFEE98F2E39
:1002500080917A0084FFFCCF86E990E00E94F30B46
:1002600094B887E090E00E94F30B84B880917A0004
:10027000806180937A0020917800209371018091B1
:1002800079008093700130E8839FC001112430E031
:1002900035952795822B932B8F3F910509F0BCF55F
:1002A000939590936F0180936E0180916E01909170
:1002B0006F01E0916C01F0916D01E817F90748F5C5
:1002C00090936D0180936C018FEFC81AD80AE1E01A
:1002D000AE1AB10809F0BCCF209107013091080196
:1002E000C9010296FC01EE0FFF1FEE0DFF1D812CD0
:1002F000912C540124503F4F82179307C0F4419131
:100300005191840E951EA11CB11C0196F5CF9A95B2
:10031000C8CFEE0FFF1FEE0DFF1D8081918101966A
:100320009183808310926D0110926C01D0CF61E0B7
:1003300087E10E94A40C6BE671E0CE01895F9B4FC0
:100340000E94070A69E071E0CE01895F9B4F0E941D
:10035000FF0A60917601709177014AE0C8010E941E
:10036000530AB801CE01895F9B4F0E94F80AC80169
:100370000E94980963E471E0CE01895F9B4F0E945F
:10038000FF0A4AE0B601C8010E94530AB801CE0133
:10039000895F9B4F0E94F80AC8010E94980963E494
:1003A00071E0CE01895F9B4F0E94FF0A2AE0B501F0
:1003B000A401C8010E947F0AB801CE01895F9B4F4A
:1003C0000E94F80AC8010E94980980910701909143
:1003D00008016C01F1E0CF1AD10881509048880FD4
:1003E000991FE80EF91E8091070190910801855030
:1003F0009F4FC816D906E0F463E471E0CE01895F2F
:100400009B4F0E94FF0AF701619171917F014AE0C1
:10041000C8010E94530AB801CE01895F9B4F0E9418
:10042000F80AC8010E949809FFEFCF1ADF0ADBCF54
:100430008091760190917701019690937701809356
:100440007601BE01695F7B4F84E492E00E946F09F0
:1004500060E087E10E94A40CCE01895F9B4F0E945F
:100460009809C45FDB4F0FB6F894DEBF0FBECDBF57
:10047000DF91CF911F910F91FF90EF90DF90CF9080
:10048000BF90AF909F908F90089560E171E08EE7EC
:1004900091E00E94070A66E171E088E791E00C9420
:1004A000070A88E791E00E9498098EE791E00C9492
:1004B0009809FF920F931F93CF93DF93CDB7DEB7C9
:1004C00062970FB6F894DEBF0FBECDBF61E085E145
:1004D0000E94680C61E085E10E94A40C64E670E073
:1004E00080E090E00E94BA0B26E040E052EC61E030
:1004F00070E084E492E00E94320863E271E084E4F8
:1005000092E00E9481098091060120E4829FC0014F
:100510001124806180937C0010927B0080917A008E
:10052000806280937A0080917A00806480937A0060
:1005300080917A00846080937A0080917A00826052
:1005400080937A0080917A00816080937A0061E0E4
:1005500080E00E94680C8EE984B915B88CEF81B9EF
:1005600012B89CEE97B918B88AB980E88BB940EAFE
:1005700056E861E070E084E891E00E94A80461E040
:1005800085E10E94680C61E085E10E94A40C64E6AC
:1005900070E080E090E00E94BA0B6CE271E084E4CD
:1005A00092E00E94810961E086E10E94680C61E0AE
:1005B00086E10E94A40C64E670E080E090E00E9476
:1005C000BA0B58E0F52E8091060130E4839FC001FC
:1005D0001124816180937C0062E370E080E090E010
:1005E0000E94BA0B10927B0080917A008062809307
:1005F0007A0080917A00806480937A0080917A00FA
:10060000846080937A0080917A00826080937A007F
:1006100080917A00816080937A0080917A00806175
:1006200080937A0080917A0084FFFCCF80917A00D9
:10063000806180937A0020917800209371018091ED
:1006400079008093700130E8839FC001112430E06D
:1006500035952795822B932B8F3F910511F00CF048
:10066000ECC0939590936F0180936E0180916E0121
:1006700090916F01080F191FFA94F110A4CF83E035
:10068000169507958A95E1F71093080100930701E5
:1006900061E087E10E94680C61E087E10E94A40CA0
:1006A00064E670E080E090E00E94BA0B6091070180
:1006B000709108014AE0CE0101960E94530A65E359
:1006C00071E0CE0107960E94070A6EE771E0CE0145
:1006D00007960E940E0B63E471E00E94210BBE019D
:1006E0006F5F7F4F0E940E0B63E471E00E94210B4D
:1006F00068E771E00E940E0B63E471E00E94210B39
:10070000BC01CE010D960E94C30ACE0107960E943D
:100710009809CE0101960E94980968E570E084E886
:1007200091E00E94B60468E084E891E00E944C04E5
:1007300060E084E891E00E944C0484E891E00E942B
:10074000310540E168E584E891E00E942E0510E162
:1007500084E891E00E942904082F803130F464E19C
:1007600071E0CE010D960E94FF0A40E1602FCE019C
:1007700001960E94260ABE016F5F7F4FCE010D9643
:100780000E94F80ACE0101960E9498098091720198
:1007900090917301A0917401B0917501800F911D2A
:1007A000A11DB11D8093720190937301A0937401F8
:1007B000B0937501115061F6BE01635F7F4F84E411
:1007C00092E00E946F0961E085E10E94680C60E0A0
:1007D00085E10E94A40C64E670E080E090E00E9455
:1007E000BA0B61E086E10E94680C60E086E10E943D
:1007F000A40C64E670E080E090E00E94BA0B61E037
:1008000087E10E94680C60E087E10E94A40C64E626
:1008100070E080E090E00E94BA0BCE010D960E943D
:10082000980962960FB6F894DEBF0FBECDBFDF9178
:10083000CF911F910F91FF9008959A9513CF90E05B
:1008400080E008958091B4019091B501891B990BC6
:1008500008959091B5018091B4012FEF3FEF981763
:1008600048F4E92FF0E0EA54FE4F208130E09F5F2A
:100870009093B501C9010895E091B5018091B4014B
:10088000E81730F4F0E0EA54FE4F808190E00895DC
:100890008FEF9FEF08950895CF93DF931F92CDB709
:1008A000DEB76983209190012223F9F02091910114
:1008B000203258F021E030E0FC013383228390E0C5
:1008C00080E00F90DF91CF91089580919201E82F01
:1008D000F0E0ED56FE4F998190838F5F80939201F7
:1008E0008093910181E090E0ECCF61E0CE01019630
:1008F0000E94F705F7CFCF92DF92EF92FF920F930E
:100900001F93CF93DF937C01CB018A01209190014B
:10091000222389F0EB016B01C40ED51ECC15DD0539
:1009200069F06991D701ED91FC910190F081E02D82
:10093000C7010995F3CF642F0E94F705C801DF9125
:10094000CF911F910F91FF90EF90DF90CF9008957E
:10095000CB01BA010C94450581E08093900160932E
:10096000B301109292011092910108950C94AC047D
:100970000F93062F21E04091910163E971E080918E
:10098000B3010E94A0051092920110929101109261
:1009900090010F9108954F925F926F927F92AF9264
:1009A000BF92CF92EF92FF920F931F93CF93DF935B
:1009B0005C01F62ED42F28013901EE2019F10E9496
:1009C000AC04CE2DC43008F0C3E0C150B8F028E02C
:1009D000C29FC0011124A301920104C056954795FE
:1009E000379527958A95D2F7B901D501ED91FC91FC
:1009F0000190F081E02DC5010995E7CF60E0C501C8
:100A00000E94B8044D2FD13208F040E22C2D66EB45
:100A100071E08F2D0E9458051092B5018093B401AA
:100A2000DF91CF911F910F91FF90EF90CF90BF90EA
:100A3000AF907F906F905F904F900895CF92EF921C
:100A40000F931F93C22EE12C00E010E098010E944A
:100A5000CB041F910F91EF90CF90089521E00C945B
:100A60001E0561E00C94B804E4E8F1E01382128200
:100A700088EE93E0A0E0B0E084839583A683B783FB
:100A800089E491E09183808308959B01AC0160E04B
:100A900074E284EF90E00E94D30C205131094109A7
:100AA000510956954795379527952093B800089595
:100AB000413208F043C0909143029111FCCF91E084
:100AC00090934302209341022FEF2093D60110927E
:100AD0001B02240F20931A0290934202909142022B
:100AE000880F892B8093420280914002813009F562
:100AF00010924002809142028093BB008091BC0022
:100B000083FDF8CF85EC8093BC0080914302813057
:100B1000E1F380911B02841710F440911B02ACE1B9
:100B2000B2E0962FFB018E2F891B841720F0842FB3
:100B3000089585EEE8CF8D918193F5CF40E0F7CF12
:100B40000F93413208F04BC0909143029111FCCFBA
:100B500092E090934302009341029FEF9093D6015D
:100B600010921B0240931A02362FACE1B2E0FB0157
:100B70009E2F931B941770F11092420290914202A3
:100B8000880F892B8093420280914002813029F5A1
:100B900010924002809142028093BB008091BC0081
:100BA00083FDF8CF85EC8093BC00222321F0809157
:100BB00043028230D1F38091D6018F3F91F0809132
:100BC000D601803281F08091D601803371F084E0CB
:100BD0000F91089591919D93CBCF85EEE4CF81E065
:100BE000F7CF80E0F5CF82E0F3CF83E0F1CF209123
:100BF000F801260F3327331F21323105ECF4209101
:100C00004302FC0190E080E0243069F082E0089526
:100C1000A091F8012191AC0146505E4FA40FB52F71
:100C2000B11D2C930196861798F38091F801680FF7
:100C30006093F80180E0089581E0089585ED809348
:100C4000BC008091BC0084FDFCCF1092430208954B
:100C500085EC8093BC001092430208951F920F927E
:100C60000FB60F9211240BB60F922F933F934F9311
:100C70005F936F937F938F939F93AF93BF93EF9304
:100C8000FF938091B900887F803609F44EC008F048
:100C900041C0883209F4AAC028F5803109F49EC009
:100CA000C8F4882309F4FBC0883009F497C0FF9189
:100CB000EF91BF91AF919F918F917F916F915F91D4
:100CC0004F913F912F910F900BBE0F900FBE0F9041
:100CD0001F901895883109F489C0803241F78093BC
:100CE000D60115C0803409F49EC048F48033B9F3AE
:100CF0008833E9F68093D6010E942806D8CF803544
:100D000009F485C0883509F496C0883481F60E94BC
:100D10001E06CDCF883909F48CC038F5883729F004
:100D200050F4883611F0803711F683E08093430247
:100D30001092D70157C0883809F47BC0803919F068
:100D4000803809F0B4CF8091D701803208F071C0AB
:100D5000E091D70181E08E0F8093D7018091BB0095
:100D6000F0E0E852FE4F80833DC0803B39F0E0F474
:100D7000803A09F479C0883A09F099CF84E08093E9
:100D800043021092F9011092F801E0913E02F091B5
:100D90003F0209958091F80181110FC081E0809395
:100DA000F8011092FA0109C0803C09F476C0883C31
:100DB00009F473C0883B09F07ACFE091F90181E032
:100DC0008E0F8093F901F0E0E650FE4F8081809312
:100DD000BB009091F9018091F80129C080914202F5
:100DE0008093BB0085EC8093BC0061CF90911B0287
:100DF00080911A02981758F5E0911B0281E08E0F3E
:100E000080931B02F0E0E45EFD4F8081E9CFE0912A
:100E10001B0281E08E0F80931B028091BB00F0E0EB
:100E2000E45EFD4F808390911B0280911A02981717
:100E3000C8F285E8D8CFE0911B0281E08E0F809345
:100E40001B028091BB00F0E0E45EFD4F8083809147
:100E5000410281115CCF81E08093400284EA80935B
:100E6000BC001092430223CF0E9428068091D70134
:100E7000803230F4E091D701F0E0E852FE4F10826A
:100E80006091D70170E0E0913C02F0913D0288ED65
:100E900091E009951092D7010ACF85ECE0CF10922E
:100EA000D60135CFFC01918D228D892F90E0805C99
:100EB0009F4F821B91098F7399270895FC01918D93
:100EC000828D981731F0828DE80FF11D858D90E0AD
:100ED00008958FEF9FEF0895FC01918D828D9817F3
:100EE00061F0A28DAE0FBF2FB11D5D968C91928DDA
:100EF0009F5F9F73928F90E008958FEF9FEF08950B
:100F0000FC01538D448D252F30E0842F90E0821B0F
:100F1000930B541710F0CF960895019708958AEE19
:100F200098E0892B49F080E090E0892B29F00E941D
:100F3000EA0881110E94000080E090E0892B49F0CE
:100F400080E090E0892B29F00E94000081110C9430
:100F500000000895FC01A48DA80FB92FB11DA35A5C
:100F6000BF4F2C91848D90E001968F739927848FC9
:100F7000A689B7892C93A089B1898C9180648C93C0
:100F8000938D848D981306C00288F389E02D8081AB
:100F90008F7D80830895CF93DF93EC01888D882324
:100FA000B9F0AA89BB89E889F9898C9185FD03C0CC
:100FB000808186FD0DC00FB607FCF7CF8C9185FFB1
:100FC000F2CF808185FFEDCFCE010E94AA07E9CF45
:100FD000DF91CF910895EF92FF920F931F93CF93DC
:100FE000DF93EC0181E0888F9B8D8C8D981316C068
:100FF000E889F989808185FF11C0EE89FF896083C6
:10100000E889F98980818064808381E090E0DF91C4
:10101000CF911F910F91FF90EF900895F62E0B8DB9
:1010200010E00F5F1F4F0F731127E02E8C8D8E1174
:101030000CC00FB607FCFACFE889F989808185FFDB
:10104000F5CFCE010E94AA07F1CFEB8DEC0FFD2F5B
:10105000F11DE35AFF4FF0820B8FEA89FB898081F3
:101060008062D2CFCF92DF92EF92FF921F93CF9305
:10107000DF93EC016A017B01122FE889F98982E094
:101080008083C11481EED806E104F104A1F060E090
:1010900079E08DE390E0A70196010E94D30C2150E6
:1010A00031094109510956954795379527952115DD
:1010B00080E1380798F0E889F989108260E874E8DF
:1010C0008EE190E0A70196010E94D30C21503109D6
:1010D000410951095695479537952795EC85FD852A
:1010E0003083EE85FF852083188EEC89FD8910837F
:1010F000EA89FB89808188698083EA89FB8980810C
:101100008F7D8083DF91CF911F91FF90EF90DF90D3
:10111000CF9008951F920F920FB60F9211240BB625
:101120000F922F938F939F93EF93FF93E09154022D
:10113000F09155028081E0915A02F0915B0282FDAC
:101140001DC0908180915D028F5F8F7320915E0240
:10115000821741F0E0915D02F0E0EC5BFD4F958F6E
:1011600080935D02FF91EF919F918F912F910F904E
:101170000BBE0F900FBE0F901F9018958081F2CF7D
:101180001F920F920FB60F9211240BB60F922F934E
:101190003F934F935F936F937F938F939F93AF93FF
:1011A000BF93EF93FF9384E492E00E94AA07FF911C
:1011B000EF91BF91AF919F918F917F916F915F91CF
:1011C0004F913F912F910F900BBE0F900FBE0F903C
:1011D0001F90189584E492E00E94520721E0892B29
:1011E00009F420E0822F0895E4E4F2E013821282F1
:1011F00088EE93E0A0E0B0E084839583A683B78374
:101200008BE591E09183808385EC90E095878487DE
:1012100084EC90E09787868780EC90E0918B808BC0
:1012200081EC90E0938B828B82EC90E0958B848BA9
:1012300086EC90E0978B868B118E128E138E148E17
:101240000895AF92BF92CF92DF92EF92FF920F93E9
:101250001F93CF93DF936C017B018B01040F151F4C
:10126000EB015E01AE18BF08C017D10759F06991B4
:10127000D601ED91FC910190F081E02DC601099518
:10128000892B79F7C501DF91CF911F910F91FF90C5
:10129000EF90DF90CF90BF90AF900895FB01019049
:1012A0000020E9F73197AF01461B570BDC01ED91A8
:1012B000FC910280F381E02D0994DB0114964D919D
:1012C0005C9115976D917C91DC01ED91FC91028010
:1012D000F381E02D099469E671E00C944E090F93B7
:1012E0001F93CF93DF93EC010E945D098C01CE0127
:1012F0000E946B09800F911FDF91CF911F910F9179
:1013000008950F931F93CF93DF938C01D0E0C0E03B
:101310006115710519F00E944E09EC01C8010E9487
:101320006B098C0F9D1FDF91CF911F910F91089535
:10133000FC01808191810C949A0DCF93DF93EC0195
:1013400088819981009711F00E949A0D1982188264
:101350001D821C821B821A82DF91CF9108950F9308
:101360001F93CF93DF93EC018B016F5F7F4F8881D9
:1013700099810E94230E009751F0998388831B83E3
:101380000A8381E0DF91CF911F910F91089580E052
:10139000F9CFCF93DF93EC0188819981892B49F0B4
:1013A0008A819B818617970720F081E0DF91CF919A
:1013B0000895CE010E94AF098823C1F38C819D81DD
:1013C000892B99F7E881F9811082EFCFEF92FF9294
:1013D0000F931F93CF93DF93EC017B018A01BA0136
:1013E0000E94C90981110BC0CE010E949D09CE0146
:1013F000DF91CF911F910F91FF90EF9008951D8382
:101400000C83B701888199810E940D0FF0CFFC01F8
:101410001182108213821282158214826115710565
:1014200051F0FB0101900020E9F73197AF01461B15
:10143000570B0C94E6090895FB0101900020E9F791
:101440003197AF01461B570B0C94E6090F931F937E
:10145000CF93DF93CDB7DEB729970FB6F894DEBFF1
:101460000FBECDBF8C01862FF8011182108213822E
:1014700012821582148250E0BE016F5F7F4F90E0B0
:101480000E94410FBE016F5F7F4FC8010E941C0A7E
:1014900029960FB6F894DEBF0FBECDBFDF91CF9176
:1014A0001F910F9108950F931F93CF93DF93CDB7A3
:1014B000DEB761970FB6F894DEBF0FBECDBF8C01CB
:1014C000CB01F801118210821382128215821482DC
:1014D00050E0BE016F5F7F4F0E94410FBE016F5F02
:1014E0007F4FC8010E941C0A61960FB6F894DEBFB8
:1014F0000FBECDBFDF91CF911F910F9108950F9334
:101500001F93CF93DF93CDB7DEB7A1970FB6F894B3
:10151000DEBF0FBECDBF8C01CB01BA01F801118235
:101520001082138212821582148230E0AE014F5F66
:101530005F4F0E94140FBE016F5F7F4FC8010E9472
:101540001C0AA1960FB6F894DEBF0FBECDBFDF9187
:10155000CF911F910F910895CF93DF93EC01FB0181
:101560008617970749F0608171816115710541F017
:10157000448155810E94E609CE01DF91CF91089503
:101580000E949D09F9CFFC01118210821382128200
:10159000158214820C94AC0AEF92FF920F931F9362
:1015A000CF93DF936115710541F480E0DF91CF9116
:1015B0001F910F91FF90EF90089541155105B1F0E3
:1015C0007B01EC010C811D81040F151FB8010E94E5
:1015D000C909882351F3288139818C819D81B70104
:1015E000820F931F0E940D0F1D830C8381E0DECFBD
:1015F000FB0144815581608171810C94CC0A611595
:10160000710551F0FB0101900020E9F73197AF011E
:10161000461B570B0C94CC0A80E00895CF93DF93C0
:10162000EC01FB0144815581608171810E94CC0AEB
:10163000811103C0CE010E949D09CE01DF91CF919F
:101640000895CF93DF93EC016115710539F4CE0154
:101650000E949D09CE01DF91CF910895FB01019079
:101660000020E9F73197AF01461B570B0E94CC0AC7
:10167000882369F3EFCF08950E94FE0B0E943B0B75
:101680000E945902CFE8D7E00E94B0002097E1F312
:101690000E948F07F9CF1F920F920FB60F9211245D
:1016A0002F933F938F939F93AF93BF938091E602C5
:1016B0009091E702A091E802B091E9023091E50231
:1016C00023E0230F2D3768F126E8230F0296A11D92
:1016D000B11D2093E5028093E6029093E702A09368
:1016E000E802B093E9028091E1029091E202A091B8
:1016F000E302B091E4020196A11DB11D8093E102C5
:101700009093E202A093E302B093E402BF91AF9101
:101710009F918F913F912F910F900FBE0F901F902F
:1017200018950196A11DB11DD4CF3FB7F8948091B3
:10173000E1029091E202A091E302B091E40226B5A9
:10174000A89B05C02F3F19F00196A11DB11D3FBFF9
:10175000BA2FA92F982F8827BC01CD01620F711DC8
:10176000811D911D42E0660F771F881F991F4A95C2
:10177000D1F708958F929F92AF92BF92CF92DF924E
:10178000EF92FF926B017C010E94950B4B015C0173
:10179000C114D104E104F104E9F00E94D20C0E94CA
:1017A000950B681979098A099B09683E7340810580
:1017B000910570F321E0C21AD108E108F10888EE22
:1017C000880E83E0981EA11CB11CC114D104E10451
:1017D000F10429F7FF90EF90DF90CF90BF90AF908A
:1017E0009F908F9008958230910538F0880F991F4F
:1017F000880F991F05970197F1F70895789484B59C
:10180000836084BD85B5836085BDEEE6F0E08081B0
:1018100081608083E1E8F0E082E080838081816004
:101820008083E0E8F0E0808181608083E1EBF0E09C
:10183000808184608083E0EBF0E080818160808340
:10184000E1E9F0E0808183608083E0E9F0E080817D
:101850008160808387E880937A001092C1000895A8
:1018600082508A3088F5E82FF0E0E75CF34F0C9463
:10187000F50C610C650C430C490C640C640C4D0CAC
:10188000530C570C5D0C809180008F778093800003
:101890000895809180008F7DF9CF8091B0008F777F
:1018A0008093B00008958091B0008F7DF9CF809132
:1018B00090008F77809390000895809190008F7DA5
:1018C000F9CF84B58F7784BD089584B58F7DFBCF24
:1018D000CF93DF9390E0FC01E455FF4F24918453B4
:1018E0009F4FFC0184918823C9F090E0880F991FD5
:1018F000FC01EA50FF4FA591B491FC01E451FF4F68
:10190000C591D49161110DC09FB7F8948C91209529
:1019100082238C938881282328839FBFDF91CF91D6
:101920000895623051F49FB7F8943C91822F8095CE
:1019300083238C93E8812E2BEFCF8FB7F894EC9113
:101940002E2B2C938FBFEACF1F93CF93DF93282F9B
:1019500030E0F901E457FF4F8491F901E455FF4F5E
:10196000D491F901E453FF4FC491CC23A9F0162F71
:1019700081110E94300CEC2FF0E0EE0FFF1FE451BC
:10198000FF4FA591B4918FB7F894EC91111108C055
:10199000D095DE23DC938FBFDF91CF911F91089507
:1019A000DE2BF8CF0895A1E21A2EAA1BBB1BFD0166
:1019B0000DC0AA1FBB1FEE1FFF1FA217B307E4072E
:1019C000F50720F0A21BB30BE40BF50B661F771F86
:1019D000881F991F1A9469F7609570958095909566
:1019E0009B01AC01BD01CF010895EE0FFF1F002444
:1019F000001C0BBE0790F691E02D09940F931F93E6
:101A0000CF93DF938230910510F482E090E0E09173
:101A1000EC02F091ED0230E020E0B0E0A0E0309781
:101A200099F42115310509F44AC0281B390B2430DB
:101A30003105D8F58A819B816115710589F1FB011A
:101A400093838283FE0111C0408151810281138101
:101A500048175907E0F04817590799F4109761F0B3
:101A600012960C93129713961C933296CF01DF9126
:101A7000CF911F910F9108950093EC021093ED0206
:101A8000F4CF2115310551F04217530738F0A90161
:101A9000DB019A01BD01DF01F801C1CFEF01F9CFF0
:101AA0009093ED028093EC02CDCFFE01E20FF31F85
:101AB000819391932250310939832883D7CF209184
:101AC000EA023091EB02232B41F420910201309184
:101AD00003013093EB022093EA0220910001309140
:101AE00001012115310541F42DB73EB740910401A4
:101AF00050910501241B350BE091EA02F091EB02B5
:101B0000E217F307A0F42E1B3F0B2817390778F0D4
:101B1000AC014E5F5F4F2417350748F04E0F5F1F33
:101B20005093EB024093EA02819391939FCFF0E0B0
:101B3000E0E09CCFCF93DF930097E9F0FC01329770
:101B400013821282A091EC02B091ED02ED0130E01F
:101B500020E01097A1F420813181820F931F209102
:101B6000EA023091EB022817390709F061C0F093BF
:101B7000EB02E093EA02DF91CF910895EA01CE17DC
:101B8000DF07E8F54A815B819E0141155105B1F7F8
:101B9000E901FB83EA8349915991C40FD51FEC17E2
:101BA000FD0761F4808191810296840F951FE90100
:101BB00099838883828193819B838A83F0E0E0E02C
:101BC00012968D919C9113970097B9F52D913C91A8
:101BD0001197CD010296820F931F2091EA02309156
:101BE000EB022817390739F6309751F51092ED02BC
:101BF0001092EC02B093EB02A093EA02BCCFD38325
:101C0000C28340815181840F951FC817D90761F4A1
:101C10004E5F5F4F88819981480F591F51834083E0
:101C20008A819B81938382832115310509F0B0CF8E
:101C3000F093ED02E093EC029ECFFD01DC01C0CFFA
:101C400013821282D7CF4F925F926F927F928F92C0
:101C50009F92AF92BF92CF92DF92EF92FF920F933B
:101C60001F93CF93DF938C01009799F4CB01DF9101
:101C7000CF911F910F91FF90EF90DF90CF90BF9089
:101C8000AF909F908F907F906F905F904F900C944B
:101C9000FE0CFC01E60FF71F9C0122503109E217F0
:101CA000F30708F4AEC0D901CD91DC911197C617A6
:101CB000D70720F1C530D10578F0CE0104978617FB
:101CC000970750F0C61BD70B2297C193D1936D9302
:101CD0007C93CF010E949A0DC801DF91CF911F9193
:101CE0000F91FF90EF90DF90CF90BF90AF909F90BB
:101CF0008F907F906F905F904F9008955B01AC1A2A
:101D0000BD0A4C018C0E9D1EA091EC02B091ED021B
:101D1000512C412CF12CE12C109731F58091EA02E5
:101D20009091EB028815990509F05CC0461657069C
:101D300008F058C08091000190910101009741F492
:101D40008DB79EB74091040150910501841B950BFE
:101D5000E817F90708F055C0F093EB02E093EA02A8
:101D6000F90171836083B8CF8D919C911197129680
:101D70006C90129713967C901397A815B90559F596
:101D80006C0142E0C40ED11CCA14DB0420F1AC018A
:101D90004A195B09DA011296159780F06282738204
:101DA00051834083D9016D937C93E114F10471F068
:101DB000D7011396FC93EE9312978ECF22968C0F39
:101DC0009D1FF90191838083F301EFCFF093ED0222
:101DD000E093EC0281CF4816590608F42C017D01EE
:101DE000D3019ACFCB010E94FE0C7C01009749F0F1
:101DF000AE01B8010E94040FC8010E949A0D87012C
:101E00006BCF10E000E068CFFB01DC0102C0019065
:101E10000D9241505040D8F70895FB01DC0101902C
:101E20000D920020E1F708952532310520F422308B
:101E300010F00C941F0FFA011082CA010895BB27FD
:101E4000FA01A62F6217710581059105330B30FB4E
:101E500066F0AA27660F771F881F991FAA1FA2176F
:101E600010F0A21B63953850A9F7A05DAA3308F0C3
:101E7000A95DA19336F7B111B1931082CA010C94F8
:101E8000660F4532510520F4423010F00C944C0F8F
:101E9000FB011082CB010895BB27FB015527AA2720
:101EA000880F991FAA1FA41710F0A41B83955051E7
:101EB000B9F7A05DAA3308F0A95DA193009779F75F
:101EC000B111B1931192CB010C94660FDC01FC01AE
:101ED000672F71917723E1F7329704C07C916D935E
:101EE00070836291AE17BF07C8F3089510E0C3E88E
:101EF000D0E004C0FE010E94F50C2196C438D10741
:101F0000C9F7F894FFCF0000EE028000030001241F
:101F1000484953542C005541563030006D616E7560
:101F2000616C5F6275696C6400234376616B2E2E71
:101F30002E0023486D6D6D2E2E2E0024444F532C01
:101F40004C4142444F533031412C00000000004CC2
:101F5000047B041F044B04220429043C04000000F9
:101F600000EB0721098007CB0752076C075E070DBE
:021F70000A0065
:020000040001F9
:10FC000002C0F3C03BC1112484B790E89093610017
:10FC100010926100882369F0982F9A70923049F011
:10FC200081FF02C097EF94BF282E80E001D10C9491
:10FC3000000085E08093810082E08093C00088E12D
:10FC40008093C10080E18093C40086E08093C2006D
:10FC50008EE0EED0209A84E020E33CEF91E03093F8
:10FC600085002093840096BBB09BFECF189AA89580
:10FC70004091C00047FD02C0815089F7CDD081344A
:10FC800079F4CAD0C82FDAD0C23811F480E004C0A9
:10FC900088E0C13809F083E0B8D080E1B6D0EECF7B
:10FCA000823419F484E1D2D0F8CF853411F485E0A0
:10FCB000FACF853581F4B0D0E82EAED0F82E87FF8C
:10FCC00007C08BB781608BBFEE0CFF1CB7D0E5CFB0
:10FCD0008BB78E7FF8CF863579F49ED08D3451F472
:10FCE0009BD0CBB799D0C170880F8C2B8BBF81E094
:10FCF000ADD0CCCF83E0FCCF843609F045C08CD0AA
:10FD0000C82FD0E0DC2FCC2787D0C82B85D0D82EA9
:10FD10005E01B39400E011E04801EFEF8E1A9E0AF5
:10FD20007BD0F801808384018A149B04A9F786D0D4
:10FD3000F5E410E000E0DF1609F150E040E063E098
:10FD4000C70153D08701C12CDD24D394F601419122
:10FD500051916F0161E0C80148D00E5F1F4F22979B
:10FD6000A9F750E040E065E0C7013FD096CF608141
:10FD7000C8018E0D9F1D02D10F5F1F4FF801F39533
:10FD8000C017D107A1F789CF843701F545D0C82F17
:10FD9000D0E0DC2FCC2740D0C82B3ED0D82E4ED080
:10FDA0008701F5E4DF120BC0CE0DDF1DC801DED0E8
:10FDB0002CD00F5F1F4FC017D107C1F76ECFF801CE
:10FDC00087918F0122D02197D1F767CF853739F4FA
:10FDD00035D08EE11AD087E918D085E05DCF813526
:10FDE00009F074CF88E024D071CFFC010A0167BF0D
:10FDF000E895112407B600FCFDCF667029F0452B6D
:10FE000019F481E187BFE89508959091C00095FFAE
:10FE1000FCCF8093C60008958091C00087FFFCCF7F
:10FE20008091C00084FD01C0A8958091C60008950E
:10FE3000E0E6F0E098E1908380830895EDDF803282
:10FE400019F088E0F5DFFFCF84E1DFCFCF93C82F33
:10FE5000E3DFC150E9F7CF91F1CFCF92DF92EF927C
:10FE6000FF92DC01CB01642F6D01EE24FF24CBBE99
:10FE7000A901FF90EF90DF90CF90B7CF2F923F92E4
:10FE80004F925F926F927F928F929F92AF92BF92AA
:10FE9000CF92DF92EF92FF920F931F93CF93DF9356
:10FEA00000D01F92CDB7DEB71801E9826B017C014B
:10FEB00010E000E029013A014C185D086E087F0847
:10FEC00046015701840C951CA61CB71C021513058E
:10FED00031F489818823A1F188E0AADFFFCF30E0E7
:10FEE00020E043E0C701B601B8DF80E890E09B83E3
:10FEF0008A83ABBEF40127913691C501B401641920
:10FF000075098609970941E0A8DF8A819B810197DD
:10FF10009B838A8392E0890E911CA11CB11C8A816B
:10FF20009B81892B31F730E020E045E0C701B60125
:10FF300094DF9FEFD91AE90AF90A0F5F1F4FC0CF6C
:10FF40000F900F900F90DF91CF911F910F91FF9025
:10FF5000EF90DF90CF90BF90AF909F908F907F9069
:10FF60006F905F904F903F902F900895F999FECF3A
:10FF700092BD81BDF89A992780B50895262FF999E9
:10FF8000FECF1FBA92BD81BD20BD0FB6F894FA9A7C
:08FF9000F99A0FBE01960895D5
:02FFFE000008F9
:00000001FF
