:100000000C9485000C94AF000C94AF000C94AF00DE
:100010000C94AF000C94AF000C94AF000C94AF00A4
:100020000C94AF000C94AF000C94AF000C94AF0094
:100030000C94AF000C94AF000C94AF000C94AF0084
:100040000C94AF000C94AF000C94870F0C94AF008D
:100050000C94960C0C94CC0C0C94AF000C94AF0048
:100060000C94AF000C94AF000C94270A0C94AF00D2
:100070000C94AF000C94AF000C94AF000C94AF0044
:100080000C94AF000C94AF000C94AF000000000281
:1000900003000A0B0000000005040908000000002E
:1000A0000000000000000000000000000102040841
:1000B0001020408001020408102040800102040842
:1000C0001020408001020408102040800202020239
:1000D00002020202040404040404040403030303EC
:1000E00003030303010101010101010100002200DA
:1000F000250028002B0000002100240027002A00F2
:1001000066021D063C09000D720211241FBECFEFCE
:10011000D0E4DEBFCDBF11E0A0E0B1E0E2EBF8E259
:1001200000E00BBF02C007900D92AA3CB107D9F7BF
:1001300023E0AAECB1E001C01D92A134B207E1F7BF
:1001400010E0C4E8D0E004C02197FE010E948811AD
:10015000C038D107C9F70E94780F0C944C140C9446
:1001600000004F925F926F927F928F929F92AF9218
:10017000BF92CF92DF92EF92FF920F931F93CF9394
:10018000DF93CDB7DEB7CC50D8400FB6F894DEBFC2
:100190000FBECDBFFE0131968E010F5F174F7F015D
:1001A00011921192E017F107D9F78091060120E42E
:1001B000829FC0011124806180937C0010927B009B
:1001C00080917A00806280937A0080917A008064C6
:1001D00080937A0080917A00846080937A00809185
:1001E0007A00826080937A0080917A0081608093A7
:1001F0007A0081E085B980917A00806180937A00ED
:1002000080917A0084FFFCCF8FE984B984E690E086
:100210000E942F108EE984B980917A0080618093CA
:100220007A0080917A0084FFFCCF8FE984B90000C6
:1002300000000000000000008EE984B980917A007F
:10024000806180937A0060EBA62E63EBB62E992432
:100250009394D12CC12C7FE9772EEEE96E2E8091FC
:100260007A0084FFFCCF83B086E990E00E942F10D3
:1002700074B887E090E00E942F1064B880917A00F3
:10028000806180937A00909178009093DF01809153
:1002900079008093DE018927982789278115E2E07C
:1002A0009E07C0F59E5F9093DD018093DC0190FE78
:1002B00033C0FFEFCF1ADF0A21E0A21AB108982C51
:1002C00071F650E040E06AEC71E082EF91E00E944C
:1002D00035078AEC91E00E9495042B013C012091A6
:1002E000070130910801C9010296FC01EE0FFF1FC2
:1002F000EE0DFF1D812C912C54012C503E4F821786
:100300009307C0F441915191840E951EA11CB11C1C
:100310000196F5CF9250C7CFE091DC01F091DD015D
:10032000EE0FFF1FEE0DFF1D8081918101969183DD
:100330008083C2CF61E087E10E94E01069EC71E048
:10034000CE01895F974F0E94160E64E371E0CE01E3
:10035000895F974F0E943B0F6091E4017091E50126
:100360004AE0C8010E94620EB801CE01895F974F32
:100370000E94340FC8010E94A40D66E971E0CE010D
:10038000895F974F0E943B0FB301A201405853442D
:100390006D4678432AE0C8010E948E0EB801CE0156
:1003A000895F974F0E94340FC8010E94A40D66E92F
:1003B00071E0CE01895F974F0E943B0F4AE0B60182
:1003C000C8010E94620EB801CE01895F974F0E945A
:1003D000340FC8010E94A40D66E971E0CE01895F67
:1003E000974F0E943B0F2AE0B501A401C8010E946B
:1003F000BB0EB801CE01895F974F0E94340FC80130
:100400000E94A40D80910701909108016C01E1E028
:10041000CE1AD10881509048880F991FE80EF91E16
:1004200080910701909108018D509E4FC816D90602
:10043000E0F466E971E0CE01895F974F0E943B0FBF
:10044000F701619171917F014AE0C8010E94620E3B
:10045000B801CE01895F974F0E94340FC8010E94F6
:10046000A40DFFEFCF1ADF0ADBCF8091E40190915A
:10047000E50101969093E5018093E401BE01695F77
:10048000774F87E992E00E947B0D60E087E10E9450
:10049000E010CE01895F974F0E94A40DC45FD74F33
:1004A0000FB6F894DEBF0FBECDBFDF91CF911F9185
:1004B0000F91FF90EF90DF90CF90BF90AF909F9003
:1004C0008F907F906F905F904F9008956BE371E0F5
:1004D0008CEE91E00E94160E63E471E086EE91E0EE
:1004E0000C94160E86EE91E00E94A40D8CEE91E025
:1004F0000C94A40DFF920F931F93CF93DF93CDB76E
:10050000DEB762970FB6F894DEBF0FBECDBF61E0D5
:1005100085E10E94A41061E085E10E94E01064E69C
:1005200070E080E090E00E94F60F26E040E052ECA0
:1005300061E070E087E992E00E943E0C66E771E0BE
:1005400087E992E00E948D0D8091060120E4829F50
:10055000C0011124806180937C0010927B00809107
:100560007A00806280937A0080917A008064809320
:100570007A0080917A00846080937A0080917A007A
:10058000826080937A0080917A00816080937A0003
:1005900061E080E00E94A4108EE984B915B88CEF68
:1005A00081B912B89CEE97B918B88AB980E88BB9AE
:1005B00040EA56E861E070E085EF91E00E94B00803
:1005C00061E085E10E94A41061E085E10E94E010F5
:1005D00064E670E080E090E00E94F60F6FE771E063
:1005E00087E992E00E948D0D61E086E10E94A410EF
:1005F00061E086E10E94E01064E670E080E090E057
:100600000E94F60F98E0F92E8091060120E4829F67
:10061000C0011124816180937C0062E370E080E07E
:1006200090E00E94F60F10927B0080917A00806229
:1006300080937A0080917A00806480937A00809120
:100640007A00846080937A0080917A00826080933F
:100650007A0080917A00816080937A0080917A009C
:10066000806180937A0080917A0084FFFCCF809132
:100670007A00806180937A00909178009093DF01F6
:10068000809179008093DE01892798278927811539
:1006900022E0920708F0F9C09E5F9093DD018093FD
:1006A000DC018091DC019091DD01080F191FFA94A3
:1006B000F110AACF83E0169507958A95E1F710937C
:1006C00008010093070161E087E10E94A41061E046
:1006D00087E10E94E01064E670E080E090E00E9414
:1006E000F60F60910701709108014AE0CE01019672
:1006F0000E94620E68E871E0CE0107960E94160E15
:100700006CEE71E0CE0107960E944A0F66E971E037
:100710000E945D0FBE016F5F7F4F0E944A0F66E926
:1007200071E00E945D0F66EE71E00E944A0F66E97B
:1007300071E00E945D0FBC01CE010D960E94FF0E7C
:10074000CE0107960E94A40DCE0101960E94A40D31
:1007500068E570E085EF91E00E94BE0868E085EFF3
:1007600091E00E94540860E085EF91E00E945408F7
:1007700085EF91E00E94390940E168E585EF91E05D
:100780000E94360910E185EF91E00E943108082FA0
:10079000803130F468E971E0CE010D960E943B0F84
:1007A00040E1602FCE0101960E94350EBE016F5FC1
:1007B0007F4FCE010D960E94340FCE0101960E940C
:1007C000A40D8091E0019091E101A091E201B0912E
:1007D000E301800F911DA11DB11D8093E001909355
:1007E000E101A093E201B093E301115061F6BE0173
:1007F000635F7F4F87E992E00E947B0D61E085E1B6
:100800000E94A41060E085E10E94E01064E670E0C0
:1008100080E090E00E94F60F61E086E10E94A41063
:1008200060E086E10E94E01064E670E080E090E025
:100830000E94F60F61E087E10E94A41060E087E16A
:100840000E94E01064E670E080E090E00E94F60F05
:1008500026E04AE951E06DE971E082EF91E00E9403
:100860004C0682EF91E00E943E06CE010D960E945A
:10087000A40D62960FB6F894DEBF0FBECDBFDF9118
:10088000CF911F910F91FF900895925006CFCF9373
:10089000DF93CDB7DEB72D970FB6F894DEBF0FBE4E
:1008A000CDBF2DE0E9E0F1E0DE01119601900D925F
:1008B0002A95E1F7623021F483709927892B81F022
:1008C000E1E0F0E0EC0FFD1FE60FF11D80812D96B9
:1008D0000FB6F894DEBF0FBECDBFDF91CF91089564
:1008E0008DE1F5CFDF92EF92FF920F931F93CF939D
:1008F000DF937C01D62E142F61E0D0E0C0E06D15AF
:1009000048F401E0060FC7010E944704C80FD11D3B
:10091000602FF5CFCE01810F911DDF91CF911F91F7
:100920000F91FF90EF90DF9008957F928F929F92AA
:10093000AF92BF92CF92DF92EF92FF920F931F93ED
:10094000CF93DF93EC01888199816CE370E00E9482
:1009500033112A813B81620F731F7B836A8397FD6A
:1009600033C0998388838A819B816CE370E00E9405
:1009700033112C813D81620F731F7D836C8397FD42
:100980002BC09B838A838C819D8168E170E00E94EB
:1009900033112E813F81620F731F7F836E8397FD1A
:1009A00023C09D838C83888599850C9740F48E8124
:1009B0009F813BE0A32EB12C18161906FCF0CC2425
:1009C000CA94DC2C7601D4C0CC969983888361507C
:1009D00071097B836A83C7CFCC969B838A836150DE
:1009E00071097D836C83CFCF48969D838C83615042
:1009F00071097F836E83D7CFD986C886C884D9848E
:100A0000772473947C0C0A851B85480184E9881A35
:100A100088EF980A672DC4010E944704EE80FF808A
:100A200090E08E159F0594F4E81AF90AFF82EE8291
:100A30008FEFC81AD80A8CE0C816D104E9F61986D7
:100A400018860F5F1F4F1B870A87D8CF1E141F04FD
:100A5000DCF081E0C81AD10880F0D986C8866885A4
:100A60006F5F8A859B858459984F0E9447048E0D3D
:100A70009F2D911D9F838E83C1CFB986A88601507B
:100A800011091B870A87EBCF4E2D672DC4010E94E9
:100A90007204FC013197FF87EE8706548DE691E0E2
:100AA000089F9001099F300D1124032E000C440B68
:100AB000550B802F86958695280F311D411D511DA0
:100AC00060E871E581E090E00E940F110370C12C95
:100AD000D12C7601033039F420E8C22E21E5D22E44
:100AE000EE24E394F12CC60ED71EE81EF91EDF019A
:100AF00020E831E541E050E00E94A311C60ED71E68
:100B0000E81EF91EAC81BD8120E13EE00E949111FA
:100B1000C60ED71EE81EF91E2A813B814CE3429F78
:100B2000C001439F900D1124C80ED91EE11CF11C79
:100B300088819981092E000CAA0BBB0BC80ED91E07
:100B4000EA1EFB1EC701B60120E831E541E050E096
:100B50000E946911CA01B9016C5F7F4F8F4F9F4F8F
:100B600027E030E040E050E00E9447117D876C872D
:100B7000C701B601DF91CF911F910F91FF90EF90C8
:100B8000DF90CF90BF90AF909F908F907F9008950F
:100B9000982F92959F708F702AE0929F800D11245C
:100BA0000895CF93DF93CDB7DEB76E970FB6F89465
:100BB000DEBF0FBECDBF9C018FE0E6E1F1E0DE01BC
:100BC000509601900D928A95E1F78FE0E5E2F1E011
:100BD000DE01119601900D928A95E1F7F901A1814C
:100BE000B28195E09A9FF0019B9FF00D1124A1E046
:100BF000B0E0AC0FBD1FEA0FFB1FE60FF71F8081AF
:100C0000FA018083D90111962D913C91929FF001B8
:100C1000939FF00D112481E090E08C0F9D1FE80F51
:100C2000F91FE60FF71F87856E960FB6F894DEBFA3
:100C30000FBECDBFDF91CF910895E2EFF1E088E6DE
:100C40008083128211820895CF93DF93D62FC42F11
:100C5000FC01608185EF91E00E94B4086D2F85EF63
:100C600091E00E9454086C2F85EF91E00E94540897
:100C700085EF91E0DF91CF910C943909FC0121813E
:100C800032812230310531F44CE26FE20E942406B9
:100C900081E0089580E008958F929F92AF92BF9275
:100CA000CF92DF92EF92FF920F931F93CF93DF9338
:100CB0004C017B018A01C22ED12CD0E0C0E0CC15C2
:100CC000DD05E9F15801F801608185EF91E00E94AE
:100CD000B40860E085EF91E00E94540885EF91E050
:100CE0000E94390941E0F80161918F0185EF91E09F
:100CF0000E94360985EF91E00E942A089E012F5F2D
:100D00003F4F892BD1F0CC0FDD1FCE0DDF1D888129
:100D10009981F5012081F40120839283818381E010
:100D2000DF91CF911F910F91FF90EF90DF90CF90C7
:100D3000BF90AF909F908F900895E901C0CF80E061
:100D4000EFCF1F93CF93DF93EC01162F688185EFD0
:100D500091E00E94B408612F85EF91E00E94540851
:100D600085EF91E00E94390941E0688185EF91E0CB
:100D70000E94360985EF91E00E943108C82F85EF67
:100D800091E00E9439098C2FDF91CF911F91089536
:100D9000EF92FF920F931F93CF93DF938C01EB01A0
:100DA000E42EF22EFC01608185EF91E00E94B408F0
:100DB0006E2D85EF91E00E94540885EF91E00E942E
:100DC00039094F2DF801608185EF91E00E943609C5
:100DD0001982188285EF91E00E9431088F770E9476
:100DE000C80590E09B838A8385EF91E00E943108DB
:100DF0008F730E94C80590E09D838C831D861C869E
:100E000085EF91E00E9431088F730E94C80590E041
:100E10009F838E8385EF91E00E9431088C018F7152
:100E20000E94C8058150990B9987888785E01595A0
:100E300007958A95E1F707701127015011091D8761
:100E40000C8786E490E09B878A878FEF9FEF9F87D0
:100E50008E8785EF91E00E94390981E0DF91CF9183
:100E60001F910F91FF90EF9008955F926F927F9284
:100E70008F929F92AF92BF92CF92DF92EF92FF92AA
:100E80000F931F93CF93DF931F92CDB7DEB77C01F3
:100E90008B016A011982AE014F5F5F4FB6010E945C
:100EA000D105582E298180E0222371F0F70181813C
:100EB00092810197D1F4C60103970297B0F4452DB2
:100EC000B801C7010E94C8060F90DF91CF911F9112
:100ED0000F91FF90EF90DF90CF90BF90AF909F90D9
:100EE0008F907F906F905F90089586E4882E912C6C
:100EF00066246A94762CF701608185EF91E00E9468
:100F0000B408652D85EF91E00E94540885EF91E0CB
:100F10000E9439094981F701608185EF91E00E94C3
:100F2000360985EF91E00E9431088F770E94C8054D
:100F300090E0F8019183808385EF91E00E94310871
:100F40008F770E94C80590E0F8019383828385EF34
:100F500091E00E943108B82E86FF4CC08F710E942C
:100F6000C80590E0B5FC44C0F80195838483F7017F
:100F700081819281029709F042C085EF91E00E9441
:100F800031088F730E94C80590E0F801978386832B
:100F900085EF91E00E94310887709927F8019587C5
:100FA000848785EF91E00E9431088F710E94C80507
:100FB0008150990BF8019187808789818730A8F14A
:100FC00085EF91E00E9431080E94C80590E08C599D
:100FD0009F4FF80193878287F8017786668685EFB1
:100FE00091E00E943909C114D10411F181E06CCF64
:100FF0000C96BACF8F730E94C80590E0B5CF85EFED
:1010000091E00E943108877099270197F801958730
:10101000848785EF91E00E9431088F730E94C80594
:1010200090E0F80197838683BCCF93868286D4CFE5
:10103000F801A080B180652DC7010E94A1068F77BD
:101040000E94C8058A151B0409F055CFCFCF90E048
:1010500080E008958091250290912602891B990BCA
:10106000089590912602809125022FEF3FEF981767
:1010700048F4E92FF0E0E95DFD4F208130E09F5F0B
:1010800090932602C9010895E091260280912502DD
:10109000E81730F4F0E0E95DFD4F808190E00895BD
:1010A0008FEF9FEF08950895CF93DF931F92CDB7F1
:1010B000DEB76983209101022223F9F02091020218
:1010C000203258F021E030E0FC013383228390E0AD
:1010D00080E00F90DF91CF91089580910302E82F77
:1010E000F0E0EC5FFD4F998190838F5F8093030266
:1010F0008093020281E090E0ECCF61E0CE010196A6
:101100000E94F009F7CFCF92DF92EF92FF920F93F8
:101110001F93CF93DF937C01CB018A0120910102C1
:10112000222389F0EB016B01C40ED51ECC15DD0521
:1011300069F06991D701ED91FC910190F081E02D6A
:10114000C7010995F3CF642F0E94F009C801DF9110
:10115000CF911F910F91FF90EF90DF90CF90089566
:10116000CB01BA010C944D0981E080930102609398
:101170002402109203021092020208950C94B40803
:101180000F93062F21E04091020264E072E080910B
:1011900024020E94A00910920302109202021092EF
:1011A00001020F9108954F925F926F927F92AF92DA
:1011B000BF92CF92EF92FF920F931F93CF93DF9343
:1011C0005C01F62ED42F28013901EE2019F10E947E
:1011D000B408CE2DC43008F0C3E0C150B8F028E008
:1011E000C29FC0011124A301920104C056954795E6
:1011F000379527958A95D2F7B901D501ED91FC91E4
:101200000190F081E02DC5010995E7CF60E0C501AF
:101210000E94C0084D2FD13208F040E22C2D67E229
:1012200072E08F2D0E9460091092260280932502A1
:10123000DF91CF911F910F91FF90EF90CF90BF90D2
:10124000AF907F906F905F904F900895CF92EF9204
:101250000F931F93C22EE12C00E010E098010E9432
:10126000D3081F910F91EF90CF90089521E00C9437
:10127000260961E00C94C008E5EFF1E013821282C8
:1012800088EE93E0A0E0B0E084839583A683B783E3
:1012900087EA91E09183808308959B01AC0160E02F
:1012A00074E284EF90E00E94471120513109410916
:1012B000510956954795379527952093B80008957D
:1012C0004132E0F5909196029111FCCF91E090931C
:1012D0009602209394022FEF2093470270938E0280
:1012E00060938D0210928C02240F20938B029093B6
:1012F000950290919502880F892B80939502809199
:1013000093028130C9F410929302809195028093E8
:10131000BB008091BC0083FDF8CF85EC8093BC00BE
:10132000809196028130E1F380918C02841710F451
:1013300040918C02842F089585EEF0CF40E0FACFE3
:101340000F93413208F044C0909196029111FCCF66
:1013500092E090939602009394029FEF909347023D
:1013600070938E0260938D0210928C0240938B02D8
:101370001092950290919502880F892B8093950287
:1013800080919302813011F5109293028091950221
:101390008093BB008091BC0083FDF8CF85EC8093E7
:1013A000BC00222321F0809196028230D1F38091FB
:1013B00047028F3F79F080914702803269F0809137
:1013C0004702803359F084E00F91089585EEE7CF0E
:1013D00081E0FACF80E0F8CF82E0F6CF83E0F4CF6F
:1013E00020916902260F3327331F21323105ECF497
:1013F00020919602FC0190E080E0243069F082E0C8
:101400000895A09169022191AC0145595D4FA40F47
:10141000B52FB11D2C930196861798F38091690220
:10142000680F6093690280E0089581E0089585ED7A
:101430008093BC008091BC0084FDFCCF109296028A
:10144000089585EC8093BC001092960208951F9237
:101450000F920FB60F9211240BB60F922F933F935A
:101460004F935F936F937F938F939F93AF93BF93AC
:10147000EF93FF938091B900887F803609F44EC0C6
:1014800008F041C0883209F4AAC028F5803109F477
:101490009EC0C8F4882309F407C1883009F497C0B6
:1014A000FF91EF91BF91AF919F918F917F916F913C
:1014B0005F914F913F912F910F900BBE0F900FBEF8
:1014C0000F901F901895883109F489C0803241F738
:1014D0008093470215C0803409F4A6C048F48033D5
:1014E000B9F38833E9F6809347020E94210AD8CFE6
:1014F000803509F489C0883509F49EC0883481F6A6
:101500000E94170ACDCF883909F494C038F588377E
:1015100029F050F4883611F0803711F683E080937B
:1015200096021092480257C0883809F483C0803967
:1015300019F0803809F0B4CF80914802803208F069
:1015400079C0E091480281E08E0F8093480280913B
:10155000BB00F0E0E75BFD4F80833DC0803B39F08E
:10156000E0F4803A09F485C0883A09F099CF84E024
:101570008093960210926A0210926902E0919102A1
:10158000F091920209958091690281110FC081E06A
:101590008093690210926B0209C0803C09F482C0FA
:1015A000883C09F47FC0883B09F07ACFE0916A0259
:1015B00081E08E0F80936A02F0E0E559FD4F808153
:1015C0008093BB0090916A028091690231C0809142
:1015D00095028093BB0085EC8093BC0061CF909115
:1015E0008C0280918B029817B8F580918D029091B2
:1015F0008E02E0918C0221E02E0F20938C02E80FE6
:10160000F92FF11D8081E5CF20918D0230918E025E
:10161000E0918C0281E08E0F80938C028091BB0060
:10162000E20FF32FF11D808390918C0280918B0249
:10163000981788F285E8D0CF20918D0230918E02E4
:10164000E0918C0281E08E0F80938C028091BB0030
:10165000E20FF32FF11D808380919402811150CF0E
:1016600081E08093930284EA8093BC0010929602FA
:1016700017CF0E94210A80914802803230F4E09115
:101680004802F0E0E75BFD4F10826091480270E095
:10169000E0918F02F091900289E492E00995109216
:1016A0004802FECE85ECE0CF1092470229CFFC0124
:1016B000918D228D892F90E0805C9F4F821B910934
:1016C0008F7399270895FC01918D828D981731F0C1
:1016D000828DE80FF11D858D90E008958FEF9FEFCB
:1016E0000895FC01918D828D981761F0A28DAE0F47
:1016F000BF2FB11D5D968C91928D9F5F9F73928FCE
:1017000090E008958FEF9FEF0895FC01538D448D75
:10171000252F30E0842F90E0821B930B541710F09C
:10172000CF9608950197089586EF9CE0892B49F0A4
:1017300080E090E0892B29F00E94F60C81110E9434
:10174000000080E090E0892B49F080E090E0892B58
:1017500029F00E94000081110C9400000895FC0102
:10176000A48DA80FB92FB11DA35ABF4F2C91848D02
:1017700090E001968F739927848FA689B7892C935F
:10178000A089B1898C91837080648C93938D848DB2
:10179000981306C00288F389E02D80818F7D8083B5
:1017A0000895CF93DF93EC01888D8823B9F0AA893F
:1017B000BB89E889F9898C9185FD03C0808186FD0C
:1017C0000DC00FB607FCF7CF8C9185FFF2CF80815B
:1017D00085FFEDCFCE010E94AF0BE9CFDF91CF9116
:1017E0000895EF92FF920F931F93CF93DF93EC0135
:1017F00081E0888F9B8D8C8D98131AC0E889F989B8
:10180000808185FF15C09FB7F894EE89FF896083BA
:10181000E889F98980818370806480839FBF81E03B
:1018200090E0DF91CF911F910F91FF90EF9008957D
:10183000F62E0B8D10E00F5F1F4F0F731127E02E58
:101840008C8D8E110CC00FB607FCFACFE889F98990
:10185000808185FFF5CFCE010E94AF0BF1CFEB8DDC
:10186000EC0FFD2FF11DE35AFF4FF0829FB7F89464
:101870000B8FEA89FB8980818062CFCFCF92DF9284
:10188000EF92FF921F93CF93DF93EC016A017B01EC
:10189000122FE889F98982E08083C11481EED8068D
:1018A000E104F104A1F060E079E08DE390E0A701AC
:1018B00096010E944711215031094109510956955D
:1018C000479537952795211580E1380798F0E889E5
:1018D000F989108260E874E88EE190E0A701960132
:1018E0000E944711215031094109510956954795E8
:1018F00037952795EC85FD853083EE85FF85208320
:10190000188EEC89FD891083EA89FB8980818869BA
:101910008083EA89FB8980818F7D8083DF91CF91ED
:101920001F91FF90EF90DF90CF9008951F920F923C
:101930000FB60F9211240BB60F922F938F939F9394
:10194000EF93FF93E091A702F091A8028081E091CC
:10195000AD02F091AE0282FD1DC090818091B00277
:101960008F5F8F732091B102821741F0E091B00236
:10197000F0E0E956FD4F958F8093B002FF91EF9113
:101980009F918F912F910F900BBE0F900FBE0F90D4
:101990001F9018958081F2CF1F920F920FB60F9271
:1019A00011240BB60F922F933F934F935F936F9336
:1019B0007F938F939F93AF93BF93EF93FF9387E9A9
:1019C00092E00E94AF0BFF91EF91BF91AF919F9179
:1019D0008F917F916F915F914F913F912F910F90D8
:1019E0000BBE0F900FBE0F901F90189587E992E0E5
:1019F0000E94570B21E0892B09F420E0822F0895E3
:101A0000E7E9F2E01382128288EE93E0A0E0B0E012
:101A100084839583A683B78389EB91E09183808348
:101A200085EC90E09587848784EC90E097878687A3
:101A300080EC90E0918B808B81EC90E0938B828B9B
:101A400082EC90E0958B848B86EC90E0978B868B74
:101A5000118E128E138E148E0895AF92BF92CF9274
:101A6000DF92EF92FF920F931F93CF93DF936C015E
:101A70007B018B01040F151FEB015E01AE18BF083F
:101A8000C017D10759F06991D601ED91FC910190F1
:101A9000F081E02DC6010995892B79F7C501DF9109
:101AA000CF911F910F91FF90EF90DF90CF90BF905B
:101AB000AF900895FB0101900020E9F73197AF0145
:101AC000461B570BDC01ED91FC910280F381E02D68
:101AD0000994DB0114964D915C9115976D917C9161
:101AE000DC01ED91FC910280F381E02D099467EC1B
:101AF00071E00C945A0D0F931F93CF93DF93EC0179
:101B00000E94690D8C01CE010E94770D800F911FFC
:101B1000DF91CF911F910F9108950F931F93CF9352
:101B2000DF938C01D0E0C0E06115710519F00E94CF
:101B30005A0DEC01C8010E94770D8C0F9D1FDF919B
:101B4000CF911F910F910895FC01808191810097A1
:101B500011F00C9456120895CF93DF93EC01888115
:101B60009981009711F00E945612198218821D82E5
:101B70001C821B821A82DF91CF9108950F931F93CD
:101B8000CF93DF93EC018B016F5F7F4F8881998149
:101B90000E94DF12009751F0998388831B830A8388
:101BA00081E0DF91CF911F910F91089580E0F9CFEF
:101BB000CF93DF93EC0188819981892B49F08A8149
:101BC0009B818617970720F081E0DF91CF910895E0
:101BD000CE010E94BE0D8823C1F38C819D81892B8B
:101BE00099F7E881F9811082EFCFEF92FF920F937E
:101BF0001F93CF93DF93EC017B018A01BA010E940E
:101C0000D80D81110BC0CE010E94AC0DCE01DF9129
:101C1000CF911F910F91FF90EF9008951D830C833A
:101C2000B701888199810E94C913F0CFFC0111820C
:101C3000108213821282158214826115710551F08F
:101C4000FB0101900020E9F73197AF01461B570BCC
:101C50000C94F50D0895FB0101900020E9F73197F0
:101C6000AF01461B570B0C94F50D0F931F93CF93A9
:101C7000DF93CDB7DEB729970FB6F894DEBF0FBE5E
:101C8000CDBF8C01862FF80111821082138212823F
:101C90001582148250E0BE016F5F7F4F90E00E947A
:101CA0001714BE016F5F7F4FC8010E942B0E29964B
:101CB0000FB6F894DEBF0FBECDBFDF91CF911F915D
:101CC0000F9108950F931F93CF93DF93CDB7DEB796
:101CD00061970FB6F894DEBF0FBECDBF8C01CB016C
:101CE000F80111821082138212821582148250E050
:101CF000BE016F5F7F4F0E941714BE016F5F7F4F61
:101D0000C8010E942B0E61960FB6F894DEBF0FBE7D
:101D1000CDBFDF91CF911F910F9108950F931F9326
:101D2000CF93DF93CDB7DEB7A2970FB6F894DEBF9F
:101D30000FBECDBF8C01CB01BA01F8011182108218
:101D4000138212821582148230E0AE014F5F5F4F22
:101D50000E94D013BE016F5F7F4FC8010E942B0EFF
:101D6000A2960FB6F894DEBF0FBECDBFDF91CF9124
:101D70001F910F9108950F931F93CF93DF93CDB7CA
:101D8000DEB7A1970FB6F894DEBF0FBECDBF8C01B2
:101D9000CB01BA01F80111821082138212821582DE
:101DA000148230E0AE014F5F5F4F0E94EA13BE0124
:101DB0006F5F7F4FC8010E942B0EA1960FB6F8945B
:101DC000DEBF0FBECDBFDF91CF911F910F91089560
:101DD000CF93DF93EC01FB018617970749F06081F1
:101DE00071816115710541F0448155810E94F50DA5
:101DF000CE01DF91CF9108950E94AC0DF9CFFC0187
:101E00001182108213821282158214820C94E80EC1
:101E1000EF92FF920F931F93CF93DF93611571059C
:101E200041F480E0DF91CF911F910F91FF90EF90EF
:101E3000089541155105B1F07B01EC010C811D8124
:101E4000040F151FB8010E94D80D882351F3288173
:101E500039818C819D81B701820F931F0E94C91324
:101E60001D830C8381E0DECFFB01448155816081BD
:101E700071810C94080F6115710551F0FB010190FF
:101E80000020E9F73197AF01461B570B0C94080F60
:101E900080E00895CF93DF93EC01FB0144815581ED
:101EA000608171810E94080F811103C0CE010E94E0
:101EB000AC0DCE01DF91CF910895CF93DF93EC016C
:101EC0006115710539F4CE010E94AC0DCE01DF9190
:101ED000CF910895FB0101900020E9F73197AF0100
:101EE000461B570B0E94080F882369F3EFCF089514
:101EF0000E943A100E94770F0E947A02C4E9DBE048
:101F00000E94B1002097E1F30E94940BF9CF1F9239
:101F10000F920FB60F9211242F933F938F939F939D
:101F2000AF93BF938091390390913A03A0913B0303
:101F3000B0913C033091380323E0230F2D3768F133
:101F400026E8230F0296A11DB11D2093380380932C
:101F5000390390933A03A0933B03B0933C038091E1
:101F6000340390913503A0913603B0913703019665
:101F7000A11DB11D8093340390933503A0933603C4
:101F8000B0933703BF91AF919F918F913F912F9164
:101F90000F900FBE0F901F9018950196A11DB11DB7
:101FA000D4CF3FB7F8948091340390913503A0913A
:101FB0003603B091370326B5A89B05C02F3F19F013
:101FC0000196A11DB11D3FBFBA2FA92F982F8827B9
:101FD000BC01CD01620F711D811D911D42E0660F94
:101FE000771F881F991F4A95D1F708958F929F9266
:101FF000AF92BF92CF92DF92EF92FF926B017C0182
:102000000E94D10F4B015C01C114D104E104F10421
:10201000E9F00E940E110E94D10F681979098A090E
:102020009B09683E73408105910570F321E0C21A57
:10203000D108E108F10888EE880E83E0981EA11C03
:10204000B11CC114D104E104F10429F7FF90EF9011
:10205000DF90CF90BF90AF909F908F900895823087
:10206000910538F0880F991F880F991F05970197E0
:10207000F1F70895789484B5836084BD85B5836055
:1020800085BDEEE6F0E0808181608083E1E8F0E0EC
:1020900082E08083808181608083E0E8F0E080815D
:1020A00081608083E1EBF0E0808184608083E0EBFD
:1020B000F0E0808181608083E1E9F0E080818360ED
:1020C0008083E0E9F0E080818160808387E880930D
:1020D0007A001092C100089582508A3088F5E82F66
:1020E000F0E0EB58FF4E0C9488119D10A1107F106A
:1020F0008510A010A01089108F1093109910809156
:1021000080008F77809380000895809180008F7D7C
:10211000F9CF8091B0008F778093B00008958091BF
:10212000B0008F7DF9CF809190008F7780939000E1
:102130000895809190008F7DF9CF84B58F7784BD0D
:10214000089584B58F7DFBCFCF93DF9390E0FC01A2
:10215000E455FF4F249184539F4FFC0184918823C1
:10216000C9F090E0880F991FFC01EA50FF4FA5913C
:10217000B491FC01E451FF4FC591D49161110DC0A0
:102180009FB7F8948C91209582238C938881282383
:1021900028839FBFDF91CF910895623051F49FB79C
:1021A000F8943C91822F809583238C93E8812E2B89
:1021B000EFCF8FB7F894EC912E2B2C938FBFEACFF3
:1021C0001F93CF93DF93282F30E0F901E457FF4F9F
:1021D0008491F901E455FF4FD491F901E453FF4F85
:1021E000C491CC23A9F0162F81110E946C10EC2F02
:1021F000F0E0EE0FFF1FE451FF4FA591B4918FB7B0
:10220000F894EC91111108C0D095DE23DC938FBFB8
:10221000DF91CF911F910895DE2BF8CF0895DB0158
:102220008F939F930E949811BF91AF91A29F800DB1
:10223000911DA39F900DB29F900D11240895AA1B8C
:10224000BB1B51E107C0AA1FBB1FA617B70710F0A1
:10225000A61BB70B881F991F5A95A9F780959095D3
:10226000BC01CD01089597FB072E16F4009407D00A
:1022700077FD09D00E941F1107FC05D03EF4909510
:1022800081959F4F0895709561957F4F0895A1E2C4
:102290001A2EAA1BBB1BFD010DC0AA1FBB1FEE1FE0
:1022A000FF1FA217B307E407F50720F0A21BB30B2B
:1022B000E40BF50B661F771F881F991F1A9469F7A7
:1022C00060957095809590959B01AC01BD01CF0103
:1022D0000895052E97FB1EF400940E94801157FD6F
:1022E00007D00E94471107FC03D04EF40C948011D4
:1022F00050954095309521953F4F4F4F5F4F089532
:1023000090958095709561957F4F8F4F9F4F089561
:10231000EE0FFF1F0024001C0BBE0790F691E02D6E
:1023200009940E94AB11B7FF0895821B930B089587
:102330000E94AB11A59F900DB49F900DA49F800D9E
:10234000911D11240895B7FF0C9498110E949811C3
:10235000821B930B0895A29FB001B39FC001A39F5E
:10236000700D811D1124911DB29F700D811D1124CE
:10237000911D08950F931F93CF93DF9382309105A2
:1023800010F482E090E0E0913F03F091400330E0F0
:1023900020E0B0E0A0E0309799F42115310509F470
:1023A0004AC0281B390B24303105D8F58A819B811E
:1023B0006115710589F1FB0193838283FE0111C0D0
:1023C000408151810281138148175907E0F0481775
:1023D000590799F4109761F012960C93129713967F
:1023E0001C933296CF01DF91CF911F910F910895E9
:1023F00000933F0310934003F4CF2115310551F0B2
:102400004217530738F0A901DB019A01BD01DF0132
:10241000F801C1CFEF01F9CF9093400380933F03C0
:10242000CDCFFE01E20FF31F81939193225031092A
:1024300039832883D7CF20913D0330913E03232B4E
:1024400041F4209102013091030130933E03209327
:102450003D0320910001309101012115310541F426
:102460002DB73EB74091040150910501241B350B57
:10247000E0913D03F0913E03E217F307A0F42E1B19
:102480003F0B2817390778F0AC014E5F5F4F2417D8
:10249000350748F04E0F5F1F50933E0340933D03B6
:1024A000819391939FCFF0E0E0E09CCFCF93DF93B7
:1024B0000097E9F0FC01329713821282A0913F034A
:1024C000B0914003ED0130E020E01097A1F42081AD
:1024D0003181820F931F20913D0330913E032817D5
:1024E000390709F061C0F0933E03E0933D03DF91AB
:1024F000CF910895EA01CE17DF07E8F54A815B81A5
:102500009E0141155105B1F7E901FB83EA83499129
:102510005991C40FD51FEC17FD0761F4808191819B
:102520000296840F951FE9019983888382819381A4
:102530009B838A83F0E0E0E012968D919C91139743
:102540000097B9F52D913C911197CD010296820F1C
:10255000931F20913D0330913E032817390739F628
:10256000309751F51092400310923F03B0933E0311
:10257000A0933D03BCCFD383C28340815181840F9C
:10258000951FC817D90761F44E5F5F4F8881998105
:10259000480F591F518340838A819B819383828393
:1025A0002115310509F0B0CFF0934003E0933F03CC
:1025B0009ECFFD01DC01C0CF13821282D7CF4F9294
:1025C0005F926F927F928F929F92AF92BF92CF92C3
:1025D000DF92EF92FF920F931F93CF93DF938C01C3
:1025E000009799F4CB01DF91CF911F910F91FF904C
:1025F000EF90DF90CF90BF90AF909F908F907F90A3
:102600006F905F904F900C94BA11FC01E60FF71F8A
:102610009C0122503109E217F30708F4AEC0D9013A
:10262000CD91DC911197C617D70720F1C530D105A0
:1026300078F0CE0104978617970750F0C61BD70B8A
:102640002297C193D1936D937C93CF010E94561230
:10265000C801DF91CF911F910F91FF90EF90DF9014
:10266000CF90BF90AF909F908F907F906F905F9032
:102670004F9008955B01AC1ABD0A4C018C0E9D1E53
:10268000A0913F03B0914003512C412CF12CE12C3F
:10269000109731F580913D0390913E03881599057F
:1026A00009F05CC04616570608F058C0809100013A
:1026B00090910101009741F48DB79EB740910401BC
:1026C00050910501841B950BE817F90708F055C0D8
:1026D000F0933E03E0933D03F90171836083B8CF2B
:1026E0008D919C91119712966C90129713967C90F5
:1026F0001397A815B90559F56C0142E0C40ED11C19
:10270000CA14DB0420F1AC014A195B09DA01129604
:10271000159780F06282738251834083D9016D9353
:102720007C93E114F10471F0D7011396FC93EE93BE
:1027300012978ECF22968C0F9D1FF9019183808373
:10274000F301EFCFF0934003E0933F0381CF4816AE
:10275000590608F42C017D01D3019ACFCB010E94C8
:10276000BA117C01009749F0AE01B8010E94C01374
:10277000C8010E94561287016BCF10E000E068CFBD
:10278000FB01DC0102C001900D9241505040D8F78E
:102790000895FB01DC0101900D920020E1F70895FE
:1027A0002532310520F4223010F00C94DB13FA01AD
:1027B0001082CA010895BB272A3051F4992342F4AC
:1027C000BDE290958095709561957F4F8F4F9F4F9B
:1027D0000C94F6132532310520F4223010F00C94BD
:1027E000F513FA011082CA010895BB27FA01A62F3A
:1027F0006217710581059105330B30FB66F0AA273E
:10280000660F771F881F991FAA1FA21710F0A21B1F
:1028100063953850A9F7A05DAA3308F0A95DA1938C
:1028200036F7B111B1931082CA010C943C144532B1
:10283000510520F4423010F00C942214FB01108258
:10284000CB010895BB27FB015527AA27880F991FA5
:10285000AA1FA41710F0A41B83955051B9F7A05DCF
:10286000AA3308F0A95DA193009779F7B111B1934C
:102870001192CB010C943C14DC01FC01672F719187
:102880007723E1F7329704C07C916D937083629156
:10289000AE17BF07C8F3089510E0C4E8D0E004C045
:1028A000FE010E9488112196C538D107C9F7F89416
:0228B000FFCF58
:1028B200000041038000030002001F1C1F1E1F1E98
:1028C2001F1F1E1F1E1F00FFFFFFFF000A11181C03
:1028D20001080DFFFF0700000000070606040407B9
:1028E2000000000024484953542C004C3530305F1E
:1028F20030330065613339376330303439356162E2
:102902006466343166356232303631653062336541
:1029120032306336636339333566392C43495F613C
:102922006374696F6E00234376616B2E2E2E002333
:10293200486D6D6D2E2E2E0024444F532C4C414277
:10294200444F533031412C0030005100000200004E
:102952000000000000000054088308270853082ADA
:10296200083108440800000000F10B2D0D850BD141
:0A2972000B570B710B630B0D0A00ED
:00000001FF
