:100000000C948E000C94B8000C94B8000C94B800BA
:100010000C94B8000C94B8000C94B8000C94B80080
:100020000C94B8000C94B8000C94B8000C94B80070
:100030000C94B8000C94B8000C94B8000C94B80060
:100040000C94B8000C94B8000C9408220C94B800DE
:100050000C94D11E0C94071F0C94B8000C94B8009B
:100060000C94B8000C94B8000C943E090C94B800A1
:100070000C94B8000C94B8000C94B8000C94B80020
:100080000C94B8000C94B8000C94B8007C3C3E5E14
:100090002B3D3F2F5B5D3B2C2A225C0000000002C1
:1000A00003000A0B0000000005040908000000001E
:1000B0000000000000000000000000000102040831
:1000C0001020408001020408102040800102040832
:1000D0001020408001020408102040800202020229
:1000E00002020202040404040404040403030303DC
:1000F00003030303010101010101010100002200CA
:10010000250028002B0000002100240027002A00E1
:10011000EB005308570E7B113B1FFD0011241FBE3F
:10012000CFEFD0E4DEBFCDBF11E0A0E0B1E0EAE167
:10013000FDE400E00BBF02C007900D92AA3FB1079B
:10014000D9F725E0AAEFB1E001C01D92A43CB207A7
:10015000E1F710E0CDE8D0E004C02197FE010E9455
:10016000BE23C838D107C9F70E94F9210C94802614
:100170000C940000DC01ED91FC910190F081E02DE8
:100180000994982F92959F708F702AE0929F800D0E
:1001900011240895813041F08230A9F064E670E0C6
:1001A00080E090E00C94832261E086E00E9431239D
:1001B00061E085E00E94312385B18E6085B960E001
:1001C00084E00C946D2361E084E00E946D2385B18E
:1001D000817F85B908956EE071E089E192E00E9427
:1001E000C4206FE371E083E192E00E94C42069EFD4
:1001F00071E08DE092E00C94C4208DE092E00E94CA
:10020000522083E192E00E94522089E192E00C9416
:100210005220CF93DF9361E570E08FE192E00E947E
:10022000D20770E060E08FE192E00E94BA008FE1B7
:1002300092E00E94500846E050E061E570E08FE1F6
:1002400092E00E944D088FE192E00E9445070E94D3
:10025000C1008093FA018FE192E00E9445078F77F9
:100260000E94C100D82F8FE192E00E9445078F774E
:100270000E94C100C82F8FE192E00E9445070E94B2
:10028000C10090E0B0E0A0E08093FB019093FC01FE
:10029000A093FD01B093FE018FE192E00E9445071B
:1002A0000E94C10024E6829FC0011124092E000C87
:1002B000AA0BBB0B4091FB015091FC016091FD0129
:1002C0007091FE01840F951FA61FB71F8093FB013D
:1002D0009093FC01A093FD01B093FE018FE192E0A9
:1002E0000E9445070E94C10040E157E2849F9001AF
:1002F000859F300D1124032E000C440B550B80916B
:10030000FB019091FC01A091FD01B091FE01280F2D
:10031000391F4A1F5B1FA0E1BEE00E94C723AB014B
:10032000BC012CE3C29FC0011124092E000CAA0BB2
:10033000BB0B8D0F911DA11DB11D840F951FA61F15
:10034000B71F8093FB019093FC01A093FD01B09334
:10035000FE01DF91CF9108958F929F92AF92BF924D
:10036000CF92DF92EF92FF920F931F93CF93DF9381
:10037000CDB7DEB7C752D8400FB6F894DEBF0FBE78
:10038000CDBFFE0131968E010F5F174F7F01119295
:100390001192E017F107D9F78091060120E4829FBE
:1003A000C0011124806180937C0010927B008091B9
:1003B0007A00806280937A0080917A0080648093D2
:1003C0007A0080917A00846080937A0080917A002C
:1003D000826080937A0080917A00816080937A00B5
:1003E00081E085B980917A00806180937A00809164
:1003F0007A0084FFFCCF8FE984B984E690E00E9404
:10040000BC228EE984B980917A00806180937A0061
:1004100080917A0084FFFCCF8FE984B987E090E077
:100420000E94BC228EE984B980917A008061809319
:100430007A00109200021092FF01AA24AA946FE79A
:10044000B62ED12CC12C7FE9972EEEE98E2E80910D
:100450007A0084FFFCCF8CE090E00E94BC2294B82C
:1004600087E090E00E94BC2284B880917A0080618D
:1004700080937A00909178009093040280917900A3
:10048000809303028927982789278115E2E09E0738
:10049000B0F59E5F90930202809301028091010269
:1004A00090910202E091FF01F0910002E817F90734
:1004B00040F5909300028093FF01FFEFCF1ADF0A0F
:1004C00021E0A21AB10819F6209108013091090122
:1004D000C9010396FC01EE0FFF1FEE0DFF1D812CDD
:1004E000912C54012C503E4F82179307C0F4419138
:1004F0005191840E951EA11CB11C0196F5CF92500E
:10050000C9CFEE0FFF1FEE0DFF1D80819181019677
:1005100091838083109200021092FF01D1CF61E09D
:1005200087E10E946D2369EF71E0CE018E5D974FE8
:100530000E94C4200E94090166E571E0CE018E5D33
:10054000974F0E94BC216091090270910A024AE013
:10055000C8010E941021B801CE018E5D974F0E9404
:10056000B521C8010E94522066EA71E0CE018E5D7D
:10057000974F0E94BC214091FB015091FC0160917A
:10058000FD017091FE012AE0C8010E943C21B801E2
:10059000CE018E5D974F0E94B521C8010E94522066
:1005A0006DE871E0CE018E5D974F0E94BC214AE05C
:1005B0006091FA01C8010E94E320B801CE018E5D6E
:1005C000974F0E94B521C8010E94522066EA71E04F
:1005D000CE018E5D974F0E94BC214AE0B601C80152
:1005E0000E941021B801CE018E5D974F0E94B52167
:1005F000C8010E94522066EA71E0CE018E5D974FDD
:100600000E94BC212AE0B501A401C8010E943C213E
:10061000B801CE018E5D974F0E94B521C8010E949E
:10062000522080910801909109016C01E1E0CE1AFD
:10063000D10881509048880F991FE80EF91E8091CB
:100640000801909109018D509E4FC816D906E0F41B
:1006500066EA71E0CE018E5D974F0E94BC21F701E2
:10066000619171917F014AE0C8010E941021B80197
:10067000CE018E5D974F0E94B521C8010E94522085
:10068000FFEFCF1ADF0ADBCF80910701882389F1C2
:1006900081E00E94CA0064E081EC92E00E94A10C1B
:1006A0006DE571E0882309F457C040910D02509127
:1006B0000E0223E161EC72E0C8010E94C10DC80185
:1006C0000E94950B882309F445C061E086E10E94F1
:1006D0006D23BE016E5D774FC8010E94BE1FC80129
:1006E0000E94830B60E086E10E946D2382E00E94FD
:1006F000CA00BE016E5D774F8AE195E00E94BE1F81
:1007000060E087E10E946D238091090290910A02C6
:100710000196893F2AE2920730F590930A0280936E
:100720000902CE018E5D974F0E945220C95DD74FBE
:100730000FB6F894DEBF0FBECDBFDF91CF911F91F2
:100740000F91FF90EF90DF90CF90BF90AF909F9070
:100750008F9008956CE671E08AE195E00E94D01FC9
:1007600010920701C3CF10920A0210920902609101
:100770000B0270910C026F5F7F4F70930C026093BD
:100780000B024AE0CE01845E974F0E941021BE0109
:10079000645E774FC8010E94802166E771E0C8015E
:1007A0000E94DE21BC018DE092E00E946921C80117
:1007B0000E945220CE01845E974F0E9452206BE728
:1007C00071E08AE195E00E94B21F6DE072E08AE17B
:1007D00095E00E94BE1FA5CFCF92DF92EF92FF92CD
:1007E0000F931F93CF93DF93CDB7DEB7C254D109D8
:1007F0000FB6F894DEBF0FBECDBF61E085E10E9469
:10080000312361E085E10E946D2364E670E080E0C1
:1008100090E00E94832226E040E052EC61E070E02C
:100820008AE195E00E94791E66E871E08AE195E030
:100830000E94D01F61E080E00E9431238EE984B9DC
:1008400015B88CEF81B912B89CEE97B918B88AB96F
:1008500080E88BB940EA56E861E070E08FE192E011
:100860000E94C40761E085E10E94312361E085E1D7
:100870000E946D236FE871E08AE195E00E94D01F2D
:100880008091060120E4829FC00111248161809340
:100890007C0062E370E080E090E00E94832210928E
:1008A0007B0080917A00806280937A0080917A0048
:1008B000806480937A0080917A00846080937A00CB
:1008C00080917A00826080937A0080917A008160C2
:1008D00080937A0080917A00806180937A00809181
:1008E0007A0084FFFCCF80917A00806180937A0047
:1008F00028E080917A0084FFFCCF80917A008061AB
:1009000080937A009091780090930402809179000E
:1009100080930302892798278927811532E093075E
:1009200008F084C19E5F909302028093010280913F
:10093000010290910202080F191F2150D1F683E0A5
:10094000169507958A95E1F7109309010093080120
:1009500061E570E08FE192E00E94D20763E28FE1EF
:1009600092E00E94680760E08FE192E00E946807D1
:1009700060E08FE192E00E94680765E08FE192E01D
:100980000E94680760E08FE192E00E94680760E0E3
:100990008FE192E00E94680767E98FE192E00E9490
:1009A000680760E08FE192E00E94680760E08FE1F5
:1009B00092E00E9468078FE192E00E94500861E592
:1009C00070E08FE192E00E94D2076FE270E08FE169
:1009D00092E00E94BA006CE270E08FE192E00E9427
:1009E000BA008FE192E00E94500861E570E08FE16B
:1009F00092E00E94D20768E270E08FE192E00E94EC
:100A0000BA0067E970E08FE192E00E94BA008FE1DE
:100A100092E00E94500861E570E08FE192E00E9450
:100A2000D20760E08FE192E00E94680760E08FE10A
:100A300092E00E94680760E08FE192E00E94680700
:100A400060E08FE192E00E94680760E08FE192E051
:100A50000E94680760E08FE192E00E94680760E012
:100A60008FE192E00E9468078FE192E00E945008B7
:100A700060910801709109014AE0CE0101960E943F
:100A8000102168E971E0CE014C960E94C42063E118
:100A900072E0CE014C960E94CB2166EA71E00E9482
:100AA000DE21BE016F5F7F4F0E94CB2166EA71E0BD
:100AB0000E94DE2169E172E00E94CB2166EA71E0CA
:100AC0000E94DE21BC01CE01CD960E948021CE0184
:100AD0004C960E945220CE0101960E94522068E559
:100AE00070E08FE192E00E94D20768E070E08FE151
:100AF00092E00E94BA0070E060E08FE192E00E9414
:100B0000BA008FE192E00E94500840E168E58FE171
:100B100092E00E944A0810E18FE192E00E944507AE
:100B2000082F803130F464E571E0CE01CD960E944B
:100B3000BC2140E1602FCE0101960E94E320BE015E
:100B40006F5F7F4FCE01CD960E94B521CE010196F9
:100B50000E9452208091050290910602A091070206
:100B6000B0910802800F911DA11DB11D8093050257
:100B700090930602A0930702B0930802115061F609
:100B800061E086E10E94312361E086E10E946D23ED
:100B900081E00E94CA0064E081EC92E00E94A10C16
:100BA000811108C06DE571E08AE195E00E94D01FD7
:100BB0001092070181E090E090930C0280930B0269
:100BC00060910B0270910C02683C710588F54AE057
:100BD000CE014C960E941021BE01645E7F4FCE0173
:100BE00001960E94802166E771E0CE0101960E9485
:100BF000DE21BC018DE092E00E946921CE010196C8
:100C00000E945220CE014C960E94522060910D020B
:100C100070910E0281EC92E00E944C0E882341F00C
:100C200080910B0290910C020196C6CF92507BCE20
:100C300060910B0270910C026150710970930C026B
:100C400060930B024AE0CE014C960E941021BE0137
:100C5000645E7F4FCE0101960E94802166E771E0BD
:100C6000CE0101960E94DE21BC018DE092E00E943F
:100C70006921CE0101960E945220CE014C960E941D
:100C8000522040910D0250910E0223E161EC72E07E
:100C9000CE014C960E94C10DCE014C960E94450B90
:100CA0006B017C0168EA71E08AE195E00E94B21F65
:100CB0002AE030E0B701A6018AE195E00E944020D9
:100CC00089E6C81680E2D80689E5E806F10408F44A
:100CD0005BC0CE014C960E94830B60910B02709119
:100CE0000C026F5F7F4F70930C0260930B024AE01F
:100CF000CE01C7960E941021BE01695C7F4FCE01D4
:100D000001960E94802166E771E0CE0101960E9463
:100D1000DE21BC018DE092E00E946921CE010196A6
:100D20000E945220CE01C7960E94522040910D028F
:100D300050910E0223E161EC72E0CE0101960E9417
:100D4000C10D8B819C819F8F8E8F8D819E81AF8104
:100D5000B88588A399A3AAA3BBA389859A85AB85E7
:100D6000BC858CA39DA3AEA3BFA3DE011D96FE018F
:100D7000B896CE01C5962D912193E817F907D9F7BA
:100D80008A8D9B8D9EAB8DAB6BE771E08AE195E020
:100D90000E94B21F6DE072E08AE195E00E94BE1FE2
:100DA000CE014C960E94950B882309F45BC061E04C
:100DB00087E10E94312361E087E10E946D23BE013B
:100DC000635C7F4FCE014C960E94BE1FCE014C96B5
:100DD0000E94830BBE01635C7F4F8AE195E00E9415
:100DE000BE1F82E00E94CA0061E085E10E943123BB
:100DF00060E085E10E946D2364E670E080E090E0B1
:100E00000E94832261E086E10E94312360E086E156
:100E10000E946D2364E670E080E090E00E948322EF
:100E200061E087E10E94312360E087E10E946D2349
:100E300064E670E080E090E00E948322CE01CD96CF
:100E40000E945220CE5BDF4F0FB6F894DEBF0FBE7C
:100E5000CDBFDF91CF911F910F91FF90EF90DF9069
:100E6000CF9008956CE671E08AE195E00E94D01F72
:100E700010920701AFCF90E080E0089580914F027B
:100E800090915002891B990B089590915002809186
:100E90004F022FEF3FEF981748F4E92FF0E0EF5A99
:100EA000FD4F208130E09F5F90935002C90108956B
:100EB000E091500280914F02E81730F4F0E0EF5AD1
:100EC000FD4F808190E008958FEF9FEF0895089582
:100ED000CF93DF931F92CDB7DEB7698320912B02AA
:100EE0002223F9F020912C02203258F021E030E04A
:100EF000FC013383228390E080E00F90DF91CF915B
:100F0000089580912D02E82FF0E0E25DFD4F998178
:100F100090838F5F80932D0280932C0281E090E07C
:100F2000ECCF61E0CE0101960E940709F7CFCF9286
:100F3000DF92EF92FF920F931F93CF93DF937C0189
:100F4000CB018A0120912B02222389F0EB016B0156
:100F5000C40ED51ECC15DD0569F06991D701ED9160
:100F6000FC910190F081E02DC7010995F3CF642F2A
:100F70000E940709C801DF91CF911F910F91FF9047
:100F8000EF90DF90CF900895CB01BA010C946408E4
:100F900081E080932B0260934E0210922D021092FA
:100FA0002C0208950C94C8070F93062F21E040915E
:100FB0002C026EE272E080914E020E94B7081092FD
:100FC0002D0210922C0210922B020F9108954F9235
:100FD0005F926F927F92AF92BF92CF92EF92FF9209
:100FE0000F931F93CF93DF935C01F62ED42F28012C
:100FF0003901EE2019F10E94C807CE2DC43008F047
:10100000C3E0C150B8F028E0C29FC0011124A30181
:10101000920104C056954795379527958A95D2F742
:10102000B901D501ED91FC910190F081E02DC50150
:101030000995E7CF60E0C5010E94D4074D2FD1325A
:1010400008F040E22C2D61E572E08F2D0E947708B8
:101050001092500280934F02DF91CF911F910F9118
:10106000FF90EF90CF90BF90AF907F906F905F9088
:101070004F900895CF92EF920F931F93C22EE12CC1
:1010800000E010E098010E94E7071F910F91EF9098
:10109000CF90089521E00C943A0821E00C943A088E
:1010A00061E00C94D407EFE1F2E01382128288EE43
:1010B00093E0A0E0B0E084839583A683B78387EBB9
:1010C00091E09183808308959B01AC0160E074E21C
:1010D00084EF90E00E949C2320513109410951097D
:1010E00056954795379527952093B8000895413236
:1010F000E0F59091C0029111FCCF91E09093C00275
:101100002093BE022FEF209371027093B802609378
:10111000B7021092B602240F2093B5029093BF023B
:101120009091BF02880F892B8093BF028091BD02EE
:101130008130C9F41092BD028091BF028093BB0040
:101140008091BC0083FDF8CF85EC8093BC0080913A
:10115000C0028130E1F38091B602841710F440910F
:10116000B602842F089585EEF0CF40E0FACF0F93BA
:10117000413208F044C09091C0029111FCCF92E03E
:101180009093C0020093BE029FEF90937102709300
:10119000B8026093B7021092B6024093B502109263
:1011A000BF029091BF02880F892B8093BF0280916C
:1011B000BD02813011F51092BD028091BF02809373
:1011C000BB008091BC0083FDF8CF85EC8093BC0010
:1011D000222321F08091C0028230D1F380917102EC
:1011E0008F3F79F080917102803269F080917102B5
:1011F000803359F084E00F91089585EEE7CF81E0C8
:10120000FACF80E0F8CF82E0F6CF83E0F4CF2091F0
:101210009302260F3327331F21323105ECF420913E
:10122000C002FC0190E080E0243069F082E0089583
:10123000A09193022191AC014B565D4FA40FB52FA5
:10124000B11D2C930196861798F380919302680F35
:101250006093930280E0089581E0089585ED809386
:10126000BC008091BC0084FDFCCF1092C0020895A8
:1012700085EC8093BC001092C00208951F920F92DB
:101280000FB60F9211240BB60F922F933F934F93EB
:101290005F936F937F938F939F93AF93BF93EF93DE
:1012A000FF938091B900887F803609F44EC008F022
:1012B00041C0883209F4AAC028F5803109F49EC0E3
:1012C000C8F4882309F407C1883009F497C0FF9156
:1012D000EF91BF91AF919F918F917F916F915F91AE
:1012E0004F913F912F910F900BBE0F900FBE0F901B
:1012F0001F901895883109F489C0803241F7809396
:10130000710215C0803409F4A6C048F48033B9F3E3
:101310008833E9F6809371020E943809D8CF80356E
:1013200009F489C0883509F49EC0883481F60E948A
:101330002E09CDCF883909F494C038F5883729F0C3
:1013400050F4883611F0803711F683E08093C002A4
:101350001092720257C0883809F483C0803919F09E
:10136000803809F0B4CF80917202803208F079C0E1
:10137000E091720281E08E0F809372028091BB0037
:10138000F0E0ED58FD4F80833DC0803B39F0E0F444
:10139000803A09F485C0883A09F099CF84E08093B7
:1013A000C0021092940210929302E091BB02F0915D
:1013B000BC0209958091930281110FC081E0809356
:1013C00093021092950209C0803C09F482C0883CC7
:1013D00009F47FC0883B09F07ACFE091940281E064
:1013E0008E0F80939402F0E0EB56FD4F8081809346
:1013F000BB00909194028091930231C08091BF0212
:101400008093BB0085EC8093BC0061CF9091B602C5
:101410008091B5029817B8F58091B7029091B80203
:10142000E091B60221E02E0F2093B602E80FF92FCB
:10143000F11D8081E5CF2091B7023091B802E09193
:10144000B60281E08E0F8093B6028091BB00E20F5E
:10145000F32FF11D80839091B6028091B502981709
:1014600088F285E8D0CF2091B7023091B802E091A0
:10147000B60281E08E0F8093B6028091BB00E20F2E
:10148000F32FF11D80838091BE02811150CF81E046
:101490008093BD0284EA8093BC001092C00217CFF3
:1014A0000E94380980917202803230F4E091720219
:1014B000F0E0ED58FD4F10826091720270E0E09113
:1014C000B902F091BA0283E792E009951092720294
:1014D000FECE85ECE0CF1092710229CFCF93DF933F
:1014E0001F92CDB7DEB76983DC01ED91FC910280DC
:1014F000F381E02D41E050E0BE016F5F7F4F099521
:101500000F90DF91CF910895CF93DF93EC01E98D98
:10151000FA8D309749F481E090E09B838A8390E0D4
:1015200080E0DF91CF91089513821282898D9A8D88
:101530000E940217E98DFA8D22813381232B59F7FE
:10154000F0CFFC01818D928D009711F00C949114D5
:101550000895CF93DF931F92CDB7DEB741E050E0FF
:10156000BE016F5F7F4F0E94B512019731F48981F0
:1015700090E00F90DF91CF9108958FEF9FEFF9CF1B
:10158000FC01818D928D009711F00C94A90A8FEFC8
:101590009FEF08950F931F93CF93DF93EC01898DF5
:1015A0009A8D10E000E0009799F00E94A90A8C0142
:1015B0000F3F100769F0898D9A8DFC014285538594
:1015C0006485758541505109610971090E94FD13B7
:1015D000C801DF91CF911F910F910895EF92FF9273
:1015E0000F931F93CF93DF93EC017B018A011B8242
:1015F0001A8288EE93E0A0E0B0E08C839D83AE83F6
:10160000BF8389EC91E0998388838DE190E00E940B
:10161000E1239A8F898F009779F02DE1F701DC01A2
:1016200001900D922A95E1F74CE050E0B801CE010F
:101630000C960E940F26188EDF91CF911F910F916B
:10164000FF90EF900895FC011382128288EE93E0E0
:10165000A0E0B0E084839583A683B78389EC91E012
:1016600091838083128E118E14860895DC01599621
:10167000ED91FC91309729F062857385848595857D
:1016800008956FEF7FEFCB010895DC015996ED913E
:10169000FC91309729F0638974898589968908952A
:1016A00060E070E0CB010895CF92DF92EF92FF925D
:1016B000CF93DF93FC01218D328D232B09F1EC01B7
:1016C0000E94450B6B017C01CE010E94360BA701E5
:1016D0009601261B370B480B590BDA01C9018115FE
:1016E00030E89307A105B10520F08FEF9FE7A0E058
:1016F000B0E0DF91CF91FF90EF90DF90CF90089511
:1017000090E080E0F6CFCF93DF93EC01898D9A8D46
:10171000009741F00E94DA14898D9A8D0E947D24F1
:101720001A8E198EDF91CF910895DC015996ED91B3
:10173000FC91309721F081E09581911101C080E00A
:1017400008951F93CF93DF93CDB7DEB76D970FB694
:10175000F894DEBF0FBECDBFAB011C821B822DED06
:1017600031E03A8329831E8221E0BC01CE0101963B
:101770000E94151611E081110CC010E0812F6D96AA
:101780000FB6F894DEBF0FBECDBFDF91CF911F9192
:101790000895CE0101960E94DA14F0CFEF92FF92E5
:1017A0000F931F93CF93DF937B01DB012D913C912E
:1017B000FC01E20FF31F60816F3211F42F5F3F4F86
:1017C0008C01020F131FEA01F0E0E0E0D8017D91E7
:1017D0008D017F3249F0772339F02F5F3F4F3196EB
:1017E0007993EC30F10591F7E40FF51F1082FC01BD
:1017F000E20FF31F40814F3211F42F5F3F4FF7018B
:1018000031832083280F391F81E0D9019C919111E8
:1018100001C080E0DF91CF911F910F91FF90EF9079
:1018200008954F925F926F927F928F929F92AF92A4
:10183000BF92CF92DF92EF92FF920F931F93CF93BD
:10184000DF93CDB7DEB7C954D1090FB6F894DEBF28
:101850000FBECDBF5C016B013A01490119A218A26C
:101860008DED91E09F8F8E8F1BA21C821B829A832D
:1018700089831E822A961FAE1EAE2A978B017E0197
:101880008EE1E80EF11C44244394AE01455C5F4FA9
:10189000BE01685B7F4FC5010E94CE0B582E482FBA
:1018A00044259401BE01655C7F4FC801F301099591
:1018B000811120C00C151D05C9F480E0C75BDF4F06
:1018C0000FB6F894DEBF0FBECDBFDF91CF911F9151
:1018D0000F91FF90EF90DF90CF90BF90AF909F90CF
:1018E0008F907F906F905F904F900895C8010E94F5
:1018F000DA14E3CF552091F021E0AE01455C5F4F53
:10190000B801C7010E941516582E0C151D0571F05F
:10191000C8010E94DA1451100EC0CFCF0C151D055E
:1019200019F0C8010E94DA1481E0C8CF882329F297
:101930008E010F5F1F4F902F812F8701E92EF82E08
:10194000A4CF0F931F93CF93DF93EC01162F8FA596
:10195000882321F0CE018A960E94DA14412F61E09B
:10196000CE010E94790F811102C090E012C08E0159
:10197000045F1F4F41E0BE01C8010E943C1C882348
:1019800071F0B801CE018A960E94651291E0882319
:1019900061F3892FDF91CF911F910F91089540E05E
:1019A000BE01C8010E943C1C8823F9F2EACFFC0169
:1019B000DB0112968D919C911397938382838DED19
:1019C00091E09183808314968C911497848315966B
:1019D0008C911597858316964D915D916D917C91B3
:1019E000199746835783608771871A964D915D9149
:1019F0006D917C911D9742875387648775871E96EA
:101A00004D915D916D917C91519746875787608B81
:101A1000718B52968C915297828B53964D915D911A
:101A20006D917C915697438B548B658B768B579633
:101A30004D915D916D917C915A97478B508F618F3D
:101A4000728F5B968D919C91948F838F08954F92A6
:101A50005F926F927F928F929F92AF92BF92CF923E
:101A6000DF92EF92FF920F931F93CF93DF93CDB747
:101A7000DEB7C754D1090FB6F894DEBF0FBECDBF95
:101A80005C014A013901665D7F4F7E018EE1E80EFF
:101A9000F11CC7010E94D70C1C821B828DED91E0C6
:101AA0009A8389831E828401FE0131966F015E2C28
:101AB0004F2C6FE270E0C8010E94FD25009709F4E9
:101AC00055C0F80120812F3219F40F5F1F4FF1CF5D
:101AD000801B8D3008F08CE0E82EF12CA701B801B6
:101AE000CE01CB960E940F26EBE3F0E0EC0FFD1F3A
:101AF000EE0DFF1D1082C6010E94DA1421E0AE0136
:101B0000455C5F4F652D742DC6010E94151681112D
:101B100021C0F501138212828DED91E091838083C3
:101B20001582C501C95BDF4F0FB6F894DEBF0FBE4B
:101B3000CDBFDF91CF911F910F91FF90EF90DF907C
:101B4000CF90BF90AF909F908F907F906F905F905D
:101B50004F9008950E0D1F1D852D942D0E94DA14AF
:101B6000C2015C2C4D2CC92ED82EA3CF08191909FF
:101B7000F30111830083652D742DC5010E94D70CDC
:101B8000D0CFAF92BF92CF92DF92FF920F931F936D
:101B9000CF93DF93CDB7DEB7C955D1090FB6F8940F
:101BA000DEBF0FBECDBF6C015B018A01F22E9E012C
:101BB000285A3F4FCE01CB960E94270D6A968EADD4
:101BC0009FAD6A97080F191FF8018081811110C01D
:101BD000BE01655C7F4FCE0101960E94D70C47ED98
:101BE00051E0BE016F5F7F4FC6010E94EE0A0FC039
:101BF00019A218A28DED91E09F8F8E8F1BA22196C6
:101C00008FAD2197811115C0C6010E94230BC6011B
:101C1000C75ADF4F0FB6F894DEBF0FBECDBFDF91BE
:101C2000CF911F910F91FF90DF90CF90BF90AF9019
:101C3000089582508230F8F4B501665D7F4F2F2DF4
:101C4000A801CE014E960E9415168823E9F28F2D29
:101C5000867041F049A95AA96BA97CA9CE014E967C
:101C60000E94FD13BE01625E7F4FCE0101960E946D
:101C7000D70CA801B6CF2F2DA801BE01655C7F4F00
:101C8000CE014E960E941516882309F4BDCFCE01D1
:101C9000CB960E94DA14DBCFFB01BC01665D7F4F5F
:101CA00030E020E041EA5BE0CF010C94110CE1EC64
:101CB000F2E0158216821186138682E090E0A0E0A1
:101CC000B0E084879587A687B78713A215A614A6C8
:101CD0008DED91E093A782A717A608959FB7F8947A
:101CE0002091180580911605213019F48DBB9FBFF6
:101CF00008958FBF089520911805222381F03FB7E2
:101D0000F89420911805213069F42DB3209316051D
:101D10004DB320911705209524232DBB3FBF8CBDCB
:101D20009DBD089530931605FACF8EBD00000DB409
:101D300007FEFDCF8EB508958FEF0C94950E61E0F0
:101D4000FC0184810E946D2380910A03882339F06D
:101D500010920A038091180581110C946E0E08955B
:101D6000CF93DF93EC0180910A03811109C081E0D8
:101D700080930A0380910B0390910C030E947B0EC9
:101D800060E08C81DF91CF910C946D23CF93DF9332
:101D9000EC018E81882389F08F8198859C012F5FCB
:101DA0003F4F38872F838230924018F40E949C0E58
:101DB000F3CFCE010E949F0E1E82DF91CF91089536
:101DC000673030F026E1FC01258360E0862F08951E
:101DD000623011F130F4662389F06130B9F083E5A7
:101DE00008C06430D9F081E5643018F082E56530D0
:101DF000B1F780930B0310920C0306C080E580932B
:101E00000B0381E080930C0361E0E0CF80E58093D9
:101E10000B0310920C03DACF81E5F1CF82E5EFCF0F
:101E20000F931F93CF93DF93EB010E9452228B01FC
:101E30000E949C0E8F3F69F00E945222601B710B22
:101E40006C177D07A8F380E0DF91CF911F910F9170
:101E5000089581E0F9CF8F929F92AF92BF92FF9247
:101E60000F931F93CF93DF93EC01F62E49015A0194
:101E70000E94C60ECE010E94B00E6CE271E0CE014F
:101E80000E94100F8F2D80640E94950E08E110E0D3
:101E9000D501C401002E04C0B695A79597958795E6
:101EA0000A94D2F70E94950E08501109083F8FEF4F
:101EB000180771F785E9FF2021F088E0F8120DC0BE
:101EC00087E80E94950E10E00E949C0E8A8787FF8B
:101ED00006C01F3F21F01F5FF7CF8FEFF2CFDF91DA
:101EE000CF911F910F91FF90BF90AF909F908F90D7
:101EF00008958F929F92AF92BF92EF92FF920F93AD
:101F00001F93CF93DF93EC01E62E1B8619861E826A
:101F10001D824C830E9452228B0161E08C810E94C1
:101F2000312361E08C810E946D230E945C1D82E55B
:101F300080930B0310920C0380910B0390910C0380
:101F40000E947B0E2AE0F22E8FEF0E94950EFA94EB
:101F5000F110FACF8091180581110E946E0ECE010A
:101F60000E94B00E20E030E0A90160E0CE010E94A6
:101F70002B0FF82E8A8781E0F816C1F00E945222BA
:101F8000601B710B613D774068F381E08D83CE016A
:101F90000E949F0E80E0DF91CF911F910F91FF90E3
:101FA000EF90BF90AF909F908F9008952AEA31E014
:101FB00040E050E068E0CE010E942B0F82FF25C078
:101FC000FB868B85812C912C5401823029F4812C45
:101FD000912CA12C80E4B82E20E030E0A90167E329
:101FE000CE010E942B0FA501940169E2CE010E944F
:101FF0002B0F8A878823C1F00E945222601B710B2D
:10200000613D774048F388E0C1CF94E0F92E0E940B
:102010009C0E8A87FA94F110FACF8A3A11F082E086
:10202000B5CF82E08B87CDCF8B858230C1F420E0A5
:1020300030E0A9016AE3CE010E942B0F882311F042
:1020400086E0A4CF0E949C0E807C803C11F483E04B
:102050008B870E949C0E0E949C0E0E949C0ECE01BB
:102060000E949F0E6E2DCE01DF91CF911F910F9197
:10207000FF90EF90BF90AF909F908F900C94E00EE8
:102080000F931F93CF93DF93EC010E9452228B0199
:102090000E949C0E8A878F3F91F40E945222601BFF
:1020A000710B6D327140A0F38FE08D83CE010E94E1
:1020B0009F0E80E0DF91CF911F910F9108958E3F89
:1020C00011F08DE0F2CF81E0F5CFCF92DF92EF9269
:1020D000FF920F931F93CF93DF93EC016901C80127
:1020E000820F931F8130924048F58E81882371F0D2
:1020F00088819981AA81BB8184179507A607B707B4
:1021000029F48F819885C816D90670F548835983BC
:102110006A837B838B85833039F089E0440F551FB8
:10212000661F771F8A95D1F79A01AB0161E1CE0155
:102130000E942B0F882379F083E08D83CE010E94CB
:102140009F0E80E0DF91CF911F910F91FF90EF9054
:10215000DF90CF900895CE010E944010882371F344
:1021600018861F8281E08E838F8198858C159D054E
:1021700060F06701E00EF11EEC14FD0471F00E94A6
:102180009C0EF60181936F01F7CF0E949C0E8F8108
:102190009885019698878F83E7CF8F819885080F60
:1021A000191F18870F838985882319F0011512409C
:1021B00018F0CE010E94C60E81E0C4CFEF92FF92CC
:1021C0000F931F930115110539F00E9465101F919F
:1021D0000F91FF90EF90089581E0F9CFEF92FF9279
:1021E0000F931F93790100E012E030E020E00E949D
:1021F00065101F910F91FF90EF900895EF92FF925D
:102200000F931F93CF93DF938C01862F7A010E9447
:10221000950EE7018EEFF81A89910E94950ECE1562
:10222000DF05D1F78FEF0E94950E8FEF0E94950E7C
:102230000E949C0EF80182878F71853069F081E1E0
:102240008583C8010E949F0E80E0DF91CF911F918E
:102250000F91FF90EF90089581E0F7CF0F931F93B8
:10226000CF93DF93EC01890182E1411551056105AE
:10227000710599F08B85833039F089E0440F551F43
:10228000661F771F8A95D1F79A01AB0168E1CE01ED
:102290000E942B0F882339F084E08D83CE010E94A9
:1022A0009F0E80E023C0A8016EEFCE010E94FE10B9
:1022B0008823A1F368E572E0CE010E94100F81111E
:1022C00002C085E1EACF20E030E0A9016DE0CE0157
:1022D0000E942B0F882311F084E1DFCF0E949C0E17
:1022E0008111FACFCE010E949F0E81E0DF91CF9144
:1022F0001F910F910895EBE0F3E080E58083118258
:1023000008950895CF93DF93EC019C012A5F3F4F1E
:1023100041E050E060E070E08B8D9C8D0E94DB1A04
:102320008823A1F08F89988DA98DBA8D892B8A2B4E
:102330008B2B59F48E819F81A885B9858F8B988FBF
:10234000A98FBA8F8C8180688C8381E0DF91CF91D7
:1023500008958F929F92AF92BF92CF92DF92EF92A9
:10236000FF92CF93DF93EC010E94821181110CC088
:1023700080E0DF91CF91FF90EF90DF90CF90BF9002
:10238000AF909F908F900895EB8DFC8DCE80DF8075
:10239000E884F98482E0C81AD108E108F10885854B
:1023A00004C0CC0CDD1CEE1CFF1C8A95D2F7868580
:1023B0009785A089B189C80ED91EEA1EFB1E8481AB
:1023C00046015701880E911CA11CB11C8C149D0460
:1023D000AE04BF0461F081E0881A9108A108B10839
:1023E000C501B4010E9429198111F0CFC1CFEB8D35
:1023F000FC8D258580E092E0A0E0B0E004C0880F6D
:10240000991FAA1FBB1F2A95D2F74B895C896D893A
:102410007E89840F951FA61FB71F8B8B9C8BAD8B5E
:10242000BE8B81E0A6CFCF93DF93EC01462F6E8564
:102430007F85888999890E94EE18882351F08A89BE
:1024400020E2829FC00111248A5E9C4FDF91CF91D0
:10245000089590E080E0FACFFB019B01255F3F4F9C
:1024600040E241932E173F07E1F7DC0120E037E01F
:102470009D91492F992319F19E3229F43A3059F050
:1024800028E03AE0F5CFECE8F0E08491882329F0E9
:1024900031969813FACF80E017C03217A8F05FED9D
:1024A000590F5E3588F48FE9890F8A3110F440EEB8
:1024B000490FFB01E20FF11D40832F5FD9CF81E06F
:1024C000FB019081903239F308950F931F93CF93BE
:1024D000DF93FC012581222331F080E0DF91CF9151
:1024E0001F910F9108958B01EC01FB0187898031C9
:1024F00039F582E08D831F8A188E198E1A8E808D91
:10250000918DB0E0A0E025E0880F991FAA1FBB1FA6
:102510002A95D1F78B8B9C8BAD8BBE8B1C8F0B8F31
:1025200081E08C831E821F82188619861A861B867C
:102530001C861D861E861F86188A198A1A8ACECF87
:10254000803259F683E08D83428D538D648D758D75
:102550004F8B588F698F7A8F9E012D5E3F4FC80138
:102560000E94CE198111DACFB8CF2F923F924F92AD
:102570005F926F927F928F929F92AF92BF92CF9213
:10258000DF92EF92FF920F931F93CF93DF93EC01B3
:102590005B012A018D81811115C08FEF9FEFDF91C3
:1025A000CF911F910F91FF90EF90DF90CF90BF9050
:1025B000AF909F908F907F906F905F904F903F90E3
:1025C0002F9008958C8180FFE8CF0B891C892D897D
:1025D0003E894A855B856C857D85C201B0E0A0E0BF
:1025E00068017901C41AD50AE60AF70AC816D9069D
:1025F000EA06FB0618F42801441A550A42011E0196
:1026000026E0220E311C8114910409F4B3C04A85DE
:102610005B856C857D856A0181E0D8228B8D9C8DE0
:102620008A019B01E9E03695279517950795EA956C
:10263000D1F7ED81E230E1F5FC01628D738D848D7F
:10264000958D600F711F821F931F612C22E0722EE7
:102650006C187D088614970408F434012C8126FD3B
:1026600004C06114F2E07F0671F400910A01109138
:102670000B0120910C0130910D0106171707280757
:10268000390709F053C040E00E94EE18882309F48E
:1026900084CFC6018A5E9C4FD5019C01260D371D53
:1026A000FC012E173F0709F460C041914D93F9CF0B
:1026B000FC0174807A947022C114D10471F47110F9
:1026C0000CC0452B462B472B39F58F89988DA98D4A
:1026D000BA8D8E839F83A887B987EB8DFC8D6E8121
:1026E0007F818885998562507109810991092585C5
:1026F00004C0660F771F881F991F2A95D2F7068599
:10270000178520893189600F711F821F931F670D04
:10271000711D811D911D99CF4E815F8168857985DD
:1027200091010E944D198111D8CF37CF75018301D6
:102730009601AB01BC0180911403909115030E9496
:10274000DE10882309F429CFA60CB71C8A859B8547
:10275000AC85BD85860D971DA11DB11D8A879B8700
:10276000AC87BD87861897084ECF281B390BA20E61
:10277000B31EECCFC20113CFFF920F931F93CF93E1
:10278000DF931F92CDB7DEB7FC0125812230C8F060
:102790008C01428553856485758585E076956795BE
:1027A000579547958A95D1F7F42FFF70FF2E41E09A
:1027B00050E0BE016F5F7F4FC8010E94B5120197C4
:1027C00019F090E080E012C0F80182859385A4851D
:1027D000B5854F96A11DB11D82879387A487B587C4
:1027E000F0E2FF9EC00111248A5E9C4F0F90DF91A2
:1027F000CF911F910F91FF9008958F929F92AF926A
:10280000BF92CF92DF92EF92FF920F931F93CF93DD
:10281000DF93EC018D8181110EC080E0DF91CF91BB
:102820001F910F91FF90EF90DF90CF90BF90AF90EE
:102830009F908F9008950B891C892D893E890417DC
:1028400015072607370748F34A015B01823031F448
:102850008A869B86AC86BD8681E0E0CF8114910498
:10286000A104B10449F41E821F82188619861A86B3
:102870001B861C861D86F0CF0A851B852C853D8511
:10288000EB8DFC8D858590E00996B901A80141503A
:10289000510961097109082E04C07695679557950D
:1028A00047950A94D2F775016401E1E0CE1AD10888
:1028B000E108F10804C0F694E794D794C7948A9588
:1028C000D2F7C416D506E606F70620F0012B022B38
:1028D000032B11F58F89988DA98DBA8D8E839F83D7
:1028E000A887B9878E010A5F1F4FC114D104E10484
:1028F000F10409F4ADCF4E815F8168857985980137
:102900008B8D9C8D0E944D1991E0C91AD108E10868
:10291000F1088111EACF81CFC41AD50AE60AF70A75
:10292000E1CF0F931F93CF93DF93EC018D81882329
:10293000D9F18C8187FF32C061E0CE010E94131271
:102940008C01892B89F18D81823048F48B899C8997
:10295000AD89BE89F801848F958FA68FB78F8F8937
:10296000988DF801938F828F8F89988DA98DBA8D5C
:10297000B58BA48BE0910D03F0910E03309759F0C5
:10298000B8016A5E7F4FC80148960995F801808DAD
:10299000918D938B828B8C818F778C83DF91CF91FC
:1029A0001F910F910C94B31880E0DF91CF911F918C
:1029B0000F910895CF93DF93EC010E949114882327
:1029C00011F01D8281E0DF91CF9108954F925F92C7
:1029D0006F927F928F929F92AF92BF92EF92FF92EF
:1029E0000F931F93CF93DF9300D000D0CDB7DEB706
:1029F000FC0185818130A1F080E00F900F900F9055
:102A00000F90DF91CF911F910F91FF90EF90BF90AA
:102A1000AF909F908F907F906F905F904F900895B0
:102A2000848181FFE9CF83899489A589B689841738
:102A30009507A607B70700F3892B8A2B8B2B09F480
:102A400077C04A015B017F014284538464847584AA
:102A5000CF010E94FD13882379F2F701838D948DB5
:102A600081149104A104B10449F54789508D618D09
:102A7000728D0E94E61B882309F4BECFF701178AE6
:102A8000108E118E128EF701838A948AA58AB68AD7
:102A9000848180688483C7010E949114882309F48B
:102AA000ABCFB501A401441655066606770610F4AF
:102AB000B301A201C7010E94FD139FCF4681578138
:102AC000608571859E012F5F3F4F0E944D198823BD
:102AD00009F492CFF701838D948D49815A816B81DE
:102AE0007C81FC0127892031F1F408EF1FEF20E001
:102AF00030E0401751076207730728F60E94E61B73
:102B0000882309F479CFF701468157816085718563
:102B10000FEF1FEF2FEF3FE0838D948D0E94391A46
:102B20008111B1CF69CF08EF1FEF2FEF3FE0E1CF69
:102B300081E063CFCF92DF92EF92FF921F93CF930A
:102B4000DF93EC0180E2689FF0011124EA5EFC4F04
:102B50009385917161F0842F827449F080E0DF9158
:102B6000CF911F91FF90EF90DF90CF900895142F99
:102B70006A8B80910A0190910B01A0910C01B09198
:102B80000D018E879F87A88BB98BC488D588F12CBF
:102B9000E12C7601DD24CC24CF8AD88EE98EFA8E02
:102BA000828D938DB0E0A0E0AC01BD014C295D2980
:102BB0006E297F294F8B588F698F7A8F8385887113
:102BC00029F5848D958DA68DB78D8B8B9C8BAD8BC8
:102BD000BE8B81E08D83812F8F708C831E821F823C
:102BE000188619861A861B861C861D8681E016FFAC
:102BF000B6CF40E050E0BA01CE01DF91CF911F91F6
:102C0000FF90EF90DF90CF900C94E614803109F0A4
:102C1000A5CF9E012D5E3F4F8B8D9C8D0E94CE19BE
:102C2000882309F49BCF84E0D5CFBF92CF92DF9267
:102C3000EF92FF920F931F93CF93DF93CDB7DEB741
:102C40002B970FB6F894DEBF0FBECDBFFC013581C8
:102C500031110BC0C22E8B017C01BE016F5F7F4F13
:102C6000CA010E942C12811102C080E0A1C0F801AB
:102C7000838D948DF701948F838FF80116821782CC
:102C8000108611861286138614861586B12CF801DB
:102C900082859385A485B58543895489658976891C
:102CA00084179507A607B70788F525E0B695A79579
:102CB000979587952A95D1F7F82FFF70DF2EC801D9
:102CC0000E94BC13009789F2FC012081222341F06D
:102CD000253E09F059C0BB2029F0BB24B394D7CFBF
:102CE000B1100EC0F701D28A40910A0150910B0138
:102CF00060910C0170910D0146875787608B718B35
:102D0000FC0180818111E9CFBB24B3948C2D8271A9
:102D1000823109F0AACFBB2009F45AC061E0C70193
:102D20000E9413128C01892B09F49FCF80E2F801D5
:102D300011928A95E9F78BE0FE013196D801019056
:102D40000D928A95E1F7E0910D03F0910E03309713
:102D500009F44EC0B801625F7F4FC80140960995E3
:102D6000F80180899189938B828B918F808F8685E2
:102D70009785978B868B0E94B318882309F475CFAB
:102D80004C2DF701628911C04BE050E0BC01CE012F
:102D900001960E94E725892B09F079CF8C2D80734D
:102DA0004C2D6D2D803309F460CFC7010E949A1518
:102DB0002B960FB6F894DEBF0FBECDBFDF91CF913B
:102DC0001F910F91FF90EF90DF90CF90BF900895EB
:102DD000F8018581823009F448CFC8010E94A91109
:102DE000882309F442CFF701128A06E113E09ECF4F
:102DF00081E298E2F801918B808B80E098E09787E0
:102E00008687AECF2F923F924F925F926F927F92C2
:102E10008F929F92AF92BF92CF92DF92EF92FF92EA
:102E20000F931F93CF93DF9300D000D0CDB7DEB7C1
:102E30008C016B011A01DC0115968C91159781307C
:102E400009F0C8C014968C9181FFC4C082FDAEC049
:102E50004101D8011A964D915D916D917C911D971C
:102E60008114910409F429C15B968D919C915C9722
:102E7000FC0174802FEF270D2A013B0139E0769485
:102E80006794579447943A95D1F7722E74207A013B
:102E9000F1E0FF22711020C0E114F104E9F416966C
:102EA0004D915D916D917C91199741155105610589
:102EB000710509F098C057968D919D910D90BC9128
:102EC000A02D0097A105B10509F0AFC0C8010E946F
:102ED0008211882309F47EC080E092E08E199F0958
:102EE00054018815990508F45C01D8015B964D9151
:102EF0005C915C9716968D919D910D90BC91A02D43
:102F00000297A109B109FA01258504C0880F991F0C
:102F1000AA1FBB1F2A95D2F74685578560897189FC
:102F2000840F951FA61FB71F9C01AD01270D311DF2
:102F3000411D511D29013A01A11432E0B30609F0E7
:102F40007AC080910A0190910B01A0910C01B0917F
:102F50000D0184159505A605B70559F48FEF9FEF70
:102F6000DC0180930A0190930B01A0930C01B093B4
:102F70000D019601B301A2018091140390911503F4
:102F80000E942E11882331F19EEFD91A8A189B08CE
:102F9000F80182859385A485B5858A0D9B1DA11DA9
:102FA000B11D82879387A487B58753CFF8014389E2
:102FB00054896589768982859385A485B585481766
:102FC00059076A077B0709F443CFC8010E94FD1324
:102FD00081113ECF81E090E0D80113969C938E93AF
:102FE000129780E007C09E012F5F3F4F0E944D194E
:102FF000811102C090E07BC089819A81AB81BC8144
:10300000F801238D348DF901278948EF5FEF60E0E7
:1030100070E0203121F048EF5FEF6FEF7FE0841721
:103020009507A607B70708F051CFF8018683978365
:10303000A087B18751CFE114F10491F5D8011A9618
:103040004D915D916D917C911D9753968D919D91C0
:103050000D90BC91A02D481759076A077B0700F116
:103060000E94B318882309F4B5CF40920A01509208
:103070000B0160920C0170920D018091130381602D
:103080008093130397012A5E3C4FD601C9018A0D34
:103090009B1DF9018E179F0759F04D914193FACF6F
:1030A00041E0C301B2010E94EE188111EBCF92CF33
:1030B000821B930BC80ED91E69CF14968C9114975E
:1030C0005396CD90DD90ED90FC905697C416D506A2
:1030D000E606F70618F5F801438B548B658B768B63
:1030E00080688483F801848183FD25C0C1010F902D
:1030F0000F900F900F90DF91CF911F910F91FF9044
:10310000EF90DF90CF90BF90AF909F908F907F9087
:103110006F905F904F903F902F90089520910D03F6
:1031200030910E03232BF1F221143104D9F280687F
:1031300014968C93D7CFC8010E949114882309F468
:1031400049CFD4CFCF93DF931F92CDB7DEB769833A
:1031500041E050E0BE016F5F7F4F0E9402170F9069
:10316000DF91CF910895809113038823A9F14091B5
:103170000A0150910B0160910C0170910D0126E143
:1031800033E080911403909115030E942E11811158
:1031900002C080E0089540910F03509110036091A8
:1031A000110370911203411551056105710591F0EC
:1031B00026E133E080911403909115030E942E11B3
:1031C000882339F310920F03109210031092110309
:1031D000109212031092130381E00895CF92DF92B0
:1031E000EF92FF92CF936B017C01C42F80910A0173
:1031F00090910B01A0910C01B0910D018C159D05D2
:10320000AE05BF05F9F00E94B318811107C080E038
:10321000CF91FF90EF90DF90CF90089526E133E0BB
:10322000B701A60180911403909115030E94EE103E
:10323000882369F3C0920A01D0920B01E0920C013D
:10324000F0920D01409113034C2B4093130381E046
:10325000DFCFCF92DF92EF92FF926B017C010E9451
:10326000B3188823A9F0E6E1F3E0119285E0E63196
:10327000F807D9F7C0920A01D0920B01E0920C0135
:10328000F0920D018091130381608093130381E01C
:10329000FF90EF90DF90CF9008958F929F92AF9222
:1032A000BF92CF92DF92EF92FF920F931F93CF9333
:1032B000DF93FC0181859285A385B4850196A11DCC
:1032C000B11D84179507A607B70770F480E0DF915A
:1032D000CF911F910F91FF90EF90DF90CF90BF9013
:1032E000AF909F908F90089583889488A588B68822
:1032F0008789803189F5BB27A72F962F852FE90174
:103300006A017B018F01BC01CD01680D791D8A1D09
:103310009B1D80900A0190900B01A0900C01B09031
:103320000D0186169706A806B90601F5F8018789EA
:10333000803111F5DD24EE24FF24F601EE0FFF1F8E
:10334000EA5EFC4F80819181B0E0A0E088839983A0
:10335000AA83BB8381E0BBCFDB01CA01C7E0B6957E
:10336000A79597958795CA95D1F7C9CF40E00E9458
:10337000EE188111DBCFAACFE894C7F8DD24EE2444
:10338000FF24F601EE0FFF1FEE0FFF1FEA5EFC4F5A
:1033900080819181A281B381BF70D8CF4F925F921B
:1033A0006F927F92AF92BF92CF92DF92EF92FF9295
:1033B0000F931F93CF93DF9300D000D0CDB7DEB72C
:1033C0008C0149835A836B837C835901C12CD12C96
:1033D0007601412C82E0582E612C712C49815A8152
:1033E0006B817C819E012F5F3F4FC8010E944D1968
:1033F000882339F1F8018585A301920104C0220FC9
:10340000331F441F551F8A95D2F7DA01C901C80E30
:10341000D91EEA1EFB1E49815A816B817C818789F6
:10342000803111F188EF9FEFAFEFBFE048175907E8
:103430006A077B0798F2F501C082D182E282F382AB
:1034400081E00F900F900F900F90DF91CF911F911F
:103450000F91FF90EF90DF90CF90BF90AF907F9053
:103460006F905F904F90089588EF9FEFA0E0B0E0DD
:10347000DDCF4F925F926F927F928F929F92AF9229
:10348000BF92CF92DF92EF92FF920F931F93CF9351
:10349000DF93EC01423051056105710590F480E045
:1034A000DF91CF911F910F91FF90EF90DF90CF9020
:1034B000BF90AF909F908F907F906F905F904F9054
:1034C000089589859A85AB85BC850196A11DB11D9E
:1034D00084179507A607B70710F3CB88DC88ED881B
:1034E000FE888F89803109F042C0BB27A72F962F15
:1034F000852F480159012A013B01C80ED91EEA1E39
:10350000FB1E80910A0190910B01A0910C01B091DA
:103510000D01C816D906EA06FB0699F58F89803198
:10352000C1F5B301A201552766277727440F551F20
:103530004A5E5C4FFA019182808280911303816020
:10354000809313038A89823080F08D819E81AF81C0
:10355000B8858C0D9D1DAE1DBF1D80930F039093EC
:103560001003A0931103B093120381E099CFDB0104
:10357000CA01E7E0B695A79597958795EA95D1F7A3
:10358000B8CF40E0C701B6010E94EE188111C6CF46
:1035900086CFB301A2014F77552766277727440FBF
:1035A000551F440F551F4A5E5C4FFA01808291827D
:1035B000A282B382C2CF2F923F924F925F926F92BC
:1035C0007F928F929F92AF92BF92CF92DF92EF92B3
:1035D000FF920F931F93CF93DF93CDB7DEB72F9753
:1035E0000FB6F894DEBF0FBECDBF3C0148875987A8
:1035F0006A877B873F832E83D901CD90DD90ED9044
:10360000FC90C114D104E104F10439F0BFEFCB1AEE
:10361000DB0AEB0AFB0A1D8210C0FC01C080D180CE
:10362000E280F380F1E0FD83088519852A853B85DA
:10363000013011052105310571F7F301818592856E
:10364000A385B4858C019D010F5F1F4F2F4F3F4F06
:103650000C871D872E873F8746015701212C312C6F
:103660002101F30181859285A385B4852816390649
:103670004A065B0608F044C00C851D852E853F85F3
:10368000081519052A053B0550F482E0882E912C77
:10369000A12CB12C92E0C92ED12CE12CF12C9E0151
:1036A0002F5F3F4FB501A401C3010E944D1988232C
:1036B00039F1D501C4010196A11DB11D49815A817D
:1036C0006B817C81452B462B472BA9F5AC01BD01B5
:1036D0004C195D096E097F09088519852A853B8586
:1036E000401751076207730741F50FEF1FEF2FEFE8
:1036F0003FE0B501A401C3010E94391A811125C020
:103700001D828D812F960FB6F894DEBF0FBECDBF00
:10371000DF91CF911F910F91FF90EF90DF90CF90AD
:10372000BF90AF909F908F907F906F905F904F90E1
:103730003F902F9008956C017D011FEF211A310AEF
:10374000410A510A4C015D018CCFC814D904EA0426
:10375000FB0488F41401250121E0221A31084108F4
:10376000510895018401B201A101C3010E94391AD7
:1037700052014101C3CFAE81BF814D915D916D91E9
:103780007C91411551056105710561F4EE81FF8160
:10379000C082D182E282F382FD81F1110BC001E08F
:1037A0000D83AFCF97018601C3010E94391A8111A1
:1037B000EDCFA6CF1FEFC11AD10AE10AF10AD3015A
:1037C000CD92DD92ED92FC9213979BCFAF92BF9278
:1037D000CF92DF92EF92FF920F931F93CF93DF93DD
:1037E00000D000D0CDB7DEB75C016A017B0182E07A
:1037F00090E0A0E0B0E0F50180839183A283B383E1
:103800009E012F5F3F4FB701A601C5010E944D19D0
:10381000882381F100E010E09801B701A601C501FD
:103820000E94391A882331F1C980DA80EB80FC804C
:10383000F50187898031C9F088EF9FEFAFEFBFE0D6
:10384000C816D906EA06FB06D8F281E00F900F9061
:103850000F900F90DF91CF911F910F91FF90EF90FC
:10386000DF90CF90BF90AF90089588EF9FEFA0E0DA
:10387000B0E0E6CF80E0EACF8F929F92AF92BF9206
:10388000CF92DF92EF92FF920F931F93CF93DF932C
:10389000EC01142F7093150360931403442309F46F
:1038A00078C0453070F080E0DF91CF911F910F918B
:1038B000FF90EF90DF90CF90BF90AF909F908F9050
:1038C000089540E060E070E0CB010E94EE1888238C
:1038D00051F3812F8150990BAC0164E0440F551FC7
:1038E0006A95E1F74A5E5C4FFA01E254FE4F80812F
:1038F0008F77C9F63C9680819181A281B38184360D
:103900009105A105B10578F24A535E4FFA01C080D6
:10391000D180E280F380C114D104E104F10419F2F2
:1039200040E0C701B6010E94EE18882309F4BBCF1E
:1039300080912103909122038115924009F0B3CF29
:1039400090912603992309F4AECF2091240330915E
:103950002503232B09F4A7CF80912303882309F49F
:10396000A2CF9A8B8C831D8690E041E050E02D859C
:10397000E22FBA01022E02C0660F771F0A94E2F707
:103980008617970751F031E0320F3D87283078F3E2
:103990008ACFC12CD12C7601C3CF20912C0330913A
:1039A0002D0350E040E02115310541F420913A0308
:1039B00030913B0340913C0350913D032D833E8366
:1039C0004F83588780912403909125034601570126
:1039D000880E991EA11CB11C8B8A9C8AAD8ABE8A56
:1039E0000091270310912803198F088FA0912603B7
:1039F000B0E00E94C723DC01CB01880D991DAA1DF0
:103A0000BB1D8A8F9B8FAC8FBD8F25E0000F111FD0
:103A10002A95E1F701501E4F012F11270695800FBF
:103A2000911FA11DB11D8E879F87A88BB98B009117
:103A3000290310912A0330E020E00115110541F41B
:103A400000913603109137032091380330913903E8
:103A5000C81AD90AEA0AFB0AC00ED11EE21EF31EDA
:103A600004C0F694E794D794C794EA95D2F7C98630
:103A7000DA86EB86FC868CE025EFC2162FE0D206B4
:103A8000E104F10440F085EFC8168FEFD806E10499
:103A9000F10420F480E18F8B81E006CF8091420316
:103AA00090914303A0914403B09145038A8F9B8F6B
:103AB000AC8FBD8F80E2EFCFCF93CFB7F8948091DA
:103AC0001905811127C0E0EEF0E08491E0ECF0E010
:103AD0009491E82FF0E0EE0FFF1FEA5FFE4FA591F3
:103AE000B491EC91E92321F461E084E00E946D231C
:103AF00061E084E00E9431238CB580618CBD8CB57F
:103B000080648CBD61E087E00E94312361E085E044
:103B10000E943123809119058F5F80931905CFBFD3
:103B2000CF910895FC01918D228D892F90E0805CCA
:103B30009F4F821B91098F7399270895FC01918DE6
:103B4000828D981731F0828DE80FF11D858D90E000
:103B500008958FEF9FEF0895FC01918D828D981746
:103B600061F0A28DAE0FBF2FB11D5D968C91928D2D
:103B70009F5F9F73928F90E008958FEF9FEF08955E
:103B8000FC01538D448D252F30E0842F90E0821B63
:103B9000930B541710F0CF9608950197089581E381
:103BA0009FE1892B49F080E090E0892B29F00E9469
:103BB000311F81110E94000080E090E0892B49F0C4
:103BC00080E090E0892B29F00E94000081110C9484
:103BD00000000895FC01A48DA80FB92FB11DA35AB0
:103BE000BF4F2C91848D90E001968F739927848F1D
:103BF000A689B7892C93A089B1898C918370806440
:103C00008C93938D848D981306C00288F389E02DE0
:103C100080818F7D80830895CF93DF93EC01888D21
:103C20008823B9F0AA89BB89E889F9898C9185FD37
:103C300003C0808186FD0DC00FB607FCF7CF8C91C5
:103C400085FFF2CF808185FFEDCFCE010E94EA1D76
:103C5000E9CFDF91CF910895EF92FF920F931F93D9
:103C6000CF93DF93EC0181E0888F9B8D8C8D98132F
:103C70001AC0E889F989808185FF15C09FB7F8943B
:103C8000EE89FF896083E889F98980818370806487
:103C900080839FBF81E090E0DF91CF911F910F91D2
:103CA000FF90EF900895F62E0B8D10E00F5F1F4FE1
:103CB0000F731127E02E8C8D8E110CC00FB607FCF0
:103CC000FACFE889F989808185FFF5CFCE010E947E
:103CD000EA1DF1CFEB8DEC0FFD2FF11DE35AFF4FE5
:103CE000F0829FB7F8940B8FEA89FB89808180620C
:103CF000CFCFCF92DF92EF92FF921F93CF93DF93BC
:103D0000EC016A017B01122FE889F98982E0808346
:103D1000C11481EED806E104F104A1F060E079E07D
:103D20008DE390E0A70196010E949C232150310968
:103D3000410951095695479537952795211580E1F9
:103D4000380798F0E889F989108260E874E88EE114
:103D500090E0A70196010E949C232150310941095E
:103D600051095695479537952795EC85FD85308304
:103D7000EE85FF852083188EEC89FD891083EA8902
:103D8000FB89808188698083EA89FB8980818F7DB6
:103D90008083DF91CF911F91FF90EF90DF90CF90C4
:103DA00008951F920F920FB60F9211240BB60F9227
:103DB0002F938F939F93EF93FF93E0912A05F091B8
:103DC0002B058081E0913005F091310582FD1DC009
:103DD0009081809133058F5F8F7320913405821716
:103DE00041F0E0913305F0E0E65EFA4F958F809365
:103DF0003305FF91EF919F918F912F910F900BBE03
:103E00000F900FBE0F901F9018958081F2CF1F92D8
:103E10000F920FB60F9211240BB60F922F933F9370
:103E20004F935F936F937F938F939F93AF93BF93C2
:103E3000EF93FF938AE195E00E94EA1DFF91EF91D5
:103E4000BF91AF919F918F917F916F915F914F91B2
:103E50003F912F910F900BBE0F900FBE0F901F90B0
:103E600018958AE195E00E94921D21E0892B09F4C2
:103E700020E0822F0895EAE1F5E01382128288EEB5
:103E800093E0A0E0B0E084839583A683B78389EEB6
:103E900091E09183808385EC90E09587848784EC22
:103EA00090E09787868780EC90E0918B808B81EC07
:103EB00090E0938B828B82EC90E0958B848B86ECE8
:103EC00090E0978B868B118E128E138E148E089530
:103ED000AF92BF92CF92DF92EF92FF920F931F9318
:103EE000CF93DF936C017B018B01040F151FEB0156
:103EF0005E01AE18BF08C017D10759F06991D6010D
:103F0000ED91FC910190F081E02DC6010995892B7E
:103F100079F7C501DF91CF911F910F91FF90EF903D
:103F2000DF90CF90BF90AF900895FB0101900020EB
:103F3000E9F73197AF01461B570BDC01ED91FC917E
:103F40000280F381E02D0994DB0114964D915C9180
:103F500015976D917C91DC01ED91FC910280F381CC
:103F6000E02D09946115710511F00C94951F90E0F6
:103F700080E0089567EF71E00C94951F0F931F93F5
:103F8000CF93DF93EC010E94A41F8C01CE010E940D
:103F9000BA1F800F911FDF91CF911F910F9108954C
:103FA0000F931F93CF93DF938C01D0E0C0E0611596
:103FB000710519F00E94951FEC01C8010E94BA1FFB
:103FC0008C0F9D1FDF91CF911F910F9108958F92BC
:103FD0009F92AF92BF92EF92FF920F931F93CF9356
:103FE000DF93CDB7DEB7A1970FB6F894DEBF0FBE53
:103FF000CDBF7C01FA01CB0119A2223008F42AE0DE
:104000008E010F5D1F4F822E912CB12CA12CBF0170
:10401000A50194010E949C23F901CA016A300CF5A4
:10402000605DD8016E938D01232B242B252B79F70E
:1040300090E080E0109721F0BD01C7010E94951F1C
:10404000A1960FB6F894DEBF0FBECDBFDF91CF9122
:104050001F910F91FF90EF90BF90AF909F908F9026
:104060000895695CDECF2115310541F4DC01ED9145
:10407000FC910190F081E02D642F09940C94E71FCE
:104080000F931F93CF93DF93EC010E9433208C0199
:10409000CE010E94BA1F800F911FDF91CF911F9117
:1040A0000F910895FC0180819181009711F00C948B
:1040B0007D240895CF93DF93EC0188819981009747
:1040C00011F00E947D24198218821D821C821B829D
:1040D0001A82DF91CF9108950F931F93CF93DF93AF
:1040E000EC018B016F5F7F4F888199810E940625CB
:1040F000009751F0998388831B830A8381E0DF91C5
:10410000CF911F910F91089580E0F9CFCF93DF9366
:10411000EC0188819981892B49F08A819B818617DE
:10412000970720F081E0DF91CF910895CE010E94A2
:104130006C208823C1F38C819D81892B99F7E881BC
:10414000F9811082EFCFEF92FF920F931F93CF93DD
:10415000DF93EC017B018A01BA010E948620811164
:104160000BC0CE010E945A20CE01DF91CF911F914A
:104170000F91FF90EF9008951D830C83B701888104
:1041800099810E940826F0CFFC01118210821382CF
:104190001282158214826115710551F0FB010190A4
:1041A0000020E9F73197AF01461B570B0C94A32071
:1041B0000895FB0101900020E9F73197AF01461BFC
:1041C000570B0C94A3200F931F93CF93DF93CDB77E
:1041D000DEB729970FB6F894DEBF0FBECDBF8C01B6
:1041E000862FF801118210821382128215821482A6
:1041F00050E0BE016F5F7F4F90E00E944B26BE01F2
:104200006F5F7F4FC8010E94D92029960FB6F8949E
:10421000DEBF0FBECDBFDF91CF911F910F910895EB
:104220000F931F93CF93DF93CDB7DEB761970FB690
:10423000F894DEBF0FBECDBF8C01CB01F801118217
:104240001082138212821582148250E0BE016F5FC9
:104250007F4F0E944B26BE016F5F7F4FC8010E94B7
:10426000D92061960FB6F894DEBF0FBECDBFDF91A7
:10427000CF911F910F9108950F931F93CF93DF93C9
:10428000CDB7DEB7A1970FB6F894DEBF0FBECDBF96
:104290008C01CB01BA01F8011182108213821282C3
:1042A0001582148230E0AE014F5F5F4F0E941E26E0
:1042B000BE016F5F7F4FC8010E94D920A1960FB643
:1042C000F894DEBF0FBECDBFDF91CF911F910F914C
:1042D0000895CF93DF93EC01FB018617970749F010
:1042E000608171816115710541F0448155810E94A1
:1042F000A320CE01DF91CF9108950E945A20F9CFDB
:10430000FC011182108213821282158214820C9495
:104310006921EF92FF920F931F93CF93DF93611563
:10432000710541F480E0DF91CF911F910F91FF90D3
:10433000EF90089541155105B1F07B01EC010C811E
:104340001D81040F151FB8010E948620882351F398
:10435000288139818C819D81B701820F931F0E9432
:1043600008261D830C8381E0DECFFB01448155814B
:10437000608171810C9489216115710551F0FB01F7
:1043800001900020E9F73197AF01461B570B0C94C1
:10439000892180E00895CF93DF93EC01FB014481F4
:1043A0005581608171810E948921811103C0CE01F4
:1043B0000E945A20CE01DF91CF910895CF93DF93D1
:1043C000EC016115710539F4CE010E945A20CE012D
:1043D000DF91CF910895FB0101900020E9F731971B
:1043E000AF01461B570B0E948921882369F3EFCF49
:1043F00008950E94C7220E94F8210E94EC03CFEC8E
:10440000DDE10E94AC012097E1F30E94CF1DF9CFBE
:104410001F920F920FB60F9211242F933F938F93F9
:104420009F93AF93BF938091BC059091BD05A091E0
:10443000BE05B091BF053091BB0523E0230F2D379A
:1044400068F126E8230F0296A11DB11D2093BB053C
:104450008093BC059093BD05A093BE05B093BF05A6
:104460008091B7059091B805A091B905B091BA05B2
:104470000196A11DB11D8093B7059093B805A09337
:10448000B905B093BA05BF91AF919F918F913F91BC
:104490002F910F900FBE0F901F9018950196A11DA0
:1044A000B11DD4CF2FB7F8946091BC057091BD05B4
:1044B0008091BE059091BF052FBF08953FB7F89436
:1044C0008091B7059091B805A091B905B091BA0552
:1044D00026B5A89B05C02F3F19F00196A11DB11D5F
:1044E0003FBFBA2FA92F982F8827BC01CD01620F9B
:1044F000711D811D911D42E0660F771F881F991F56
:104500004A95D1F708958F929F92AF92BF92CF9222
:10451000DF92EF92FF926B017C010E945E224B01C1
:104520005C01C114D104E104F104E9F00E949B2371
:104530000E945E22681979098A099B09683E7340C6
:104540008105910570F321E0C21AD108E108F10854
:1045500088EE880E83E0981EA11CB11CC114D10402
:10456000E104F10429F7FF90EF90DF90CF90BF9026
:10457000AF909F908F9008958230910538F0880F0A
:10458000991F880F991F05970197F1F7089578945F
:1045900084B5836084BD85B5836085BDEEE6F0E0BB
:1045A000808181608083E1E8F0E082E08083808127
:1045B00081608083E0E8F0E0808181608083E1EBCE
:1045C000F0E0808184608083E0EBF0E080818160B6
:1045D0008083E1E9F0E0808183608083E0E9F0E0BE
:1045E00080818160808387E880937A001092C10087
:1045F000089582508A3088F5E82FF0E0EE5FFC4D98
:104600000C94BE232A232E230C2312232D232D2387
:1046100016231C2320232623809180008F778093EC
:1046200080000895809180008F7DF9CF8091B00047
:104630008F778093B00008958091B0008F7DF9CF7F
:10464000809190008F7780939000089580919000E2
:104650008F7DF9CF84B58F7784BD089584B58F7D24
:10466000FBCFCF93DF9390E0FC01E454FF4F249104
:1046700084529F4FFC0184918823C9F090E0880FF9
:10468000991FFC01EA5FFE4FA591B491FC01E45033
:10469000FF4FC591D49161110DC09FB7F8948C91D3
:1046A000209582238C938881282328839FBFDF91C4
:1046B000CF910895623051F49FB7F8943C91822FC6
:1046C000809583238C93E8812E2BEFCF8FB7F894BE
:1046D000EC912E2B2C938FBFEACF1F93CF93DF93B8
:1046E000282F30E0F901E456FF4F8491F901E4549A
:1046F000FF4FD491F901E452FF4FC491CC23A9F0AC
:10470000162F81110E94F922EC2FF0E0EE0FFF1F0F
:10471000E450FF4FA591B4918FB7F894EC9111112B
:1047200008C0D095DE23DC938FBFDF91CF911F911E
:104730000895DE2BF8CF0895A1E21A2EAA1BBB1B09
:10474000FD010DC0AA1FBB1FEE1FFF1FA217B3075D
:10475000E407F50720F0A21BB30BE40BF50B661F73
:10476000771F881F991F1A9469F760957095809537
:1047700090959B01AC01BD01CF010895EE0FFF1F85
:104780000024001C0BBE0790F691E02D09940E94B6
:10479000D223A59F900DB49F900DA49F800D911DD5
:1047A00011240895A29FB001B39FC001A39F700D73
:1047B000811D1124911DB29F700D811D1124911D29
:1047C00008950F931F93CF93DF938230910510F4D8
:1047D00082E090E0E091C205F091C30530E020E076
:1047E000B0E0A0E0309799F42115310509F44AC0F2
:1047F000281B390B24303105D8F58A819B8161153E
:10480000710589F1FB0193838283FE0111C0408110
:1048100051810281138148175907E0F04817590761
:1048200099F4109761F012960C93129713961C93BB
:104830003296CF01DF91CF911F910F910895009390
:10484000C2051093C305F4CF2115310551F042176D
:10485000530738F0A901DB019A01BD01DF01F8011E
:10486000C1CFEF01F9CF9093C3058093C205CDCF9F
:10487000FE01E20FF31F8193919322503109398396
:104880002883D7CF2091C0053091C105232B41F457
:1048900020910201309103013093C1052093C0059E
:1048A00020910001309101012115310541F42DB70E
:1048B0003EB74091040150910501241B350BE09156
:1048C000C005F091C105E217F307A0F42E1B3F0BC2
:1048D0002817390778F0AC014E5F5F4F2417350772
:1048E00048F04E0F5F1F5093C1054093C005819360
:1048F00091939FCFF0E0E0E09CCFCF93DF930097C0
:10490000E9F0FC01329713821282A091C205B091A6
:10491000C305ED0130E020E01097A1F42081318142
:10492000820F931F2091C0053091C10528173907C8
:1049300009F061C0F093C105E093C005DF91CF910C
:104940000895EA01CE17DF07E8F54A815B819E01F1
:1049500041155105B1F7E901FB83EA83499159916A
:10496000C40FD51FEC17FD0761F480819181029679
:10497000840F951FE90199838883828193819B83AA
:104980008A83F0E0E0E012968D919C911397009756
:10499000B9F52D913C911197CD010296820F931F8D
:1049A0002091C0053091C1052817390739F6309795
:1049B00051F51092C3051092C205B093C105A093A2
:1049C000C005BCCFD383C28340815181840F951F22
:1049D000C817D90761F44E5F5F4F88819981480FEE
:1049E000591F518340838A819B8193838283211540
:1049F000310509F0B0CFF093C305E093C2059ECF17
:104A0000FD01DC01C0CF13821282D7CF4F925F929B
:104A10006F927F928F929F92AF92BF92CF92DF92CE
:104A2000EF92FF920F931F93CF93DF938C01009728
:104A300099F4CB01DF91CF911F910F91FF90EF90EF
:104A4000DF90CF90BF90AF909F908F907F906F90AE
:104A50005F904F900C94E123FC01E60FF71F9C013F
:104A600022503109E217F30708F4AEC0D901CD9105
:104A7000DC911197C617D70720F1C530D10578F022
:104A8000CE0104978617970750F0C61BD70B2297C5
:104A9000C193D1936D937C93CF010E947D24C80173
:104AA000DF91CF911F910F91FF90EF90DF90CF900A
:104AB000BF90AF909F908F907F906F905F904F903E
:104AC00008955B01AC1ABD0A4C018C0E9D1EA0918D
:104AD000C205B091C305512C412CF12CE12C10974B
:104AE00031F58091C0059091C1058815990509F0AF
:104AF0005CC04616570608F058C08091000190919E
:104B00000101009741F48DB79EB740910401509187
:104B10000501841B950BE817F90708F055C0F093C1
:104B2000C105E093C005F90171836083B8CF8D9111
:104B30009C91119712966C90129713967C901397F4
:104B4000A815B90559F56C0142E0C40ED11CCA1470
:104B5000DB0420F1AC014A195B09DA0112961597C2
:104B600080F06282738251834083D9016D937C937C
:104B7000E114F10471F0D7011396FC93EE931297B0
:104B80008ECF22968C0F9D1FF90191838083F301B4
:104B9000EFCFF093C305E093C20581CF48165906C5
:104BA00008F42C017D01D3019ACFCB010E94E123AF
:104BB0007C01009749F0AE01B8010E94F425C801BC
:104BC0000E947D2487016BCF10E000E068CFFB01DD
:104BD000DC0104C08D910190801921F441505040B6
:104BE000C8F7881B990B0895FB01DC0102C00190F6
:104BF0000D9241505040D8F70895FC0181918617DD
:104C000021F08823D9F7992708953197CF01089586
:104C1000FB01DC0101900D920020E1F70895FB01FA
:104C2000DC014150504048F001900D920020C9F73E
:104C300001C01D9241505040E0F7089525323105E2
:104C400020F4223010F00C942926FA011082CA01B7
:104C50000895BB27FA01A62F6217710581059105FA
:104C6000330B30FB66F0AA27660F771F881F991F4A
:104C7000AA1FA21710F0A21B63953850A9F7A05DD8
:104C8000AA3308F0A95DA19336F7B111B193108250
:104C9000CA010C9470264532510520F4423010F0C0
:104CA0000C945626FB011082CB010895BB27FB0113
:104CB0005527AA27880F991FAA1FA41710F0A41B15
:104CC00083955051B9F7A05DAA3308F0A95DA1936F
:104CD000009779F7B111B1931192CB010C94702622
:104CE000DC01FC01672F71917723E1F7329704C053
:104CF0007C916D9370836291AE17BF07C8F30895DE
:104D000010E0CDE8D0E004C0FE010E94BE23219651
:0A4D1000CE38D107C9F7F894FFCFA1
:104D1A000000C405800003010002FFFFFFFF3733D4
:104D2A006536323365613138336538363633383172
:104D3A00633234336461323736663034623736640C
:104D4A006431363532642C43494275696C640037E4
:104D5A002E322E302D3131362D43494275696C641D
:104D6A002E4C3530300024484953542C00235344E8
:104D7A0020696E69742066616C7365002353442050
:104D8A0066616C7365002E747874002346696C65DD
:104D9A006E616D652C00234376616B2E2E2E0023E7
:104DAA00486D6D6D2E2E2E0024444F532C4C4142DB
:104DBA00444F533031412C002346696C6573697A3C
:104DCA00652C0000000000680797073B0767073E4D
:104DDA000745075807000000006E0A840A3B07A12E
:104DEA000A540BC00ACA0A2F0000000000A2186861
:104DFA001F3B078111000000002C1E681FC01D0CFC
:0A4E0A001E921DAC1D9E1D0D0A0036
:00000001FF
