:100000000C948E000C94B8000C94B8000C94B800BA
:100010000C94B8000C94B8000C94B8000C94B80080
:100020000C94B8000C94B8000C94B8000C94B80070
:100030000C94B8000C94B8000C94B8000C94B80060
:100040000C94B8000C94B8000C9404220C94B800E2
:100050000C94CD1E0C94031F0C94B8000C94B800A3
:100060000C94B8000C94B8000C9449090C94B80096
:100070000C94B8000C94B8000C94B8000C94B80020
:100080000C94B8000C94B8000C94B8007C3C3E5E14
:100090002B3D3F2F5B5D3B2C2A225C0000000002C1
:1000A00003000A0B0000000005040908000000001E
:1000B0000000000000000000000000000102040831
:1000C0001020408001020408102040800102040832
:1000D0001020408001020408102040800202020229
:1000E00002020202040404040404040403030303DC
:1000F00003030303010101010101010100002200CA
:10010000250028002B0000002100240027002A00E1
:10011000EB005E08620E7C11371FFD0011241FBE2C
:10012000CFEFD0E4DEBFCDBF11E0A0E0B1E0E2E16F
:10013000FDE400E00BBF02C007900D92A63FB1079F
:10014000D9F725E0A6EFB1E001C01D92A13CB207AE
:10015000E1F710E0CDE8D0E004C02197FE010E9455
:10016000BA23C838D107C9F70E94F5210C947C2620
:100170000C940000DC01ED91FC910190F081E02DE8
:100180000994982F92959F708F702AE0929F800D0E
:1001900011240895813041F08230A9F064E670E0C6
:1001A00080E090E00C947F2261E086E00E942D23A5
:1001B00061E085E00E942D2385B18E6085B960E005
:1001C00084E00C94692361E084E00E94692385B196
:1001D000817F85B908956DE071E086E192E00E942B
:1001E000C0206BE371E080E192E00E94C02064EFE8
:1001F00071E08AE092E00C94C0208AE092E00E94D4
:100200004E2080E192E00E944E2086E192E00C9424
:100210004E20CF93DF9361E570E08CE192E00E9485
:10022000DD0770E060E08CE192E00E94BA008CE1B2
:1002300092E00E945B0846E050E061E570E08CE1EE
:1002400092E00E9458088CE192E00E9450070E94C0
:10025000C1008093F6018CE192E00E9450078F77F5
:100260000E94C100D82F8CE192E00E9450078F7746
:100270000E94C100C82F8CE192E00E9450070E94AA
:10028000C10090E0B0E0A0E08093F7019093F80106
:10029000A093F901B093FA018CE192E00E9450071B
:1002A0000E94C10024E6829FC0011124092E000C87
:1002B000AA0BBB0B4091F7015091F8016091F90135
:1002C0007091FA01840F951FA61FB71F8093F70145
:1002D0009093F801A093F901B093FA018CE192E0B8
:1002E0000E9450070E94C10040E157E2849F9001A4
:1002F000859F300D1124032E000C440B550B80916B
:10030000F7019091F801A091F901B091FA01280F3D
:10031000391F4A1F5B1FA0E1BEE00E94C323AB014F
:10032000BC012CE3C29FC0011124092E000CAA0BB2
:10033000BB0B8D0F911DA11DB11D840F951FA61F15
:10034000B71F8093F7019093F801A093F901B09340
:10035000FA01DF91CF9108958F929F92AF92BF9251
:10036000CF92DF92EF92FF920F931F93CF93DF9381
:10037000CDB7DEB7C752D4400FB6F894DEBF0FBE7C
:10038000CDBFFE0131968E010F5F1B4F7F01119291
:100390001192E017F107D9F78091FB0120E4829FC9
:1003A000C0011124806180937C0010927B008091B9
:1003B0007A00806280937A0080917A0080648093D2
:1003C0007A0080917A00846080937A0080917A002C
:1003D000826080937A0080917A00816080937A00B5
:1003E00081E085B980917A00806180937A00809164
:1003F0007A0084FFFCCF8FE984B984E690E00E9404
:10040000B8228EE984B980917A00806180937A0065
:1004100080917A0084FFFCCF8FE984B987E090E077
:100420000E94B8228EE984B980917A00806180931D
:100430007A001092FD011092FC0173E0A72E74EB7C
:10044000B72ED12CC12CEFE99E2EFEE98F2E809184
:100450007A0084FFFCCF88E190E00E94B82294B833
:1004600087E090E00E94B82284B880917A00806191
:1004700080937A0020917800209301028091790086
:100480008093000230E8839FC001112430E035954D
:100490002795822B932B8F3F910511F00CF03EC0D6
:1004A00093959093FF018093FE018091FE019091BE
:1004B000FF012091FC013091FD012817390780F5DB
:1004C0009093FD018093FC01880F991FF701E80FBD
:1004D000F91F80819181019691838083E1E0AE1ABA
:1004E000B10809F0B4CF2091070130910801C9018A
:1004F0000396FC01EE0FFF1FEE0DFF1D812C912CCA
:1005000054012C503F4F8217930790F44191519121
:10051000840E951EA11CB11C0196F5CF9A95C1CFF2
:100520008FEFC81AD80A1092FD011092FC01D6CFA5
:1005300061E087E10E94692364EF71E0CE018E5D86
:100540009B4F0E94C0200E9409016FE471E0CE0120
:100550008E5D9B4F0E94B821609106027091070248
:100560004AE0C8010E940C21B801CE018E5D9B4F6C
:100570000E94B121C8010E944E206FE971E0CE01B6
:100580008E5D9B4F0E94B8214091F7015091F80178
:100590006091F9017091FA012AE0C8010E943821A6
:1005A000B801CE018E5D9B4F0E94B121C8010E940F
:1005B0004E2066E871E0CE018E5D9B4F0E94B8210F
:1005C0004AE06091F601C8010E94DF20B801CE0127
:1005D0008E5D9B4F0E94B121C8010E944E206FE9A1
:1005E00071E0CE018E5D9B4F0E94B8214AE0B601BA
:1005F000C8010E940C21B801CE018E5D9B4F0E9464
:10060000B121C8010E944E206FE971E0CE018E5DDC
:100610009B4F0E94B8212AE0B501A401C8010E94A5
:100620003821B801CE018E5D9B4F0E94B121C801D7
:100630000E944E2080910701909108016C01F1E029
:10064000CF1AD10881509048880F991FE80EF91EE3
:10065000C11422E0D206E0F46FE971E0CE018E5DB4
:100660009B4F0E94B821F701619171917F014AE08F
:10067000C8010E940C21B801CE018E5D9B4F0E94E3
:10068000B121C8010E944E20FFEFCF1ADF0AE0CF50
:1006900080910601882389F181E00E94CA0064E00C
:1006A0008EEB92E00E94AC0C66E571E0882309F4C1
:1006B00057C040910A0250910B0223E16EEB72E0A9
:1006C000C8010E94CC0DC8010E94A00B882309F428
:1006D00045C061E086E10E946923BE016E5D7B4FEB
:1006E000C8010E94BA1FC8010E948E0B60E086E11B
:1006F0000E94692382E00E94CA00BE016E5D7B4FAA
:1007000087E195E00E94BA1F60E087E10E946923BB
:1007100080910602909107020196893F2AE2920792
:1007200030F59093070280930602CE018E5D9B4FB9
:100730000E944E20C95DDB4F0FB6F894DEBF0FBE9E
:10074000CDBFDF91CF911F910F91FF90EF90DF9080
:10075000CF90BF90AF909F908F90089565E671E025
:1007600087E195E00E94CC1F10920601C3CF109242
:1007700007021092060260910802709109026F5FF1
:100780007F4F70930902609308024AE0CE01845EB5
:100790009B4F0E940C21BE01645E7B4FC8010E94EA
:1007A0007C216FE671E0C8010E94DA21BC018AE079
:1007B00092E00E946521C8010E944E20CE01845E15
:1007C0009B4F0E944E2064E771E087E195E00E9414
:1007D000AE1F6AE072E087E195E00E94BA1FA5CFE4
:1007E000CF92DF92EF92FF920F931F93CF93DF93FD
:1007F000CDB7DEB7C254D1090FB6F894DEBF0FBE35
:10080000CDBF61E085E10E942D2361E085E10E947A
:10081000692364E670E080E090E00E947F2226E099
:1008200040E052EC61E070E087E195E00E947B1EC1
:100830006FE771E087E195E00E94CC1F61E080E006
:100840000E942D238EE984B915B888EF81B912B8BA
:100850008CEE87B918B88CEF8AB980E88BB940EA7A
:1008600056E861E070E08CE192E00E94CF0761E021
:1008700085E10E942D2361E085E10E94692368E8FB
:1008800071E087E195E00E94CC1F8091FB0120E49C
:10089000829FC0011124816180937C0062E370E03B
:1008A00080E090E00E947F2210927B0080917A008D
:1008B000806280937A0080917A00806480937A00CD
:1008C00080917A00846080937A0080917A008260BF
:1008D00080937A0080917A00816080937A00809181
:1008E0007A00806180937A0080917A0084FFFCCF47
:1008F00080917A00806180937A0048E080917A004C
:1009000084FFFCCF80917A00806180937A002091EF
:10091000780020930102809179008093000230E8F2
:10092000839FC001112430E035952795822B932BAE
:100930008F3F910511F00CF084C193959093FF01C6
:100940008093FE018091FE019091FF01080F191F15
:100950004150A1F683E0169507958A95E1F710932B
:1009600008010093070161E570E08CE192E00E94CC
:10097000DD0763E28CE192E00E94730760E08CE1A6
:1009800092E00E94730760E08CE192E00E9473079E
:1009900065E08CE192E00E94730760E08CE192E0F8
:1009A0000E94730760E08CE192E00E94730767E9A0
:1009B0008CE192E00E94730760E08CE192E00E947B
:1009C000730760E08CE192E00E9473078CE192E093
:1009D0000E945B0861E570E08CE192E00E94DD0717
:1009E0006FE270E08CE192E00E94BA006CE270E08D
:1009F0008CE192E00E94BA008CE192E00E945B08D8
:100A000061E570E08CE192E00E94DD0768E270E051
:100A10008CE192E00E94BA0067E970E08CE192E01C
:100A20000E94BA008CE192E00E945B0861E570E0F0
:100A30008CE192E00E94DD0760E08CE192E00E9490
:100A4000730760E08CE192E00E94730760E08CE144
:100A500092E00E94730760E08CE192E00E947307CD
:100A600060E08CE192E00E94730760E08CE192E02C
:100A70000E94730760E08CE192E00E9473078CE1B2
:100A800092E00E945B0860910701709108014AE0C2
:100A9000CE0101960E940C2161E971E0CE014C96D5
:100AA0000E94C02060E172E0CE014C960E94C721F6
:100AB0006FE971E00E94DA21BE016F5F7F4F0E94F3
:100AC000C7216FE971E00E94DA2166E172E00E94BD
:100AD000C7216FE971E00E94DA21BC01CE01CD96F9
:100AE0000E947C21CE014C960E944E20CE010196A0
:100AF0000E944E2068E570E08CE192E00E94DD07E4
:100B000068E070E08CE192E00E94BA0070E060E082
:100B10008CE192E00E94BA008CE192E00E945B08B6
:100B200040E168E58CE192E00E94550810E18CE11B
:100B300092E00E945007082F803130F461EA71E0A2
:100B4000CE01CD960E94B82140E1602FCE010196E2
:100B50000E94DF20BE016F5F7F4FCE01CD960E94C5
:100B6000B121CE0101960E944E2080910202909107
:100B70000302A0910402B0910502800F911DA11DF6
:100B8000B11D8093020290930302A0930402B093DC
:100B90000502115061F661E086E10E942D2361E0BB
:100BA00086E10E94692381E00E94CA0064E08EEB26
:100BB00092E00E94AC0C811108C066E571E087E10B
:100BC00095E00E94CC1F1092060181E090E0909386
:100BD0000902809308026091080270910902683C42
:100BE000710588F54AE0CE014C960E940C21BE01A9
:100BF000645E7F4FCE0101960E947C216FE671E01A
:100C0000CE0101960E94DA21BC018AE092E00E94A6
:100C10006521CE0101960E944E20CE014C960E9485
:100C20004E2060910A0270910B028EEB92E00E94BE
:100C3000570E882341F08091080290910902019695
:100C4000C6CF9A957BCE60910802709109026150DF
:100C5000710970930902609308024AE0CE014C9634
:100C60000E940C21BE01645E7F4FCE0101960E945E
:100C70007C216FE671E0CE0101960E94DA21BC0171
:100C80008AE092E00E946521CE0101960E944E20EA
:100C9000CE014C960E944E2040910A0250910B02C8
:100CA00023E16EEB72E0CE014C960E94CC0DCE019A
:100CB0004C960E94500B6B017C0163EA71E087E166
:100CC00095E00E94AE1F2AE030E0B701A60187E15F
:100CD00095E00E943C2089E6C81680E2D80689E5A6
:100CE000E806F10408F45BC0CE014C960E948E0B1E
:100CF00060910802709109026F5F7F4F7093090243
:100D0000609308024AE0CE01C7960E940C21BE0102
:100D1000695C7F4FCE0101960E947C216FE671E0F5
:100D2000CE0101960E94DA21BC018AE092E00E9485
:100D30006521CE0101960E944E20CE01C7960E94E9
:100D40004E2040910A0250910B0223E16EEB72E0BB
:100D5000CE0101960E94CC0D8B819C819F8F8E8F3E
:100D60008D819E81AF81B88588A399A3AAA3BBA3D7
:100D700089859A85AB85BC858CA39DA3AEA3BFA3B3
:100D8000DE011D96FE01B896CE01C5962D912193E8
:100D9000E817F907D9F78A8D9B8D9EAB8DAB64E779
:100DA00071E087E195E00E94AE1F6AE072E087E1A2
:100DB00095E00E94BA1FCE014C960E94A00B88239A
:100DC00009F45BC061E087E10E942D2361E087E1C7
:100DD0000E946923BE01635C7F4FCE014C960E9446
:100DE000BA1FCE014C960E948E0BBE01635C7F4FF2
:100DF00087E195E00E94BA1F82E00E94CA0061E08C
:100E000085E10E942D2360E085E10E94692364E66C
:100E100070E080E090E00E947F2261E086E10E9425
:100E20002D2360E086E10E94692364E670E080E0A3
:100E300090E00E947F2261E087E10E942D2360E024
:100E400087E10E94692364E670E080E090E00E9400
:100E50007F22CE01CD960E944E20CE5BDF4F0FB693
:100E6000F894DEBF0FBECDBFDF91CF911F910F91E0
:100E7000FF90EF90DF90CF90089565E671E087E1F5
:100E800095E00E94CC1F10920601AFCF90E080E069
:100E9000089580914C0290914D02891B990B089501
:100EA00090914D0280914C022FEF3FEF981748F43C
:100EB000E92FF0E0E25BFD4F208130E09F5F9093EF
:100EC0004D02C9010895E0914D0280914C02E8174E
:100ED00030F4F0E0E25BFD4F808190E008958FEF09
:100EE0009FEF08950895CF93DF931F92CDB7DEB79C
:100EF0006983209128022223F9F0209129022032CF
:100F000058F021E030E0FC013383228390E080E060
:100F10000F90DF91CF91089580912A02E82FF0E0A1
:100F2000E55DFD4F998190838F5F80932A028093C6
:100F3000290281E090E0ECCF61E0CE0101960E94B1
:100F40001209F7CFCF92DF92EF92FF920F931F9388
:100F5000CF93DF937C01CB018A01209128022223C9
:100F600089F0EB016B01C40ED51ECC15DD0569F0CF
:100F70006991D701ED91FC910190F081E02DC701BD
:100F80000995F3CF642F0E941209C801DF91CF9118
:100F90001F910F91FF90EF90DF90CF900895CB01BC
:100FA000BA010C946F0881E08093280260934B0291
:100FB00010922A021092290208950C94D3070F93DD
:100FC000062F21E0409129026BE272E080914B02F2
:100FD0000E94C20810922A0210922902109228023E
:100FE0000F9108954F925F926F927F92AF92BF924E
:100FF000CF92EF92FF920F931F93CF93DF935C01F9
:10100000F62ED42F28013901EE2019F10E94D307C2
:10101000CE2DC43008F0C3E0C150B8F028E0C29F24
:10102000C0011124A301920104C05695479537953C
:1010300027958A95D2F7B901D501ED91FC910190E0
:10104000F081E02DC5010995E7CF60E0C5010E9460
:10105000DF074D2FD13208F040E22C2D6EE472E014
:101060008F2D0E94820810924D0280934C02DF91D6
:10107000CF911F910F91FF90EF90CF90BF90AF90C5
:101080007F906F905F904F900895CF92EF920F9363
:101090001F93C22EE12C00E010E098010E94F2079D
:1010A0001F910F91EF90CF90089521E00C94450887
:1010B00021E00C94450861E00C94DF07ECE1F2E0DC
:1010C0001382128288EE93E0A0E0B0E084839583DF
:1010D000A683B78382EB91E09183808308959B017F
:1010E000AC0160E072E18AE790E00E949823205111
:1010F0003109410951095695479537952795209310
:10110000B80008954132E0F59091BD029111FCCFF5
:1011100091E09093BD022093BB022FEF20936E02CB
:101120007093B5026093B4021092B302240F20931F
:10113000B2029093BC029091BC02880F892B8093DD
:10114000BC028091BA028130C9F41092BA02809137
:10115000BC028093BB008091BC0083FDF8CF85EC7E
:101160008093BC008091BD028130E1F38091B30295
:10117000841710F44091B302842F089585EEF0CFC8
:1011800040E0FACF0F93413208F044C09091BD0285
:101190009111FCCF92E09093BD020093BB029FEFB0
:1011A00090936E027093B5026093B4021092B302F2
:1011B0004093B2021092BC029091BC02880F892B1E
:1011C0008093BC028091BA02813011F51092BA026C
:1011D0008091BC028093BB008091BC0083FDF8CF5E
:1011E00085EC8093BC00222321F08091BD028230E7
:1011F000D1F380916E028F3F79F080916E02803240
:1012000069F080916E02803359F084E00F91089567
:1012100085EEE7CF81E0FACF80E0F8CF82E0F6CF2D
:1012200083E0F4CF20919002260F3327331F213221
:101230003105ECF42091BD02FC0190E080E0243007
:1012400069F082E00895A09190022191AC014E5680
:101250005D4FA40FB52FB11D2C930196861798F3FF
:1012600080919002680F6093900280E0089581E081
:10127000089585ED8093BC008091BC0084FDFCCF77
:101280001092BD02089585EC8093BC001092BD02BF
:1012900008951F920F920FB60F9211240BB60F9262
:1012A0002F933F934F935F936F937F938F939F936E
:1012B000AF93BF93EF93FF938091B900887F8036FF
:1012C00009F44EC008F041C0883209F4AAC028F5DC
:1012D000803109F49EC0C8F4882309F407C188301E
:1012E00009F497C0FF91EF91BF91AF919F918F91BA
:1012F0007F916F915F914F913F912F910F900BBE16
:101300000F900FBE0F901F901895883109F489C077
:10131000803241F780936E0215C0803409F4A6C074
:1013200048F48033B9F38833E9F680936E020E9463
:101330004309D8CF803509F489C0883509F49EC0A7
:10134000883481F60E943909CDCF883909F494C0D8
:1013500038F5883729F050F4883611F0803711F6C7
:1013600083E08093BD0210926F0257C0883809F461
:1013700083C0803919F0803809F0B4CF80916F02B2
:10138000803208F079C0E0916F0281E08E0F809387
:101390006F028091BB00F0E0E059FD4F80833DC0BB
:1013A000803B39F0E0F4803A09F485C0883A09F0CE
:1013B00099CF84E08093BD02109291021092900226
:1013C000E091B802F091B9020995809190028111E3
:1013D0000FC081E0809390021092920209C0803C7D
:1013E00009F482C0883C09F47FC0883B09F07ACFB9
:1013F000E091910281E08E0F80939102F0E0EE5631
:10140000FD4F80818093BB0090919102809190026A
:1014100031C08091BC028093BB0085EC8093BC00FE
:1014200061CF9091B3028091B2029817B8F5809184
:10143000B4029091B502E091B30221E02E0F209307
:10144000B302E80FF92FF11D8081E5CF2091B4029E
:101450003091B502E091B30281E08E0F8093B30228
:101460008091BB00E20FF32FF11D80839091B302B6
:101470008091B202981788F285E8D0CF2091B4020B
:101480003091B502E091B30281E08E0F8093B302F8
:101490008091BB00E20FF32FF11D80838091BB028E
:1014A000811150CF81E08093BA0284EA8093BC001E
:1014B0001092BD0217CF0E94430980916F028032C3
:1014C00030F4E0916F02F0E0E059FD4F108260913E
:1014D0006F0270E0E091B602F091B70280E792E00F
:1014E000099510926F02FECE85ECE0CF10926E024D
:1014F00029CFCF93DF931F92CDB7DEB76983DC018D
:10150000ED91FC910280F381E02D41E050E0BE01BD
:101510006F5F7F4F09950F90DF91CF910895CF9323
:10152000DF93EC01E98DFA8D309749F481E090E08A
:101530009B838A8390E080E0DF91CF9108951382AE
:101540001282898D9A8D0E940417E98DFA8D22816D
:101550003381232B59F7F0CFFC01818D928D0097B9
:1015600011F00C9493140895CF93DF931F92CDB78D
:10157000DEB741E050E0BE016F5F7F4F0E94B712BF
:10158000019731F4898190E00F90DF91CF91089518
:101590008FEF9FEFF9CFFC01818D928D009711F0B5
:1015A0000C94B40A8FEF9FEF08950F931F93CF937E
:1015B000DF93EC01898D9A8D10E000E0009799F09F
:1015C0000E94B40A8C010F3F100769F0898D9A8D33
:1015D000FC01428553856485758541505109610937
:1015E00071090E94FF13C801DF91CF911F910F91E4
:1015F0000895EF92FF920F931F93CF93DF93EC0127
:101600007B018A011B821A8288EE93E0A0E0B0E0A1
:101610008C839D83AE83BF8384EC91E09983888320
:101620008DE190E00E94DD239A8F898F009779F0F9
:101630002DE1F701DC0101900D922A95E1F74CE0D4
:1016400050E0B801CE010C960E940B26188EDF9157
:10165000CF911F910F91FF90EF900895FC0113829D
:10166000128288EE93E0A0E0B0E084839583A683A5
:10167000B78384EC91E091838083128E118E14865F
:101680000895DC015996ED91FC91309729F062851F
:1016900073858485958508956FEF7FEFCB0108955D
:1016A000DC015996ED91FC91309729F0638974899A
:1016B00085899689089560E070E0CB010895CF9206
:1016C000DF92EF92FF92CF93DF93FC01218D328D59
:1016D000232B09F1EC010E94500B6B017C01CE0120
:1016E0000E94410BA7019601261B370B480B590B93
:1016F000DA01C901811530E89307A105B10520F091
:101700008FEF9FE7A0E0B0E0DF91CF91FF90EF90E7
:10171000DF90CF90089590E080E0F6CFCF93DF93F5
:10172000EC01898D9A8D009741F00E94DC14898D1F
:101730009A8D0E9479241A8E198EDF91CF91089587
:10174000DC015996ED91FC91309721F081E0958173
:10175000911101C080E008951F93CF93DF93CDB71F
:10176000DEB76D970FB6F894DEBF0FBECDBFAB01ED
:101770001C821B8228ED31E03A8329831E8221E0FE
:10178000BC01CE0101960E94171611E081110CC018
:1017900010E0812F6D960FB6F894DEBF0FBECDBF5F
:1017A000DF91CF911F910895CE0101960E94DC1424
:1017B000F0CFEF92FF920F931F93CF93DF937B01B4
:1017C000DB012D913C91FC01E20FF31F60816F3230
:1017D00011F42F5F3F4F8C01020F131FEA01F0E05D
:1017E000E0E0D8017D918D017F3249F0772339F017
:1017F0002F5F3F4F31967993EC30F10591F7E40F6D
:10180000F51F1082FC01E20FF31F40814F3211F4EB
:101810002F5F3F4FF70131832083280F391F81E06D
:10182000D9019C91911101C080E0DF91CF911F916E
:101830000F91FF90EF9008954F925F926F927F9279
:101840008F929F92AF92BF92CF92DF92EF92FF92D0
:101850000F931F93CF93DF93CDB7DEB7C954D10950
:101860000FB6F894DEBF0FBECDBF5C016B013A012D
:10187000490119A218A288ED91E09F8F8E8F1BA2BB
:101880001C821B829A8389831E822A961FAE1EAEFB
:101890002A978B017E018EE1E80EF11C44244394CB
:1018A000AE01455C5F4FBE01685B7F4FC5010E9482
:1018B000D90B582E482F44259401BE01655C7F4FFB
:1018C000C801F3010995811120C00C151D05C9F44B
:1018D00080E0C75BDF4F0FB6F894DEBF0FBECDBF11
:1018E000DF91CF911F910F91FF90EF90DF90CF90FC
:1018F000BF90AF909F908F907F906F905F904F9030
:101900000895C8010E94DC14E3CF552091F021E036
:10191000AE01455C5F4FB801C7010E941716582EF3
:101920000C151D0571F0C8010E94DC1451100EC089
:10193000CFCF0C151D0519F0C8010E94DC1481E001
:10194000C8CF882329F28E010F5F1F4F902F812F60
:101950008701E92EF82EA4CF0F931F93CF93DF9327
:10196000EC01162F8FA5882321F0CE018A960E94C4
:10197000DC14412F61E0CE010E94790F811102C079
:1019800090E012C08E01045F1F4F41E0BE01C8010C
:101990000E943E1C882371F0B801CE018A960E94F5
:1019A000671291E0882361F3892FDF91CF911F9116
:1019B0000F91089540E0BE01C8010E943E1C88239B
:1019C000F9F2EACFFC01DB0112968D919C911397FD
:1019D0009383828388ED91E09183808314968C9128
:1019E0001497848315968C911597858316964D913F
:1019F0005D916D917C9119974683578360877187BC
:101A00001A964D915D916D917C911D9742875387F8
:101A1000648775871E964D915D916D917C9151976C
:101A200046875787608B718B52968C915297828B29
:101A300053964D915D916D917C915697438B548B4C
:101A4000658B768B57964D915D916D917C915A97F0
:101A5000478B508F618F728F5B968D919C91948F85
:101A6000838F08954F925F926F927F928F929F9291
:101A7000AF92BF92CF92DF92EF92FF920F931F939C
:101A8000CF93DF93CDB7DEB7C754D1090FB6F89423
:101A9000DEBF0FBECDBF5C014A013901665D7F4FDD
:101AA0007E018EE1E80EF11CC7010E94E20C1C824F
:101AB0001B8288ED91E09A8389831E828401FE0156
:101AC00031966F015E2C4F2C6FE270E0C8010E94CE
:101AD000F925009709F455C0F80120812F3219F437
:101AE0000F5F1F4FF1CF801B8D3008F08CE0E82E88
:101AF000F12CA701B801CE01CB960E940B26EBE397
:101B0000F0E0EC0FFD1FEE0DFF1D1082C6010E94DC
:101B1000DC1421E0AE01455C5F4F652D742DC601DC
:101B20000E941716811121C0F5011382128288EDDF
:101B300091E0918380831582C501C95BDF4F0FB6A9
:101B4000F894DEBF0FBECDBFDF91CF911F910F91F3
:101B5000FF90EF90DF90CF90BF90AF909F908F90CD
:101B60007F906F905F904F9008950E0D1F1D852DF3
:101B7000942D0E94DC14C2015C2C4D2CC92ED82E51
:101B8000A3CF08191909F30111830083652D742D62
:101B9000C5010E94E20CD0CFAF92BF92CF92DF92EC
:101BA000FF920F931F93CF93DF93CDB7DEB7C95545
:101BB000D1090FB6F894DEBF0FBECDBF6C015B013B
:101BC0008A01F22E9E01285A3F4FCE01CB960E94E9
:101BD000320D6A968EAD9FAD6A97080F191FF801F6
:101BE0008081811110C0BE01655C7F4FCE010196DE
:101BF0000E94E20C42ED51E0BE016F5F7F4FC601D3
:101C00000E94F90A0FC019A218A288ED91E09F8FD7
:101C10008E8F1BA221968FAD2197811115C0C60111
:101C20000E942E0BC601C75ADF4F0FB6F894DEBFD5
:101C30000FBECDBFDF91CF911F910F91FF90DF902D
:101C4000CF90BF90AF90089582508230F8F4B501E4
:101C5000665D7F4F2F2DA801CE014E960E9417166C
:101C60008823E9F28F2D867041F049A95AA96BA902
:101C70007CA9CE014E960E94FF13BE01625E7F4F8B
:101C8000CE0101960E94E20CA801B6CF2F2DA8012B
:101C9000BE01655C7F4FCE014E960E9417168823C9
:101CA00009F4BDCFCE01CB960E94DC14DBCFFB0143
:101CB000BC01665D7F4F30E020E04CEA5BE0CF0185
:101CC0000C941C0CEEEBF2E0158216821186138642
:101CD00082E090E0A0E0B0E084879587A687B78790
:101CE00013A215A614A688ED91E093A782A717A6C4
:101CF00008959FB7F8942091150580911305213020
:101D000019F48DBB9FBF08958FBF089520911505CD
:101D1000222381F03FB7F89420911505213069F412
:101D20002DB3209313054DB3209114052095242342
:101D30002DBB3FBF8CBD9DBD089530931305FACFD9
:101D40008EBD00000DB407FEFDCF8EB508958FEF58
:101D50000C94A00E61E0FC0184810E9469238091B3
:101D60000703882339F0109207038091150581112C
:101D70000C94790E0895CF93DF93EC0180910703C3
:101D8000811109C081E0809307038091080390913D
:101D900009030E94860E60E08C81DF91CF910C9444
:101DA0006923CF93DF93EC018E81882389F08F81A3
:101DB00098859C012F5F3F4F38872F838230924058
:101DC00018F40E94A70EF3CFCE010E94AA0E1E8225
:101DD000DF91CF910895673028F026E1FC0125833B
:101DE00080E00895623079F038F06430A9F090F026
:101DF0006530A1F082E508C080E58093080381E0AA
:101E000080930903089580E58093080310920903E5
:101E100081E0089581E5F1CF81E5F6CF82E5EDCF50
:101E20000F931F93CF93DF93EB010E944E228B0100
:101E30000E94A70E8F3F69F00E944E22601B710B1B
:101E40006C177D07A8F380E0DF91CF911F910F9170
:101E5000089581E0F9CF8F929F92AF92BF92FF9247
:101E60000F931F93CF93DF93EC01F62E49015A0194
:101E70000E94D10ECE010E94BB0E6CE271E0CE0139
:101E80000E94100F8F2D80640E94A00E08E110E0C8
:101E9000D501C401002E04C0B695A79597958795E6
:101EA0000A94D2F70E94A00E08501109083F8FEF44
:101EB000180771F785E9FF2021F088E0F8120DC0BE
:101EC00087E80E94A00E10E00E94A70E8A8787FF75
:101ED00006C01F3F21F01F5FF7CF8FEFF2CFDF91DA
:101EE000CF911F910F91FF90BF90AF909F908F90D7
:101EF00008958F929F92AF92BF92EF92FF920F93AD
:101F00001F93CF93DF93EC01E62E1B8619861E826A
:101F10001D824C830E944E228B0161E08C810E94C5
:101F20002D2361E08C810E9469230E945E1D82E561
:101F30008093080381E080930903809108039091C6
:101F400009030E94860E2AE0F22E8FEF0E94A00E57
:101F5000FA94F110FACF8091150581110E94790E43
:101F6000CE010E94BB0E20E030E0A90160E0CE016E
:101F70000E942B0FF82E8A8781E0F816C1F00E948C
:101F80004E22601B710B613D774068F381E08D83C9
:101F9000CE010E94AA0E80E0DF91CF911F910F9198
:101FA000FF90EF90BF90AF909F908F9008952AEA96
:101FB00031E040E050E068E0CE010E942B0F82FF4C
:101FC00025C0FB868B85812C912C5401823029F40D
:101FD000812C912CA12C80E4B82E20E030E0A901C6
:101FE00067E3CE010E942B0FA501940169E2CE01A7
:101FF0000E942B0F8A878823C1F00E944E22601B0B
:10200000710B613D774048F388E0C1CF94E0F92E31
:102010000E94A70E8A87FA94F110FACF8A3A11F03B
:1020200082E0B5CF82E08B87CDCF8B858230C1F443
:1020300020E030E0A9016AE3CE010E942B0F882343
:1020400011F086E0A4CF0E94A70E807C803C11F4A2
:1020500083E08B870E94A70E0E94A70E0E94A70E06
:10206000CE010E94AA0E6E2DCE01DF91CF911F915D
:102070000F91FF90EF90BF90AF909F908F900C9436
:10208000EB0E0F931F93CF93DF93EC010E944E2230
:102090008B010E94A70E8A878F3F91F40E944E22E7
:1020A000601B710B6D327140A0F38FE08D83CE0108
:1020B0000E94AA0E80E0DF91CF911F910F910895A9
:1020C0008E3F11F08DE0F2CF81E0F5CFCF92DF921D
:1020D000EF92FF920F931F93CF93DF93EC0169016F
:1020E000C801820F931F8130924048F58E8188236A
:1020F00071F088819981AA81BB8184179507A60711
:10210000B70729F48F819885C816D90670F54883DA
:1021100059836A837B838B85833039F089E0440F50
:10212000551F661F771F8A95D1F79A01AB0161E1B0
:10213000CE010E942B0F882379F083E08D83CE019E
:102140000E94AA0E80E0DF91CF911F910F91FF9026
:10215000EF90DF90CF900895CE010E944110882328
:1021600071F318861F8281E08E838F8198858C158C
:102170009D0560F06701E00EF11EEC14FD0471F0A6
:102180000E94A70EF60181936F01F7CF0E94A70E60
:102190008F819885019698878F83E7CF8F81988567
:1021A000080F191F18870F838985882319F00115D7
:1021B000124018F0CE010E94D10E81E0C4CFEF9200
:1021C000FF920F931F930115110539F00E946610BD
:1021D0001F910F91FF90EF90089581E0F9CFEF925A
:1021E000FF920F931F93790100E012E030E020E0AE
:1021F0000E9466101F910F91FF90EF900895EF924B
:10220000FF920F931F93CF93DF938C01862F7A0158
:102210000E94A00EE7018EEFF81A89910E94A00E8D
:10222000CE15DF05D1F78FEF0E94A00E8FEF0E9431
:10223000A00E0E94A70EF80182878F71853069F089
:1022400081E18583C8010E94AA0E80E0DF91CF91D1
:102250001F910F91FF90EF90089581E0F7CF0F93BA
:102260001F93CF93DF93EC01890182E14115510562
:102270006105710599F08B85833039F089E0440F51
:10228000551F661F771F8A95D1F79A01AB0168E148
:10229000CE010E942B0F882339F084E08D83CE017C
:1022A0000E94AA0E80E023C0A8016EEFCE010E941A
:1022B000FF108823A1F368E572E0CE010E94100FA1
:1022C000811102C085E1EACF20E030E0A9016DE094
:1022D000CE010E942B0F882311F084E1DFCF0E94F2
:1022E000A70E8111FACFCE010E94AA0E81E0DF91E4
:1022F000CF911F910F910895E8E0F3E080E580838E
:1023000081E0818308950895CF93DF93EC019C01D0
:102310002A5F3F4F41E050E060E070E08B8D9C8D84
:102320000E94DD1A8823A1F08F89988DA98DBA8D1E
:10233000892B8A2B8B2B59F48E819F81A885B98597
:102340008F8B988FA98FBA8F8C8180688C8381E066
:10235000DF91CF9108958F929F92AF92BF92CF92CB
:10236000DF92EF92FF92CF93DF93EC010E948411F2
:1023700081110CC080E0DF91CF91FF90EF90DF9052
:10238000CF90BF90AF909F908F900895EB8DFC8D74
:10239000CE80DF80E884F98482E0C81AD108E108A1
:1023A000F108858504C0CC0CDD1CEE1CFF1C8A9551
:1023B000D2F786859785A089B189C80ED91EEA1EF5
:1023C000FB1E848146015701880E911CA11CB11C83
:1023D0008C149D04AE04BF0461F081E0881A91085A
:1023E000A108B108C501B4010E942B198111F0CFD9
:1023F000C1CFEB8DFC8D258580E092E0A0E0B0E0C0
:1024000004C0880F991FAA1FBB1F2A95D2F74B89BA
:102410005C896D897E89840F951FA61FB71F8B8BE2
:102420009C8BAD8BBE8B81E0A6CFCF93DF93EC016D
:10243000462F6E857F85888999890E94F0188823A8
:1024400051F08A8920E2829FC00111248D5E9C4F49
:10245000DF91CF91089590E080E0FACFFB019B01DE
:10246000255F3F4F40E241932E173F07E1F7DC0124
:1024700020E037E09D91492F992319F19E3229F4EC
:102480003A3059F028E03AE0F5CFECE8F0E08491FA
:10249000882329F031969813FACF80E017C03217BD
:1024A000A8F05FED590F5E3588F48FE9890F8A3106
:1024B00010F440EE490FFB01E20FF11D40832F5F46
:1024C000D9CF81E0FB019081903239F308950F93C9
:1024D0001F93CF93DF93FC012581222331F080E00D
:1024E000DF91CF911F910F9108958B01EC01FB01BA
:1024F0008789803139F582E08D831F8A188E198E85
:102500001A8E808D918DB0E0A0E025E0880F991F94
:10251000AA1FBB1F2A95D1F78B8B9C8BAD8BBE8BD3
:102520001C8F0B8F81E08C831E821F821886198678
:102530001A861B861C861D861E861F86188A198A87
:102540001A8ACECF803259F683E08D83428D538D27
:10255000648D758D4F8B588F698F7A8F9E012D5E9C
:102560003F4FC8010E94D0198111DACFB8CF2F9206
:102570003F924F925F926F927F928F929F92AF9213
:10258000BF92CF92DF92EF92FF920F931F93CF9360
:10259000DF93EC015B012A018D81811115C08FEF62
:1025A0009FEFDF91CF911F910F91FF90EF90DF9000
:1025B000CF90BF90AF909F908F907F906F905F90E3
:1025C0004F903F902F9008958C8180FFE8CF0B892A
:1025D0001C892D893E894A855B856C857D85C20174
:1025E000B0E0A0E068017901C41AD50AE60AF70A4A
:1025F000C816D906EA06FB0618F42801441A550A3B
:1026000042011E0126E0220E311C8114910409F4BE
:10261000B3C04A855B856C857D856A0181E0D822DF
:102620008B8D9C8D8A019B01E9E036952795179546
:102630000795EA95D1F7ED81E230E1F5FC01628D75
:10264000738D848D958D600F711F821F931F612C78
:1026500022E0722E6C187D088614970408F4340169
:102660002C8126FD04C06114F2E07F0671F4009114
:10267000090110910A0120910B0130910C010617FC
:1026800017072807390709F053C040E00E94F018E7
:10269000882309F484CFC6018D5E9C4FD5019C012F
:1026A000260D371DFC012E173F0709F460C041912C
:1026B0004D93F9CFFC0174807A947022C114D10437
:1026C00071F471100CC0452B462B472B39F58F89BF
:1026D000988DA98DBA8D8E839F83A887B987EB8D3E
:1026E000FC8D6E817F818885998562507109810991
:1026F0009109258504C0660F771F881F991F2A95A9
:10270000D2F70685178520893189600F711F821FD6
:10271000931F670D711D811D911D99CF4E815F81A2
:102720006885798591010E944F198111D8CF37CFE3
:10273000750183019601AB01BC0180911103909159
:1027400012030E94DF10882309F429CFA60CB71CBE
:102750008A859B85AC85BD85860D971DA11DB11D04
:102760008A879B87AC87BD87861897084ECF281B22
:10277000390BA20EB31EECCFC20113CFFF920F9301
:102780001F93CF93DF931F92CDB7DEB7FC01258156
:102790002230C8F08C01428553856485758585E0BB
:1027A00076956795579547958A95D1F7F42FFF70E1
:1027B000FF2E41E050E0BE016F5F7F4FC8010E94D5
:1027C000B712019719F090E080E012C0F8018285FD
:1027D0009385A485B5854F96A11DB11D82879387EA
:1027E000A487B587F0E2FF9EC00111248D5E9C4F47
:1027F0000F90DF91CF911F910F91FF9008958F92CD
:102800009F92AF92BF92CF92DF92EF92FF920F937F
:102810001F93CF93DF93EC018D8181110EC080E077
:10282000DF91CF911F910F91FF90EF90DF90CF90AC
:10283000BF90AF909F908F9008950B891C892D8930
:102840003E89041715072607370748F34A015B013D
:10285000823031F48A869B86AC86BD8681E0E0CFEB
:1028600081149104A104B10449F41E821F821886C8
:1028700019861A861B861C861D86F0CF0A851B8545
:102880002C853D85EB8DFC8D858590E00996B90101
:10289000A8014150510961097109082E04C07695BB
:1028A0006795579547950A94D2F775016401E1E061
:1028B000CE1AD108E108F10804C0F694E794D79441
:1028C000C7948A95D2F7C416D506E606F70620F017
:1028D000012B022B032B11F58F89988DA98DBA8DB1
:1028E0008E839F83A887B9878E010A5F1F4FC1140B
:1028F000D104E104F10409F4ADCF4E815F81688514
:10290000798598018B8D9C8D0E944F1991E0C91A91
:10291000D108E108F1088111EACF81CFC41AD50AA4
:10292000E60AF70AE1CF0F931F93CF93DF93EC01F1
:102930008D818823D9F18C8187FF32C061E0CE017F
:102940000E9415128C01892B89F18D81823048F407
:102950008B899C89AD89BE89F801848F958FA68F5C
:10296000B78F8F89988DF801938F828F8F89988D7B
:10297000A98DBA8DB58BA48BE0910A03F0910B035E
:10298000309759F0B8016A5E7F4FC80148960995A3
:10299000F801808D918D938B828B8C818F778C83C6
:1029A000DF91CF911F910F910C94B51880E0DF91CA
:1029B000CF911F910F910895CF93DF93EC010E9467
:1029C0009314882311F01D8281E0DF91CF91089547
:1029D0004F925F926F927F928F929F92AF92BF922F
:1029E000EF92FF920F931F93CF93DF9300D000D00D
:1029F000CDB7DEB7FC0185818130A1F080E00F907A
:102A00000F900F900F90DF91CF911F910F91FF903A
:102A1000EF90BF90AF909F908F907F906F905F905E
:102A20004F900895848181FFE9CF83899489A58996
:102A3000B68984179507A607B70700F3892B8A2B59
:102A40008B2B09F477C04A015B017F0142845384D8
:102A500064847584CF010E94FF13882379F2F70103
:102A6000838D948D81149104A104B10449F54789A3
:102A7000508D618D728D0E94E81B882309F4BECFB2
:102A8000F701178A108E118E128EF701838A948AAD
:102A9000A58AB68A848180688483C7010E949314C2
:102AA000882309F4ABCFB501A40144165506660688
:102AB000770610F4B301A201C7010E94FF139FCF54
:102AC00046815781608571859E012F5F3F4F0E942F
:102AD0004F19882309F492CFF701838D948D498192
:102AE0005A816B817C81FC0127892031F1F408EF48
:102AF0001FEF20E030E0401751076207730728F608
:102B00000E94E81B882309F479CFF7014681578199
:102B1000608571850FEF1FEF2FEF3FE0838D948D60
:102B20000E943B1A8111B1CF69CF08EF1FEF2FEF41
:102B30003FE0E1CF81E063CFCF92DF92EF92FF924F
:102B40001F93CF93DF93EC0180E2689FF001112483
:102B5000ED5EFC4F9385917161F0842F827449F092
:102B600080E0DF91CF911F91FF90EF90DF90CF90A9
:102B70000895142F6A8B8091090190910A01A09108
:102B80000B01B0910C018E879F87A88BB98BC488ED
:102B9000D588F12CE12C7601DD24CC24CF8AD88E87
:102BA000E98EFA8E828D938DB0E0A0E0AC01BD017C
:102BB0004C295D296E297F294F8B588F698F7A8F19
:102BC0008385887129F5848D958DA68DB78D8B8B26
:102BD0009C8BAD8BBE8B81E08D83812F8F708C831E
:102BE0001E821F82188619861A861B861C861D86E1
:102BF00081E016FFB6CF40E050E0BA01CE01DF9190
:102C0000CF911F91FF90EF90DF90CF900C94E8143C
:102C1000803109F0A5CF9E012D5E3F4F8B8D9C8D9D
:102C20000E94D019882309F49BCF84E0D5CFBF92AE
:102C3000CF92DF92EF92FF920F931F93CF93DF9388
:102C4000CDB7DEB72B970FB6F894DEBF0FBECDBF62
:102C5000FC01358131110BC0C22E8B017C01BE01FC
:102C60006F5F7F4FCA010E942E12811102C080E067
:102C7000A1C0F801838D948DF701948F838FF801A3
:102C80001682178210861186128613861486158680
:102C9000B12CF80182859385A485B5854389548933
:102CA0006589768984179507A607B70788F525E013
:102CB000B695A795979587952A95D1F7F82FFF7028
:102CC000DF2EC8010E94BE13009789F2FC0120810B
:102CD000222341F0253E09F059C0BB2029F0BB2436
:102CE000B394D7CFB1100EC0F701D28A4091090139
:102CF00050910A0160910B0170910C014687578732
:102D0000608B718BFC0180818111E9CFBB24B3946E
:102D10008C2D8271823109F0AACFBB2009F45AC0F0
:102D200061E0C7010E9415128C01892B09F49FCF25
:102D300080E2F80111928A95E9F78BE0FE01319665
:102D4000D80101900D928A95E1F7E0910A03F09184
:102D50000B03309709F44EC0B801625F7F4FC80182
:102D600040960995F80180899189938B828B918F88
:102D7000808F86859785978B868B0E94B5188823D0
:102D800009F475CF4C2DF701628911C04BE050E07A
:102D9000BC01CE0101960E94E325892B09F079CF71
:102DA0008C2D80734C2D6D2D803309F460CFC701BD
:102DB0000E949C152B960FB6F894DEBF0FBECDBFB8
:102DC000DF91CF911F910F91FF90EF90DF90CF9007
:102DD000BF900895F8018581823009F448CFC80179
:102DE0000E94AB11882309F442CFF701128A03E154
:102DF00013E09ECF81E298E2F801918B808B80E016
:102E000098E097878687AECF2F923F924F925F923E
:102E10006F927F928F929F92AF92BF92CF92DF92EA
:102E2000EF92FF920F931F93CF93DF9300D000D0C8
:102E3000CDB7DEB78C016B011A01DC0115968C91C0
:102E40001597813009F0C8C014968C9181FFC4C0D9
:102E500082FDAEC04101D8011A964D915D916D91F0
:102E60007C911D978114910409F429C15B968D9181
:102E70009C915C97FC0174802FEF270D2A013B0188
:102E800039E076946794579447943A95D1F7722E27
:102E900074207A01F1E0FF22711020C0E114F104E6
:102EA000E9F416964D915D916D917C9119974115BC
:102EB00051056105710509F098C057968D919D9156
:102EC0000D90BC91A02D0097A105B10509F0AFC0F0
:102ED000C8010E948411882309F47EC080E092E03A
:102EE0008E199F0954018815990508F45C01D801D1
:102EF0005B964D915C915C9716968D919D910D908E
:102F0000BC91A02D0297A109B109FA01258504C041
:102F1000880F991FAA1FBB1F2A95D2F74685578590
:102F200060897189840F951FA61FB71F9C01AD0191
:102F3000270D311D411D511D29013A01A11432E017
:102F4000B30609F07AC08091090190910A01A0911D
:102F50000B01B0910C0184159505A605B70559F430
:102F60008FEF9FEFDC018093090190930A01A093FA
:102F70000B01B0930C019601B301A20180911103E2
:102F8000909112030E942F11882331F19EEFD91ADC
:102F90008A189B08F80182859385A485B5858A0DDA
:102FA0009B1DA11DB11D82879387A487B58753CF31
:102FB000F801438954896589768982859385A4853A
:102FC000B585481759076A077B0709F443CFC8013D
:102FD0000E94FF1381113ECF81E090E0D80113964B
:102FE0009C938E93129780E007C09E012F5F3F4F06
:102FF0000E944F19811102C090E07BC089819A81A3
:10300000AB81BC81F801238D348DF901278948EF0C
:103010005FEF60E070E0203121F048EF5FEF6FEF8D
:103020007FE084179507A607B70708F051CFF8018E
:1030300086839783A087B18751CFE114F10491F57E
:10304000D8011A964D915D916D917C911D97539683
:103050008D919D910D90BC91A02D481759076A073D
:103060007B0700F10E94B518882309F4B5CF409280
:10307000090150920A0160920B0170920C0180913B
:10308000100381608093100397012D5E3C4FD601A1
:10309000C9018A0D9B1DF9018E179F0759F04D91AB
:1030A0004193FACF41E0C301B2010E94F0188111AF
:1030B000EBCF92CF821B930BC80ED91E69CF14960B
:1030C0008C9114975396CD90DD90ED90FC9056978F
:1030D000C416D506E606F70618F5F801438B548B9F
:1030E000658B768B80688483F801848183FD25C09D
:1030F000C1010F900F900F900F90DF91CF911F9112
:103100000F91FF90EF90DF90CF90BF90AF909F9086
:103110008F907F906F905F904F903F902F90089589
:1031200020910A0330910B03232BF1F22114310477
:10313000D9F2806814968C93D7CFC8010E9493145B
:10314000882309F449CFD4CFCF93DF931F92CDB713
:10315000DEB7698341E050E0BE016F5F7F4F0E94A0
:1031600004170F90DF91CF91089580911003882369
:10317000A9F14091090150910A0160910B017091F0
:103180000C0123E133E080911103909112030E941E
:103190002F11811102C080E0089540910C035091DD
:1031A0000D0360910E0370910F03411551056105E8
:1031B000710591F023E133E08091110390911203A6
:1031C0000E942F11882339F310920C0310920D03E3
:1031D00010920E0310920F031092100381E00895D5
:1031E000CF92DF92EF92FF92CF936B017C01C42FBD
:1031F0008091090190910A01A0910B01B0910C01FD
:103200008C159D05AE05BF05F9F00E94B51881111A
:1032100007C080E0CF91FF90EF90DF90CF900895AE
:1032200023E133E0B701A6018091110390911203CD
:103230000E94EF10882369F3C0920901D0920A011D
:10324000E0920B01F0920C01409110034C2B409343
:10325000100381E0DFCFCF92DF92EF92FF926B01FC
:103260007C010E94B5188823A9F0E3E1F3E01192F4
:1032700085E0E331F807D9F7C0920901D0920A013D
:10328000E0920B01F0920C01809110038160809319
:10329000100381E0FF90EF90DF90CF9008958F9220
:1032A0009F92AF92BF92CF92DF92EF92FF920F93D5
:1032B0001F93CF93DF93FC0181859285A385B4850D
:1032C0000196A11DB11D84179507A607B70770F4D5
:1032D00080E0DF91CF911F910F91FF90EF90DF90F1
:1032E000CF90BF90AF909F908F90089583889488DF
:1032F000A588B6888789803189F5BB27A72F962FA7
:10330000852FE9016A017B018F01BC01CD01680DA8
:10331000791D8A1D9B1D8090090190900A01A09043
:103320000B01B0900C0186169706A806B90601F5A8
:10333000F8018789803111F5DD24EE24FF24F601A0
:10334000EE0FFF1FED5EFC4F80819181B0E0A0E0A9
:1033500088839983AA83BB8381E0BBCFDB01CA0149
:10336000C7E0B695A79597958795CA95D1F7C9CF28
:1033700040E00E94F0188111DBCFAACFE894C7F893
:10338000DD24EE24FF24F601EE0FFF1FEE0FFF1FDA
:10339000ED5EFC4F80819181A281B381BF70D8CF57
:1033A0004F925F926F927F92AF92BF92CF92DF92D5
:1033B000EF92FF920F931F93CF93DF9300D000D033
:1033C000CDB7DEB78C0149835A836B837C83590167
:1033D000C12CD12C7601412C82E0582E612C712C0D
:1033E00049815A816B817C819E012F5F3F4FC801CB
:1033F0000E944F19882339F1F8018585A3019201B4
:1034000004C0220F331F441F551F8A95D2F7DA01DB
:10341000C901C80ED91EEA1EFB1E49815A816B8163
:103420007C818789803111F188EF9FEFAFEFBFE09A
:10343000481759076A077B0798F2F501C082D182C5
:10344000E282F38281E00F900F900F900F90DF9156
:10345000CF911F910F91FF90EF90DF90CF90BF9091
:10346000AF907F906F905F904F90089588EF9FEF9F
:10347000A0E0B0E0DDCF4F925F926F927F928F928B
:103480009F92AF92BF92CF92DF92EF92FF920F93F3
:103490001F93CF93DF93EC01423051056105710515
:1034A00090F480E0DF91CF911F910F91FF90EF900A
:1034B000DF90CF90BF90AF909F908F907F906F9054
:1034C0005F904F90089589859A85AB85BC8501965C
:1034D000A11DB11D84179507A607B70710F3CB8868
:1034E000DC88ED88FE888F89803109F042C0BB27D7
:1034F000A72F962F852F480159012A013B01C80E9D
:10350000D91EEA1EFB1E8091090190910A01A0912B
:103510000B01B0910C01C816D906EA06FB0699F515
:103520008F898031C1F5B301A2015527662777271E
:10353000440F551F4D5E5C4FFA019182808280914D
:1035400010038160809310038A89823080F08D811E
:103550009E81AF81B8858C0D9D1DAE1DBF1D8093D2
:103560000C0390930D03A0930E03B0930F0381E01F
:1035700099CFDB01CA01E7E0B695A79597958795A6
:10358000EA95D1F7B8CF40E0C701B6010E94F01824
:103590008111C6CF86CFB301A2014F775527662789
:1035A0007727440F551F440F551F4D5E5C4FFA019E
:1035B00080829182A282B382C2CF2F923F924F9299
:1035C0005F926F927F928F929F92AF92BF92CF92B3
:1035D000DF92EF92FF920F931F93CF93DF93CDB7BC
:1035E000DEB72F970FB6F894DEBF0FBECDBF3C01FC
:1035F000488759876A877B873F832E83D901CD907F
:10360000DD90ED90FC90C114D104E104F10439F097
:10361000BFEFCB1ADB0AEB0AFB0A1D8210C0FC01CC
:10362000C080D180E280F380F1E0FD8308851985B8
:103630002A853B85013011052105310571F7F3011C
:1036400081859285A385B4858C019D010F5F1F4FF5
:103650002F4F3F4F0C871D872E873F87460157010D
:10366000212C312C2101F30181859285A385B4851C
:10367000281639064A065B0608F044C00C851D85ED
:103680002E853F85081519052A053B0550F482E073
:10369000882E912CA12CB12C92E0C92ED12CE12C9A
:1036A000F12C9E012F5F3F4FB501A401C3010E9481
:1036B0004F19882339F1D501C4010196A11DB11D0F
:1036C00049815A816B817C81452B462B472BA9F57B
:1036D000AC01BD014C195D096E097F09088519858A
:1036E0002A853B85401751076207730741F50FEFA5
:1036F0001FEF2FEF3FE0B501A401C3010E943B1A69
:10370000811125C01D828D812F960FB6F894DEBFE2
:103710000FBECDBFDF91CF911F910F91FF90EF9022
:10372000DF90CF90BF90AF909F908F907F906F90E1
:103730005F904F903F902F9008956C017D011FEF97
:10374000211A310A410A510A4C015D018CCFC8147B
:10375000D904EA04FB0488F41401250121E0221AAB
:1037600031084108510895018401B201A101C3014A
:103770000E943B1A52014101C3CFAE81BF814D91DE
:103780005D916D917C91411551056105710561F463
:10379000EE81FF81C082D182E282F382FD81F1114C
:1037A0000BC001E00D83AFCF97018601C3010E94DA
:1037B0003B1A8111EDCFA6CF1FEFC11AD10AE10A42
:1037C000F10AD301CD92DD92ED92FC9213979BCF3B
:1037D000AF92BF92CF92DF92EF92FF920F931F931F
:1037E000CF93DF9300D000D0CDB7DEB75C016A0184
:1037F0007B0182E090E0A0E0B0E0F501808391835E
:10380000A283B3839E012F5F3F4FB701A601C5017D
:103810000E944F19882381F100E010E09801B70160
:10382000A601C5010E943B1A882331F1C980DA80C4
:10383000EB80FC80F50187898031C9F088EF9FEF2C
:10384000AFEFBFE0C816D906EA06FB06D8F281E062
:103850000F900F900F900F90DF91CF911F910F91CC
:10386000FF90EF90DF90CF90BF90AF90089588EFDA
:103870009FEFA0E0B0E0E6CF80E0EACF8F929F928A
:10388000AF92BF92CF92DF92EF92FF920F931F936E
:10389000CF93DF93EC01142F709312036093110305
:1038A000442309F478C0453070F080E0DF91CF9177
:1038B0001F910F91FF90EF90DF90CF90BF90AF904E
:1038C0009F908F90089540E060E070E0CB010E94EF
:1038D000F018882351F3812F8150990BAC0164E0DB
:1038E000440F551F6A95E1F74D5E5C4FFA01E254B3
:1038F000FE4F80818F77C9F63C9680819181A281AD
:10390000B38184369105A105B10578F24A535E4F23
:10391000FA01C080D180E280F380C114D104E104B7
:10392000F10419F240E0C701B6010E94F0188823A3
:1039300009F4BBCF80911E0390911F038115924023
:1039400009F0B3CF90912303992309F4AECF2091CE
:10395000210330912203232B09F4A7CF8091200368
:10396000882309F4A2CF9A8B8C831D8690E041E0D6
:1039700050E02D85E22FBA01022E02C0660F771F9C
:103980000A94E2F78617970751F031E0320F3D872E
:10399000283078F38ACFC12CD12C7601C3CF209167
:1039A000290330912A0350E040E02115310541F40C
:1039B00020913703309138034091390350913A03F5
:1039C0002D833E834F83588780912103909122035A
:1039D00046015701880E991EA11CB11C8B8A9C8A36
:1039E000AD8ABE8A0091240310912503198F088F98
:1039F000A0912303B0E00E94C323DC01CB01880D1A
:103A0000991DAA1DBB1D8A8F9B8FAC8FBD8F25E092
:103A1000000F111F2A95E1F701501E4F012F1127AA
:103A20000695800F911FA11DB11D8E879F87A88BC2
:103A3000B98B009126031091270330E020E0011597
:103A4000110541F4009133031091340320913503A3
:103A500030913603C81AD90AEA0AFB0AC00ED11EF1
:103A6000E21EF31E04C0F694E794D794C794EA9537
:103A7000D2F7C986DA86EB86FC868CE025EFC21683
:103A80002FE0D206E104F10440F085EFC8168FEF75
:103A9000D806E104F10420F480E18F8B81E006CFA9
:103AA00080913F0390914003A0914103B091420364
:103AB0008A8F9B8FAC8FBD8F80E2EFCFCF93CFB734
:103AC000F89480911605811127C0E0EEF0E0849112
:103AD000E0ECF0E09491E82FF0E0EE0FFF1FEA5FDA
:103AE000FE4FA591B491EC91E92321F461E084E0CB
:103AF0000E94692361E084E00E942D238CB58061DF
:103B00008CBD8CB580648CBD61E087E00E942D2364
:103B100061E085E00E942D23809116058F5F8093E0
:103B20001605CFBFCF910895FC01918D228D892F6D
:103B300090E0805C9F4F821B91098F7399270895B5
:103B4000FC01918D828D981731F0828DE80FF11D67
:103B5000858D90E008958FEF9FEF0895FC01918D82
:103B6000828D981761F0A28DAE0FBF2FB11D5D96AB
:103B70008C91928D9F5F9F73928F90E008958FEF4D
:103B80009FEF0895FC01538D448D252F30E0842F45
:103B900090E0821B930B541710F0CF960895019775
:103BA00008958DE29FE1892B49F080E090E0892B18
:103BB00029F00E942D1F81110E94000080E090E0FA
:103BC000892B49F080E090E0892B29F00E940000C9
:103BD00081110C9400000895FC01A48DA80FB92F49
:103BE000B11DA35ABF4F2C91848D90E001968F7325
:103BF0009927848FA689B7892C93A089B1898C9144
:103C0000837080648C93938D848D981306C0028892
:103C1000F389E02D80818F7D80830895CF93DF939A
:103C2000EC01888D8823B9F0AA89BB89E889F989D4
:103C30008C9185FD03C0808186FD0DC00FB607FC09
:103C4000F7CF8C9185FFF2CF808185FFEDCFCE013C
:103C50000E94EC1DE9CFDF91CF910895EF92FF9282
:103C60000F931F93CF93DF93EC0181E0888F9B8D9F
:103C70008C8D98131AC0E889F989808185FF15C059
:103C80009FB7F894EE89FF896083E889F98980817C
:103C90008370806480839FBF81E090E0DF91CF914B
:103CA0001F910F91FF90EF900895F62E0B8D10E06D
:103CB0000F5F1F4F0F731127E02E8C8D8E110CC0DC
:103CC0000FB607FCFACFE889F989808185FFF5CF27
:103CD000CE010E94EC1DF1CFEB8DEC0FFD2FF11DFD
:103CE000E35AFF4FF0829FB7F8940B8FEA89FB8964
:103CF00080818062CFCFCF92DF92EF92FF921F93AD
:103D0000CF93DF93EC016A017B01122F60E874E826
:103D10008EE190E0A70196010E949823215031097D
:103D2000410951095695479537952795E889F989AD
:103D300082E08083211580E1380798F0E889F989CD
:103D4000108260E472E48FE090E0A70196010E9487
:103D500098232150310941095109569547953795C6
:103D60002795EC85FD853083EE85FF852083188EB1
:103D7000EC89FD891083EA89FB89808188698083C9
:103D8000EA89FB8980818F7D8083DF91CF911F91AC
:103D9000FF90EF90DF90CF9008951F920F920FB693
:103DA0000F9211240BB60F922F938F939F93EF9343
:103DB000FF93E0912705F09128058081E0912D0582
:103DC000F0912E0582FD1DC09081809130058F5F9E
:103DD0008F7320913105821741F0E0913005F0E0BA
:103DE000E95EFA4F958F80933005FF91EF919F9197
:103DF0008F912F910F900BBE0F900FBE0F901F90C1
:103E000018958081F2CF1F920F920FB60F92112456
:103E10000BB60F922F933F934F935F936F937F93C4
:103E20008F939F93AF93BF93EF93FF9387E195E0B9
:103E30000E94EC1DFF91EF91BF91AF919F918F91E7
:103E40007F916F915F914F913F912F910F900BBE9A
:103E50000F900FBE0F901F90189587E195E00E947C
:103E6000941D21E0892B09F420E0822F0895E7E1D9
:103E7000F5E01382128288EE93E0A0E0B0E0848344
:103E80009583A683B78384EE91E09183808385EC4C
:103E900090E09587848784EC90E09787868780EC14
:103EA00090E0918B808B81EC90E0938B828B82EC05
:103EB00090E0958B848B86EC90E0978B868B118EAF
:103EC000128E138E148E0895AF92BF92CF92DF920E
:103ED000EF92FF920F931F93CF93DF936C017B01BF
:103EE0008B01040F151FEB015E01AE18BF08C01750
:103EF000D10759F06991D601ED91FC910190F081C3
:103F0000E02DC6010995892B79F7C501DF91CF9185
:103F10001F910F91FF90EF90DF90CF90BF90AF90E7
:103F20000895FB0101900020E9F73197AF01461B8E
:103F3000570BDC01ED91FC910280F381E02D099497
:103F4000DB0114964D915C9115976D917C91DC018C
:103F5000ED91FC910280F381E02D099461157105CA
:103F600011F00C94911F90E080E0089562EF71E0F1
:103F70000C94911F0F931F93CF93DF93EC010E943A
:103F8000A01F8C01CE010E94B61F800F911FDF91F0
:103F9000CF911F910F9108950F931F93CF93DF93AC
:103FA0008C01D0E0C0E06115710519F00E94911FED
:103FB000EC01C8010E94B61F8C0F9D1FDF91CF91AD
:103FC0001F910F9108958F929F92AF92BF92EF929F
:103FD000FF920F931F93CF93DF93CDB7DEB7A197D7
:103FE0000FB6F894DEBF0FBECDBF7C01FA01CB0146
:103FF00019A2223008F42AE08E010F5D1F4F822E95
:10400000912CB12CA12CBF01A50194010E949823F1
:10401000F901CA016A300CF5605DD8016E938D011B
:10402000232B242B252B79F790E080E0109721F0AB
:10403000BD01C7010E94911FA1960FB6F894DEBF83
:104040000FBECDBFDF91CF911F910F91FF90EF90E9
:10405000BF90AF909F908F900895695CDECF21153F
:10406000310541F4DC01ED91FC910190F081E02DEE
:10407000642F09940C94E31F0F931F93CF93DF9346
:10408000EC010E942F208C01CE010E94B61F800FF0
:10409000911FDF91CF911F910F910895FC018081B5
:1040A0009181009711F00C9479240895CF93DF93B8
:1040B000EC0188819981009711F00E94792419827E
:1040C00018821D821C821B821A82DF91CF91089573
:1040D0000F931F93CF93DF93EC018B016F5F7F4FA3
:1040E000888199810E940225009751F099838883E5
:1040F0001B830A8381E0DF91CF911F910F91089577
:1041000080E0F9CFCF93DF93EC0188819981892BEF
:1041100049F08A819B818617970720F081E0DF9123
:10412000CF910895CE010E9468208823C1F38C812D
:104130009D81892B99F7E881F9811082EFCFEF9269
:10414000FF920F931F93CF93DF93EC017B018A01C2
:10415000BA010E94822081110BC0CE010E9456201C
:10416000CE01DF91CF911F910F91FF90EF900895B5
:104170001D830C83B701888199810E940426F0CFAA
:10418000FC01118210821382128215821482611541
:10419000710551F0FB0101900020E9F73197AF0163
:1041A000461B570B0C949F200895FB0101900020A3
:1041B000E9F73197AF01461B570B0C949F200F93E3
:1041C0001F93CF93DF93CDB7DEB729970FB6F8943F
:1041D000DEBF0FBECDBF8C01862FF8011182108289
:1041E000138212821582148250E0BE016F5F7F4FEE
:1041F00090E00E944726BE016F5F7F4FC8010E947A
:10420000D52029960FB6F894DEBF0FBECDBFDF9143
:10421000CF911F910F9108950F931F93CF93DF9329
:10422000CDB7DEB761970FB6F894DEBF0FBECDBF36
:104230008C01CB01F8011182108213821282158247
:10424000148250E0BE016F5F7F4F0E944726BE017F
:104250006F5F7F4FC8010E94D52061960FB6F8941A
:10426000DEBF0FBECDBFDF91CF911F910F9108959B
:104270000F931F93CF93DF93CDB7DEB7A1970FB600
:10428000F894DEBF0FBECDBF8C01CB01BA01F8019F
:1042900011821082138212821582148230E0AE01E4
:1042A0004F5F5F4F0E941A26BE016F5F7F4FC801AC
:1042B0000E94D520A1960FB6F894DEBF0FBECDBFE9
:1042C000DF91CF911F910F910895CF93DF93EC0170
:1042D000FB018617970749F06081718161157105AF
:1042E00041F0448155810E949F20CE01DF91CF9102
:1042F00008950E945620F9CFFC011182108213828A
:104300001282158214820C946521EF92FF920F9312
:104310001F93CF93DF936115710541F480E0DF9126
:10432000CF911F910F91FF90EF9008954115510586
:10433000B1F07B01EC010C811D81040F151FB80148
:104340000E948220882351F3288139818C819D81AC
:10435000B701820F931F0E9404261D830C8381E006
:10436000DECFFB0144815581608171810C948521F0
:104370006115710551F0FB0101900020E9F73197BB
:10438000AF01461B570B0C94852180E00895CF9315
:10439000DF93EC01FB0144815581608171810E94B2
:1043A0008521811103C0CE010E945620CE01DF91EC
:1043B000CF910895CF93DF93EC016115710539F426
:1043C000CE010E945620CE01DF91CF910895FB01CE
:1043D00001900020E9F73197AF01461B570B0E946F
:1043E0008521882369F3EFCF08950E94C3220E949C
:1043F000F4210E94F003C1EDDDE10E94AC012097A1
:10440000E1F30E94D11DF9CF1F920F920FB60F92C8
:1044100011242F933F938F939F93AF93BF938091DA
:10442000B9059091BA05A091BB05B091BC0530913A
:10443000B80526E0230F2D3768F129E8230F0396EE
:10444000A11DB11D2093B8058093B9059093BA05BD
:10445000A093BB05B093BC058091B4059091B505C0
:10446000A091B605B091B7050196A11DB11D80932D
:10447000B4059093B505A093B605B093B705BF9169
:10448000AF919F918F913F912F910F900FBE0F9001
:104490001F9018950296A11DB11DD4CF2FB7F89487
:1044A0006091B9057091BA058091BB059091BC05EA
:1044B0002FBF08953FB7F8948091B4059091B5054A
:1044C000A091B605B091B70526B5A89B05C02F3FB2
:1044D00019F00196A11DB11D3FBFBA2FA92F982F2A
:1044E0008827BC01CD01620F711D811D911D43E024
:1044F000660F771F881F991F4A95D1F708958F92ED
:104500009F92AF92BF92CF92DF92EF92FF926B0198
:104510007C010E945A224B015C01C114D104E104C8
:10452000F104E9F00E9497230E945A226819790940
:104530008A099B09683E73408105910570F321E06B
:10454000C21AD108E108F10888EE880E83E0981EAF
:10455000A11CB11CC114D104E104F10429F7FF909E
:10456000EF90DF90CF90BF90AF909F908F90089585
:10457000000000008330910528F0880F991F0597EF
:104580000197F1F70895789484B5836084BD85B56B
:10459000836085BDEEE6F0E0808181608083E1E8A4
:1045A000F0E082E08083808181608083E0E8F0E059
:1045B000808181608083E1EBF0E080818460808392
:1045C000E0EBF0E0808181608083E1E9F0E08081D0
:1045D00083608083E0E9F0E080818160808386E809
:1045E00080937A001092C100089582508A3088F535
:1045F000E82FF0E0E250FD4D0C94BA2326232A2345
:1046000008230E2329232923122318231C232223C2
:10461000809180008F778093800008958091800042
:104620008F7DF9CF8091B0008F778093B00008958F
:104630008091B0008F7DF9CF809190008F7780932B
:1046400090000895809190008F7DF9CF84B58F7789
:1046500084BD089584B58F7DFBCFCF93DF9390E029
:10466000FC01E454FF4F249184529F4FFC0184913C
:104670008823C9F090E0880F991FFC01EA5FFE4F84
:10468000A591B491FC01E450FF4FC591D491611103
:104690000DC09FB7F8948C91209582238C938881CC
:1046A000282328839FBFDF91CF910895623051F472
:1046B0009FB7F8943C91822F809583238C93E88157
:1046C0002E2BEFCF8FB7F894EC912E2B2C938FBF1E
:1046D000EACF1F93CF93DF93282F30E0F901E45600
:1046E000FF4F8491F901E454FF4FD491F901E45252
:1046F000FF4FC491CC23A9F0162F81110E94F522FF
:10470000EC2FF0E0EE0FFF1FE450FF4FA591B491A6
:104710008FB7F894EC91111108C0D095DE23DC938B
:104720008FBFDF91CF911F910895DE2BF8CF0895B1
:10473000A1E21A2EAA1BBB1BFD010DC0AA1FBB1FA5
:10474000EE1FFF1FA217B307E407F50720F0A21B17
:10475000B30BE40BF50B661F771F881F991F1A9484
:1047600069F760957095809590959B01AC01BD01AE
:10477000CF010895EE0FFF1F0024001C0BBE079011
:10478000F691E02D09940E94CE23A59F900DB49F31
:10479000900DA49F800D911D11240895A29FB0013A
:1047A000B39FC001A39F700D811D1124911DB29F65
:1047B000700D811D1124911D08950F931F93CF93A8
:1047C000DF938230910510F482E090E0E091BF0524
:1047D000F091C00530E020E0B0E0A0E0309799F41F
:1047E0002115310509F44AC0281B390B2430310545
:1047F000D8F58A819B816115710589F1FB0193834D
:104800008283FE0111C040815181028113814817CA
:104810005907E0F04817590799F4109761F012967C
:104820000C93129713961C933296CF01DF91CF9180
:104830001F910F9108950093BF051093C005F4CF09
:104840002115310551F04217530738F0A901DB015A
:104850009A01BD01DF01F801C1CFEF01F9CF9093BB
:10486000C0058093BF05CDCFFE01E20FF31F8193FA
:1048700091932250310939832883D7CF2091BD05E8
:104880003091BE05232B41F42091020130910301A8
:104890003093BE052093BD052091000130910101A8
:1048A0002115310541F42DB73EB7409104015091D7
:1048B0000501241B350BE091BD05F091BE05E21703
:1048C000F307A0F42E1B3F0B2817390778F0AC0133
:1048D0004E5F5F4F2417350748F04E0F5F1F509310
:1048E000BE054093BD05819391939FCFF0E0E0E03A
:1048F0009CCFCF93DF930097E9F0FC0132971382AE
:104900001282A091BF05B091C005ED0130E020E01A
:104910001097A1F420813181820F931F2091BD0552
:104920003091BE052817390709F061C0F093BE0524
:10493000E093BD05DF91CF910895EA01CE17DF071F
:10494000E8F54A815B819E0141155105B1F7E90106
:10495000FB83EA8349915991C40FD51FEC17FD07DA
:1049600061F4808191810296840F951FE9019983FA
:104970008883828193819B838A83F0E0E0E01296B2
:104980008D919C9113970097B9F52D913C911197BA
:10499000CD010296820F931F2091BD053091BE0577
:1049A0002817390739F6309751F51092C005109243
:1049B000BF05B093BE05A093BD05BCCFD383C28312
:1049C00040815181840F951FC817D90761F44E5F4C
:1049D0005F4F88819981480F591F518340838A8195
:1049E0009B81938382832115310509F0B0CFF09329
:1049F000C005E093BF059ECFFD01DC01C0CF13824F
:104A00001282D7CF4F925F926F927F928F929F9236
:104A1000AF92BF92CF92DF92EF92FF920F931F93CC
:104A2000CF93DF938C01009799F4CB01DF91CF9165
:104A30001F910F91FF90EF90DF90CF90BF90AF90BC
:104A40009F908F907F906F905F904F900C94DD239C
:104A5000FC01E60FF71F9C0122503109E217F30712
:104A600008F4AEC0D901CD91DC911197C617D707D4
:104A700020F1C530D10578F0CE010497861797074D
:104A800050F0C61BD70B2297C193D1936D937C93A3
:104A9000CF010E947924C801DF91CF911F910F911E
:104AA000FF90EF90DF90CF90BF90AF909F908F904E
:104AB0007F906F905F904F9008955B01AC1ABD0A94
:104AC0004C018C0E9D1EA091BF05B091C005512CCC
:104AD000412CF12CE12C109731F58091BD0590917E
:104AE000BE058815990509F05CC04616570608F002
:104AF00058C08091000190910101009741F48DB759
:104B00009EB74091040150910501841B950BE81755
:104B1000F90708F055C0F093BE05E093BD05F90113
:104B200071836083B8CF8D919C91119712966C9090
:104B3000129713967C901397A815B90559F56C0137
:104B400042E0C40ED11CCA14DB0420F1AC014A19A6
:104B50005B09DA011296159780F0628273825183A5
:104B60004083D9016D937C93E114F10471F0D70176
:104B70001396FC93EE9312978ECF22968C0F9D1F67
:104B8000F90191838083F301EFCFF093C005E093A7
:104B9000BF0581CF4816590608F42C017D01D301C9
:104BA0009ACFCB010E94DD237C01009749F0AE0132
:104BB000B8010E94F025C8010E94792487016BCFBB
:104BC00010E000E068CFFB01DC0104C08D91019092
:104BD000801921F441505040C8F7881B990B089563
:104BE000FB01DC0102C001900D9241505040D8F70A
:104BF0000895FC018191861721F08823D9F7992720
:104C000008953197CF010895FB01DC0101900D92C9
:104C10000020E1F70895FB01DC014150504048F0CD
:104C200001900D920020C9F701C01D9241505040E3
:104C3000E0F708952532310520F4223010F00C946D
:104C40002526FA011082CA010895BB27FA01A62F72
:104C50006217710581059105330B30FB66F0AA27B9
:104C6000660F771F881F991FAA1FA21710F0A21B9B
:104C700063953850A9F7A05DAA3308F0A95DA19308
:104C800036F7B111B1931082CA010C946C264532EB
:104C9000510520F4423010F00C945226FB01108292
:104CA000CB010895BB27FB015527AA27880F991F21
:104CB000AA1FA41710F0A41B83955051B9F7A05D4B
:104CC000AA3308F0A95DA193009779F7B111B193C8
:104CD0001192CB010C946C26DC01FC01672F7191C1
:104CE0007723E1F7329704C07C916D9370836291D2
:104CF000AE17BF07C8F3089510E0CDE8D0E004C0B8
:104D0000FE010E94BA232196CE38D107C9F7F89444
:024D1000FFCFD3
:104D12000000C1058000010001FFFFFFFF313331B8
:104D2200313739336434383931356238316163634C
:104D320065633135353335336562383364646135E3
:104D420033366665652C4265746100382E302E302C
:104D52002D3132322D426574612E4C3234340024AE
:104D6200484953542C0023534420696E69742066C9
:104D7200616C7365002353442066616C7365002E79
:104D8200747874002346696C656E616D652C00232E
:104D92004376616B2E2E2E0023486D6D6D2E2E2EC6
:104DA2000024444F532C4C4142444F533031422C47
:104DB2000030002346696C6573697A652C00000037
:104DC20000007307A20746077207490750076307E7
:104DD20000000000790A8F0A4607AC0A5F0BCB0A73
:104DE200D50A2F0000000000A418641F4607831193
:104DF200000000002E1E641FC21D0E1E941DAE1D5B
:064E0200A01D0D0A0000D6
:00000001FF
