:020000040000FA
:100000000C9484000C94AE000C94AE000C94AE00E2
:100010000C94AE000C94AE000C94AE000C94AE00A8
:100020000C94AE000C94AE000C94AE000C94AE0098
:100030000C94AE000C94AE000C94AE000C94AE0088
:100040000C94AE000C94AE000C94CC0C0C94AE004E
:100050000C94080A0C943E0A0C94AE000C94AE006A
:100060000C94AE000C94AE000C9499070C94AE0066
:100070000C94AE000C94AE000C94AE000C94AE0048
:100080000C94AE000C94AE000C94AE000000000284
:1000900003000A0B0000000005040908000000002E
:1000A0000000000000000000000000000102040841
:1000B0001020408001020408102040800102040842
:1000C0001020408001020408102040800202020239
:1000D00002020202040404040404040403030303EC
:1000E00003030303010101010101010100002200DA
:1000F000250028002B0000002100240027002A00F2
:10010000C000AE06720ACC0011241FBECFEFD0E4AF
:10011000DEBFCDBF11E0A0E0B1E0ECE3F2E200E031
:100120000BBF02C007900D92A839B107D9F722E0A2
:10013000A8E9B1E001C01D92AF3FB207E1F710E0BE
:10014000C3E8D0E004C02197FE010E94760EC038BB
:10015000D107C9F70E94BD0C0C9411110C9400003A
:10016000DC01ED91FC910190F081E02D0994982F34
:1001700092959F708F702AE0929F800D11240895B0
:1001800069E071E08DEA91E00E94880B6FE071E018
:1001900087EA91E00C94880B87EA91E00E94160BA5
:1001A0008DEA91E00C94160BCF93DF9361E570E03C
:1001B00083EB91E00E942D0670E060E083EB91E01C
:1001C0000E94B00083EB91E00E94AB0646E050E055
:1001D00061E570E083EB91E00E94A80683EB91E07B
:1001E0000E94A0050E94B7008093980183EB91E0E4
:1001F0000E94A0058F770E94B700D82F83EB91E073
:100200000E94A0058F770E94B700C82F83EB91E072
:100210000E94A0050E94B70090E0B0E0A0E08093AB
:10022000990190939A01A0939B01B0939C0183EB59
:1002300091E00E94A0050E94B70024E6829FC001C1
:100240001124092E000CAA0BBB0B4091990150916F
:100250009A0160919B0170919C01840F951FA61FCC
:10026000B71F8093990190939A01A0939B01B0933B
:100270009C0183EB91E00E94A0050E94B70040E141
:1002800057E2849F9001859F300D1124032E000CAE
:10029000440B550B8091990190919A01A0919B017B
:1002A000B0919C01280F391F4A1F5B1FA0E1BEE0DF
:1002B0000E947F0EAB01BC012CE3C29FC001112440
:1002C000092E000CAA0BBB0B8D0F911DA11DB11D9A
:1002D000840F951FA61FB71F8093990190939A01D1
:1002E000A0939B01B0939C01DF91CF9108956F92F1
:1002F0007F928F929F92AF92BF92CF92DF92EF92B6
:10030000FF920F931F93CF93DF93CDB7DEB7CC50FF
:10031000D4400FB6F894DEBF0FBECDBFFE013196BC
:100320008E010F5F1B4F7F0111921192E017F107B1
:10033000D9F78091060120E4829FC00111248061D9
:1003400080937C0010927B0080917A008062809381
:100350007A0080917A00806480937A0080917A009C
:10036000846080937A0080917A00826080937A0022
:1003700080917A00816080937A0081E085B98091D4
:100380007A00806180937A0080917A0084FFFCCFAC
:100390008FE984B984E690E00E94740D8EE984B9F7
:1003A00080917A00806180937A0080917A0084FF46
:1003B000FCCF8FE984B900000000000000000000BD
:1003C0008EE984B980917A00806180937A0070EB25
:1003D000A72E73EBB72E99249394D12CC12CEFE95F
:1003E0007E2EFEE96F2E80917A0084FFFCCF83B0D1
:1003F00086E990E00E94740D74B887E090E00E9456
:10040000740D64B880917A00806180937A002091A5
:1004100078002093A0018091790080939F0130E8BB
:10042000839FC001112430E035952795822B932BB3
:100430008F3F910509F054F5939590939E01809319
:100440009D0190FE25C08FEFC81AD80AE1E0AE1AD0
:10045000B108982C41F62091070130910801C9019B
:100460000296FC01EE0FFF1FEE0DFF1D812C912C5B
:1004700054012C503F4F82179307C0F44191519182
:10048000840E951EA11CB11C0196F5CF9A95D5CF6F
:10049000E0919D01F0919E01EE0FFF1FEE0DFF1DFB
:1004A00080819181019691838083D0CF61E087E143
:1004B0000E94250E66E971E0CE01895F9B4F0E9484
:1004C000880B0E94D40062E471E0CE01895F9B4FEB
:1004D0000E94800C6091A5017091A6014AE0C801BC
:1004E0000E94D40BB801CE01895F9B4F0E94790C0A
:1004F000C8010E94160B69E671E0CE01895F9B4F2F
:100500000E94800C4091990150919A0160919B0149
:1005100070919C012AE0C8010E94000CB801CE0134
:10052000895F9B4F0E94790CC8010E94160B60E501
:1005300071E0CE01895F9B4F0E94800C4AE0609180
:100540009801C8010E94A70BB801CE01895F9B4F9B
:100550000E94790CC8010E94160B69E671E0CE0179
:10056000895F9B4F0E94800C4AE0B601C8010E943F
:10057000D40BB801CE01895F9B4F0E94790CC80152
:100580000E94160B69E671E0CE01895F9B4F0E94C5
:10059000800C2AE0B501A401C8010E94000CB8013A
:1005A000CE01895F9B4F0E94790CC8010E94160BF7
:1005B00080910701909108016C01F1E0CF1AD108F8
:1005C00081509048880F991FE80EF91E809107010D
:1005D000909108018D509F4FC816D906E0F469E646
:1005E00071E0CE01895F9B4F0E94800CF701619101
:1005F00071917F014AE0C8010E94D40BB801CE017D
:10060000895F9B4F0E94790CC8010E94160BFFEF77
:10061000CF1ADF0ADBCF8091A5019091A601019648
:100620009093A6018093A501BE01695F7B4F85E58C
:1006300092E00E94ED0A60E087E10E94250ECE0163
:10064000895F9B4F0E94160BC45FDB4F0FB6F89477
:10065000DEBF0FBECDBFDF91CF911F910F91FF90F5
:10066000EF90DF90CF90BF90AF909F908F907F9052
:100670006F900895FF920F931F93CF93DF93CDB7A1
:10068000DEB762970FB6F894DEBF0FBECDBF61E054
:1006900085E10E94E90D61E085E10E94250E64E696
:1006A00070E080E090E00E943B0D26E040E052ECDC
:1006B00061E070E085E592E00E94B00969E471E0D4
:1006C00085E592E00E94FF0A8091060120E4829F66
:1006D000C0011124806180937C0010927B00809186
:1006E0007A00806280937A0080917A00806480939F
:1006F0007A0080917A00846080937A0080917A00F9
:10070000826080937A0080917A00816080937A0081
:1007100061E080E00E94E90D8EE984B915B88CEFA4
:1007200081B912B89CEE97B918B88AB980E88BB92C
:1007300040EA56E861E070E083EB91E00E941F061A
:1007400061E085E10E94E90D61E085E10E94250EEE
:1007500064E670E080E090E00E943B0D62E571E0AD
:1007600085E592E00E94FF0A61E086E10E94E90DC2
:1007700061E086E10E94250E64E670E080E090E092
:100780000E943B0D58E0F52E8091060130E4839FD6
:10079000C0011124816180937C0062E370E080E0FD
:1007A00090E00E943B0D10927B0080917A00806265
:1007B00080937A0080917A00806480937A0080919F
:1007C0007A00846080937A0080917A0082608093BE
:1007D0007A0080917A00816080937A0080917A001B
:1007E000806180937A0080917A0084FFFCCF8091B1
:1007F0007A00806180937A00209178002093A00194
:100800008091790080939F0130E8839FC00111247B
:1008100030E035952795822B932B8F3F910511F072
:100820000CF082C1939590939E0180939D018091DD
:100830009D0190919E01080F191FFA94F110A4CF09
:1008400083E0169507958A95E1F7109308010093C8
:10085000070161E087E10E94E90D61E087E10E9404
:10086000250E64E670E080E090E00E943B0D61E5BB
:1008700070E083EB91E00E942D0663E283EB91E050
:100880000E94C30560E083EB91E00E94C30560E035
:1008900083EB91E00E94C30565E083EB91E00E9449
:1008A000C30560E083EB91E00E94C30560E083EB49
:1008B00091E00E94C30567E983EB91E00E94C305C4
:1008C00060E083EB91E00E94C30560E083EB91E080
:1008D0000E94C30583EB91E00E94AB0661E570E0E6
:1008E00083EB91E00E942D066FE270E083EB91E0D4
:1008F0000E94B0006CE270E083EB91E00E94B000D7
:1009000083EB91E00E94AB0661E570E083EB91E040
:100910000E942D0668E270E083EB91E00E94B00037
:1009200067E970E083EB91E00E94B00083EB91E017
:100930000E94AB0661E570E083EB91E00E942D061A
:1009400060E083EB91E00E94C30560E083EB91E0FF
:100950000E94C30560E083EB91E00E94C30560E064
:1009600083EB91E00E94C30560E083EB91E00E947D
:10097000C30560E083EB91E00E94C30560E083EB78
:1009800091E00E94C30583EB91E00E94AB06609169
:100990000701709108014AE0CE0101960E94D40B34
:1009A0006BE571E0CE0107960E94880B6DEA71E05D
:1009B000CE0107960E948F0C6BE671E00E94A20C9C
:1009C00069E671E00E94A20CBE016F5F7F4F0E943A
:1009D0008F0C69E671E00E94A20C67EA71E00E9448
:1009E0008F0C69E671E00E94A20CBC01CE010D964D
:1009F0000E94440CCE0107960E94160BCE01019670
:100A00000E94160B68E570E083EB91E00E942D06D2
:100A100068E070E083EB91E00E94B00070E060E07D
:100A200083EB91E00E94B00083EB91E00E94AB0663
:100A300040E168E583EB91E00E94A50610E183EBBD
:100A400091E00E94A005082F803130F46EE671E03D
:100A5000CE010D960E94800C40E1602FCE010196E0
:100A60000E94A70BBE016F5F7F4FCE010D960E94C3
:100A7000790CCE0101960E94160B8091A1019091F4
:100A8000A201A091A301B091A401800F911DA11D0D
:100A9000B11D8093A1019093A201A093A301B093F3
:100AA000A401115061F6BE01635F7F4F85E592E0BE
:100AB0000E94ED0A61E085E10E94E90D60E085E1B8
:100AC0000E94250E64E670E080E090E00E943B0DFD
:100AD00061E086E10E94E90D60E086E10E94250E5A
:100AE00064E670E080E090E00E943B0D61E087E109
:100AF0000E94E90D60E087E10E94250E64E670E047
:100B000080E090E00E943B0DCE010D960E94160BF6
:100B100062960FB6F894DEBF0FBECDBFDF91CF91C6
:100B20001F910F91FF9008959A957DCE90E080E0FF
:100B300008958091E3019091E401891B990B089538
:100B40009091E4018091E3012FEF3FEF981748F473
:100B5000E92FF0E0EB51FE4F208130E09F5F909352
:100B6000E401C9010895E091E4018091E301E817EF
:100B700030F4F0E0EB51FE4F808190E008958FEF6C
:100B80009FEF08950895CF93DF931F92CDB7DEB7FF
:100B900069832091BF012223F9F02091C001203206
:100BA00058F021E030E0FC013383228390E080E0C4
:100BB0000F90DF91CF9108958091C101E82FF0E06F
:100BC000EE53FE4F998190838F5F8093C101809394
:100BD000C00181E090E0ECCF61E0CE0101960E947F
:100BE0006207F7CFCF92DF92EF92FF920F931F939E
:100BF000CF93DF937C01CB018A012091BF01222397
:100C000089F0EB016B01C40ED51ECC15DD0569F032
:100C10006991D701ED91FC910190F081E02DC70120
:100C20000995F3CF642F0E946207C801DF91CF912D
:100C30001F910F91FF90EF90DF90CF900895CB011F
:100C4000BA010C94BF0681E08093BF016093E2017A
:100C50001092C1011092C00108950C9423060F93C5
:100C6000062F21E04091C00162EC71E08091E20129
:100C70000E9412071092C1011092C0011092BF0190
:100C80000F9108954F925F926F927F92AF92BF92B1
:100C9000CF92EF92FF920F931F93CF93DF935C015C
:100CA000F62ED42F28013901EE2019F10E942306D7
:100CB000CE2DC43008F0C3E0C150B8F028E0C29F88
:100CC000C0011124A301920104C0569547953795A0
:100CD00027958A95D2F7B901D501ED91FC91019044
:100CE000F081E02DC5010995E7CF60E0C5010E94C4
:100CF0002F064D2FD13208F040E22C2D65EE71E029
:100D00008F2D0E94D2061092E4018093E301DF91BF
:100D1000CF911F910F91FF90EF90CF90BF90AF9028
:100D20007F906F905F904F900895CF92EF920F93C6
:100D30001F93C22EE12C00E010E098010E944206B1
:100D40001F910F91EF90CF90089521E00C9495069C
:100D500021E00C94950661E00C942F06E3EBF1E0A2
:100D60001382128288EE93E0A0E0B0E08483958342
:100D7000A683B78384E791E09183808308959B01E4
:100D8000AC0160E074E284EF90E00E94540E2051C8
:100D90003109410951095695479537952795209373
:100DA000B80008954132E0F5909154029111FCCFC2
:100DB00091E090935402209352022FEF209305026A
:100DC00070934C0260934B0210924A02240F2093BE
:100DD00049029093530290915302880F892B80937C
:100DE0005302809151028130C9F4109251028091D6
:100DF00053028093BB008091BC0083FDF8CF85EC4B
:100E00008093BC00809154028130E1F380914A02CA
:100E1000841710F440914A02842F089585EEF0CF94
:100E200040E0FACF0F93413208F044C09091540251
:100E30009111FCCF92E090935402009352029FEFE5
:100E40009093050270934C0260934B0210924A02F9
:100E5000409349021092530290915302880F892BBC
:100E60008093530280915102813011F5109251020A
:100E7000809153028093BB008091BC0083FDF8CF2A
:100E800085EC8093BC00222321F0809154028230B3
:100E9000D1F3809105028F3F79F080910502803275
:100EA00069F080910502803359F084E00F91089534
:100EB00085EEE7CF81E0FACF80E0F8CF82E0F6CF91
:100EC00083E0F4CF20912702260F3327331F2132EE
:100ED0003105ECF420915402FC0190E080E02430D4
:100EE00069F082E00895A09127022191AC01475D4D
:100EF0005D4FA40FB52FB11D2C930196861798F363
:100F000080912702680F6093270280E0089581E0B6
:100F1000089585ED8093BC008091BC0084FDFCCFDA
:100F200010925402089585EC8093BC0010925402F4
:100F300008951F920F920FB60F9211240BB60F92C5
:100F40002F933F934F935F936F937F938F939F93D1
:100F5000AF93BF93EF93FF938091B900887F803662
:100F600009F44EC008F041C0883209F4AAC028F53F
:100F7000803109F49EC0C8F4882309F407C1883081
:100F800009F497C0FF91EF91BF91AF919F918F911D
:100F90007F916F915F914F913F912F910F900BBE79
:100FA0000F900FBE0F901F901895883109F489C0DB
:100FB000803241F78093050215C0803409F4A6C041
:100FC00048F48033B9F38833E9F6809305020E9430
:100FD0009307D8CF803509F489C0883509F49EC0BD
:100FE000883481F60E948907CDCF883909F494C0EE
:100FF00038F5883729F050F4883611F0803711F62B
:1010000083E0809354021092060257C0883809F496
:1010100083C0803919F0803809F0B4CF809106027E
:10102000803208F079C0E091060281E08E0F809353
:1010300006028091BB00F0E0E95FFD4F80833DC078
:10104000803B39F0E0F4803A09F485C0883A09F031
:1010500099CF84E0809354021092280210922702C4
:10106000E0914F02F0915002099580912702811181
:101070000FC081E0809327021092290209C0803CB2
:1010800009F482C0883C09F47FC0883B09F07ACF1C
:10109000E091280281E08E0F80932802F0E0E75D66
:1010A000FD4F80818093BB009091280280912702A0
:1010B00031C0809153028093BB0085EC8093BC00CB
:1010C00061CF90914A02809149029817B8F58091BA
:1010D0004B0290914C02E0914A0221E02E0F2093A6
:1010E0004A02E80FF92FF11D8081E5CF20914B02D4
:1010F00030914C02E0914A0281E08E0F80934A02C7
:101100008091BB00E20FF32FF11D808390914A0282
:1011100080914902981788F285E8D0CF20914B0240
:1011200030914C02E0914A0281E08E0F80934A0296
:101130008091BB00E20FF32FF11D8083809152025A
:10114000811150CF81E08093510284EA8093BC00EA
:101150001092540217CF0E949307809106028032AA
:1011600030F4E0910602F0E0E95FFD4F10826091FB
:10117000060270E0E0914D02F0914E0287E092E0AD
:10118000099510920602FECE85ECE0CF1092050282
:1011900029CFFC01918D228D892F90E0805C9F4F9B
:1011A000821B91098F7399270895FC01918D828D7F
:1011B000981731F0828DE80FF11D858D90E008952C
:1011C0008FEF9FEF0895FC01918D828D981761F04C
:1011D000A28DAE0FBF2FB11D5D968C91928D9F5F3A
:1011E0009F73928F90E008958FEF9FEF0895FC0119
:1011F000538D448D252F30E0842F90E0821B930B7C
:10120000541710F0CF9608950197089588E69AE054
:10121000892B49F080E090E0892B29F00E94680A30
:1012200081110E94000080E090E0892B49F080E06D
:1012300090E0892B29F00E94000081110C9400009D
:101240000895FC01A48DA80FB92FB11DA35ABF4F5B
:101250002C91848D90E001968F739927848FA689B5
:10126000B7892C93A089B1898C91837080648C9309
:10127000938D848D981306C00288F389E02D8081B8
:101280008F7D80830895CF93DF93EC01888D882331
:10129000B9F0AA89BB89E889F9898C9185FD03C0D9
:1012A000808186FD0DC00FB607FCF7CF8C9185FFBE
:1012B000F2CF808185FFEDCFCE010E942109E9CFD9
:1012C000DF91CF910895EF92FF920F931F93CF93E9
:1012D000DF93EC0181E0888F9B8D8C8D98131AC071
:1012E000E889F989808185FF15C09FB7F894EE8958
:1012F000FF896083E889F9898081837080648083B5
:101300009FBF81E090E0DF91CF911F910F91FF90FF
:10131000EF900895F62E0B8D10E00F5F1F4F0F73A7
:101320001127E02E8C8D8E110CC00FB607FCFACF62
:10133000E889F989808185FFF5CFCE010E942109D6
:10134000F1CFEB8DEC0FFD2FF11DE35AFF4FF08233
:101350009FB7F8940B8FEA89FB8980818062CFCF99
:10136000CF92DF92EF92FF921F93CF93DF93EC0126
:101370006A017B01122FE889F98982E08083C11418
:1013800081EED806E104F104A1F060E079E08DE39C
:1013900090E0A70196010E94540E215031094109A5
:1013A00051095695479537952795211580E13807BE
:1013B00098F0E889F989108260E874E88EE190E09D
:1013C000A70196010E94540E21503109410951098B
:1013D0005695479537952795EC85FD853083EE85A5
:1013E000FF852083188EEC89FD891083EA89FB89AB
:1013F000808188698083EA89FB8980818F7D8083F1
:10140000DF91CF911F91FF90EF90DF90CF900895E3
:101410001F920F920FB60F9211240BB60F922F93BB
:101420008F939F93EF93FF93E0916502F091660293
:101430008081E0916B02F0916C0282FD1DC0908171
:1014400080916E028F5F8F7320916F02821741F03F
:10145000E0916E02F0E0EB5AFD4F958F80936E02A3
:10146000FF91EF919F918F912F910F900BBE0F9055
:101470000FBE0F901F9018958081F2CF1F920F9290
:101480000FB60F9211240BB60F922F933F934F93E9
:101490005F936F937F938F939F93AF93BF93EF93DC
:1014A000FF9385E592E00E942109FF91EF91BF91A2
:1014B000AF919F918F917F916F915F914F913F91EC
:1014C0002F910F900BBE0F900FBE0F901F9018958D
:1014D00085E592E00E94C90821E0892B09F420E00B
:1014E000822F0895E5E5F2E01382128288EE93E000
:1014F000A0E0B0E084839583A683B78386E891E07B
:101500009183808385EC90E09587848784EC90E0DC
:101510009787868780EC90E0918B808B81EC90E0C0
:10152000938B828B82EC90E0958B848B86EC90E0A1
:10153000978B868B118E128E138E148E0895AF9218
:10154000BF92CF92DF92EF92FF920F931F93CF93B0
:10155000DF936C017B018B01040F151FEB015E0112
:10156000AE18BF08C017D10759F06991D601ED91A7
:10157000FC910190F081E02DC6010995892B79F746
:10158000C501DF91CF911F910F91FF90EF90DF90F8
:10159000CF90BF90AF900895FB0101900020E9F734
:1015A0003197AF01461B570BDC01ED91FC91028096
:1015B000F381E02D0994DB0114964D915C91159710
:1015C0006D917C91DC01ED91FC910280F381E02D25
:1015D000099464E971E00C94CC0A0F931F93CF93A4
:1015E000DF93EC010E94DB0A8C01CE010E94E90A24
:1015F000800F911FDF91CF911F910F9108950F934D
:101600001F93CF93DF938C01D0E0C0E0611571058B
:1016100019F00E94CC0AEC01C8010E94E90A8C0F63
:101620009D1FDF91CF911F910F910895FC01808143
:101630009181009711F00C94350F0895CF93DF93AB
:10164000EC0188819981009711F00E94350F198271
:1016500018821D821C821B821A82DF91CF9108950D
:101660000F931F93CF93DF93EC018B016F5F7F4F3D
:10167000888199810E94BE0F009751F099838883D9
:101680001B830A8381E0DF91CF911F910F91089511
:1016900080E0F9CFCF93DF93EC0188819981892B8A
:1016A00049F08A819B818617970720F081E0DF91BE
:1016B000CF910895CE010E94300B8823C1F38C8115
:1016C0009D81892B99F7E881F9811082EFCFEF9204
:1016D000FF920F931F93CF93DF93EC017B018A015D
:1016E000BA010E944A0B81110BC0CE010E941E0B51
:1016F000CE01DF91CF911F910F91FF90EF90089550
:101700001D830C83B701888199810E94A810F0CFB6
:10171000FC011182108213821282158214826115DB
:10172000710551F0FB0101900020E9F73197AF01FD
:10173000461B570B0C94670B0895FB01019000208A
:10174000E9F73197AF01461B570B0C94670B0F93CA
:101750001F93CF93DF93CDB7DEB729970FB6F894D9
:10176000DEBF0FBECDBF8C01862FF8011182108223
:10177000138212821582148250E0BE016F5F7F4F88
:1017800090E00E94DC10BE016F5F7F4FC8010E9495
:101790009D0B29960FB6F894DEBF0FBECDBFDF912B
:1017A000CF911F910F9108950F931F93CF93DF93C4
:1017B000CDB7DEB761970FB6F894DEBF0FBECDBFD1
:1017C0008C01CB01F80111821082138212821582E2
:1017D000148250E0BE016F5F7F4F0E94DC10BE019B
:1017E0006F5F7F4FC8010E949D0B61960FB6F89402
:1017F000DEBF0FBECDBFDF91CF911F910F91089536
:101800000F931F93CF93DF93CDB7DEB7A1970FB69A
:10181000F894DEBF0FBECDBF8C01CB01BA01F80139
:1018200011821082138212821582148230E0AE017E
:101830004F5F5F4F0E94AF10BE016F5F7F4FC801C7
:101840000E949D0BA1960FB6F894DEBF0FBECDBFD0
:10185000DF91CF911F910F910895CF93DF93EC010A
:10186000FB018617970749F0608171816115710549
:1018700041F0448155810E94670BCE01DF91CF91E9
:1018800008950E941E0BF9CFFC0111821082138271
:101890001282158214820C942D0CEF92FF920F93FA
:1018A0001F93CF93DF936115710541F480E0DF91C1
:1018B000CF911F910F91FF90EF9008954115510521
:1018C000B1F07B01EC010C811D81040F151FB801E3
:1018D0000E944A0B882351F3288139818C819D8194
:1018E000B701820F931F0E94A8101D830C8381E013
:1018F000DECFFB0144815581608171810C944D0CD8
:101900006115710551F0FB0101900020E9F7319755
:10191000AF01461B570B0C944D0C80E00895CF93FC
:10192000DF93EC01FB0144815581608171810E944C
:101930004D0C811103C0CE010E941E0BCE01DF9120
:10194000CF910895CF93DF93EC016115710539F4C0
:10195000CE010E941E0BCE01DF91CF910895FB01B5
:1019600001900020E9F73197AF01461B570B0E9409
:101970004D0C882369F3EFCF08950E947F0D0E94DC
:10198000BC0C0E943A03C6E0D9E00E947701209780
:10199000E1F30E940609F9CF1F920F920FB60F9242
:1019A00011242F933F938F939F93AF93BF93809175
:1019B000F7029091F802A091F902B091FA023091E9
:1019C000F60223E0230F2D3768F126E8230F029655
:1019D000A11DB11D2093F6028093F7029093F802A7
:1019E000A093F902B093FA028091F2029091F3026F
:1019F000A091F402B091F5020196A11DB11D809352
:101A0000F2029093F302A093F402B093F502BF9117
:101A1000AF919F918F913F912F910F900FBE0F909B
:101A20001F9018950196A11DB11DD4CF3FB7F89412
:101A30008091F2029091F302A091F402B091F5022C
:101A400026B5A89B05C02F3F19F00196A11DB11D19
:101A50003FBFBA2FA92F982F8827BC01CD01620F55
:101A6000711D811D911D42E0660F771F881F991F10
:101A70004A95D1F708958F929F92AF92BF92CF92DD
:101A8000DF92EF92FF926B017C010E94160D4B01D9
:101A90005C01C114D104E104F104E9F00E94530E89
:101AA0000E94160D681979098A099B09683E7340DE
:101AB0008105910570F321E0C21AD108E108F1080F
:101AC00088EE880E83E0981EA11CB11CC114D104BD
:101AD000E104F10429F7FF90EF90DF90CF90BF90E1
:101AE000AF909F908F9008958230910538F0880FC5
:101AF000991F880F991F05970197F1F7089578941A
:101B000084B5836084BD85B5836085BDEEE6F0E075
:101B1000808181608083E1E8F0E082E080838081E1
:101B200081608083E0E8F0E0808181608083E1EB88
:101B3000F0E0808184608083E0EBF0E08081816070
:101B40008083E1E9F0E0808183608083E0E9F0E078
:101B500080818160808387E880937A001092C10041
:101B6000089582508A3088F5E82FF0E0E654F24F6D
:101B70000C94760EE20DE60DC40DCA0DE50DE50DD3
:101B8000CE0DD40DD80DDE0D809180008F7780931F
:101B900080000895809180008F7DF9CF8091B00002
:101BA0008F778093B00008958091B0008F7DF9CF3A
:101BB000809190008F77809390000895809190009D
:101BC0008F7DF9CF84B58F7784BD089584B58F7DDF
:101BD000FBCFCF93DF9390E0FC01E455FF4F2491BE
:101BE00084539F4FFC0184918823C9F090E0880FB3
:101BF000991FFC01EA50FF4FA591B491FC01E451FB
:101C0000FF4FC591D49161110DC09FB7F8948C918D
:101C1000209582238C938881282328839FBFDF917E
:101C2000CF910895623051F49FB7F8943C91822F80
:101C3000809583238C93E8812E2BEFCF8FB7F89478
:101C4000EC912E2B2C938FBFEACF1F93CF93DF9372
:101C5000282F30E0F901E457FF4F8491F901E45552
:101C6000FF4FD491F901E453FF4FC491CC23A9F065
:101C7000162F81110E94B10DEC2FF0E0EE0FFF1F27
:101C8000E451FF4FA591B4918FB7F894EC911111E5
:101C900008C0D095DE23DC938FBFDF91CF911F91D9
:101CA0000895DE2BF8CF0895A1E21A2EAA1BBB1BC4
:101CB000FD010DC0AA1FBB1FEE1FFF1FA217B30718
:101CC000E407F50720F0A21BB30BE40BF50B661F2E
:101CD000771F881F991F1A9469F7609570958095F2
:101CE00090959B01AC01BD01CF010895EE0FFF1F40
:101CF0000024001C0BBE0790F691E02D09940E9471
:101D00008A0EA59F900DB49F900DA49F800D911DEC
:101D100011240895A29FB001B39FC001A39F700D2D
:101D2000811D1124911DB29F700D811D1124911DE3
:101D300008950F931F93CF93DF938230910510F492
:101D400082E090E0E091FD02F091FE0230E020E0C0
:101D5000B0E0A0E0309799F42115310509F44AC0AC
:101D6000281B390B24303105D8F58A819B816115F8
:101D7000710589F1FB0193838283FE0111C04081CB
:101D800051810281138148175907E0F0481759071C
:101D900099F4109761F012960C93129713961C9376
:101DA0003296CF01DF91CF911F910F91089500934B
:101DB000FD021093FE02F4CF2115310551F04217B8
:101DC000530738F0A901DB019A01BD01DF01F801D9
:101DD000C1CFEF01F9CF9093FE028093FD02CDCFEA
:101DE000FE01E20FF31F8193919322503109398351
:101DF0002883D7CF2091FB023091FC02232B41F4A2
:101E000020910201309103013093FC022093FB02E8
:101E100020910001309101012115310541F42DB7C8
:101E20003EB74091040150910501241B350BE09110
:101E3000FB02F091FC02E217F307A0F42E1B3F0B0C
:101E40002817390778F0AC014E5F5F4F241735072C
:101E500048F04E0F5F1F5093FC024093FB028193AA
:101E600091939FCFF0E0E0E09CCFCF93DF9300977A
:101E7000E9F0FC01329713821282A091FD02B09129
:101E8000FE02ED0130E020E01097A1F420813181C5
:101E9000820F931F2091FB023091FC022817390713
:101EA00009F061C0F093FC02E093FB02DF91CF9157
:101EB0000895EA01CE17DF07E8F54A815B819E01AC
:101EC00041155105B1F7E901FB83EA834991599125
:101ED000C40FD51FEC17FD0761F480819181029634
:101EE000840F951FE90199838883828193819B8365
:101EF0008A83F0E0E0E012968D919C911397009711
:101F0000B9F52D913C911197CD010296820F931F47
:101F10002091FB023091FC022817390739F63097DF
:101F200051F51092FE021092FD02B093FC02A093B4
:101F3000FB02BCCFD383C28340815181840F951FA4
:101F4000C817D90761F44E5F5F4F88819981480FA8
:101F5000591F518340838A819B81938382832115FA
:101F6000310509F0B0CFF093FE02E093FD029ECF61
:101F7000FD01DC01C0CF13821282D7CF4F925F9256
:101F80006F927F928F929F92AF92BF92CF92DF9289
:101F9000EF92FF920F931F93CF93DF938C010097E3
:101FA00099F4CB01DF91CF911F910F91FF90EF90AA
:101FB000DF90CF90BF90AF909F908F907F906F9069
:101FC0005F904F900C94990EFC01E60FF71F9C0157
:101FD00022503109E217F30708F4AEC0D901CD91C0
:101FE000DC911197C617D70720F1C530D10578F0DD
:101FF000CE0104978617970750F0C61BD70B229780
:10200000C193D1936D937C93CF010E94350FC8018A
:10201000DF91CF911F910F91FF90EF90DF90CF90C4
:10202000BF90AF909F908F907F906F905F904F90F8
:1020300008955B01AC1ABD0A4C018C0E9D1EA09147
:10204000FD02B091FE02512C412CF12CE12C109795
:1020500031F58091FB029091FC028815990509F0F9
:102060005CC04616570608F058C080910001909158
:102070000101009741F48DB79EB740910401509142
:102080000501841B950BE817F90708F055C0F0937C
:10209000FC02E093FB02F90171836083B8CF8D915C
:1020A0009C91119712966C90129713967C901397AF
:1020B000A815B90559F56C0142E0C40ED11CCA142B
:1020C000DB0420F1AC014A195B09DA01129615977D
:1020D00080F06282738251834083D9016D937C9337
:1020E000E114F10471F0D7011396FC93EE9312976B
:1020F0008ECF22968C0F9D1FF90191838083F3016F
:10210000EFCFF093FE02E093FD0281CF481659060F
:1021100008F42C017D01D3019ACFCB010E94990EC6
:102120007C01009749F0AE01B8010E949F10C801E0
:102130000E94350F87016BCF10E000E068CFFB01F4
:10214000DC0102C001900D9241505040D8F7089533
:10215000FB01DC0101900D920020E1F7089525328A
:10216000310520F4223010F00C94BA10FA011082DC
:10217000CA010895BB27FA01A62F621771058105D0
:102180009105330B30FB66F0AA27660F771F881F77
:10219000991FAA1FA21710F0A21B63953850A9F728
:1021A000A05DAA3308F0A95DA19336F7B111B193F0
:1021B0001082CA010C9401114532510520F44230BD
:1021C00010F00C94E710FB011082CB010895BB279F
:1021D000FB015527AA27880F991FAA1FA41710F0E3
:1021E000A41B83955051B9F7A05DAA3308F0A95DEF
:1021F000A193009779F7B111B1931192CB010C948F
:102200000111DC01FC01672F71917723E1F732970F
:1022100004C07C916D9370836291AE17BF07C8F3C1
:10222000089510E0C3E8D0E004C0FE010E94760EDD
:102230002196C438D107C9F7F894FFCF0000FF02F8
:1022400080000300014C3234345F0035376537318C
:102250003030616331373336313562366332656130
:102260003862653833343634663836356635343658
:102270003733372C43495F616374696F6E002448BC
:102280004953542C00234376616B2E2E2E00234895
:102290006D6D6D2E2E2E0024444F532C4C41424424
:1022A0004F533031412C003033003000000000002B
:1022B000C305F2059605C2059905A005B305000002
:1022C000000063099F0AF7084309C908E308D50815
:0422D0000D0A0000F3
:020000040001F9
:10FC000002C0F3C03BC1112484B790E89093610017
:10FC100010926100882369F0982F9A70923049F011
:10FC200081FF02C097EF94BF282E80E001D10C9491
:10FC3000000085E08093810082E08093C00088E12D
:10FC40008093C10080E18093C40086E08093C2006D
:10FC50008EE0EED0209A84E020E33CEF91E03093F8
:10FC600085002093840096BBB09BFECF189AA89580
:10FC70004091C00047FD02C0815089F7CDD081344A
:10FC800079F4CAD0C82FDAD0C23811F480E004C0A9
:10FC900088E0C13809F083E0B8D080E1B6D0EECF7B
:10FCA000823419F484E1D2D0F8CF853411F485E0A0
:10FCB000FACF853581F4B0D0E82EAED0F82E87FF8C
:10FCC00007C08BB781608BBFEE0CFF1CB7D0E5CFB0
:10FCD0008BB78E7FF8CF863579F49ED08D3451F472
:10FCE0009BD0CBB799D0C170880F8C2B8BBF81E094
:10FCF000ADD0CCCF83E0FCCF843609F045C08CD0AA
:10FD0000C82FD0E0DC2FCC2787D0C82B85D0D82EA9
:10FD10005E01B39400E011E04801EFEF8E1A9E0AF5
:10FD20007BD0F801808384018A149B04A9F786D0D4
:10FD3000F5E410E000E0DF1609F150E040E063E098
:10FD4000C70153D08701C12CDD24D394F601419122
:10FD500051916F0161E0C80148D00E5F1F4F22979B
:10FD6000A9F750E040E065E0C7013FD096CF608141
:10FD7000C8018E0D9F1D02D10F5F1F4FF801F39533
:10FD8000C017D107A1F789CF843701F545D0C82F17
:10FD9000D0E0DC2FCC2740D0C82B3ED0D82E4ED080
:10FDA0008701F5E4DF120BC0CE0DDF1DC801DED0E8
:10FDB0002CD00F5F1F4FC017D107C1F76ECFF801CE
:10FDC00087918F0122D02197D1F767CF853739F4FA
:10FDD00035D08EE11AD087E918D085E05DCF813526
:10FDE00009F074CF88E024D071CFFC010A0167BF0D
:10FDF000E895112407B600FCFDCF667029F0452B6D
:10FE000019F481E187BFE89508959091C00095FFAE
:10FE1000FCCF8093C60008958091C00087FFFCCF7F
:10FE20008091C00084FD01C0A8958091C60008950E
:10FE3000E0E6F0E098E1908380830895EDDF803282
:10FE400019F088E0F5DFFFCF84E1DFCFCF93C82F33
:10FE5000E3DFC150E9F7CF91F1CFCF92DF92EF927C
:10FE6000FF92DC01CB01642F6D01EE24FF24CBBE99
:10FE7000A901FF90EF90DF90CF90B7CF2F923F92E4
:10FE80004F925F926F927F928F929F92AF92BF92AA
:10FE9000CF92DF92EF92FF920F931F93CF93DF9356
:10FEA00000D01F92CDB7DEB71801E9826B017C014B
:10FEB00010E000E029013A014C185D086E087F0847
:10FEC00046015701840C951CA61CB71C021513058E
:10FED00031F489818823A1F188E0AADFFFCF30E0E7
:10FEE00020E043E0C701B601B8DF80E890E09B83E3
:10FEF0008A83ABBEF40127913691C501B401641920
:10FF000075098609970941E0A8DF8A819B810197DD
:10FF10009B838A8392E0890E911CA11CB11C8A816B
:10FF20009B81892B31F730E020E045E0C701B60125
:10FF300094DF9FEFD91AE90AF90A0F5F1F4FC0CF6C
:10FF40000F900F900F90DF91CF911F910F91FF9025
:10FF5000EF90DF90CF90BF90AF909F908F907F9069
:10FF60006F905F904F903F902F900895F999FECF3A
:10FF700092BD81BDF89A992780B50895262FF999E9
:10FF8000FECF1FBA92BD81BD20BD0FB6F894FA9A7C
:08FF9000F99A0FBE01960895D5
:02FFFE000008F9
:00000001FF
