:020000040000FA
:100000000C9485000C94AF000C94AF000C94AF00DE
:100010000C94AF000C94AF000C94AF000C94AF00A4
:100020000C94AF000C94AF000C94AF000C94AF0094
:100030000C94AF000C94AF000C94AF000C94AF0084
:100040000C94AF000C94AF000C94760F0C94AF009E
:100050000C94880C0C94BE0C0C94AF000C94AF0064
:100060000C94AF000C94AF000C942C0A0C94AF00CD
:100070000C94AF000C94AF000C94AF000C94AF0044
:100080000C94AF000C94AF000C94AF000000000281
:1000900003000A0B0000000005040908000000002E
:1000A0000000000000000000000000000102040841
:1000B0001020408001020408102040800102040842
:1000C0001020408001020408102040800202020239
:1000D00002020202040404040404040403030303EC
:1000E00003030303010101010101010100002200DA
:1000F000250028002B0000002100240027002A00F2
:100100005C0213063209F20C680211241FBECFEF05
:10011000D0E4DEBFCDBF11E0A0E0B1E0E0E9F8E25D
:1001200000E00BBF02C007900D92A03AB107D9F7CB
:1001300023E0A0EAB1E001C01D92A533B207E1F7C8
:1001400010E0C4E8D0E004C02197FE010E947711BE
:10015000C038D107C9F70E94670F0C943B140C9468
:1001600000004F925F926F927F928F929F92AF9218
:10017000BF92CF92DF92EF92FF920F931F93CF9394
:10018000DF93CDB7DEB7CC50D8400FB6F894DEBFC2
:100190000FBECDBFFE0131968E010F5F174F7F015D
:1001A00011921192E017F107D9F78091060120E42E
:1001B000829FC0011124806180937C0010927B009B
:1001C00080917A00806280937A0080917A008064C6
:1001D00080937A0080917A00846080937A00809185
:1001E0007A00826080937A0080917A0081608093A7
:1001F0007A0081E085B980917A00806180937A00ED
:1002000080917A0084FFFCCF8FE984B984E690E086
:100210000E941E108EE984B980917A0080618093DB
:100220007A0080917A0084FFFCCF8FE984B90000C6
:1002300000000000000000008EE984B980917A007F
:10024000806180937A0060EBC62E63EBD62E7FE947
:10025000B72EEEE9AE2E80917A0084FFFCCF8DE0C0
:1002600090E00E941E10B4B887E090E00E941E103B
:10027000A4B880917A00806180937A009091780090
:100280009093B501809179008093B40189279827D4
:1002900089278115E2E09E0708F03FC09E5F90939A
:1002A000B3018093B201E091B201F091B301EE0F7E
:1002B000FF1FEE0DFF1D8081918101969183808348
:1002C000F1E0CF1AD10839F650E040E060EA71E081
:1002D00088EC91E00E942B0780EA91E00E948B0459
:1002E0002B013C012091070130910801C9010396BF
:1002F000FC01EE0FFF1FEE0DFF1D812C912C540110
:100300002C503E4F8217930750F441915191840E27
:10031000951EA11CB11C0196F5CF9250C0CF61E093
:1003200087E10E94CF106EE971E0CE01895F974F9F
:100330000E94050E64E371E0CE01895F974F0E9431
:100340002A0F6091BA017091BB014AE0C8010E9476
:10035000510EB801CE01895F974F0E94230FC8014B
:100360000E94960D6BE671E0CE01895F974F0E9467
:100370002A0FB301A201405853446D4678432AE046
:10038000C8010E947D0EB801CE01895F974F0E947F
:10039000230FC8010E94960D6BE671E0CE01895FC4
:1003A000974F0E942A0F4AE070E060E0C8010E9467
:1003B000510EB801CE01895F974F0E94230FC801EB
:1003C0000E94960D6BE671E0CE01895F974F0E9407
:1003D0002A0F2AE0B501A401C8010E94AA0EB801A3
:1003E000CE01895F974F0E94230FC8010E94960D8E
:1003F00080910701909108016C0121E0C21AD10897
:1004000081509048880F991FE80EF91E80910701CE
:10041000909108018D509E4FC816D906E0F46BE606
:1004200071E0CE01895F974F0E942A0FF701619119
:1004300071917F014AE0C8010E94510EB801CE01BE
:10044000895F974F0E94230FC8010E94960DFFEF0E
:10045000CF1ADF0ADBCF8091BA019091BB010196E0
:100460009093BB018093BA01BE01695F774F8BE81F
:1004700092E00E946D0D60E087E10E94CF10CE01F6
:10048000895F974F0E94960DC45FD74F0FB6F894BF
:10049000DEBF0FBECDBFDF91CF911F910F91FF90B7
:1004A000EF90DF90CF90BF90AF909F908F907F9014
:1004B0006F905F904F9008956BE371E082EC91E054
:1004C0000E94050E63E471E08CEB91E00C94050E44
:1004D0008CEB91E00E94960D82EC91E00C94960DCD
:1004E000FF920F931F93CF93DF93CDB7DEB7629741
:1004F0000FB6F894DEBF0FBECDBF61E085E10E946C
:10050000931061E085E10E94CF1064E670E080E026
:1005100090E00E94E50F26E040E052EC61E070E0E0
:100520008BE892E00E94300C6BE471E08BE892E083
:100530000E947F0D8091060120E4829FC00111245A
:10054000806180937C0010927B0080917A008062B1
:1005500080937A0080917A00806480937A00809101
:100560007A00846080937A0080917A008260809320
:100570007A0080917A00816080937A0061E080E067
:100580000E9493108EE984B915B88CEF81B912B826
:100590009CEE97B918B88AB980E88BB940EA56E85A
:1005A00061E070E08BEC91E00E94A60861E085E1DB
:1005B0000E94931061E085E10E94CF1064E670E034
:1005C00080E090E00E94E50F64E571E08BE892E046
:1005D0000E947F0D61E086E10E94931061E086E158
:1005E0000E94CF1064E670E080E090E00E94E50F8A
:1005F00098E0F92E8091060120E4829FC001112429
:10060000816180937C0062E370E080E090E00E9472
:10061000E50F10927B0080917A00806280937A00CF
:1006200080917A00806480937A0080917A0084605F
:1006300080937A0080917A00826080937A00809122
:100640007A00816080937A0080917A008061809343
:100650007A0080917A0084FFFCCF80917A008061DB
:1006600080937A00909178009093B5018091790001
:100670008093B401892798278927811522E0920762
:1006800008F0F9C09E5F9093B3018093B20180910E
:10069000B2019091B301080F191FFA94F110AACF7B
:1006A00083E0169507958A95E1F71093080100936A
:1006B000070161E087E10E94931061E087E10E94F9
:1006C000CF1064E670E080E090E00E94E50F60915A
:1006D0000701709108014AE0CE0101960E94510E77
:1006E0006DE571E0CE0107960E94050E6CEB71E09E
:1006F000CE0107960E94390F6BE671E00E944C0F05
:10070000BE016F5F7F4F0E94390F6BE671E00E9460
:100710004C0F62EC71E00E94390F6BE671E00E94B1
:100720004C0FBC01CE010D960E94EE0ECE01079635
:100730000E94960DCE0101960E94960D68E570E02C
:100740008BEC91E00E94B40868E08BEC91E00E9491
:100750004A0860E08BEC91E00E944A088BEC91E043
:100760000E942F0940E168E58BEC91E00E942C0982
:1007700010E18BEC91E00E942708082F803130F4C3
:100780006DE671E0CE010D960E942A0F40E1602FC8
:10079000CE0101960E94240EBE016F5F7F4FCE01F5
:1007A0000D960E94230FCE0101960E94960D809116
:1007B000B6019091B701A091B801B091B901800F35
:1007C000911DA11DB11D8093B6019093B701A09317
:1007D000B801B093B901115061F6BE01635F7F4F5C
:1007E0008BE892E00E946D0D61E085E10E9493101C
:1007F00060E085E10E94CF1064E670E080E090E068
:100800000E94E50F61E086E10E94931060E086E1BE
:100810000E94CF1064E670E080E090E00E94E50F57
:1008200061E087E10E94931060E087E10E94CF10B1
:1008300064E670E080E090E00E94E50F26E04FE67D
:1008400051E062E771E088EC91E00E94420688EC9A
:1008500091E00E943406CE010D960E94960D62969C
:100860000FB6F894DEBF0FBECDBFDF91CF911F91C1
:100870000F91FF900895925006CFCF93DF93CDB79D
:10088000DEB72D970FB6F894DEBF0FBECDBF2DE0BB
:10089000E9E0F1E0DE01119601900D922A95E1F771
:1008A000623021F483709927892B81F0E1E0F0E038
:1008B000EC0FFD1FE60FF11D80812D960FB6F89409
:1008C000DEBF0FBECDBFDF91CF9108958DE1F5CF93
:1008D000DF92EF92FF920F931F93CF93DF937C01F0
:1008E000D62E142F61E0D0E0C0E06D1548F401E091
:1008F000060FC7010E943D04C80FD11D602FF5CF20
:10090000CE01810F911DDF91CF911F910F91FF902B
:10091000EF90DF9008957F928F929F92AF92BF9257
:10092000CF92DF92EF92FF920F931F93CF93DF93BB
:10093000EC01888199816CE370E00E9422112A8188
:100940003B81620F731F7B836A8397FD33C099835A
:1009500088838A819B816CE370E00E9422112C8144
:100960003D81620F731F7D836C8397FD2BC09B833A
:100970008A838C819D8168E170E00E9422112E8122
:100980003F81620F731F7F836E8397FD23C09D831A
:100990008C83888599850C9740F48E819F813BE0FC
:1009A000A32EB12C18161906FCF0CC24CA94DC2C0A
:1009B0007601D4C0CC9699838883615071097B837A
:1009C0006A83C7CFCC969B838A83615071097D83EC
:1009D0006C83CFCF48969D838C83615071097F8350
:1009E0006E83D7CFD986C886C884D9847724739478
:1009F0007C0C0A851B85480184E9881A88EF980ACF
:100A0000672DC4010E943D04EE80FF8090E08E15AA
:100A10009F0594F4E81AF90AFF82EE828FEFC81A54
:100A2000D80A8CE0C816D104E9F6198618860F5F3B
:100A30001F4F1B870A87D8CF1E141F04DCF081E0EC
:100A4000C81AD10880F0D986C88668856F5F8A8504
:100A50009B858459984F0E943D048E0D9F2D911DBA
:100A60009F838E83C1CFB986A886015011091B8749
:100A70000A87EBCF4E2D672DC4010E946804FC014C
:100A80003197FF87EE8706548DE691E0089F90012D
:100A9000099F300D1124032E000C440B550B802FA1
:100AA00086958695280F311D411D511D60E871E521
:100AB00081E090E00E94FE100370C12CD12C7601E1
:100AC000033039F420E8C22E21E5D22EEE24E3943F
:100AD000F12CC60ED71EE81EF91EDF0120E831E515
:100AE00041E050E00E949211C60ED71EE81EF91E8A
:100AF000AC81BD8120E13EE00E948011C60ED71E70
:100B0000E81EF91E2A813B814CE3429FC001439FAE
:100B1000900D1124C80ED91EE11CF11C8881998109
:100B2000092E000CAA0BBB0BC80ED91EEA1EFB1E19
:100B3000C701B60120E831E541E050E00E945811BC
:100B4000CA01B9016C5F7F4F8F4F9F4F27E030E0A4
:100B500040E050E00E9436117D876C87C701B601E6
:100B6000DF91CF911F910F91FF90EF90DF90CF9089
:100B7000BF90AF909F908F907F900895982F9295FF
:100B80009F708F702AE0929F800D11240895CF935B
:100B9000DF93CDB7DEB76E970FB6F894DEBF0FBE0A
:100BA000CDBF9C018FE0E6E1F1E0DE0150960190BF
:100BB0000D928A95E1F78FE0E5E2F1E0DE01119612
:100BC00001900D928A95E1F7F901A181B28195E03A
:100BD0009A9FF0019B9FF00D1124A1E0B0E0AC0FB3
:100BE000BD1FEA0FFB1FE60FF71F8081FA0180830C
:100BF000D90111962D913C91929FF001939FF00D98
:100C0000112481E090E08C0F9D1FE80FF91FE60F83
:100C1000F71F87856E960FB6F894DEBF0FBECDBF67
:100C2000DF91CF910895E8ECF1E088E680831282AD
:100C300011820895CF93DF93D62FC42FFC016081DA
:100C40008BEC91E00E94AA086D2F8BEC91E00E9442
:100C50004A086C2F8BEC91E00E944A088BEC91E0E3
:100C6000DF91CF910C942F09FC0121813281223038
:100C7000310531F44CE26FE20E941A0681E00895DA
:100C800080E008958F929F92AF92BF92CF92DF92B1
:100C9000EF92FF920F931F93CF93DF934C017B0151
:100CA0008A01C22ED12CD0E0C0E0CC15DD05E9F1DF
:100CB0005801F80160818BEC91E00E94AA0860E085
:100CC0008BEC91E00E944A088BEC91E00E942F0986
:100CD00041E0F80161918F018BEC91E00E942C09B9
:100CE0008BEC91E00E9420089E012F5F3F4F892BE3
:100CF000D1F0CC0FDD1FCE0DDF1D88819981F5016C
:100D00002081F40120839283818381E0DF91CF9160
:100D10001F910F91FF90EF90DF90CF90BF90AF9019
:100D20009F908F900895E901C0CF80E0EFCF1F938F
:100D3000CF93DF93EC01162F68818BEC91E00E943A
:100D4000AA08612F8BEC91E00E944A088BEC91E09D
:100D50000E942F0941E068818BEC91E00E942C09F0
:100D60008BEC91E00E942708C82F8BEC91E00E9449
:100D70002F098C2FDF91CF911F910895EF92FF9251
:100D80000F931F93CF93DF938C01EB01E42EF22E90
:100D9000FC0160818BEC91E00E94AA086E2D8BEC27
:100DA00091E00E944A088BEC91E00E942F094F2DA0
:100DB000F80160818BEC91E00E942C091982188265
:100DC0008BEC91E00E9427088F770E94BE0590E08F
:100DD0009B838A838BEC91E00E9427088F730E948B
:100DE000BE0590E09D838C831D861C868BEC91E074
:100DF0000E9427088F730E94BE0590E09F838E8318
:100E00008BEC91E00E9427088C018F710E94BE0537
:100E10008150990B9987888785E0159507958A9564
:100E2000E1F707701127015011091D870C8786E42F
:100E300090E09B878A878FEF9FEF9F878E878BEC51
:100E400091E00E942F0981E0DF91CF911F910F91D6
:100E5000FF90EF9008955F926F927F928F929F9292
:100E6000AF92BF92CF92DF92EF92FF920F931F93B8
:100E7000CF93DF931F92CDB7DEB77C018B016A0160
:100E80001982AE014F5F5F4FB6010E94C705582E11
:100E9000298180E0222371F0F701818192810197FD
:100EA000D1F4C60103970297B0F4452DB801C701EC
:100EB0000E94BE060F90DF91CF911F910F91FF907E
:100EC000EF90DF90CF90BF90AF909F908F907F90EA
:100ED0006F905F90089586E4882E912C66246A9422
:100EE000762CF70160818BEC91E00E94AA08652DB9
:100EF0008BEC91E00E944A088BEC91E00E942F0954
:100F00004981F70160818BEC91E00E942C098BEC08
:100F100091E00E9427088F770E94BE0590E0F801BB
:100F2000918380838BEC91E00E9427088F770E9449
:100F3000BE0590E0F801938382838BEC91E00E94E0
:100F40002708B82E86FF4CC08F710E94BE0590E026
:100F5000B5FC44C0F80195838483F70181819281B7
:100F6000029709F042C08BEC91E00E9427088F7332
:100F70000E94BE0590E0F801978386838BEC91E098
:100F80000E94270887709927F801958784878BEC42
:100F900091E00E9427088F710E94BE058150990B35
:100FA000F8019187808789818730A8F18BEC91E0E7
:100FB0000E9427080E94BE0590E08C599F4FF801BF
:100FC00093878287F801778666868BEC91E00E9492
:100FD0002F09C114D10411F181E06CCF0C96BACF66
:100FE0008F730E94BE0590E0B5CF8BEC91E00E941C
:100FF0002708877099270197F801958784878BECDC
:1010000091E00E9427088F730E94BE0590E0F801CE
:1010100097838683BCCF93868286D4CFF801A08045
:10102000B180652DC7010E9497068F770E94BE058B
:101030008A151B0409F055CFCFCF90E080E00895CA
:101040008091FB019091FC01891B990B089590916F
:10105000FC018091FB012FEF3FEF981748F4E92F37
:10106000F0E0E350FE4F208130E09F5F9093FC0161
:10107000C9010895E091FC018091FB01E81730F46B
:10108000F0E0E350FE4F808190E008958FEF9FEFF6
:1010900008950895CF93DF931F92CDB7DEB769838C
:1010A0002091D7012223F9F02091D801203258F065
:1010B00021E030E0FC013383228390E080E00F9058
:1010C000DF91CF9108958091D901E82FF0E0E652A9
:1010D000FE4F998190838F5F8093D9018093D801CF
:1010E00081E090E0ECCF61E0CE0101960E94F5092D
:1010F000F7CFCF92DF92EF92FF920F931F93CF9390
:10110000DF937C01CB018A012091D701222389F052
:10111000EB016B01C40ED51ECC15DD0569F069919C
:10112000D701ED91FC910190F081E02DC701099567
:10113000F3CF642F0E94F509C801DF91CF911F9171
:101140000F91FF90EF90DF90CF900895CB01BA01FF
:101150000C94430981E08093D7016093FA011092C7
:10116000D9011092D80108950C94AA080F93062F64
:1011700021E04091D8016AED71E08091FA010E946E
:101180009E091092D9011092D8011092D7010F91A7
:1011900008954F925F926F927F92AF92BF92CF92DB
:1011A000EF92FF920F931F93CF93DF935C01F62E84
:1011B000D42F28013901EE2019F10E94AA08CE2D62
:1011C000C43008F0C3E0C150B8F028E0C29FC001AD
:1011D0001124A301920104C0569547953795279590
:1011E0008A95D2F7B901D501ED91FC910190F0817A
:1011F000E02DC5010995E7CF60E0C5010E94B60862
:101200004D2FD13208F040E22C2D6DEF71E08F2D83
:101210000E9456091092FC018093FB01DF91CF914F
:101220001F910F91FF90EF90CF90BF90AF907F9064
:101230006F905F904F900895CF92EF920F931F930E
:10124000C22EE12C00E010E098010E94C9081F9115
:101250000F91EF90CF90089521E00C941C0961E06C
:101260000C94B608EBECF1E01382128288EE93E066
:10127000A0E0B0E084839583A683B7838CE791E0F8
:101280009183808308959B01AC0160E074E284EF58
:1012900090E00E94361120513109410951095695BB
:1012A0004795379527952093B8000895413208F067
:1012B00043C090918A029111FCCF91E090938A02F1
:1012C000209388022FEF20931D0210926202240FB8
:1012D000209361029093890290918902880F892B53
:1012E0008093890280918702813009F510928702EC
:1012F000809189028093BB008091BC0083FDF8CF70
:1013000085EC8093BC0080918A028130E1F380916A
:101310006202841710F440916202A3E6B2E0962FB5
:10132000FB018E2F891B841720F0842F089585EEF2
:10133000E8CF8D918193F5CF40E0F7CF0F93413205
:1013400008F04BC090918A029111FCCF92E09093EB
:101350008A02009388029FEF90931D02109262020E
:1013600040936102362FA3E6B2E0FB019E2F931B50
:10137000941770F11092890290918902880F892B3D
:101380008093890280918702813029F5109287022B
:10139000809189028093BB008091BC0083FDF8CFCF
:1013A00085EC8093BC00222321F080918A02823058
:1013B000D1F380911D028F3F91F080911D02803208
:1013C00081F080911D02803371F084E00F910895C7
:1013D00091919D93CBCF85EEE4CF81E0F7CF80E074
:1013E000F5CF82E0F3CF83E0F1CF20913F02260FCB
:1013F0003327331F21323105ECF420918A02FC019E
:1014000090E080E0243069F082E00895A0913F02EE
:101410002191AC014F5B5D4FA40FB52FB11D2C93F3
:101420000196861798F380913F02680F60933F0200
:1014300080E0089581E0089585ED8093BC0080915F
:10144000BC0084FDFCCF10928A02089585EC809345
:10145000BC0010928A0208951F920F920FB60F924D
:1014600011240BB60F922F933F934F935F936F937B
:101470007F938F939F93AF93BF93EF93FF9380914D
:10148000B900887F803609F44EC008F041C0883228
:1014900009F4AAC028F5803109F49EC0C8F4882355
:1014A00009F4FBC0883009F497C0FF91EF91BF9118
:1014B000AF919F918F917F916F915F914F913F91EC
:1014C0002F910F900BBE0F900FBE0F901F9018958D
:1014D000883109F489C0803241F780931D0215C01C
:1014E000803409F49EC048F48033B9F38833E9F6B8
:1014F00080931D020E94260AD8CF803509F485C04A
:10150000883509F496C0883481F60E941C0ACDCF34
:10151000883909F48CC038F5883729F050F48836BA
:1015200011F0803711F683E080938A0210921E0238
:1015300057C0883809F47BC0803919F0803809F029
:10154000B4CF80911E02803208F071C0E0911E027B
:1015500081E08E0F80931E028091BB00F0E0E15E7F
:10156000FD4F80833DC0803B39F0E0F4803A09F4C0
:1015700079C0883A09F099CF84E080938A0210926A
:10158000400210923F02E0918502F0918602099597
:1015900080913F0281110FC081E080933F02109241
:1015A000410209C0803C09F476C0883C09F473C04C
:1015B000883B09F07ACFE091400281E08E0F809362
:1015C0004002F0E0EF5BFD4F80818093BB00909183
:1015D000400280913F0229C0809189028093BB0024
:1015E00085EC8093BC0061CF909162028091610292
:1015F000981758F5E091620281E08E0F80936202A5
:10160000F0E0ED59FD4F8081E9CFE091620281E089
:101610008E0F809362028091BB00F0E0ED59FD4F88
:10162000808390916202809161029817C8F285E8E8
:10163000D8CFE091620281E08E0F809362028091A8
:10164000BB00F0E0ED59FD4F80838091880281114D
:101650005CCF81E08093870284EA8093BC00109283
:101660008A0223CF0E94260A80911E02803230F423
:10167000E0911E02F0E0E15EFD4F108260911E02DB
:1016800070E0E0918302F09184028FE192E009958D
:1016900010921E020ACF85ECE0CF10921D0235CFCA
:1016A000FC01918D228D892F90E0805C9F4F821BE1
:1016B00091098F7399270895FC01918D828D981758
:1016C00031F0828DE80FF11D858D90E008958FEF48
:1016D0009FEF0895FC01918D828D981761F0A28D86
:1016E000AE0FBF2FB11D5D968C91928D9F5F9F7342
:1016F000928F90E008958FEF9FEF0895FC01538D36
:10170000448D252F30E0842F90E0821B930B5417DB
:1017100010F0CF9608950197089588EE9CE0892BEC
:1017200049F080E090E0892B29F00E94E80C8111BB
:101730000E94000080E090E0892B49F080E090E07A
:10174000892B29F00E94000081110C94000008955B
:10175000FC01A48DA80FB92FB11DA35ABF4F2C9126
:10176000848D90E001968F739927848FA689B7891D
:101770002C93A089B1898C9180648C93938D848DF6
:10178000981306C00288F389E02D80818F7D8083C5
:101790000895CF93DF93EC01888D8823B9F0AA894F
:1017A000BB89E889F9898C9185FD03C0808186FD1C
:1017B0000DC00FB607FCF7CF8C9185FFF2CF80816B
:1017C00085FFEDCFCE010E94A80BE9CFDF91CF912D
:1017D0000895EF92FF920F931F93CF93DF93EC0145
:1017E00081E0888F9B8D8C8D981316C0E889F989CC
:1017F000808185FF11C0EE89FF896083E889F989BE
:1018000080818064808381E090E0DF91CF911F919F
:101810000F91FF90EF900895F62E0B8D10E00F5F63
:101820001F4F0F731127E02E8C8D8E110CC00FB639
:1018300007FCFACFE889F989808185FFF5CFCE01D1
:101840000E94A80BF1CFEB8DEC0FFD2FF11DE35A99
:10185000FF4FF0820B8FEA89FB8980818062D2CFB3
:10186000CF92DF92EF92FF921F93CF93DF93EC0121
:101870006A017B01122FE889F98982E08083C11413
:1018800081EED806E104F104A1F060E079E08DE397
:1018900090E0A70196010E943611215031094109BB
:1018A00051095695479537952795211580E13807B9
:1018B00098F0E889F989108260E874E88EE190E098
:1018C000A70196010E9436112150310941095109A1
:1018D0005695479537952795EC85FD853083EE85A0
:1018E000FF852083188EEC89FD891083EA89FB89A6
:1018F000808188698083EA89FB8980818F7D8083EC
:10190000DF91CF911F91FF90EF90DF90CF900895DE
:101910001F920F920FB60F9211240BB60F922F93B6
:101920008F939F93EF93FF93E0919B02F0919C0222
:101930008081E091A102F091A20282FD1DC0908100
:101940008091A4028F5F8F732091A502821741F0CE
:10195000E091A402F0E0E557FD4F958F8093A4023B
:10196000FF91EF919F918F912F910F900BBE0F9050
:101970000FBE0F901F9018958081F2CF1F920F928B
:101980000FB60F9211240BB60F922F933F934F93E4
:101990005F936F937F938F939F93AF93BF93EF93D7
:1019A000FF938BE892E00E94A80BFF91EF91BF910B
:1019B000AF919F918F917F916F915F914F913F91E7
:1019C0002F910F900BBE0F900FBE0F901F90189588
:1019D0008BE892E00E94500B21E0892B09F420E073
:1019E000822F0895EBE8F2E01382128288EE93E0F2
:1019F000A0E0B0E084839583A683B7838EE891E06E
:101A00009183808385EC90E09587848784EC90E0D7
:101A10009787868780EC90E0918B808B81EC90E0BB
:101A2000938B828B82EC90E0958B848B86EC90E09C
:101A3000978B868B118E128E138E148E0895AF9213
:101A4000BF92CF92DF92EF92FF920F931F93CF93AB
:101A5000DF936C017B018B01040F151FEB015E010D
:101A6000AE18BF08C017D10759F06991D601ED91A2
:101A7000FC910190F081E02DC6010995892B79F741
:101A8000C501DF91CF911F910F91FF90EF90DF90F3
:101A9000CF90BF90AF900895FB0101900020E9F72F
:101AA0003197AF01461B570BDC01ED91FC91028091
:101AB000F381E02D0994DB0114964D915C9115970B
:101AC0006D917C91DC01ED91FC910280F381E02D20
:101AD00009946CE971E00C944C0D0F931F93CF9314
:101AE000DF93EC010E945B0D8C01CE010E94690D19
:101AF000800F911FDF91CF911F910F9108950F9348
:101B00001F93CF93DF938C01D0E0C0E06115710586
:101B100019F00E944C0DEC01C8010E94690D8C0F58
:101B20009D1FDF91CF911F910F910895FC0180813E
:101B300091810C944512CF93DF93EC0188819981B8
:101B4000009711F00E944512198218821D821C8292
:101B50001B821A82DF91CF9108950F931F93CF9329
:101B6000DF93EC018B016F5F7F4F888199810E9429
:101B7000CE12009751F0998388831B830A8381E0FA
:101B8000DF91CF911F910F91089580E0F9CFCF930E
:101B9000DF93EC0188819981892B49F08A819B81AF
:101BA0008617970720F081E0DF91CF910895CE014D
:101BB0000E94AD0D8823C1F38C819D81892B99F7FB
:101BC000E881F9811082EFCFEF92FF920F931F937C
:101BD000CF93DF93EC017B018A01BA010E94C70D0C
:101BE00081110BC0CE010E949B0DCE01DF91CF91E0
:101BF0001F910F91FF90EF9008951D830C83B70103
:101C0000888199810E94B813F0CFFC011182108263
:101C100013821282158214826115710551F0FB0145
:101C200001900020E9F73197AF01461B570B0C9448
:101C3000E40D0895FB0101900020E9F73197AF0111
:101C4000461B570B0C94E40D0F931F93CF93DF9318
:101C5000CDB7DEB729970FB6F894DEBF0FBECDBF64
:101C60008C01862FF8011182108213821282158254
:101C7000148250E0BE016F5F7F4F90E00E94061417
:101C8000BE016F5F7F4FC8010E941A0E29960FB6E2
:101C9000F894DEBF0FBECDBFDF91CF911F910F91A2
:101CA00008950F931F93CF93DF93CDB7DEB761975E
:101CB0000FB6F894DEBF0FBECDBF8C01CB01F8018B
:101CC00011821082138212821582148250E0BE01AA
:101CD0006F5F7F4F0E940614BE016F5F7F4FC80188
:101CE0000E941A0E61960FB6F894DEBF0FBECDBFEC
:101CF000DF91CF911F910F9108950F931F93CF9371
:101D0000DF93CDB7DEB7A2970FB6F894DEBF0FBE54
:101D1000CDBF8C01CB01BA01F80111821082138270
:101D200012821582148230E0AE014F5F5F4F0E9435
:101D3000BF13BE016F5F7F4FC8010E941A0EA296AB
:101D40000FB6F894DEBF0FBECDBFDF91CF911F91CC
:101D50000F9108950F931F93CF93DF93CDB7DEB705
:101D6000A1970FB6F894DEBF0FBECDBF8C01CB019B
:101D7000BA01F80111821082138212821582148234
:101D800030E0AE014F5F5F4F0E94D913BE016F5F1D
:101D90007F4FC8010E941A0EA1960FB6F894DEBFBD
:101DA0000FBECDBFDF91CF911F910F910895CF93BB
:101DB000DF93EC01FB018617970749F06081718181
:101DC0006115710541F0448155810E94E40DCE01F9
:101DD000DF91CF9108950E949B0DF9CFFC011182F4
:101DE000108213821282158214820C94D70EEF9205
:101DF000FF920F931F93CF93DF936115710541F409
:101E000080E0DF91CF911F910F91FF90EF900895A7
:101E100041155105B1F07B01EC010C811D81040FCE
:101E2000151FB8010E94C70D882351F328813981FD
:101E30008C819D81B701820F931F0E94B8131D836F
:101E40000C8381E0DECFFB0144815581608171818B
:101E50000C94F70E6115710551F0FB010190002003
:101E6000E9F73197AF01461B570B0C94F70E80E052
:101E70000895CF93DF93EC01FB014481558160818C
:101E800071810E94F70E811103C0CE010E949B0D4B
:101E9000CE01DF91CF910895CF93DF93EC016115CF
:101EA000710539F4CE010E949B0DCE01DF91CF91D7
:101EB0000895FB0101900020E9F73197AF01461B1F
:101EC000570B0E94F70E882369F3EFCF08950E9405
:101ED00029100E94660F0E947002CDE8DBE00E948C
:101EE000B1002097E1F30E948D0BF9CF1F920F9262
:101EF0000FB60F9211242F933F938F939F93AF931D
:101F0000BF9380912D0390912E03A0912F03B09148
:101F1000300330912C0323E0230F2D3768F126E89E
:101F2000230F0296A11DB11D20932C0380932D0336
:101F300090932E03A0932F03B09330038091280336
:101F400090912903A0912A03B0912B030196A11D22
:101F5000B11D8093280390932903A0932A03B09383
:101F60002B03BF91AF919F918F913F912F910F9034
:101F70000FBE0F901F9018950196A11DB11DD4CFD3
:101F80003FB7F8948091280390912903A0912A03E8
:101F9000B0912B0326B5A89B05C02F3F19F00196E1
:101FA000A11DB11D3FBFBA2FA92F982F8827BC01B3
:101FB000CD01620F711D811D911D42E0660F771FDB
:101FC000881F991F4A95D1F708958F929F92AF92DB
:101FD000BF92CF92DF92EF92FF926B017C010E9441
:101FE000C00F4B015C01C114D104E104F104E9F01C
:101FF0000E94FD100E94C00F681979098A099B0987
:10200000683E73408105910570F321E0C21AD10842
:10201000E108F10888EE880E83E0981EA11CB11C2F
:10202000C114D104E104F10429F7FF90EF90DF908F
:10203000CF90BF90AF909F908F9008958230910580
:1020400038F0880F991F880F991F05970197F1F7AE
:102050000895789484B5836084BD85B5836085BD1B
:10206000EEE6F0E0808181608083E1E8F0E082E0EC
:102070008083808181608083E0E8F0E080818160FE
:102080008083E1EBF0E0808184608083E0EBF0E02E
:10209000808181608083E1E9F0E0808183608083DA
:1020A000E0E9F0E080818160808387E880937A00B6
:1020B0001092C100089582508A3088F5E82FF0E030
:1020C000EC59FF4E0C9477118C1090106E10741018
:1020D0008F108F1078107E108210881080918000F1
:1020E0008F77809380000895809180008F7DF9CF55
:1020F0008091B0008F778093B00008958091B000F8
:102100008F7DF9CF809190008F7780939000089514
:10211000809190008F7DF9CF84B58F7784BD08952D
:1021200084B58F7DFBCFCF93DF9390E0FC01E45526
:10213000FF4F249184539F4FFC0184918823C9F061
:1021400090E0880F991FFC01EA50FF4FA591B491D0
:10215000FC01E451FF4FC591D49161110DC09FB7AF
:10216000F8948C91209582238C938881282328834E
:102170009FBFDF91CF910895623051F49FB7F894DB
:102180003C91822F809583238C93E8812E2BEFCF77
:102190008FB7F894EC912E2B2C938FBFEACF1F931F
:1021A000CF93DF93282F30E0F901E457FF4F84915C
:1021B000F901E455FF4FD491F901E453FF4FC49165
:1021C000CC23A9F0162F81110E945B10EC2FF0E0B8
:1021D000EE0FFF1FE451FF4FA591B4918FB7F89414
:1021E000EC91111108C0D095DE23DC938FBFDF91F5
:1021F000CF911F910895DE2BF8CF0895DB018F93C7
:102200009F930E948711BF91AF91A29F800D911D56
:10221000A39F900DB29F900D11240895AA1BBB1B84
:1022200051E107C0AA1FBB1FA617B70710F0A61BD6
:10223000B70B881F991F5A95A9F780959095BC01F7
:10224000CD01089597FB072E16F4009407D077FD73
:1022500009D00E940E1107FC05D03EF4909581959F
:102260009F4F0895709561957F4F0895A1E21A2EB2
:10227000AA1BBB1BFD010DC0AA1FBB1FEE1FFF1F2A
:10228000A217B307E407F50720F0A21BB30BE40B7A
:10229000F50B661F771F881F991F1A9469F76095C1
:1022A0007095809590959B01AC01BD01CF0108957B
:1022B000052E97FB1EF400940E946F1157FD07D066
:1022C0000E94361107FC03D04EF40C946F11509508
:1022D0004095309521953F4F4F4F5F4F0895909512
:1022E0008095709561957F4F8F4F9F4F0895EE0FAA
:1022F000FF1F0024001C0BBE0790F691E02D0994EF
:102300000E949A11B7FF0895821B930B08950E94B3
:102310009A11A59F900DB49F900DA49F800D911DC3
:1023200011240895B7FF0C9487110E948711821B16
:10233000930B0895A29FB001B39FC001A39F700D9E
:10234000811D1124911DB29F700D811D1124911DBD
:1023500008950F931F93CF93DF938230910510F46C
:1023600082E090E0E0913303F091340330E020E02C
:10237000B0E0A0E0309799F42115310509F44AC086
:10238000281B390B24303105D8F58A819B816115D2
:10239000710589F1FB0193838283FE0111C04081A5
:1023A00051810281138148175907E0F048175907F6
:1023B00099F4109761F012960C93129713961C9350
:1023C0003296CF01DF91CF911F910F910895009325
:1023D000330310933403F4CF2115310551F0421724
:1023E000530738F0A901DB019A01BD01DF01F801B3
:1023F000C1CFEF01F9CF9093340380933303CDCF56
:10240000FE01E20FF31F819391932250310939832A
:102410002883D7CF2091310330913203232B41F40D
:102420002091020130910301309332032093310354
:1024300020910001309101012115310541F42DB7A2
:102440003EB74091040150910501241B350BE091EA
:102450003103F0913203E217F307A0F42E1B3F0B78
:102460002817390778F0AC014E5F5F4F2417350706
:1024700048F04E0F5F1F5093320340933103819316
:1024800091939FCFF0E0E0E09CCFCF93DF93009754
:10249000E9F0FC01329713821282A0913303B091CC
:1024A0003403ED0130E020E01097A1F42081318168
:1024B000820F931F2091310330913203281739077F
:1024C00009F061C0F0933203E0933103DF91CF91C3
:1024D0000895EA01CE17DF07E8F54A815B819E0186
:1024E00041155105B1F7E901FB83EA8349915991FF
:1024F000C40FD51FEC17FD0761F48081918102960E
:10250000840F951FE90199838883828193819B833E
:102510008A83F0E0E0E012968D919C9113970097EA
:10252000B9F52D913C911197CD010296820F931F21
:1025300020913103309132032817390739F630974B
:1025400051F51092340310923303B0933203A093E9
:102550003103BCCFD383C28340815181840F951F47
:10256000C817D90761F44E5F5F4F88819981480F82
:10257000591F518340838A819B81938382832115D4
:10258000310509F0B0CFF0933403E09333039ECFCD
:10259000FD01DC01C0CF13821282D7CF4F925F9230
:1025A0006F927F928F929F92AF92BF92CF92DF9263
:1025B000EF92FF920F931F93CF93DF938C010097BD
:1025C00099F4CB01DF91CF911F910F91FF90EF9084
:1025D000DF90CF90BF90AF909F908F907F906F9043
:1025E0005F904F900C94A911FC01E60FF71F9C011E
:1025F00022503109E217F30708F4AEC0D901CD919A
:10260000DC911197C617D70720F1C530D10578F0B6
:10261000CE0104978617970750F0C61BD70B229759
:10262000C193D1936D937C93CF010E944512C80151
:10263000DF91CF911F910F91FF90EF90DF90CF909E
:10264000BF90AF909F908F907F906F905F904F90D2
:1026500008955B01AC1ABD0A4C018C0E9D1EA09121
:102660003303B0913403512C412CF12CE12C109701
:1026700031F580913103909132038815990509F065
:102680005CC04616570608F058C080910001909132
:102690000101009741F48DB79EB74091040150911C
:1026A0000501841B950BE817F90708F055C0F09356
:1026B0003203E0933103F90171836083B8CF8D91C8
:1026C0009C91119712966C90129713967C90139789
:1026D000A815B90559F56C0142E0C40ED11CCA1405
:1026E000DB0420F1AC014A195B09DA011296159757
:1026F00080F06282738251834083D9016D937C9311
:10270000E114F10471F0D7011396FC93EE93129744
:102710008ECF22968C0F9D1FF90191838083F30148
:10272000EFCFF0933403E093330381CF481659067B
:1027300008F42C017D01D3019ACFCB010E94A9118D
:102740007C01009749F0AE01B8010E94AF13C801A7
:102750000E94451287016BCF10E000E068CFFB01BB
:10276000DC0102C001900D9241505040D8F708950D
:10277000FB01DC0101900D920020E1F70895253264
:10278000310520F4223010F00C94CA13FA011082A3
:10279000CA010895BB272A3051F4992342F4BDE2BF
:1027A00090958095709561957F4F8F4F9F4F0C94BA
:1027B000E5132532310520F4223010F00C94E41397
:1027C000FA011082CA010895BB27FA01A62F6217E9
:1027D000710581059105330B30FB66F0AA27660F62
:1027E000771F881F991FAA1FA21710F0A21B6395BD
:1027F0003850A9F7A05DAA3308F0A95DA19336F778
:10280000B111B1931082CA010C942B1445325105B9
:1028100020F4423010F00C941114FB011082CB0113
:102820000895BB27FB015527AA27880F991FAA1FC8
:10283000A41710F0A41B83955051B9F7A05DAA33DB
:1028400008F0A95DA193009779F7B111B1931192A6
:10285000CB010C942B14DC01FC01672F71917723C1
:10286000E1F7329704C07C916D9370836291AE174B
:10287000BF07C8F3089510E0C4E8D0E004C0FE012B
:102880000E9477112196C538D107C9F7F894FFCF78
:10289000000035038000030002001F1C1F1E1F1EC6
:1028A0001F1F1E1F1E1F00FFFFFFFF000A11181C25
:1028B00001080DFFFF0700000000070606040407DB
:1028C0000000000024484953542C00333739323774
:1028D0003661004C3531325F303200234376616B14
:1028E0002E2E2E0023486D6D6D2E2E2E0024444F6B
:1028F000532C4C4142444F533031412C0030005155
:102900000000020000000000000000004A087908F2
:102910001D084908200827083A0800000000E90BB4
:102920001F0D7E0BC90B500B6A0B5C0B0D0A0000D0
:020000040001F9
:10FC000002C0F3C03BC1112484B790E89093610017
:10FC100010926100882369F0982F9A70923049F011
:10FC200081FF02C097EF94BF282E80E001D10C9491
:10FC3000000085E08093810082E08093C00088E12D
:10FC40008093C10080E18093C40086E08093C2006D
:10FC50008EE0EED0209A84E020E33CEF91E03093F8
:10FC600085002093840096BBB09BFECF189AA89580
:10FC70004091C00047FD02C0815089F7CDD081344A
:10FC800079F4CAD0C82FDAD0C23811F480E004C0A9
:10FC900088E0C13809F083E0B8D080E1B6D0EECF7B
:10FCA000823419F484E1D2D0F8CF853411F485E0A0
:10FCB000FACF853581F4B0D0E82EAED0F82E87FF8C
:10FCC00007C08BB781608BBFEE0CFF1CB7D0E5CFB0
:10FCD0008BB78E7FF8CF863579F49ED08D3451F472
:10FCE0009BD0CBB799D0C170880F8C2B8BBF81E094
:10FCF000ADD0CCCF83E0FCCF843609F045C08CD0AA
:10FD0000C82FD0E0DC2FCC2787D0C82B85D0D82EA9
:10FD10005E01B39400E011E04801EFEF8E1A9E0AF5
:10FD20007BD0F801808384018A149B04A9F786D0D4
:10FD3000F5E410E000E0DF1609F150E040E063E098
:10FD4000C70153D08701C12CDD24D394F601419122
:10FD500051916F0161E0C80148D00E5F1F4F22979B
:10FD6000A9F750E040E065E0C7013FD096CF608141
:10FD7000C8018E0D9F1D02D10F5F1F4FF801F39533
:10FD8000C017D107A1F789CF843701F545D0C82F17
:10FD9000D0E0DC2FCC2740D0C82B3ED0D82E4ED080
:10FDA0008701F5E4DF120BC0CE0DDF1DC801DED0E8
:10FDB0002CD00F5F1F4FC017D107C1F76ECFF801CE
:10FDC00087918F0122D02197D1F767CF853739F4FA
:10FDD00035D08EE11AD087E918D085E05DCF813526
:10FDE00009F074CF88E024D071CFFC010A0167BF0D
:10FDF000E895112407B600FCFDCF667029F0452B6D
:10FE000019F481E187BFE89508959091C00095FFAE
:10FE1000FCCF8093C60008958091C00087FFFCCF7F
:10FE20008091C00084FD01C0A8958091C60008950E
:10FE3000E0E6F0E098E1908380830895EDDF803282
:10FE400019F088E0F5DFFFCF84E1DFCFCF93C82F33
:10FE5000E3DFC150E9F7CF91F1CFCF92DF92EF927C
:10FE6000FF92DC01CB01642F6D01EE24FF24CBBE99
:10FE7000A901FF90EF90DF90CF90B7CF2F923F92E4
:10FE80004F925F926F927F928F929F92AF92BF92AA
:10FE9000CF92DF92EF92FF920F931F93CF93DF9356
:10FEA00000D01F92CDB7DEB71801E9826B017C014B
:10FEB00010E000E029013A014C185D086E087F0847
:10FEC00046015701840C951CA61CB71C021513058E
:10FED00031F489818823A1F188E0AADFFFCF30E0E7
:10FEE00020E043E0C701B601B8DF80E890E09B83E3
:10FEF0008A83ABBEF40127913691C501B401641920
:10FF000075098609970941E0A8DF8A819B810197DD
:10FF10009B838A8392E0890E911CA11CB11C8A816B
:10FF20009B81892B31F730E020E045E0C701B60125
:10FF300094DF9FEFD91AE90AF90A0F5F1F4FC0CF6C
:10FF40000F900F900F90DF91CF911F910F91FF9025
:10FF5000EF90DF90CF90BF90AF909F908F907F9069
:10FF60006F905F904F903F902F900895F999FECF3A
:10FF700092BD81BDF89A992780B50895262FF999E9
:10FF8000FECF1FBA92BD81BD20BD0FB6F894FA9A7C
:08FF9000F99A0FBE01960895D5
:02FFFE000008F9
:00000001FF
