:100000000C9485000C94AF000C94AF000C94AF00DE
:100010000C94AF000C94AF000C94AF000C94AF00A4
:100020000C94AF000C94AF000C94AF000C94AF0094
:100030000C94AF000C94AF000C94AF000C94AF0084
:100040000C94AF000C94AF000C948B0F0C94AF0089
:100050000C949A0C0C94D00C0C94AF000C94AF0040
:100060000C94AF000C94AF000C942B0A0C94AF00CE
:100070000C94AF000C94AF000C94AF000C94AF0044
:100080000C94AF000C94AF000C94AF000000000281
:1000900003000A0B0000000005040908000000002E
:1000A0000000000000000000000000000102040841
:1000B0001020408001020408102040800102040842
:1000C0001020408001020408102040800202020239
:1000D00002020202040404040404040403030303EC
:1000E00003030303010101010101010100002200DA
:1000F000250028002B0000002100240027002A00F2
:10010000660221064009040D720211241FBECFEFC2
:10011000D0E4DEBFCDBF11E0A0E0B1E0EAEBF8E251
:1001200000E00BBF02C007900D92AC3CB107D9F7BD
:1001300023E0ACECB1E001C01D92A334B207E1F7BB
:1001400010E0C4E8D0E004C02197FE010E948C11A9
:10015000C038D107C9F70E947C0F0C9450140C943E
:1001600000004F925F926F927F928F929F92AF9218
:10017000BF92CF92DF92EF92FF920F931F93CF9394
:10018000DF93CDB7DEB7CC50D8400FB6F894DEBFC2
:100190000FBECDBFFE0131968E010F5F174F7F015D
:1001A00011921192E017F107D9F78091060120E42E
:1001B000829FC0011124806180937C0010927B009B
:1001C00080917A00806280937A0080917A008064C6
:1001D00080937A0080917A00846080937A00809185
:1001E0007A00826080937A0080917A0081608093A7
:1001F0007A0081E085B980917A00806180937A00ED
:1002000080917A0084FFFCCF8FE984B984E690E086
:100210000E9433108EE984B980917A0080618093C6
:100220007A0080917A0084FFFCCF8FE984B90000C6
:1002300000000000000000008EE984B980917A007F
:10024000806180937A0060EBA62E63EBB62E992432
:100250009394D12CC12C7FE9772EEEE96E2E8091FC
:100260007A0084FFFCCF83B086E990E00E943310CF
:1002700074B887E090E00E94331064B880917A00EF
:10028000806180937A00909178009093E101809151
:1002900079008093E0018927982789278115E2E07A
:1002A0009E07C0F59E5F9093DF018093DE0190FE74
:1002B00033C0FFEFCF1ADF0A21E0A21AB108982C51
:1002C00071F650E040E06CEC71E084EF91E00E9448
:1002D00039078CEC91E00E9499042B013C0120919C
:1002E000070130910801C9010296FC01EE0FFF1FC2
:1002F000EE0DFF1D812C912C54012C503E4F821786
:100300009307C0F441915191840E951EA11CB11C1C
:100310000196F5CF9250C7CFE091DE01F091DF0159
:10032000EE0FFF1FEE0DFF1D8081918101969183DD
:100330008083C2CF61E087E10E94E4106AEC71E043
:10034000CE01895F974F0E941A0E64E371E0CE01DF
:10035000895F974F0E943F0F6091E6017091E7011E
:100360004AE0C8010E94660EB801CE01895F974F2E
:100370000E94380FC8010E94A80D64E971E0CE0107
:10038000895F974F0E943F0FB301A2014058534429
:100390006D4678432AE0C8010E94920EB801CE0152
:1003A000895F974F0E94380FC8010E94A80D64E929
:1003B00071E0CE01895F974F0E943F0F4AE0B6017E
:1003C000C8010E94660EB801CE01895F974F0E9456
:1003D000380FC8010E94A80D64E971E0CE01895F61
:1003E000974F0E943F0F2AE0B501A401C8010E9467
:1003F000BF0EB801CE01895F974F0E94380FC80128
:100400000E94A80D80910701909108016C01E1E024
:10041000CE1AD10881509048880F991FE80EF91E16
:1004200080910701909108018D509E4FC816D90602
:10043000E0F464E971E0CE01895F974F0E943F0FBD
:10044000F701619171917F014AE0C8010E94660E37
:10045000B801CE01895F974F0E94380FC8010E94F2
:10046000A80DFFEFCF1ADF0ADBCF8091E601909154
:10047000E70101969093E7018093E601BE01695F71
:10048000774F89E992E00E947F0D60E087E10E944A
:10049000E410CE01895F974F0E94A80DC45FD74F2B
:1004A0000FB6F894DEBF0FBECDBFDF91CF911F9185
:1004B0000F91FF90EF90DF90CF90BF90AF909F9003
:1004C0008F907F906F905F904F9008956BE371E0F5
:1004D0008EEE91E00E941A0E61E471E088EE91E0E8
:1004E0000C941A0E88EE91E00E94A80D8EEE91E019
:1004F0000C94A80DFF920F931F93CF93DF93CDB76A
:10050000DEB762970FB6F894DEBF0FBECDBF61E0D5
:1005100085E10E94A81061E085E10E94E41064E694
:1005200070E080E090E00E94FA0F26E040E052EC9C
:1005300061E070E089E992E00E94420C64E771E0BA
:1005400089E992E00E94910D8091060120E4829F4A
:10055000C0011124806180937C0010927B00809107
:100560007A00806280937A0080917A008064809320
:100570007A0080917A00846080937A0080917A007A
:10058000826080937A0080917A00816080937A0003
:1005900061E080E00E94A8108EE984B915B88CEF64
:1005A00081B912B89CEE97B918B88AB980E88BB9AE
:1005B00040EA56E861E070E087EF91E00E94B408FD
:1005C00061E085E10E94A81061E085E10E94E410ED
:1005D00064E670E080E090E00E94FA0F6DE771E061
:1005E00089E992E00E94910D61E086E10E94A810E5
:1005F00061E086E10E94E41064E670E080E090E053
:100600000E94FA0F98E0F92E8091060120E4829F63
:10061000C0011124816180937C0062E370E080E07E
:1006200090E00E94FA0F10927B0080917A00806225
:1006300080937A0080917A00806480937A00809120
:100640007A00846080937A0080917A00826080933F
:100650007A0080917A00816080937A0080917A009C
:10066000806180937A0080917A0084FFFCCF809132
:100670007A00806180937A00909178009093E101F4
:10068000809179008093E001892798278927811537
:1006900022E0920708F0FDC09E5F9093DF018093F7
:1006A000DE018091DE019091DF01080F191FFA949D
:1006B000F110AACF83E0169507958A95E1F710937C
:1006C00008010093070161E087E10E94A81061E042
:1006D00087E10E94E41064E670E080E090E00E9410
:1006E000FA0F60910701709108014AE0CE0101966E
:1006F0000E94660E66E871E0CE0107960E941A0E0F
:100700006EEE71E0CE0107960E944E0F66E971E031
:100710000E94610F64E971E00E94610FBE016F5F8A
:100720007F4F0E944E0F64E971E00E94610F68EEF6
:1007300071E00E944E0F64E971E00E94610FBC01FC
:10074000CE010D960E94030FCE0107960E94A80DC0
:10075000CE0101960E94A80D68E570E087EF91E058
:100760000E94C20868E087EF91E00E94580860E0AC
:1007700087EF91E00E94580887EF91E00E943D09C1
:1007800040E168E587EF91E00E943A0910E187EFC8
:1007900091E00E943508082F803130F469E971E05A
:1007A000CE010D960E943F0F40E1602FCE010196D1
:1007B0000E94390EBE016F5F7F4FCE010D960E94E1
:1007C000380FCE0101960E94A80D8091E201909110
:1007D000E301A091E401B091E501800F911DA11DFD
:1007E000B11D8093E2019093E301A093E401B093E3
:1007F000E501115061F6BE01635F7F4F89E992E028
:100800000E947F0D61E085E10E94A81060E085E113
:100810000E94E41064E670E080E090E00E94FA0F2D
:1008200061E086E10E94A81060E086E10E94E41089
:1008300064E670E080E090E00E94FA0F61E087E1FA
:100840000E94A81060E087E10E94E41064E670E076
:1008500080E090E00E94FA0F26E04BE951E06EE95B
:1008600071E084EF91E00E94500684EF91E00E94D5
:100870004206CE010D960E94A80D62960FB6F8941E
:10088000DEBF0FBECDBFDF91CF911F910F91FF90C3
:100890000895925002CFCF93DF93CDB7DEB72D9757
:1008A0000FB6F894DEBF0FBECDBF2DE0E9E0F1E05A
:1008B000DE01119601900D922A95E1F7623021F444
:1008C00083709927892B81F0E1E0F0E0EC0FFD1FA8
:1008D000E60FF11D80812D960FB6F894DEBF0FBE96
:1008E000CDBFDF91CF9108958DE1F5CFDF92EF92EB
:1008F000FF920F931F93CF93DF937C01D62E142F7B
:1009000061E0D0E0C0E06D1548F401E0060FC701DA
:100910000E944B04C80FD11D602FF5CFCE01810F6F
:10092000911DDF91CF911F910F91FF90EF90DF907C
:1009300008957F928F929F92AF92BF92CF92DF9253
:10094000EF92FF920F931F93CF93DF93EC01888177
:1009500099816CE370E00E9437112A813B81620F1C
:10096000731F7B836A8397FD33C0998388838A8151
:100970009B816CE370E00E9437112C813D81620FF6
:10098000731F7D836C8397FD2BC09B838A838C812F
:100990009D8168E170E00E9437112E813F81620FD6
:1009A000731F7F836E8397FD23C09D838C8388850F
:1009B00099850C9740F48E819F813BE0A32EB12C4A
:1009C00018161906FCF0CC24CA94DC2C7601D4C08D
:1009D000CC9699838883615071097B836A83C7CFE2
:1009E000CC969B838A83615071097D836C83CFCFC2
:1009F00048969D838C83615071097F836E83D7CF26
:100A0000D986C886C884D984772473947C0C0A85D7
:100A10001B85480184E9881A88EF980A672DC4016C
:100A20000E944B04EE80FF8090E08E159F0594F4A9
:100A3000E81AF90AFF82EE828FEFC81AD80A8CE012
:100A4000C816D104E9F6198618860F5F1F4F1B8759
:100A50000A87D8CF1E141F04DCF081E0C81AD10821
:100A600080F0D986C88668856F5F8A859B858459A2
:100A7000984F0E944B048E0D9F2D911D9F838E8356
:100A8000C1CFB986A886015011091B870A87EBCF11
:100A90004E2D672DC4010E947604FC013197FF871B
:100AA000EE8706548DE691E0089F9001099F300D76
:100AB0001124032E000C440B550B802F8695869530
:100AC000280F311D411D511D60E871E581E090E066
:100AD0000E9413110370C12CD12C7601033039F41C
:100AE00020E8C22E21E5D22EEE24E394F12CC60E8E
:100AF000D71EE81EF91EDF0120E831E541E050E095
:100B00000E94A711C60ED71EE81EF91EAC81BD813A
:100B100020E13EE00E949511C60ED71EE81EF91E88
:100B20002A813B814CE3429FC001439F900D1124D9
:100B3000C80ED91EE11CF11C88819981092E000C78
:100B4000AA0BBB0BC80ED91EEA1EFB1EC701B601BD
:100B500020E831E541E050E00E946D11CA01B90181
:100B60006C5F7F4F8F4F9F4F27E030E040E050E0B9
:100B70000E944B117D876C87C701B601DF91CF9131
:100B80001F910F91FF90EF90DF90CF90BF90AF90AB
:100B90009F908F907F900895982F92959F708F705F
:100BA0002AE0929F800D11240895CF93DF93CDB753
:100BB000DEB76E970FB6F894DEBF0FBECDBF9C01B7
:100BC0008FE0E6E1F1E0DE01509601900D928A950A
:100BD000E1F78FE0E5E2F1E0DE01119601900D9280
:100BE0008A95E1F7F901A181B28195E09A9FF00120
:100BF0009B9FF00D1124A1E0B0E0AC0FBD1FEA0FE8
:100C0000FB1FE60FF71F8081FA018083D90111963F
:100C10002D913C91929FF001939FF00D112481E062
:100C200090E08C0F9D1FE80FF91FE60FF71F8785D7
:100C30006E960FB6F894DEBF0FBECDBFDF91CF9199
:100C40000895E4EFF1E088E680831282118208952E
:100C5000CF93DF93D62FC42FFC01608187EF91E003
:100C60000E94B8086D2F87EF91E00E9458086C2F02
:100C700087EF91E00E94580887EF91E0DF91CF91D4
:100C80000C943D09FC01218132812230310531F47F
:100C90004CE26FE20E94280681E0089580E008950A
:100CA0008F929F92AF92BF92CF92DF92EF92FF927C
:100CB0000F931F93CF93DF934C017B018A01C22EC8
:100CC000D12CD0E0C0E0CC15DD05E9F15801F801E8
:100CD000608187EF91E00E94B80860E087EF91E0C3
:100CE0000E94580887EF91E00E943D0941E0F80119
:100CF00061918F0187EF91E00E943A0987EF91E0BF
:100D00000E942E089E012F5F3F4F892BD1F0CC0F00
:100D1000DD1FCE0DDF1D88819981F5012081F40151
:100D200020839283818381E0DF91CF911F910F9186
:100D3000FF90EF90DF90CF90BF90AF909F908F90FB
:100D40000895E901C0CF80E0EFCF1F93CF93DF93E9
:100D5000EC01162F688187EF91E00E94B808612F9F
:100D600087EF91E00E94580887EF91E00E943D09CB
:100D700041E0688187EF91E00E943A0987EF91E0B6
:100D80000E943508C82F87EF91E00E943D098C2F03
:100D9000DF91CF911F910895EF92FF920F931F93D0
:100DA000CF93DF938C01EB01E42EF22EFC016081E6
:100DB00087EF91E00E94B8086E2D87EF91E00E94C6
:100DC000580887EF91E00E943D094F2DF80160819E
:100DD00087EF91E00E943A091982188287EF91E02B
:100DE0000E9435088F770E94CC0590E09B838A8310
:100DF00087EF91E00E9435088F730E94CC0590E048
:100E00009D838C831D861C8687EF91E00E943508A8
:100E10008F730E94CC0590E09F838E8387EF91E0D3
:100E20000E9435088C018F710E94CC058150990B6E
:100E30009987888785E0159507958A95E1F707706A
:100E40001127015011091D870C8786E490E09B87CC
:100E50008A878FEF9FEF9F878E8787EF91E00E94B1
:100E60003D0981E0DF91CF911F910F91FF90EF90AD
:100E700008955F926F927F928F929F92AF92BF92EE
:100E8000CF92DF92EF92FF920F931F93CF93DF9356
:100E90001F92CDB7DEB77C018B016A011982AE01CA
:100EA0004F5F5F4FB6010E94D505582E298180E023
:100EB000222371F0F701818192810197D1F4C6015B
:100EC00003970297B0F4452DB801C7010E94CC06E4
:100ED0000F90DF91CF911F910F91FF90EF90DF90D6
:100EE000CF90BF90AF909F908F907F906F905F90CA
:100EF000089586E4882E912C66246A94762CF70156
:100F0000608187EF91E00E94B808652D87EF91E03E
:100F10000E94580887EF91E00E943D094981F7013E
:100F2000608187EF91E00E943A0987EF91E00E948B
:100F300035088F770E94CC0590E0F801918380837B
:100F400087EF91E00E9435088F770E94CC0590E0F2
:100F5000F8019383828387EF91E00E943508B82ED1
:100F600086FF4CC08F710E94CC0590E0B5FC44C058
:100F7000F80195838483F70181819281029709F0BA
:100F800042C087EF91E00E9435088F730E94CC0524
:100F900090E0F8019783868387EF91E00E943508FF
:100FA00087709927F8019587848787EF91E00E94E1
:100FB00035088F710E94CC058150990BF8019187FB
:100FC000808789818730A8F187EF91E00E943508FA
:100FD0000E94CC0590E08C599F4FF801938782873F
:100FE000F8017786668687EF91E00E943D09C1147B
:100FF000D10411F181E06CCF0C96BACF8F730E94AF
:10100000CC0590E0B5CF87EF91E00E94350887705E
:1010100099270197F8019587848787EF91E00E94CF
:1010200035088F730E94CC0590E0F8019783868382
:10103000BCCF93868286D4CFF801A080B180652D85
:10104000C7010E94A5068F770E94CC058A151B0454
:1010500009F055CFCFCF90E080E00895809127022E
:1010600090912802891B990B0895909128028091F4
:1010700027022FEF3FEF981748F4E92FF0E0E75DE4
:10108000FD4F208130E09F5F90932802C9010895B1
:10109000E091280280912702E81730F4F0E0E75D44
:1010A000FD4F808190E008958FEF9FEF08950895A0
:1010B000CF93DF931F92CDB7DEB7698320910302F0
:1010C0002223F9F020910402203258F021E030E090
:1010D000FC013383228390E080E00F90DF91CF9179
:1010E000089580910502E82FF0E0EA5FFD4F9981B5
:1010F00090838F5F809305028093040281E090E0EB
:10110000ECCF61E0CE0101960E94F409F7CFCF92B7
:10111000DF92EF92FF920F931F93CF93DF937C01A7
:10112000CB018A0120910302222389F0EB016B019C
:10113000C40ED51ECC15DD0569F06991D701ED917E
:10114000FC910190F081E02DC7010995F3CF642F48
:101150000E94F409C801DF91CF911F910F91FF9078
:10116000EF90DF90CF900895CB01BA010C94510914
:1011700081E0809303026093260210920502109290
:10118000040208950C94B8080F93062F21E04091B3
:10119000040266E072E0809126020E94A409109287
:1011A000050210920402109203020F9108954F92CB
:1011B0005F926F927F92AF92BF92CF92EF92FF9227
:1011C0000F931F93CF93DF935C01F62ED42F28014A
:1011D0003901EE2019F10E94B808CE2DC43008F074
:1011E000C3E0C150B8F028E0C29FC0011124A301A0
:1011F000920104C056954795379527958A95D2F761
:10120000B901D501ED91FC910190F081E02DC5016E
:101210000995E7CF60E0C5010E94C4084D2FD13287
:1012200008F040E22C2D69E272E08F2D0E946409E3
:101230001092280280932702DF91CF911F910F9186
:10124000FF90EF90CF90BF90AF907F906F905F90A6
:101250004F900895CF92EF920F931F93C22EE12CDF
:1012600000E010E098010E94D7081F910F91EF90C5
:10127000CF90089521E00C942A0961E00C94C408F1
:10128000E7EFF1E01382128288EE93E0A0E0B0E095
:1012900084839583A683B78388EA91E091838083D2
:1012A00008959B01AC0160E074E284EF90E00E943D
:1012B0004B112051310941095109569547953795F0
:1012C00027952093B80008954132E0F59091980257
:1012D0009111FCCF91E090939802209396022FEF0A
:1012E000209349027093900260938F0210928E02B5
:1012F000240F20938D029093970290919702880F6C
:10130000892B80939702809195028130C9F41092C5
:101310009502809197028093BB008091BC0083FD71
:10132000F8CF85EC8093BC00809198028130E1F386
:1013300080918E02841710F440918E02842F0895BC
:1013400085EEF0CF40E0FACF0F93413208F044C071
:10135000909198029111FCCF92E0909398020093A3
:1013600096029FEF909349027093900260938F02D0
:1013700010928E0240938D021092970290919702E4
:10138000880F892B8093970280919502813011F507
:1013900010929502809197028093BB008091BC00CF
:1013A00083FDF8CF85EC8093BC00222321F080914F
:1013B00098028230D1F3809149028F3F79F0809179
:1013C0004902803269F080914902803359F084E00B
:1013D0000F91089585EEE7CF81E0FACF80E0F8CF56
:1013E00082E0F6CF83E0F4CF20916B02260F332703
:1013F000331F21323105ECF420919802FC0190E07A
:1014000080E0243069F082E00895A0916B02219180
:10141000AC0143595D4FA40FB52FB11D2C9301961C
:10142000861798F380916B02680F60936B0280E0DF
:10143000089581E0089585ED8093BC008091BC0003
:1014400084FDFCCF10929802089585EC8093BC0037
:101450001092980208951F920F920FB60F921124C6
:101460000BB60F922F933F934F935F936F937F939E
:101470008F939F93AF93BF93EF93FF938091B900A6
:10148000887F803609F44EC008F041C0883209F4E4
:10149000AAC028F5803109F49EC0C8F4882309F455
:1014A00007C1883009F497C0FF91EF91BF91AF91C8
:1014B0009F918F917F916F915F914F913F912F916C
:1014C0000F900BBE0F900FBE0F901F901895883194
:1014D00009F489C0803241F78093490215C08034F5
:1014E00009F4A6C048F48033B9F38833E9F6809351
:1014F00049020E94250AD8CF803509F489C0883571
:1015000009F49EC0883481F60E941B0ACDCF883929
:1015100009F494C038F5883729F050F4883611F072
:10152000803711F683E08093980210924A0257C0E8
:10153000883809F483C0803919F0803809F0B4CFB5
:1015400080914A02803208F079C0E0914A0281E03D
:101550008E0F80934A028091BB00F0E0E55BFD4F67
:1015600080833DC0803B39F0E0F4803A09F485C0C7
:10157000883A09F099CF84E08093980210926C0227
:1015800010926B02E0919302F09194020995809180
:101590006B0281110FC081E080936B0210926D028B
:1015A00009C0803C09F482C0883C09F47FC0883BB4
:1015B00009F07ACFE0916C0281E08E0F80936C028B
:1015C000F0E0E359FD4F80818093BB0090916C0265
:1015D00080916B0231C0809197028093BB0085ECB3
:1015E0008093BC0061CF90918E0280918D029817FC
:1015F000B8F580918F0290919002E0918E0221E0E7
:101600002E0F20938E02E80FF92FF11D8081E5CF78
:1016100020918F0230919002E0918E0281E08E0F36
:1016200080938E028091BB00E20FF32FF11D808327
:1016300090918E0280918D02981788F285E8D0CF24
:1016400020918F0230919002E0918E0281E08E0F06
:1016500080938E028091BB00E20FF32FF11D8083F7
:1016600080919602811150CF81E08093950284EAA7
:101670008093BC001092980217CF0E94250A809197
:101680004A02803230F4E0914A02F0E0E55BFD4F1F
:10169000108260914A0270E0E0919102F091920212
:1016A0008BE492E0099510924A02FECE85ECE0CFE1
:1016B0001092490229CFFC01918D228D892F90E053
:1016C000805C9F4F821B91098F7399270895FC01BD
:1016D000918D828D981731F0828DE80FF11D858DE7
:1016E00090E008958FEF9FEF0895FC01918D828D1A
:1016F000981761F0A28DAE0FBF2FB11D5D968C9132
:10170000928D9F5F9F73928F90E008958FEF9FEF70
:101710000895FC01538D448D252F30E0842F90E0F7
:10172000821B930B541710F0CF96089501970895DC
:101730008AEF9CE0892B49F080E090E0892B29F02A
:101740000E94FA0C81110E94000080E090E0892B39
:1017500049F080E090E0892B29F00E94000081117F
:101760000C9400000895FC01A48DA80FB92FB11DA1
:10177000A35ABF4F2C91848D90E001968F739927C7
:10178000848FA689B7892C93A089B1898C918370A5
:1017900080648C93938D848D981306C00288F3899E
:1017A000E02D80818F7D80830895CF93DF93EC01BE
:1017B000888D8823B9F0AA89BB89E889F9898C9139
:1017C00085FD03C0808186FD0DC00FB607FCF7CFF5
:1017D0008C9185FFF2CF808185FFEDCFCE010E94F5
:1017E000B30BE9CFDF91CF910895EF92FF920F9362
:1017F0001F93CF93DF93EC0181E0888F9B8D8C8DBD
:1018000098131AC0E889F989808185FF15C09FB7B0
:10181000F894EE89FF896083E889F9898081837073
:10182000806480839FBF81E090E0DF91CF911F9122
:101830000F91FF90EF900895F62E0B8D10E00F5F43
:101840001F4F0F731127E02E8C8D8E110CC00FB619
:1018500007FCFACFE889F989808185FFF5CFCE01B1
:101860000E94B30BF1CFEB8DEC0FFD2FF11DE35A6E
:10187000FF4FF0829FB7F8940B8FEA89FB89808134
:101880008062CFCFCF92DF92EF92FF921F93CF93E0
:10189000DF93EC016A017B01122FE889F98982E06C
:1018A0008083C11481EED806E104F104A1F060E068
:1018B00079E08DE390E0A70196010E944B11215041
:1018C00031094109510956954795379527952115B5
:1018D00080E1380798F0E889F989108260E874E8B7
:1018E0008EE190E0A70196010E944B112150310931
:1018F000410951095695479537952795EC85FD8502
:101900003083EE85FF852083188EEC89FD89108356
:10191000EA89FB89808188698083EA89FB898081E3
:101920008F7D8083DF91CF911F91FF90EF90DF90AB
:10193000CF9008951F920F920FB60F9211240BB6FD
:101940000F922F938F939F93EF93FF93E091A902B0
:10195000F091AA028081E091AF02F091B00282FD85
:101960001DC090818091B2028F5F8F732091B3026E
:10197000821741F0E091B202F0E0E756FD4F958FFB
:101980008093B202FF91EF919F918F912F910F90D1
:101990000BBE0F900FBE0F901F9018958081F2CF55
:1019A0001F920F920FB60F9211240BB60F922F9326
:1019B0003F934F935F936F937F938F939F93AF93D7
:1019C000BF93EF93FF9389E992E00E94B30BFF91DD
:1019D000EF91BF91AF919F918F917F916F915F91A7
:1019E0004F913F912F910F900BBE0F900FBE0F9014
:1019F0001F90189589E992E00E945B0B21E0892BEA
:101A000009F420E0822F0895E9E9F2E013821282BE
:101A100088EE93E0A0E0B0E084839583A683B7834B
:101A20008AEB91E09183808385EC90E095878487B1
:101A300084EC90E09787868780EC90E0918B808B98
:101A400081EC90E0938B828B82EC90E0958B848B81
:101A500086EC90E0978B868B118E128E138E148EEF
:101A60000895AF92BF92CF92DF92EF92FF920F93C1
:101A70001F93CF93DF936C017B018B01040F151F24
:101A8000EB015E01AE18BF08C017D10759F069918C
:101A9000D601ED91FC910190F081E02DC6010995F0
:101AA000892B79F7C501DF91CF911F910F91FF909D
:101AB000EF90DF90CF90BF90AF900895FB01019021
:101AC0000020E9F73197AF01461B570BDC01ED9180
:101AD000FC910280F381E02D0994DB0114964D9175
:101AE0005C9115976D917C91DC01ED91FC910280E8
:101AF000F381E02D099468EC71E00C945E0D0F9376
:101B00001F93CF93DF93EC010E946D0D8C01CE01EA
:101B10000E947B0D800F911FDF91CF911F910F913C
:101B200008950F931F93CF93DF938C01D0E0C0E013
:101B30006115710519F00E945E0DEC01C8010E944B
:101B40007B0D8C0F9D1FDF91CF911F910F910895F9
:101B5000FC0180819181009711F00C945A12089534
:101B6000CF93DF93EC0188819981009711F00E9457
:101B70005A12198218821D821C821B821A82DF91DE
:101B8000CF9108950F931F93CF93DF93EC018B01B7
:101B90006F5F7F4F888199810E94E312009751F017
:101BA000998388831B830A8381E0DF91CF911F9102
:101BB0000F91089580E0F9CFCF93DF93EC018881F6
:101BC0009981892B49F08A819B818617970720F09C
:101BD00081E0DF91CF910895CE010E94C20D88234C
:101BE000C1F38C819D81892B99F7E881F98110825D
:101BF000EFCFEF92FF920F931F93CF93DF93EC0100
:101C00007B018A01BA010E94DC0D81110BC0CE015B
:101C10000E94B00DCE01DF91CF911F910F91FF90E7
:101C2000EF9008951D830C83B701888199810E94EC
:101C3000CD13F0CFFC011182108213821282158223
:101C400014826115710551F0FB0101900020E9F744
:101C50003197AF01461B570B0C94F90D0895FB010A
:101C600001900020E9F73197AF01461B570B0C9408
:101C7000F90D0F931F93CF93DF93CDB7DEB729975D
:101C80000FB6F894DEBF0FBECDBF8C01862FF801D2
:101C900011821082138212821582148250E0BE01DA
:101CA0006F5F7F4F90E00E941B14BE016F5F7F4FFC
:101CB000C8010E942F0E29960FB6F894DEBF0FBE02
:101CC000CDBFDF91CF911F910F9108950F931F9377
:101CD000CF93DF93CDB7DEB761970FB6F894DEBF31
:101CE0000FBECDBF8C01CB01F8011182108213828F
:101CF00012821582148250E0BE016F5F7F4F0E94F6
:101D00001B14BE016F5F7F4FC8010E942F0E6196AA
:101D10000FB6F894DEBF0FBECDBFDF91CF911F91FC
:101D20000F9108950F931F93CF93DF93CDB7DEB735
:101D3000A2970FB6F894DEBF0FBECDBF8C01CB01CA
:101D4000BA01F80111821082138212821582148264
:101D500030E0AE014F5F5F4F0E94D413BE016F5F52
:101D60007F4FC8010E942F0EA2960FB6F894DEBFD7
:101D70000FBECDBFDF91CF911F910F9108950F93AB
:101D80001F93CF93DF93CDB7DEB7A1970FB6F8942B
:101D9000DEBF0FBECDBF8C01CB01BA01F8011182AD
:101DA0001082138212821582148230E0AE014F5FDE
:101DB0005F4F0E94EE13BE016F5F7F4FC8010E940C
:101DC0002F0EA1960FB6F894DEBF0FBECDBFDF91E8
:101DD000CF911F910F910895CF93DF93EC01FB01F9
:101DE0008617970749F0608171816115710541F08F
:101DF000448155810E94F90DCE01DF91CF91089564
:101E00000E94B00DF9CFFC01118210821382128260
:101E1000158214820C94EC0EEF92FF920F931F9395
:101E2000CF93DF936115710541F480E0DF91CF918D
:101E30001F910F91FF90EF90089541155105B1F05A
:101E40007B01EC010C811D81040F151FB8010E945C
:101E5000DC0D882351F3288139818C819D81B70164
:101E6000820F931F0E94CD131D830C8381E0DECF70
:101E7000FB0144815581608171810C940C0F6115C7
:101E8000710551F0FB0101900020E9F73197AF0196
:101E9000461B570B0C940C0F80E00895CF93DF93F3
:101EA000EC01FB0144815581608171810E940C0F1E
:101EB000811103C0CE010E94B00DCE01DF91CF9100
:101EC0000895CF93DF93EC016115710539F4CE01CC
:101ED0000E94B00DCE01DF91CF910895FB010190DA
:101EE0000020E9F73197AF01461B570B0E940C0FFA
:101EF000882369F3EFCF08950E943E100E947B0F64
:101F00000E947A02C8E9DBE00E94B1002097E1F369
:101F10000E94980BF9CF1F920F920FB60F921124C7
:101F20002F933F938F939F93AF93BF9380913B03E6
:101F300090913C03A0913D03B0913E0330913A0350
:101F400023E0230F2D3768F126E8230F0296A11D09
:101F5000B11D20933A0380933B0390933C03A093DD
:101F60003D03B0933E038091360390913703A091D7
:101F70003803B09139030196A11DB11D809336033A
:101F800090933703A0933803B0933903BF91AF9177
:101F90009F918F913F912F910F900FBE0F901F90A7
:101FA00018950196A11DB11DD4CF3FB7F89480912B
:101FB000360390913703A0913803B091390326B5C9
:101FC000A89B05C02F3F19F00196A11DB11D3FBF71
:101FD000BA2FA92F982F8827BC01CD01620F711D40
:101FE000811D911D42E0660F771F881F991F4A953A
:101FF000D1F708958F929F92AF92BF92CF92DF92C6
:10200000EF92FF926B017C010E94D50F4B015C01A6
:10201000C114D104E104F104E9F00E9412110E94FC
:10202000D50F681979098A099B09683E73408105B3
:10203000910570F321E0C21AD108E108F10888EE99
:10204000880E83E0981EA11CB11CC114D104E104C8
:10205000F10429F7FF90EF90DF90CF90BF90AF9001
:102060009F908F9008958230910538F0880F991FC6
:10207000880F991F05970197F1F70895789484B513
:10208000836084BD85B5836085BDEEE6F0E0808128
:1020900081608083E1E8F0E082E08083808181607C
:1020A0008083E0E8F0E0808181608083E1EBF0E014
:1020B000808184608083E0EBF0E0808181608083B8
:1020C000E1E9F0E0808183608083E0E9F0E08081F5
:1020D0008160808387E880937A001092C100089520
:1020E00082508A3088F5E82FF0E0E758FF4E0C94D4
:1020F0008C11A110A51083108910A410A4108D10AC
:10210000931097109D10809180008F7780938000AE
:102110000895809180008F7DF9CF8091B0008F77F6
:102120008093B00008958091B0008F7DF9CF8091A9
:1021300090008F77809390000895809190008F7D1C
:10214000F9CF84B58F7784BD089584B58F7DFBCF9B
:10215000CF93DF9390E0FC01E455FF4F249184532B
:102160009F4FFC0184918823C9F090E0880F991F4C
:10217000FC01EA50FF4FA591B491FC01E451FF4FDF
:10218000C591D49161110DC09FB7F8948C912095A1
:1021900082238C938881282328839FBFDF91CF914E
:1021A0000895623051F49FB7F8943C91822F809546
:1021B00083238C93E8812E2BEFCF8FB7F894EC918B
:1021C0002E2B2C938FBFEACF1F93CF93DF93282F13
:1021D00030E0F901E457FF4F8491F901E455FF4FD6
:1021E000D491F901E453FF4FC491CC23A9F0162FE9
:1021F00081110E947010EC2FF0E0EE0FFF1FE451F0
:10220000FF4FA591B4918FB7F894EC91111108C0CC
:10221000D095DE23DC938FBFDF91CF911F9108957E
:10222000DE2BF8CF0895DB018F939F930E949C11C2
:10223000BF91AF91A29F800D911DA39F900DB29F62
:10224000900D11240895AA1BBB1B51E107C0AA1FC2
:10225000BB1FA617B70710F0A61BB70B881F991F47
:102260005A95A9F780959095BC01CD01089597FBEB
:10227000072E16F4009407D077FD09D00E94231191
:1022800007FC05D03EF4909581959F4F0895709579
:1022900061957F4F0895A1E21A2EAA1BBB1BFD0179
:1022A0000DC0AA1FBB1FEE1FFF1FA217B307E40735
:1022B000F50720F0A21BB30BE40BF50B661F771F8D
:1022C000881F991F1A9469F760957095809590956D
:1022D0009B01AC01BD01CF010895052E97FB1EF4B3
:1022E00000940E94841157FD07D00E944B1107FCF7
:1022F00003D04EF40C94841150954095309521955F
:102300003F4F4F4F5F4F0895909580957095619521
:102310007F4F8F4F9F4F0895EE0FFF1F0024001C2B
:102320000BBE0790F691E02D09940E94AF11B7FF04
:102330000895821B930B08950E94AF11A59F900DE5
:10234000B49F900DA49F800D911D11240895B7FF97
:102350000C949C110E949C11821B930B0895A29FC8
:10236000B001B39FC001A39F700D811D1124911D69
:10237000B29F700D811D1124911D08950F931F931D
:10238000CF93DF938230910510F482E090E0E091EA
:102390004103F091420330E020E0B0E0A0E030974C
:1023A00099F42115310509F44AC0281B390B243052
:1023B0003105D8F58A819B816115710589F1FB0191
:1023C00093838283FE0111C0408151810281138178
:1023D00048175907E0F04817590799F4109761F02A
:1023E00012960C93129713961C933296CF01DF919D
:1023F000CF911F910F9108950093410310934203D1
:10240000F4CF2115310551F04217530738F0A901D7
:10241000DB019A01BD01DF01F801C1CFEF01F9CF66
:102420009093420380934103CDCFFE01E20FF31F4F
:10243000819391932250310939832883D7CF2091FA
:102440003F0330914003232B41F42091020130914E
:1024500003013093400320933F032091000130910A
:1024600001012115310541F42DB73EB7409104011A
:1024700050910501241B350BE0913F03F09140037F
:10248000E217F307A0F42E1B3F0B2817390778F04B
:10249000AC014E5F5F4F2417350748F04E0F5F1FAA
:1024A0005093400340933F03819391939FCFF0E07B
:1024B000E0E09CCFCF93DF930097E9F0FC013297E7
:1024C00013821282A0914103B0914203ED0130E0EA
:1024D00020E01097A1F420813181820F931F209179
:1024E0003F03309140032817390709F061C0F0938A
:1024F0004003E0933F03DF91CF910895EA01CE17A7
:10250000DF07E8F54A815B819E0141155105B1F76E
:10251000E901FB83EA8349915991C40FD51FEC1758
:10252000FD0761F4808191810296840F951FE90176
:1025300099838883828193819B838A83F0E0E0E0A2
:1025400012968D919C9113970097B9F52D913C911E
:102550001197CD010296820F931F20913F03309176
:1025600040032817390739F6309751F51092420386
:1025700010924103B0934003A0933F03BCCFD38399
:10258000C28340815181840F951FC817D90761F418
:102590004E5F5F4F88819981480F591F5183408357
:1025A0008A819B81938382832115310509F0B0CF05
:1025B000F0934203E09341039ECFFD01DC01C0CFC5
:1025C00013821282D7CF4F925F926F927F928F9237
:1025D0009F92AF92BF92CF92DF92EF92FF920F93B2
:1025E0001F93CF93DF938C01009799F4CB01DF9178
:1025F000CF911F910F91FF90EF90DF90CF90BF9000
:10260000AF909F908F907F906F905F904F900C94C1
:10261000BE11FC01E60FF71F9C0122503109E217A1
:10262000F30708F4AEC0D901CD91DC911197C6171C
:10263000D70720F1C530D10578F0CE010497861771
:10264000970750F0C61BD70B2297C193D1936D9378
:102650007C93CF010E945A12C801DF91CF911F9144
:102660000F91FF90EF90DF90CF90BF90AF909F9031
:102670008F907F906F905F904F9008955B01AC1AA0
:10268000BD0A4C018C0E9D1EA0914103B0914203E6
:10269000512C412CF12CE12C109731F580913F0306
:1026A000909140038815990509F05CC046165706BD
:1026B00008F058C08091000190910101009741F409
:1026C0008DB79EB74091040150910501841B950B75
:1026D000E817F90708F055C0F0934003E0933F0373
:1026E000F90171836083B8CF8D919C9111971296F7
:1026F0006C90129713967C901397A815B90559F50D
:102700006C0142E0C40ED11CCA14DB0420F1AC0100
:102710004A195B09DA011296159780F0628273827A
:1027200051834083D9016D937C93E114F10471F0DE
:10273000D7011396FC93EE9312978ECF22968C0FAF
:102740009D1FF90191838083F301EFCFF093420342
:10275000E093410381CF4816590608F42C017D010E
:10276000D3019ACFCB010E94BE117C01009749F0A2
:10277000AE01B8010E94C413C8010E945A12870119
:102780006BCF10E000E068CFFB01DC0102C00190DC
:102790000D9241505040D8F70895FB01DC010190A3
:1027A0000D920020E1F708952532310520F4223002
:1027B00010F00C94DF13FA011082CA010895BB27B0
:1027C0002A3051F4992342F4BDE29095809570959A
:1027D00061957F4F8F4F9F4F0C94FA13253231052F
:1027E00020F4223010F00C94F913FA011082CA017F
:1027F0000895BB27FA01A62F62177105810591057F
:10280000330B30FB66F0AA27660F771F881F991FCE
:10281000AA1FA21710F0A21B63953850A9F7A05D5C
:10282000AA3308F0A95DA19336F7B111B1931082D4
:10283000CA010C9440144532510520F4423010F086
:102840000C942614FB011082CB010895BB27FB01D9
:102850005527AA27880F991FAA1FA41710F0A41B99
:1028600083955051B9F7A05DAA3308F0A95DA193F3
:10287000009779F7B111B1931192CB010C944014E8
:10288000DC01FC01672F71917723E1F7329704C0D7
:102890007C916D9370836291AE17BF07C8F3089562
:1028A00010E0C4E8D0E004C0FE010E948C11219623
:0A28B000C538D107C9F7F894FFCF2F
:1028BA00000043038000030002001F1C1F1E1F1E8E
:1028CA001F1F1E1F1E1F00FFFFFFFF000A11181CFB
:1028DA0001080DFFFF0700000000070606040407B1
:1028EA000000000024484953542C004C3530305F16
:1028FA00003334346538393337613735313265332B
:10290A0032646430376538343930646463623562FE
:10291A006462333738626639312C43495F616374C4
:10292A00696F6E00234376616B2E2E2E0023486D4D
:10293A006D6D2E2E2E0024444F532C4C4142444F91
:10294A00533031412C003033003000510000020076
:10295A000000000000000000580887082B085708EC
:10296A002E083508480800000000F50B310D890BC8
:0C297A00D50B5B0B750B670B0D0A000002
:00000001FF
