:100000000C948E000C94B8000C94B8000C94B800BA
:100010000C94B8000C94B8000C94B8000C94B80080
:100020000C94B8000C94B8000C94B8000C94B80070
:100030000C94B8000C94B8000C94B8000C94B80060
:100040000C94B8000C94B8000C9402220C94B800E4
:100050000C94CB1E0C94011F0C94B8000C94B800A7
:100060000C94B8000C94B8000C9438090C94B800A7
:100070000C94B8000C94B8000C94B8000C94B80020
:100080000C94B8000C94B8000C94B8007C3C3E5E14
:100090002B3D3F2F5B5D3B2C2A225C0000000002C1
:1000A00003000A0B0000000005040908000000001E
:1000B0000000000000000000000000000102040831
:1000C0001020408001020408102040800102040832
:1000D0001020408001020408102040800202020229
:1000E00002020202040404040404040403030303DC
:1000F00003030303010101010101010100002200CA
:10010000250028002B0000002100240027002A00E1
:10011000EB004D08510E7511351FFD0011241FBE57
:10012000CFEFD0E4DEBFCDBF11E0A0E0B1E0EEE064
:10013000FDE400E00BBF02C007900D92A83FB1079D
:10014000D9F725E0A8EFB1E001C01D92A03CB207AD
:10015000E1F710E0CDE8D0E004C02197FE010E9455
:10016000B823C838D107C9F70E94F3210C947A2626
:100170000C940000DC01ED91FC910190F081E02DE8
:100180000994982F92959F708F702AE0929F800D0E
:1001900011240895813041F08230A9F064E670E0C6
:1001A00080E090E00C947D2261E086E00E942B23A9
:1001B00061E085E00E942B2385B18E6085B960E007
:1001C00084E00C94672361E084E00E94672385B19A
:1001D000817F85B908956EE071E085E192E00E942B
:1001E000BE206BE171E08FE092E00E94BE2066EFDE
:1001F00071E089E092E00C94BE2089E092E00E94D8
:100200004C208FE092E00E944C2085E192E00C941B
:100210004C20CF93DF9361E570E08BE192E00E9488
:10022000CC0770E060E08BE192E00E94BA008BE1C5
:1002300092E00E944A0846E050E061E570E08BE100
:1002400092E00E9447088BE192E00E943F070E94E3
:10025000C1008093F8018BE192E00E943F078F7705
:100260000E94C100D82F8BE192E00E943F078F7758
:100270000E94C100C82F8BE192E00E943F070E94BC
:10028000C10090E0B0E0A0E08093F9019093FA0102
:10029000A093FB01B093FC018BE192E00E943F0729
:1002A0000E94C10024E6829FC0011124092E000C87
:1002B000AA0BBB0B4091F9015091FA016091FB012F
:1002C0007091FC01840F951FA61FB71F8093F90141
:1002D0009093FA01A093FB01B093FC018BE192E0B3
:1002E0000E943F070E94C10040E157E2849F9001B5
:1002F000859F300D1124032E000C440B550B80916B
:10030000F9019091FA01A091FB01B091FC01280F35
:10031000391F4A1F5B1FA0E1BEE00E94C123AB0151
:10032000BC012CE3C29FC0011124092E000CAA0BB2
:10033000BB0B8D0F911DA11DB11D840F951FA61F15
:10034000B71F8093F9019093FA01A093FB01B0933A
:10035000FC01DF91CF9108956F927F928F929F92CF
:10036000AF92BF92CF92DF92EF92FF920F931F93C3
:10037000CF93DF93CDB7DEB7C752D8400FB6F8940E
:10038000DEBF0FBECDBFFE0131968E010F5F174F4E
:100390007F0111921192E017F107D9F780910601C0
:1003A00020E4829FC0011124806180937C00109220
:1003B0007B0080917A00806280937A0080917A003D
:1003C000806480937A0080917A00846080937A00C0
:1003D00080917A00826080937A0080917A008160B7
:1003E00080937A0081E085B980917A008061809362
:1003F0007A0080917A0084FFFCCF8FE984B984E68B
:1004000090E00E94B6228EE984B980917A008061E2
:1004100080937A0080917A0084FFFCCF8FE984B9C1
:1004200087E090E00E94B6228EE984B980917A003C
:10043000806180937A00AA24AA94BA2C9924939478
:10044000D12CC12C7FE9772EEEE96E2E80917A00B7
:1004500084FFFCCF8CE090E00E94B62283B074B899
:1004600087E090E00E94B62264B880917A008061B3
:1004700080937A00909178009093000280917900A7
:100480008093FF018927982789278115E2E09E073D
:1004900050F59E5F9093FE018093FD0190FE25C074
:1004A000FFEFCF1ADF0A21E0A21AB108982C71F6EB
:1004B0002091080130910901C9010296FC01EE0F5B
:1004C000FF1FEE0DFF1D812C912C54012C503E4F2F
:1004D00082179307C0F441915191840E951EA11C7F
:1004E000B11C0196F5CF9250D5CFE091FD01F0916E
:1004F000FE01EE0FFF1FEE0DFF1D80819181019621
:1005000091838083D0CF61E087E10E94672366EF0B
:1005100071E0CE018E5D974F0E94BE200E940901BE
:100520006EE471E0CE018E5D974F0E94B62160911E
:100530000502709106024AE0C8010E940A21B80132
:10054000CE018E5D974F0E94AF21C8010E944C20C2
:100550006EE971E0CE018E5D974F0E94B621409109
:10056000F9015091FA016091FB017091FC012AE0C0
:10057000C8010E943621B801CE018E5D974F0E94BE
:10058000AF21C8010E944C2065E871E0CE018E5D6C
:10059000974F0E94B6214AE06091F801C8010E947D
:1005A000DD20B801CE018E5D974F0E94AF21C801BA
:1005B0000E944C206EE971E0CE018E5D974F0E9443
:1005C000B6214AE0B601C8010E940A21B801CE0155
:1005D0008E5D974F0E94AF21C8010E944C206EE9AA
:1005E00071E0CE018E5D974F0E94B6212AE0B501E1
:1005F000A401C8010E943621B801CE018E5D974F3B
:100600000E94AF21C8010E944C2080910801909166
:1006100009016C01E1E0CE1AD10881509048880FA1
:10062000991FE80EF91E80910801909109018D50E3
:100630009E4FC816D906E0F46EE971E0CE018E5DDA
:10064000974F0E94B621F701619171917F014AE0B5
:10065000C8010E940A21B801CE018E5D974F0E9409
:10066000AF21C8010E944C20FFEFCF1ADF0ADBCF79
:1006700080910701882389F181E00E94CA0064E02B
:100680008DEB92E00E949B0C65E571E0882309F4F4
:1006900059C04091090250910A0223E16DEB72E0CA
:1006A000C8010E94BB0DC8010E948F0B882309F46A
:1006B00047C061E086E10E946723BE016E5D774F0F
:1006C000C8010E94B81FC8010E947D0B60E086E14E
:1006D0000E94672382E00E94CA00BE016E5D774FD0
:1006E00086E195E00E94B81F60E087E10E946723E1
:1006F00080910502909106020196893F2AE29207B5
:1007000040F59093060280930502CE018E5D974FCF
:100710000E944C20C95DD74F0FB6F894DEBF0FBEC4
:10072000CDBFDF91CF911F910F91FF90EF90DF90A0
:10073000CF90BF90AF909F908F907F906F900895D3
:1007400064E671E086E195E00E94CA1F10920701FD
:10075000C1CF1092060210920502609107027091BB
:1007600008026F5F7F4F70930802609307024AE0B0
:10077000CE01845E974F0E940A21BE01645E774FCE
:10078000C8010E947A216EE671E0C8010E94D8215A
:10079000BC0189E092E00E946321C8010E944C20C4
:1007A000CE01845E974F0E944C2063E771E086E1A2
:1007B00095E00E94AC1F69E072E086E195E00E943E
:1007C000B81FA3CFCF92DF92EF92FF920F931F93A8
:1007D000CF93DF93CDB7DEB7C254D1090FB6F894EB
:1007E000DEBF0FBECDBF61E085E10E942B2361E03B
:1007F00085E10E94672364E670E080E090E00E945B
:100800007D2226E040E052EC61E070E086E195E078
:100810000E94731E6EE771E086E195E00E94CA1F98
:1008200061E080E00E942B238EE984B915B88CEF3B
:1008300081B912B89CEE97B918B88AB980E88BB91B
:1008400040EA56E861E070E08BE192E00E94BE076A
:1008500061E085E10E942B2361E085E10E9467232E
:1008600067E871E086E195E00E94CA1F8091060169
:1008700020E4829FC0011124816180937C0062E3A7
:1008800070E080E090E00E947D2210927B008091D9
:100890007A00806280937A0080917A0080648093ED
:1008A0007A0080917A00846080937A0080917A0047
:1008B000826080937A0080917A00816080937A00D0
:1008C00080917A00806180937A0080917A0084FF21
:1008D000FCCF80917A00806180937A0028E080913B
:1008E0007A0084FFFCCF80917A00806180937A0047
:1008F0009091780090930002809179008093FF019D
:10090000892798278927811532E0930708F088C145
:100910009E5F9093FE018093FD018091FD01909177
:10092000FE01080F191F2150D1F683E01695079597
:100930008A95E1F7109309010093080161E570E0E1
:100940008BE192E00E94CC0763E28BE192E00E948F
:10095000620760E08BE192E00E94620760E08BE159
:1009600092E00E94620765E08BE192E00E946207DC
:1009700060E08BE192E00E94620760E08BE192E030
:100980000E94620767E98BE192E00E94620760E0E3
:100990008BE192E00E94620760E08BE192E00E94AE
:1009A00062078BE192E00E944A0861E570E08BE10A
:1009B00092E00E94CC076FE270E08BE192E00E942F
:1009C000BA006CE270E08BE192E00E94BA008BE129
:1009D00092E00E944A0861E570E08BE192E00E949B
:1009E000CC0768E270E08BE192E00E94BA0067E910
:1009F00070E08BE192E00E94BA008BE192E00E94ED
:100A00004A0861E570E08BE192E00E94CC0760E06B
:100A10008BE192E00E94620760E08BE192E00E942D
:100A2000620760E08BE192E00E94620760E08BE188
:100A300092E00E94620760E08BE192E00E94620710
:100A400060E08BE192E00E94620760E08BE192E05F
:100A50000E9462078BE192E00E944A0860910801BF
:100A6000709109014AE0CE0101960E940A2160E9D5
:100A700071E0CE014C960E94BE2065E172E0CE018D
:100A80004C960E94C52160EA71E00E94D8216EE96F
:100A900071E00E94D821BE016F5F7F4F0E94C52187
:100AA0006EE971E00E94D8216FE072E00E94C521DA
:100AB0006EE971E00E94D821BC01CE01CD960E9462
:100AC0007A21CE014C960E944C20CE0101960E94C4
:100AD0004C2068E570E08BE192E00E94CC0768E072
:100AE00070E08BE192E00E94BA0070E060E08BE180
:100AF00092E00E94BA008BE192E00E944A0840E135
:100B000068E58BE192E00E94440810E18BE192E0FD
:100B10000E943F07082F803130F463EA71E0CE0174
:100B2000CD960E94B62140E1602FCE0101960E9431
:100B3000DD20BE016F5F7F4FCE01CD960E94AF21B9
:100B4000CE0101960E944C208091010290910202F8
:100B5000A0910302B0910402800F911DA11DB11D4F
:100B60008093010290930202A0930302B0930402C7
:100B7000115061F661E086E10E942B2361E086E17D
:100B80000E94672381E00E94CA0064E08DEB92E03E
:100B90000E949B0C811108C065E571E086E195E03B
:100BA0000E94CA1F1092070181E090E09093080212
:100BB000809307026091070270910802683C7105FA
:100BC00088F54AE0CE014C960E940A21BE01645E7F
:100BD0007F4FCE0101960E947A216EE671E0CE0130
:100BE00001960E94D821BC0189E092E00E94632115
:100BF000CE0101960E944C20CE014C960E944C20C2
:100C00006091090270910A028DEB92E00E94460EFB
:100C1000882341F080910702909108020196C6CF87
:100C2000925077CE6091070270910802615071096D
:100C300070930802609307024AE0CE014C960E942E
:100C40000A21BE01645E7F4FCE0101960E947A2187
:100C50006EE671E0CE0101960E94D821BC0189E0C8
:100C600092E00E946321CE0101960E944C20CE01A9
:100C70004C960E944C204091090250910A0223E1B7
:100C80006DEB72E0CE014C960E94BB0DCE014C96EE
:100C90000E943F0B6B017C0165EA71E086E195E003
:100CA0000E94AC1F2AE030E0B701A60186E195E082
:100CB0000E943A2089E6C81680E2D80689E5E8064F
:100CC000F10408F45BC0CE014C960E947D0B60914C
:100CD0000702709108026F5F7F4F70930802609364
:100CE00007024AE0CE01C7960E940A21BE01695C54
:100CF0007F4FCE0101960E947A216EE671E0CE010F
:100D000001960E94D821BC0189E092E00E946321F3
:100D1000CE0101960E944C20CE01C7960E944C2025
:100D20004091090250910A0223E16DEB72E0CE017D
:100D300001960E94BB0D8B819C819F8F8E8F8D8130
:100D40009E81AF81B88588A399A3AAA3BBA38985F7
:100D50009A85AB85BC858CA39DA3AEA3BFA3DE0102
:100D60001D96FE01B896CE01C5962D912193E817E8
:100D7000F907D9F78A8D9B8D9EAB8DAB63E771E048
:100D800086E195E00E94AC1F69E072E086E195E0A3
:100D90000E94B81FCE014C960E948F0B882309F445
:100DA0005BC061E087E10E942B2361E087E10E9444
:100DB0006723BE01635C7F4FCE014C960E94B81F33
:100DC000CE014C960E947D0BBE01635C7F4F86E195
:100DD00095E00E94B81F82E00E94CA0061E085E1B0
:100DE0000E942B2360E085E10E94672364E670E0A7
:100DF00080E090E00E947D2261E086E10E942B234A
:100E000060E086E10E94672364E670E080E090E0A5
:100E10000E947D2261E087E10E942B2360E087E150
:100E20000E94672364E670E080E090E00E947D22EB
:100E3000CE01CD960E944C20CE5BDF4F0FB6F894CA
:100E4000DEBF0FBECDBFDF91CF911F910F91FF90FD
:100E5000EF90DF90CF90089564E671E086E195E031
:100E60000E94CA1F10920701AFCF90E080E0089562
:100E700080914B0290914C02891B990B089590919F
:100E80004C0280914B022FEF3FEF981748F4E92F67
:100E9000F0E0E35BFD4F208130E09F5F90934C02D8
:100EA000C9010895E0914C0280914B02E81730F49B
:100EB000F0E0E35BFD4F808190E008958FEF9FEFBE
:100EC00008950895CF93DF931F92CDB7DEB769835E
:100ED000209127022223F9F020912802203258F095
:100EE00021E030E0FC013383228390E080E00F902A
:100EF000DF91CF91089580912902E82FF0E0E65D1F
:100F0000FD4F998190838F5F8093290280932802FF
:100F100081E090E0ECCF61E0CE0101960E940109F2
:100F2000F7CFCF92DF92EF92FF920F931F93CF9361
:100F3000DF937C01CB018A0120912702222389F0D3
:100F4000EB016B01C40ED51ECC15DD0569F069916E
:100F5000D701ED91FC910190F081E02DC701099539
:100F6000F3CF642F0E940109C801DF91CF911F9137
:100F70000F91FF90EF90DF90CF900895CB01BA01D1
:100F80000C945E0881E08093270260934A021092DD
:100F900029021092280208950C94C2070F93062F7D
:100FA00021E0409128026AE272E080914A020E94A8
:100FB000B1081092290210922802109227020F9174
:100FC00008954F925F926F927F92AF92BF92CF92AD
:100FD000EF92FF920F931F93CF93DF935C01F62E56
:100FE000D42F28013901EE2019F10E94C207CE2D1D
:100FF000C43008F0C3E0C150B8F028E0C29FC0017F
:101000001124A301920104C0569547953795279561
:101010008A95D2F7B901D501ED91FC910190F0814B
:10102000E02DC5010995E7CF60E0C5010E94CE071C
:101030004D2FD13208F040E22C2D6DE472E08F2D5F
:101040000E94710810924C0280934B02DF91CF9165
:101050001F910F91FF90EF90CF90BF90AF907F9036
:101060006F905F904F900895CF92EF920F931F93E0
:10107000C22EE12C00E010E098010E94E1071F91D0
:101080000F91EF90CF90089521E00C94340821E067
:101090000C94340861E00C94CE07EBE1F2E013828B
:1010A000128288EE93E0A0E0B0E084839583A6836B
:1010B000B78384EB91E09183808308959B01AC0119
:1010C00060E074E284EF90E00E94962320513109A1
:1010D0004109510956954795379527952093B800B2
:1010E00008954132E0F59091BC029111FCCF91E05E
:1010F0009093BC022093BA022FEF20936D0270935D
:10110000B4026093B3021092B202240F2093B10292
:101110009093BB029091BB02880F892B8093BB02F6
:101120008091B9028130C9F41092B9028091BB025A
:101130008093BB008091BC0083FDF8CF85EC809349
:10114000BC008091BC028130E1F38091B20284172F
:1011500010F44091B202842F089585EEF0CF40E064
:10116000FACF0F93413208F044C09091BC02911124
:10117000FCCF92E09093BC020093BA029FEF909351
:101180006D027093B4026093B3021092B202409366
:10119000B1021092BB029091BB02880F892B809301
:1011A000BB028091B902813011F51092B902809191
:1011B000BB028093BB008091BC0083FDF8CF85EC1F
:1011C0008093BC00222321F08091BC028230D1F3B5
:1011D00080916D028F3F79F080916D02803269F0CD
:1011E00080916D02803359F084E00F91089585EE6F
:1011F000E7CF81E0FACF80E0F8CF82E0F6CF83E05E
:10120000F4CF20918F02260F3327331F213231056F
:10121000ECF42091BC02FC0190E080E0243069F005
:1012200082E00895A0918F022191AC014F565D4F4D
:10123000A40FB52FB11D2C930196861798F38091BA
:101240008F02680F60938F0280E0089581E0089517
:1012500085ED8093BC008091BC0084FDFCCF109292
:10126000BC02089585EC8093BC001092BC020895E6
:101270001F920F920FB60F9211240BB60F922F935D
:101280003F934F935F936F937F938F939F93AF930E
:10129000BF93EF93FF938091B900887F803609F464
:1012A0004EC008F041C0883209F4AAC028F5803148
:1012B00009F49EC0C8F4882309F407C1883009F4F2
:1012C00097C0FF91EF91BF91AF919F918F917F91C7
:1012D0006F915F914F913F912F910F900BBE0F90A7
:1012E0000FBE0F901F901895883109F489C0803285
:1012F00041F780936D0215C0803409F4A6C048F40C
:101300008033B9F38833E9F680936D020E94320985
:10131000D8CF803509F489C0883509F49EC0883457
:1013200081F60E942809CDCF883909F494C038F598
:10133000883729F050F4883611F0803711F683E0B1
:101340008093BC0210926E0257C0883809F483C0A3
:10135000803919F0803809F0B4CF80916E02803264
:1013600008F079C0E0916E0281E08E0F80936E02EA
:101370008091BB00F0E0E159FD4F80833DC0803B90
:1013800039F0E0F4803A09F485C0883A09F099CF41
:1013900084E08093BC021092900210928F02E09140
:1013A000B702F091B802099580918F0281110FC0A8
:1013B00081E080938F021092910209C0803C09F471
:1013C00082C0883C09F47FC0883B09F07ACFE09165
:1013D000900281E08E0F80939002F0E0EF56FD4F77
:1013E00080818093BB009091900280918F0231C0E8
:1013F0008091BB028093BB0085EC8093BC0061CFE1
:101400009091B2028091B1029817B8F58091B30221
:101410009091B402E091B20221E02E0F2093B2022B
:10142000E80FF92FF11D8081E5CF2091B3023091B3
:10143000B402E091B20281E08E0F8093B2028091FB
:10144000BB00E20FF32FF11D80839091B2028091D7
:10145000B102981788F285E8D0CF2091B30230917D
:10146000B402E091B20281E08E0F8093B2028091CB
:10147000BB00E20FF32FF11D80838091BA0281112E
:1014800050CF81E08093B90284EA8093BC0010922F
:10149000BC0217CF0E94320980916E02803230F474
:1014A000E0916E02F0E0E159FD4F108260916E0212
:1014B00070E0E091B502F091B6028FE692E00995F6
:1014C00010926E02FECE85ECE0CF10926D0229CF15
:1014D000CF93DF931F92CDB7DEB76983DC01ED9127
:1014E000FC910280F381E02D41E050E0BE016F5F8E
:1014F0007F4F09950F90DF91CF910895CF93DF93A0
:10150000EC01E98DFA8D309749F481E090E09B83FE
:101510008A8390E080E0DF91CF9108951382128258
:10152000898D9A8D0E94FC16E98DFA8D2281338176
:10153000232B59F7F0CFFC01818D928D009711F08C
:101540000C948B140895CF93DF931F92CDB7DEB721
:1015500041E050E0BE016F5F7F4F0E94AF120197E4
:1015600031F4898190E00F90DF91CF9108958FEF52
:101570009FEFF9CFFC01818D928D009711F00C94B3
:10158000A30A8FEF9FEF08950F931F93CF93DF93DD
:10159000EC01898D9A8D10E000E0009799F00E948F
:1015A000A30A8C010F3F100769F0898D9A8DFC0109
:1015B00042855385648575854150510961097109DA
:1015C0000E94F713C801DF91CF911F910F910895E9
:1015D000EF92FF920F931F93CF93DF93EC017B0168
:1015E0008A011B821A8288EE93E0A0E0B0E08C832F
:1015F0009D83AE83BF8386EC91E0998388838DE1E0
:1016000090E00E94DB239A8F898F009779F02DE17B
:10161000F701DC0101900D922A95E1F74CE050E0D2
:10162000B801CE010C960E940926188EDF91CF9149
:101630001F910F91FF90EF900895FC011382128289
:1016400088EE93E0A0E0B0E084839583A683B7831F
:1016500086EC91E091838083128E118E148608951A
:10166000DC015996ED91FC91309729F062857385E4
:101670008485958508956FEF7FEFCB010895DC0198
:101680005996ED91FC91309729F063897489858989
:101690009689089560E070E0CB010895CF92DF92C3
:1016A000EF92FF92CF93DF93FC01218D328D232B9C
:1016B00009F1EC010E943F0B6B017C01CE010E94FD
:1016C000300BA7019601261B370B480B590BDA018B
:1016D000C901811530E89307A105B10520F08FEF0E
:1016E0009FE7A0E0B0E0DF91CF91FF90EF90DF9017
:1016F000CF90089590E080E0F6CFCF93DF93EC0198
:10170000898D9A8D009741F00E94D414898D9A8D0D
:101710000E9477241A8E198EDF91CF910895DC01F3
:101720005996ED91FC91309721F081E095819111CE
:1017300001C080E008951F93CF93DF93CDB7DEB74C
:101740006D970FB6F894DEBF0FBECDBFAB011C8204
:101750001B822AED31E03A8329831E8221E0BC01FD
:10176000CE0101960E940F1611E081110CC010E00D
:10177000812F6D960FB6F894DEBF0FBECDBFDF91FF
:10178000CF911F910895CE0101960E94D414F0CFFD
:10179000EF92FF920F931F93CF93DF937B01DB01B7
:1017A0002D913C91FC01E20FF31F60816F3211F427
:1017B0002F5F3F4F8C01020F131FEA01F0E0E0E0C2
:1017C000D8017D918D017F3249F0772339F02F5F69
:1017D0003F4F31967993EC30F10591F7E40FF51F07
:1017E0001082FC01E20FF31F40814F3211F42F5F92
:1017F0003F4FF70131832083280F391F81E0D90142
:101800009C91911101C080E0DF91CF911F910F91C8
:10181000FF90EF9008954F925F926F927F928F9218
:101820009F92AF92BF92CF92DF92EF92FF920F936F
:101830001F93CF93DF93CDB7DEB7C954D1090FB64D
:10184000F894DEBF0FBECDBF5C016B013A014901C8
:1018500019A218A28AED91E09F8F8E8F1BA21C8285
:101860001B829A8389831E822A961FAE1EAE2A97F8
:101870008B017E018EE1E80EF11C44244394AE01FD
:10188000455C5F4FBE01685B7F4FC5010E94C80B7E
:10189000582E482F44259401BE01655C7F4FC80136
:1018A000F3010995811120C00C151D05C9F480E0D4
:1018B000C75BDF4F0FB6F894DEBF0FBECDBFDF9121
:1018C000CF911F910F91FF90EF90DF90CF90BF903D
:1018D000AF909F908F907F906F905F904F90089502
:1018E000C8010E94D414E3CF552091F021E0AE014D
:1018F000455C5F4FB801C7010E940F16582E0C15AA
:101900001D0571F0C8010E94D41451100EC0CFCF34
:101910000C151D0519F0C8010E94D41481E0C8CF30
:10192000882329F28E010F5F1F4F902F812F87018F
:10193000E92EF82EA4CF0F931F93CF93DF93EC01E2
:10194000162F8FA5882321F0CE018A960E94D414E9
:10195000412F61E0CE010E94730F811102C090E01F
:1019600012C08E01045F1F4F41E0BE01C8010E94FA
:10197000361C882371F0B801CE018A960E945F124E
:1019800091E0882361F3892FDF91CF911F910F910F
:10199000089540E0BE01C8010E94361C8823F9F278
:1019A000EACFFC01DB0112968D919C9113979383F2
:1019B00082838AED91E09183808314968C911497B1
:1019C000848315968C911597858316964D915D911C
:1019D0006D917C91199746835783608771871A961A
:1019E0004D915D916D917C911D97428753876487DE
:1019F00075871E964D915D916D917C9151974687AB
:101A00005787608B718B52968C915297828B53962D
:101A10004D915D916D917C915697438B548B658B65
:101A2000768B57964D915D916D917C915A97478B2E
:101A3000508F618F728F5B968D919C91948F838F65
:101A400008954F925F926F927F928F929F92AF9282
:101A5000BF92CF92DF92EF92FF920F931F93CF939B
:101A6000DF93CDB7DEB7C754D1090FB6F894DEBF08
:101A70000FBECDBF5C014A013901665D7F4F7E011B
:101A80008EE1E80EF11CC7010E94D10C1C821B8262
:101A90008AED91E09A8389831E828401FE0131964A
:101AA0006F015E2C4F2C6FE270E0C8010E94F72599
:101AB000009709F455C0F80120812F3219F40F5F07
:101AC0001F4FF1CF801B8D3008F08CE0E82EF12CF9
:101AD000A701B801CE01CB960E940926EBE3F0E006
:101AE000EC0FFD1FEE0DFF1D1082C6010E94D414E5
:101AF00021E0AE01455C5F4F652D742DC6010E944B
:101B00000F16811121C0F501138212828AED91E036
:101B1000918380831582C501C95BDF4F0FB6F894AE
:101B2000DEBF0FBECDBFDF91CF911F910F91FF9010
:101B3000EF90DF90CF90BF90AF909F908F907F906D
:101B40006F905F904F9008950E0D1F1D852D942D61
:101B50000E94D414C2015C2C4D2CC92ED82EA3CFC8
:101B600008191909F30111830083652D742DC5012E
:101B70000E94D10CD0CFAF92BF92CF92DF92FF9252
:101B80000F931F93CF93DF93CDB7DEB7C955D1091C
:101B90000FB6F894DEBF0FBECDBF6C015B018A01AA
:101BA000F22E9E01285A3F4FCE01CB960E94210D66
:101BB0006A968EAD9FAD6A97080F191FF801808154
:101BC000811110C0BE01655C7F4FCE0101960E945D
:101BD000D10C44ED51E0BE016F5F7F4FC6010E9402
:101BE000E80A0FC019A218A28AED91E09F8F8E8F8C
:101BF0001BA221968FAD2197811115C0C6010E94AD
:101C00001D0BC601C75ADF4F0FB6F894DEBF0FBEDB
:101C1000CDBFDF91CF911F910F91FF90DF90CF90BB
:101C2000BF90AF90089582508230F8F4B501665DA0
:101C30007F4F2F2DA801CE014E960E940F168823AC
:101C4000E9F28F2D867041F049A95AA96BA97CA9A8
:101C5000CE014E960E94F713BE01625E7F4FCE0109
:101C600001960E94D10CA801B6CF2F2DA801BE016C
:101C7000655C7F4FCE014E960E940F16882309F4B3
:101C8000BDCFCE01CB960E94D414DBCFFB01BC01AB
:101C9000665D7F4F30E020E04BE95BE0CF010C94C4
:101CA0000B0CEDEBF2E0158216821186138682E0B2
:101CB00090E0A0E0B0E084879587A687B78713A25D
:101CC00015A614A68AED91E093A782A717A60895FA
:101CD0009FB7F8942091140580911205213019F4D2
:101CE0008DBB9FBF08958FBF0895209114052223B7
:101CF00081F03FB7F89420911405213069F42DB399
:101D0000209312054DB320911305209524232DBB5C
:101D10003FBF8CBD9DBD089530931205FACF8EBD97
:101D200000000DB407FEFDCF8EB508958FEF0C9423
:101D30008F0E61E0FC0184810E946723809106037D
:101D4000882339F0109206038091140581110C94B8
:101D5000680E0895CF93DF93EC0180910603811103
:101D600009C081E0809306038091070390910803E6
:101D70000E94750E60E08C81DF91CF910C946723F7
:101D8000CF93DF93EC018E81882389F08F81988532
:101D90009C012F5F3F4F38872F838230924018F489
:101DA0000E94960EF3CFCE010E94990E1E82DF9103
:101DB000CF910895673030F026E1FC01258360E083
:101DC000862F0895623011F130F4662389F0613076
:101DD000B9F083E508C06430D9F081E5643018F0CB
:101DE00082E56530B1F7809307031092080306C0BF
:101DF00080E58093070381E08093080361E0E0CFF2
:101E000080E58093070310920803DACF81E5F1CFD4
:101E100082E5EFCF0F931F93CF93DF93EB010E94E7
:101E20004C228B010E94960E8F3F69F00E944C223B
:101E3000601B710B6C177D07A8F380E0DF91CF91D9
:101E40001F910F91089581E0F9CF8F929F92AF92E9
:101E5000BF92FF920F931F93CF93DF93EC01F62E67
:101E600049015A010E94C00ECE010E94AA0E6CE2E6
:101E700071E0CE010E940A0F8F2D80640E948F0EA8
:101E800008E110E0D501C401002E04C0B695A79565
:101E9000979587950A94D2F70E948F0E08501109E2
:101EA000083F8FEF180771F785E9FF2021F088E0E0
:101EB000F8120DC087E80E948F0E10E00E94960E67
:101EC0008A8787FF06C01F3F21F01F5FF7CF8FEF84
:101ED000F2CFDF91CF911F910F91FF90BF90AF9004
:101EE0009F908F9008958F929F92AF92BF92EF92A2
:101EF000FF920F931F93CF93DF93EC01E62E1B8687
:101F000019861E821D824C830E944C228B0161E047
:101F10008C810E942B2361E08C810E9467230E94A8
:101F2000561D82E5809307031092080380910703F2
:101F3000909108030E94750E2AE0F22E8FEF0E9406
:101F40008F0EFA94F110FACF8091140581110E943E
:101F5000680ECE010E94AA0E20E030E0A90160E0E8
:101F6000CE010E94250FF82E8A8781E0F816C1F075
:101F70000E944C22601B710B613D774068F381E049
:101F80008D83CE010E94990E80E0DF91CF911F9149
:101F90000F91FF90EF90BF90AF909F908F9008951A
:101FA0002AEA31E040E050E068E0CE010E94250FCF
:101FB00082FF25C0FB868B85812C912C54018230B9
:101FC00029F4812C912CA12C80E4B82E20E030E063
:101FD000A90167E3CE010E94250FA501940169E2E2
:101FE000CE010E94250F8A878823C1F00E944C22CF
:101FF000601B710B613D774048F388E0C1CF94E0EE
:10200000F92E0E94960E8A87FA94F110FACF8A3A36
:1020100011F082E0B5CF82E08B87CDCF8B85823007
:10202000C1F420E030E0A9016AE3CE010E94250F4F
:10203000882311F086E0A4CF0E94960E807C803C1D
:1020400011F483E08B870E94960E0E94960E0E94E8
:10205000960ECE010E94990E6E2DCE01DF91CF918A
:102060001F910F91FF90EF90BF90AF909F908F9036
:102070000C94DA0E0F931F93CF93DF93EC010E9421
:102080004C228B010E94960E8A878F3F91F40E940A
:102090004C22601B710B6D327140A0F38FE08D8379
:1020A000CE010E94990E80E0DF91CF911F910F9198
:1020B00008958E3F11F08DE0F2CF81E0F5CFCF9201
:1020C000DF92EF92FF920F931F93CF93DF93EC0178
:1020D0006901C801820F931F8130924048F58E81BB
:1020E000882371F088819981AA81BB818417950723
:1020F000A607B70729F48F819885C816D90670F509
:10210000488359836A837B838B85833039F089E0E8
:10211000440F551F661F771F8A95D1F79A01AB01AF
:1021200061E1CE010E94250F882379F083E08D8341
:10213000CE010E94990E80E0DF91CF911F910F9107
:10214000FF90EF90DF90CF900895CE010E943A105B
:10215000882371F318861F8281E08E838F81988592
:102160008C159D0560F06701E00EF11EEC14FD0476
:1021700071F00E94960EF60181936F01F7CF0E94D5
:10218000960E8F819885019698878F83E7CF8F81F0
:102190009885080F191F18870F838985882319F0E0
:1021A0000115124018F0CE010E94C00E81E0C4CF8C
:1021B000EF92FF920F931F930115110539F00E94C2
:1021C0005F101F910F91FF90EF90089581E0F9CF7C
:1021D000EF92FF920F931F93790100E012E030E03D
:1021E00020E00E945F101F910F91FF90EF900895E3
:1021F000EF92FF920F931F93CF93DF938C01862F63
:102200007A010E948F0EE7018EEFF81A89910E94E1
:102210008F0ECE15DF05D1F78FEF0E948F0E8FEF57
:102220000E948F0E0E94960EF80182878F71853072
:1022300069F081E18583C8010E94990E80E0DF91F9
:10224000CF911F910F91FF90EF90089581E0F7CF0C
:102250000F931F93CF93DF93EC01890182E1411526
:1022600051056105710599F08B85833039F089E05E
:10227000440F551F661F771F8A95D1F79A01AB014E
:1022800068E1CE010E94250F882339F084E08D8318
:10229000CE010E94990E80E023C0A8016EEFCE010E
:1022A0000E94F8108823A1F368E572E0CE010E9435
:1022B0000A0F811102C085E1EACF20E030E0A901D8
:1022C0006DE0CE010E94250F882311F084E1DFCF5D
:1022D0000E94960E8111FACFCE010E94990E81E0E4
:1022E000DF91CF911F910F910895E7E0F3E080E532
:1022F0008083118208950895CF93DF93EC019C01B0
:102300002A5F3F4F41E050E060E070E08B8D9C8D94
:102310000E94D51A8823A1F08F89988DA98DBA8D36
:10232000892B8A2B8B2B59F48E819F81A885B985A7
:102330008F8B988FA98FBA8F8C8180688C8381E076
:10234000DF91CF9108958F929F92AF92BF92CF92DB
:10235000DF92EF92FF92CF93DF93EC010E947C110A
:1023600081110CC080E0DF91CF91FF90EF90DF9062
:10237000CF90BF90AF909F908F900895EB8DFC8D84
:10238000CE80DF80E884F98482E0C81AD108E108B1
:10239000F108858504C0CC0CDD1CEE1CFF1C8A9561
:1023A000D2F786859785A089B189C80ED91EEA1E05
:1023B000FB1E848146015701880E911CA11CB11C93
:1023C0008C149D04AE04BF0461F081E0881A91086A
:1023D000A108B108C501B4010E9423198111F0CFF1
:1023E000C1CFEB8DFC8D258580E092E0A0E0B0E0D0
:1023F00004C0880F991FAA1FBB1F2A95D2F74B89CB
:102400005C896D897E89840F951FA61FB71F8B8BF2
:102410009C8BAD8BBE8B81E0A6CFCF93DF93EC017D
:10242000462F6E857F85888999890E94E8188823C0
:1024300051F08A8920E2829FC00111248E5E9C4F58
:10244000DF91CF91089590E080E0FACFFB019B01EE
:10245000255F3F4F40E241932E173F07E1F7DC0134
:1024600020E037E09D91492F992319F19E3229F4FC
:102470003A3059F028E03AE0F5CFECE8F0E084910A
:10248000882329F031969813FACF80E017C03217CD
:10249000A8F05FED590F5E3588F48FE9890F8A3116
:1024A00010F440EE490FFB01E20FF11D40832F5F56
:1024B000D9CF81E0FB019081903239F308950F93D9
:1024C0001F93CF93DF93FC012581222331F080E01D
:1024D000DF91CF911F910F9108958B01EC01FB01CA
:1024E0008789803139F582E08D831F8A188E198E95
:1024F0001A8E808D918DB0E0A0E025E0880F991FA5
:10250000AA1FBB1F2A95D1F78B8B9C8BAD8BBE8BE3
:102510001C8F0B8F81E08C831E821F821886198688
:102520001A861B861C861D861E861F86188A198A97
:102530001A8ACECF803259F683E08D83428D538D37
:10254000648D758D4F8B588F698F7A8F9E012D5EAC
:102550003F4FC8010E94C8198111DACFB8CF2F921E
:102560003F924F925F926F927F928F929F92AF9223
:10257000BF92CF92DF92EF92FF920F931F93CF9370
:10258000DF93EC015B012A018D81811115C08FEF72
:102590009FEFDF91CF911F910F91FF90EF90DF9010
:1025A000CF90BF90AF909F908F907F906F905F90F3
:1025B0004F903F902F9008958C8180FFE8CF0B893A
:1025C0001C892D893E894A855B856C857D85C20184
:1025D000B0E0A0E068017901C41AD50AE60AF70A5A
:1025E000C816D906EA06FB0618F42801441A550A4B
:1025F00042011E0126E0220E311C8114910409F4CF
:10260000B3C04A855B856C857D856A0181E0D822EF
:102610008B8D9C8D8A019B01E9E036952795179556
:102620000795EA95D1F7ED81E230E1F5FC01628D85
:10263000738D848D958D600F711F821F931F612C88
:1026400022E0722E6C187D088614970408F4340179
:102650002C8126FD04C06114F2E07F0671F4009124
:102660000A0110910B0120910C0130910D01061708
:1026700017072807390709F053C040E00E94E818FF
:10268000882309F484CFC6018E5E9C4FD5019C013E
:10269000260D371DFC012E173F0709F460C041913C
:1026A0004D93F9CFFC0174807A947022C114D10447
:1026B00071F471100CC0452B462B472B39F58F89CF
:1026C000988DA98DBA8D8E839F83A887B987EB8D4E
:1026D000FC8D6E817F8188859985625071098109A1
:1026E0009109258504C0660F771F881F991F2A95B9
:1026F000D2F70685178520893189600F711F821FE7
:10270000931F670D711D811D911D99CF4E815F81B2
:102710006885798591010E9447198111D8CF37CFFB
:10272000750183019601AB01BC018091100390916A
:1027300011030E94D810882309F429CFA60CB71CD6
:102740008A859B85AC85BD85860D971DA11DB11D14
:102750008A879B87AC87BD87861897084ECF281B32
:10276000390BA20EB31EECCFC20113CFFF920F9311
:102770001F93CF93DF931F92CDB7DEB7FC01258166
:102780002230C8F08C01428553856485758585E0CB
:1027900076956795579547958A95D1F7F42FFF70F1
:1027A000FF2E41E050E0BE016F5F7F4FC8010E94E5
:1027B000AF12019719F090E080E012C0F801828515
:1027C0009385A485B5854F96A11DB11D82879387FA
:1027D000A487B587F0E2FF9EC00111248E5E9C4F56
:1027E0000F90DF91CF911F910F91FF9008958F92DD
:1027F0009F92AF92BF92CF92DF92EF92FF920F9390
:102800001F93CF93DF93EC018D8181110EC080E087
:10281000DF91CF911F910F91FF90EF90DF90CF90BC
:10282000BF90AF909F908F9008950B891C892D8940
:102830003E89041715072607370748F34A015B014D
:10284000823031F48A869B86AC86BD8681E0E0CFFB
:1028500081149104A104B10449F41E821F821886D8
:1028600019861A861B861C861D86F0CF0A851B8555
:102870002C853D85EB8DFC8D858590E00996B90111
:10288000A8014150510961097109082E04C07695CB
:102890006795579547950A94D2F775016401E1E071
:1028A000CE1AD108E108F10804C0F694E794D79451
:1028B000C7948A95D2F7C416D506E606F70620F027
:1028C000012B022B032B11F58F89988DA98DBA8DC1
:1028D0008E839F83A887B9878E010A5F1F4FC1141B
:1028E000D104E104F10409F4ADCF4E815F81688524
:1028F000798598018B8D9C8D0E94471991E0C91AAA
:10290000D108E108F1088111EACF81CFC41AD50AB4
:10291000E60AF70AE1CF0F931F93CF93DF93EC0101
:102920008D818823D9F18C8187FF32C061E0CE018F
:102930000E940D128C01892B89F18D81823048F41F
:102940008B899C89AD89BE89F801848F958FA68F6C
:10295000B78F8F89988DF801938F828F8F89988D8B
:10296000A98DBA8DB58BA48BE0910903F0910A0370
:10297000309759F0B8016A5E7F4FC80148960995B3
:10298000F801808D918D938B828B8C818F778C83D6
:10299000DF91CF911F910F910C94AD1880E0DF91E2
:1029A000CF911F910F910895CF93DF93EC010E9477
:1029B0008B14882311F01D8281E0DF91CF9108955F
:1029C0004F925F926F927F928F929F92AF92BF923F
:1029D000EF92FF920F931F93CF93DF9300D000D01D
:1029E000CDB7DEB7FC0185818130A1F080E00F908A
:1029F0000F900F900F90DF91CF911F910F91FF904B
:102A0000EF90BF90AF909F908F907F906F905F906E
:102A10004F900895848181FFE9CF83899489A589A6
:102A2000B68984179507A607B70700F3892B8A2B69
:102A30008B2B09F477C04A015B017F0142845384E8
:102A400064847584CF010E94F713882379F2F7011B
:102A5000838D948D81149104A104B10449F54789B3
:102A6000508D618D728D0E94E01B882309F4BECFCA
:102A7000F701178A108E118E128EF701838A948ABD
:102A8000A58AB68A848180688483C7010E948B14DA
:102A9000882309F4ABCFB501A40144165506660698
:102AA000770610F4B301A201C7010E94F7139FCF6C
:102AB00046815781608571859E012F5F3F4F0E943F
:102AC0004719882309F492CFF701838D948D4981AA
:102AD0005A816B817C81FC0127892031F1F408EF58
:102AE0001FEF20E030E0401751076207730728F618
:102AF0000E94E01B882309F479CFF70146815781B2
:102B0000608571850FEF1FEF2FEF3FE0838D948D70
:102B10000E94331A8111B1CF69CF08EF1FEF2FEF59
:102B20003FE0E1CF81E063CFCF92DF92EF92FF925F
:102B30001F93CF93DF93EC0180E2689FF001112493
:102B4000EE5EFC4F9385917161F0842F827449F0A1
:102B500080E0DF91CF911F91FF90EF90DF90CF90B9
:102B60000895142F6A8B80910A0190910B01A09116
:102B70000C01B0910D018E879F87A88BB98BC488FB
:102B8000D588F12CE12C7601DD24CC24CF8AD88E97
:102B9000E98EFA8E828D938DB0E0A0E0AC01BD018C
:102BA0004C295D296E297F294F8B588F698F7A8F29
:102BB0008385887129F5848D958DA68DB78D8B8B36
:102BC0009C8BAD8BBE8B81E08D83812F8F708C832E
:102BD0001E821F82188619861A861B861C861D86F1
:102BE00081E016FFB6CF40E050E0BA01CE01DF91A0
:102BF000CF911F91FF90EF90DF90CF900C94E01455
:102C0000803109F0A5CF9E012D5E3F4F8B8D9C8DAD
:102C10000E94C819882309F49BCF84E0D5CFBF92C6
:102C2000CF92DF92EF92FF920F931F93CF93DF9398
:102C3000CDB7DEB72B970FB6F894DEBF0FBECDBF72
:102C4000FC01358131110BC0C22E8B017C01BE010C
:102C50006F5F7F4FCA010E942612811102C080E07F
:102C6000A1C0F801838D948DF701948F838FF801B3
:102C70001682178210861186128613861486158690
:102C8000B12CF80182859385A485B5854389548943
:102C90006589768984179507A607B70788F525E023
:102CA000B695A795979587952A95D1F7F82FFF7038
:102CB000DF2EC8010E94B613009789F2FC01208123
:102CC000222341F0253E09F059C0BB2029F0BB2446
:102CD000B394D7CFB1100EC0F701D28A40910A0148
:102CE00050910B0160910C0170910D01468757873F
:102CF000608B718BFC0180818111E9CFBB24B3947F
:102D00008C2D8271823109F0AACFBB2009F45AC000
:102D100061E0C7010E940D128C01892B09F49FCF3D
:102D200080E2F80111928A95E9F78BE0FE01319675
:102D3000D80101900D928A95E1F7E0910903F09195
:102D40000A03309709F44EC0B801625F7F4FC80193
:102D500040960995F80180899189938B828B918F98
:102D6000808F86859785978B868B0E94AD188823E8
:102D700009F475CF4C2DF701628911C04BE050E08A
:102D8000BC01CE0101960E94E125892B09F079CF83
:102D90008C2D80734C2D6D2D803309F460CFC701CD
:102DA0000E9494152B960FB6F894DEBF0FBECDBFD0
:102DB000DF91CF911F910F91FF90EF90DF90CF9017
:102DC000BF900895F8018581823009F448CFC80189
:102DD0000E94A311882309F442CFF701128A02E16D
:102DE00013E09ECF81E298E2F801918B808B80E026
:102DF00098E097878687AECF2F923F924F925F924F
:102E00006F927F928F929F92AF92BF92CF92DF92FA
:102E1000EF92FF920F931F93CF93DF9300D000D0D8
:102E2000CDB7DEB78C016B011A01DC0115968C91D0
:102E30001597813009F0C8C014968C9181FFC4C0E9
:102E400082FDAEC04101D8011A964D915D916D9100
:102E50007C911D978114910409F429C15B968D9191
:102E60009C915C97FC0174802FEF270D2A013B0198
:102E700039E076946794579447943A95D1F7722E37
:102E800074207A01F1E0FF22711020C0E114F104F6
:102E9000E9F416964D915D916D917C9119974115CC
:102EA00051056105710509F098C057968D919D9166
:102EB0000D90BC91A02D0097A105B10509F0AFC000
:102EC000C8010E947C11882309F47EC080E092E052
:102ED0008E199F0954018815990508F45C01D801E1
:102EE0005B964D915C915C9716968D919D910D909E
:102EF000BC91A02D0297A109B109FA01258504C052
:102F0000880F991FAA1FBB1F2A95D2F746855785A0
:102F100060897189840F951FA61FB71F9C01AD01A1
:102F2000270D311D411D511D29013A01A11432E027
:102F3000B30609F07AC080910A0190910B01A0912B
:102F40000C01B0910D0184159505A605B70559F43E
:102F50008FEF9FEFDC0180930A0190930B01A09308
:102F60000C01B0930D019601B301A20180911003F1
:102F7000909111030E942811882331F19EEFD91AF4
:102F80008A189B08F80182859385A485B5858A0DEA
:102F90009B1DA11DB11D82879387A487B58753CF41
:102FA000F801438954896589768982859385A4854A
:102FB000B585481759076A077B0709F443CFC8014D
:102FC0000E94F71381113ECF81E090E0D801139663
:102FD0009C938E93129780E007C09E012F5F3F4F16
:102FE0000E944719811102C090E07BC089819A81BB
:102FF000AB81BC81F801238D348DF901278948EF1D
:103000005FEF60E070E0203121F048EF5FEF6FEF9D
:103010007FE084179507A607B70708F051CFF8019E
:1030200086839783A087B18751CFE114F10491F58E
:10303000D8011A964D915D916D917C911D97539693
:103040008D919D910D90BC91A02D481759076A074D
:103050007B0700F10E94AD18882309F4B5CF409298
:103060000A0150920B0160920C0170920D01809147
:103070000F03816080930F0397012E5E3C4FD601B2
:10308000C9018A0D9B1DF9018E179F0759F04D91BB
:103090004193FACF41E0C301B2010E94E8188111C7
:1030A000EBCF92CF821B930BC80ED91E69CF14961B
:1030B0008C9114975396CD90DD90ED90FC9056979F
:1030C000C416D506E606F70618F5F801438B548BAF
:1030D000658B768B80688483F801848183FD25C0AD
:1030E000C1010F900F900F900F90DF91CF911F9122
:1030F0000F91FF90EF90DF90CF90BF90AF909F9097
:103100008F907F906F905F904F903F902F90089599
:103110002091090330910A03232BF1F22114310489
:10312000D9F2806814968C93D7CFC8010E948B1473
:10313000882309F449CFD4CFCF93DF931F92CDB723
:10314000DEB7698341E050E0BE016F5F7F4F0E94B0
:10315000FC160F90DF91CF91089580910F03882383
:10316000A9F140910A0150910B0160910C017091FD
:103170000D0122E133E080911003909111030E9430
:103180002811811102C080E0089540910B035091F5
:103190000C0360910D0370910E03411551056105FB
:1031A000710591F022E133E08091100390911103B9
:1031B0000E942811882339F310920B0310920C03FC
:1031C00010920D0310920E0310920F0381E00895E8
:1031D000CF92DF92EF92FF92CF936B017C01C42FCD
:1031E00080910A0190910B01A0910C01B0910D0109
:1031F0008C159D05AE05BF05F9F00E94AD18811133
:1032000007C080E0CF91FF90EF90DF90CF900895BE
:1032100022E133E0B701A6018091100390911103E0
:103220000E94E810882369F3C0920A01D0920B0132
:10323000E0920C01F0920D0140910F034C2B409352
:103240000F0381E0DFCFCF92DF92EF92FF926B010D
:103250007C010E94AD188823A9F0E2E1F3E011920D
:1032600085E0E231F807D9F7C0920A01D0920B014C
:10327000E0920C01F0920D0180910F038160809328
:103280000F0381E0FF90EF90DF90CF9008958F9231
:103290009F92AF92BF92CF92DF92EF92FF920F93E5
:1032A0001F93CF93DF93FC0181859285A385B4851D
:1032B0000196A11DB11D84179507A607B70770F4E5
:1032C00080E0DF91CF911F910F91FF90EF90DF9001
:1032D000CF90BF90AF909F908F90089583889488EF
:1032E000A588B6888789803189F5BB27A72F962FB7
:1032F000852FE9016A017B018F01BC01CD01680DB9
:10330000791D8A1D9B1D80900A0190900B01A09051
:103310000C01B0900D0186169706A806B90601F5B6
:10332000F8018789803111F5DD24EE24FF24F601B0
:10333000EE0FFF1FEE5EFC4F80819181B0E0A0E0B8
:1033400088839983AA83BB8381E0BBCFDB01CA0159
:10335000C7E0B695A79597958795CA95D1F7C9CF38
:1033600040E00E94E8188111DBCFAACFE894C7F8AB
:10337000DD24EE24FF24F601EE0FFF1FEE0FFF1FEA
:10338000EE5EFC4F80819181A281B381BF70D8CF66
:103390004F925F926F927F92AF92BF92CF92DF92E5
:1033A000EF92FF920F931F93CF93DF9300D000D043
:1033B000CDB7DEB78C0149835A836B837C83590177
:1033C000C12CD12C7601412C82E0582E612C712C1D
:1033D00049815A816B817C819E012F5F3F4FC801DB
:1033E0000E944719882339F1F8018585A3019201CC
:1033F00004C0220F331F441F551F8A95D2F7DA01EC
:10340000C901C80ED91EEA1EFB1E49815A816B8173
:103410007C818789803111F188EF9FEFAFEFBFE0AA
:10342000481759076A077B0798F2F501C082D182D5
:10343000E282F38281E00F900F900F900F90DF9166
:10344000CF911F910F91FF90EF90DF90CF90BF90A1
:10345000AF907F906F905F904F90089588EF9FEFAF
:10346000A0E0B0E0DDCF4F925F926F927F928F929B
:103470009F92AF92BF92CF92DF92EF92FF920F9303
:103480001F93CF93DF93EC01423051056105710525
:1034900090F480E0DF91CF911F910F91FF90EF901A
:1034A000DF90CF90BF90AF909F908F907F906F9064
:1034B0005F904F90089589859A85AB85BC8501966C
:1034C000A11DB11D84179507A607B70710F3CB8878
:1034D000DC88ED88FE888F89803109F042C0BB27E7
:1034E000A72F962F852F480159012A013B01C80EAD
:1034F000D91EEA1EFB1E80910A0190910B01A0913A
:103500000C01B0910D01C816D906EA06FB0699F523
:103510008F898031C1F5B301A2015527662777272E
:10352000440F551F4E5E5C4FFA019182808280915C
:103530000F03816080930F038A89823080F08D8130
:103540009E81AF81B8858C0D9D1DAE1DBF1D8093E2
:103550000B0390930C03A0930D03B0930E0381E033
:1035600099CFDB01CA01E7E0B695A79597958795B6
:10357000EA95D1F7B8CF40E0C701B6010E94E8183C
:103580008111C6CF86CFB301A2014F775527662799
:103590007727440F551F440F551F4E5E5C4FFA01AD
:1035A00080829182A282B382C2CF2F923F924F92A9
:1035B0005F926F927F928F929F92AF92BF92CF92C3
:1035C000DF92EF92FF920F931F93CF93DF93CDB7CC
:1035D000DEB72F970FB6F894DEBF0FBECDBF3C010C
:1035E000488759876A877B873F832E83D901CD908F
:1035F000DD90ED90FC90C114D104E104F10439F0A8
:10360000BFEFCB1ADB0AEB0AFB0A1D8210C0FC01DC
:10361000C080D180E280F380F1E0FD8308851985C8
:103620002A853B85013011052105310571F7F3012C
:1036300081859285A385B4858C019D010F5F1F4F05
:103640002F4F3F4F0C871D872E873F87460157011D
:10365000212C312C2101F30181859285A385B4852C
:10366000281639064A065B0608F044C00C851D85FD
:103670002E853F85081519052A053B0550F482E083
:10368000882E912CA12CB12C92E0C92ED12CE12CAA
:10369000F12C9E012F5F3F4FB501A401C3010E9491
:1036A0004719882339F1D501C4010196A11DB11D27
:1036B00049815A816B817C81452B462B472BA9F58B
:1036C000AC01BD014C195D096E097F09088519859A
:1036D0002A853B85401751076207730741F50FEFB5
:1036E0001FEF2FEF3FE0B501A401C3010E94331A81
:1036F000811125C01D828D812F960FB6F894DEBFF3
:103700000FBECDBFDF91CF911F910F91FF90EF9032
:10371000DF90CF90BF90AF909F908F907F906F90F1
:103720005F904F903F902F9008956C017D011FEFA7
:10373000211A310A410A510A4C015D018CCFC8148B
:10374000D904EA04FB0488F41401250121E0221ABB
:1037500031084108510895018401B201A101C3015A
:103760000E94331A52014101C3CFAE81BF814D91F6
:103770005D916D917C91411551056105710561F473
:10378000EE81FF81C082D182E282F382FD81F1115C
:103790000BC001E00D83AFCF97018601C3010E94EA
:1037A000331A8111EDCFA6CF1FEFC11AD10AE10A5A
:1037B000F10AD301CD92DD92ED92FC9213979BCF4B
:1037C000AF92BF92CF92DF92EF92FF920F931F932F
:1037D000CF93DF9300D000D0CDB7DEB75C016A0194
:1037E0007B0182E090E0A0E0B0E0F501808391836E
:1037F000A283B3839E012F5F3F4FB701A601C5018E
:103800000E944719882381F100E010E09801B70178
:10381000A601C5010E94331A882331F1C980DA80DC
:10382000EB80FC80F50187898031C9F088EF9FEF3C
:10383000AFEFBFE0C816D906EA06FB06D8F281E072
:103840000F900F900F900F90DF91CF911F910F91DC
:10385000FF90EF90DF90CF90BF90AF90089588EFEA
:103860009FEFA0E0B0E0E6CF80E0EACF8F929F929A
:10387000AF92BF92CF92DF92EF92FF920F931F937E
:10388000CF93DF93EC01142F709311036093100317
:10389000442309F478C0453070F080E0DF91CF9187
:1038A0001F910F91FF90EF90DF90CF90BF90AF905E
:1038B0009F908F90089540E060E070E0CB010E94FF
:1038C000E818882351F3812F8150990BAC0164E0F3
:1038D000440F551F6A95E1F74E5E5C4FFA01E254C2
:1038E000FE4F80818F77C9F63C9680819181A281BD
:1038F000B38184369105A105B10578F24A535E4F34
:10390000FA01C080D180E280F380C114D104E104C7
:10391000F10419F240E0C701B6010E94E8188823BB
:1039200009F4BBCF80911D0390911E038115924035
:1039300009F0B3CF90912203992309F4AECF2091DF
:10394000200330912103232B09F4A7CF80911F037B
:10395000882309F4A2CF9A8B8C831D8690E041E0E6
:1039600050E02D85E22FBA01022E02C0660F771FAC
:103970000A94E2F78617970751F031E0320F3D873E
:10398000283078F38ACFC12CD12C7601C3CF209177
:1039900028033091290350E040E02115310541F41E
:1039A0002091360330913703409138035091390309
:1039B0002D833E834F83588780912003909121036C
:1039C00046015701880E991EA11CB11C8B8A9C8A46
:1039D000AD8ABE8A0091230310912403198F088FAA
:1039E000A0912203B0E00E94C123DC01CB01880D2D
:1039F000991DAA1DBB1D8A8F9B8FAC8FBD8F25E0A3
:103A0000000F111F2A95E1F701501E4F012F1127BA
:103A10000695800F911FA11DB11D8E879F87A88BD2
:103A2000B98B009125031091260330E020E00115A9
:103A3000110541F4009132031091330320913403B6
:103A400030913503C81AD90AEA0AFB0AC00ED11E02
:103A5000E21EF31E04C0F694E794D794C794EA9547
:103A6000D2F7C986DA86EB86FC868CE025EFC21693
:103A70002FE0D206E104F10440F085EFC8168FEF85
:103A8000D806E104F10420F480E18F8B81E006CFB9
:103A900080913E0390913F03A0914003B091410378
:103AA0008A8F9B8FAC8FBD8F80E2EFCFCF93CFB744
:103AB000F89480911505811127C0E0EEF0E0849123
:103AC000E0ECF0E09491E82FF0E0EE0FFF1FEA5FEA
:103AD000FE4FA591B491EC91E92321F461E084E0DB
:103AE0000E94672361E084E00E942B238CB58061F3
:103AF0008CBD8CB580648CBD61E087E00E942B2377
:103B000061E085E00E942B23809115058F5F8093F3
:103B10001505CFBFCF910895FC01918D228D892F7E
:103B200090E0805C9F4F821B91098F7399270895C5
:103B3000FC01918D828D981731F0828DE80FF11D77
:103B4000858D90E008958FEF9FEF0895FC01918D92
:103B5000828D981761F0A28DAE0FBF2FB11D5D96BB
:103B60008C91928D9F5F9F73928F90E008958FEF5D
:103B70009FEF0895FC01538D448D252F30E0842F55
:103B800090E0821B930B541710F0CF960895019785
:103B900008958BE29FE1892B49F080E090E0892B2A
:103BA00029F00E942B1F81110E94000080E090E00C
:103BB000892B49F080E090E0892B29F00E940000D9
:103BC00081110C9400000895FC01A48DA80FB92F59
:103BD000B11DA35ABF4F2C91848D90E001968F7335
:103BE0009927848FA689B7892C93A089B1898C9154
:103BF000837080648C93938D848D981306C00288A3
:103C0000F389E02D80818F7D80830895CF93DF93AA
:103C1000EC01888D8823B9F0AA89BB89E889F989E4
:103C20008C9185FD03C0808186FD0DC00FB607FC19
:103C3000F7CF8C9185FFF2CF808185FFEDCFCE014C
:103C40000E94E41DE9CFDF91CF910895EF92FF929A
:103C50000F931F93CF93DF93EC0181E0888F9B8DAF
:103C60008C8D98131AC0E889F989808185FF15C069
:103C70009FB7F894EE89FF896083E889F98980818C
:103C80008370806480839FBF81E090E0DF91CF915B
:103C90001F910F91FF90EF900895F62E0B8D10E07D
:103CA0000F5F1F4F0F731127E02E8C8D8E110CC0EC
:103CB0000FB607FCFACFE889F989808185FFF5CF37
:103CC000CE010E94E41DF1CFEB8DEC0FFD2FF11D15
:103CD000E35AFF4FF0829FB7F8940B8FEA89FB8974
:103CE00080818062CFCFCF92DF92EF92FF921F93BD
:103CF000CF93DF93EC016A017B01122FE889F989E8
:103D000082E08083C11481EED806E104F104A1F0C1
:103D100060E079E08DE390E0A70196010E94962390
:103D200021503109410951095695479537952795F5
:103D3000211580E1380798F0E889F989108260E858
:103D400074E88EE190E0A70196010E94962321502D
:103D50003109410951095695479537952795EC85C5
:103D6000FD853083EE85FF852083188EEC89FD89E3
:103D70001083EA89FB89808188698083EA89FB89CD
:103D800080818F7D8083DF91CF911F91FF90EF9095
:103D9000DF90CF9008951F920F920FB60F921124CB
:103DA0000BB60F922F938F939F93EF93FF93E09116
:103DB0002605F09127058081E0912C05F0912D05D5
:103DC00082FD1DC0908180912F058F5F8F732091A0
:103DD0003005821741F0E0912F05F0E0EA5EFA4FDE
:103DE000958F80932F05FF91EF919F918F912F9148
:103DF0000F900BBE0F900FBE0F901F9018958081F3
:103E0000F2CF1F920F920FB60F9211240BB60F92A2
:103E10002F933F934F935F936F937F938F939F93D2
:103E2000AF93BF93EF93FF9386E195E00E94E41D6B
:103E3000FF91EF91BF91AF919F918F917F916F9182
:103E40005F914F913F912F910F900BBE0F900FBE3E
:103E50000F901F90189586E195E00E948C1D21E03F
:103E6000892B09F420E0822F0895E6E1F5E0138222
:103E7000128288EE93E0A0E0B0E084839583A6836D
:103E8000B78386EE91E09183808385EC90E09587FF
:103E9000848784EC90E09787868780EC90E0918B14
:103EA000808B81EC90E0938B828B82EC90E0958B01
:103EB000848B86EC90E0978B868B118E128E138EFE
:103EC000148E0895AF92BF92CF92DF92EF92FF923D
:103ED0000F931F93CF93DF936C017B018B01040F32
:103EE000151FEB015E01AE18BF08C017D10759F0CE
:103EF0006991D601ED91FC910190F081E02DC60110
:103F00000995892B79F7C501DF91CF911F910F9109
:103F1000FF90EF90DF90CF90BF90AF900895FB019E
:103F200001900020E9F73197AF01461B570BDC01E8
:103F3000ED91FC910280F381E02D0994DB01149650
:103F40004D915C9115976D917C91DC01ED91FC9107
:103F50000280F381E02D09946115710511F00C9434
:103F60008F1F90E080E0089564EF71E00C948F1F44
:103F70000F931F93CF93DF93EC010E949E1F8C0140
:103F8000CE010E94B41F800F911FDF91CF911F912E
:103F90000F9108950F931F93CF93DF938C01D0E07F
:103FA000C0E06115710519F00E948F1FEC01C80176
:103FB0000E94B41F8C0F9D1FDF91CF911F910F9115
:103FC00008958F929F92AF92BF92EF92FF920F93BC
:103FD0001F93CF93DF93CDB7DEB7A1970FB6F894B9
:103FE000DEBF0FBECDBF7C01FA01CB0119A222308A
:103FF00008F42AE08E010F5D1F4F822E912CB12C08
:10400000A12CBF01A50194010E949623F901CA01C8
:104010006A300CF5605DD8016E938D01232B242B43
:10402000252B79F790E080E0109721F0BD01C701C2
:104030000E948F1FA1960FB6F894DEBF0FBECDBFB2
:10404000DF91CF911F910F91FF90EF90BF90AF90B4
:104050009F908F900895695CDECF2115310541F462
:10406000DC01ED91FC910190F081E02D642F099429
:104070000C94E11F0F931F93CF93DF93EC010E94E9
:104080002D208C01CE010E94B41F800F911FDF9163
:10409000CF911F910F910895FC018081918100972C
:1040A00011F00C9477240895CF93DF93EC0188816D
:1040B0009981009711F00E947724198218821D823D
:1040C0001C821B821A82DF91CF9108950F931F9358
:1040D000CF93DF93EC018B016F5F7F4F88819981D4
:1040E0000E940025009751F0998388831B830A83DF
:1040F00081E0DF91CF911F910F91089580E0F9CF7A
:10410000CF93DF93EC0188819981892B49F08A81D3
:104110009B818617970720F081E0DF91CF9108956A
:10412000CE010E9466208823C1F38C819D81892B5A
:1041300099F7E881F9811082EFCFEF92FF920F9308
:104140001F93CF93DF93EC017B018A01BA010E9498
:10415000802081110BC0CE010E945420CE01DF913E
:10416000CF911F910F91FF90EF9008951D830C83C5
:10417000B701888199810E940226F0CFFC0111824B
:10418000108213821282158214826115710551F01A
:10419000FB0101900020E9F73197AF01461B570B57
:1041A0000C949D200895FB0101900020E9F73197C0
:1041B000AF01461B570B0C949D200F931F93CF9379
:1041C000DF93CDB7DEB729970FB6F894DEBF0FBEE9
:1041D000CDBF8C01862FF8011182108213821282CA
:1041E0001582148250E0BE016F5F7F4F90E00E9405
:1041F0004526BE016F5F7F4FC8010E94D3202996DC
:104200000FB6F894DEBF0FBECDBFDF91CF911F91E7
:104210000F9108950F931F93CF93DF93CDB7DEB720
:1042200061970FB6F894DEBF0FBECDBF8C01CB01F6
:10423000F80111821082138212821582148250E0DA
:10424000BE016F5F7F4F0E944526BE016F5F7F4FAB
:10425000C8010E94D32061960FB6F894DEBF0FBE4E
:10426000CDBFDF91CF911F910F9108950F931F93B1
:10427000CF93DF93CDB7DEB7A1970FB6F894DEBF2B
:104280000FBECDBF8C01CB01BA01F80111821082A3
:10429000138212821582148230E0AE014F5F5F4FAD
:1042A0000E941826BE016F5F7F4FC8010E94D32075
:1042B000A1960FB6F894DEBF0FBECDBFDF91CF91B0
:1042C0001F910F910895CF93DF93EC01FB018617A7
:1042D000970749F0608171816115710541F0448152
:1042E00055810E949D20CE01DF91CF9108950E94BB
:1042F0005420F9CFFC0111821082138212821582A0
:1043000014820C946321EF92FF920F931F93CF932B
:10431000DF936115710541F480E0DF91CF911F912A
:104320000F91FF90EF90089541155105B1F07B0179
:10433000EC010C811D81040F151FB8010E94802023
:10434000882351F3288139818C819D81B701820FA7
:10435000931F0E9402261D830C8381E0DECFFB01A8
:1043600044815581608171810C94832161157105AF
:1043700051F0FB0101900020E9F73197AF01461B96
:10438000570B0C94832180E00895CF93DF93EC01C9
:10439000FB0144815581608171810E9483218111DB
:1043A00003C0CE010E945420CE01DF91CF91089529
:1043B000CF93DF93EC016115710539F4CE010E94B2
:1043C0005420CE01DF91CF910895FB010190002090
:1043D000E9F73197AF01461B570B0E9483218823D1
:1043E00069F3EFCF08950E94C1220E94F2210E943A
:1043F000E203C9ECDDE10E94AC012097E1F30E94E9
:10440000C91DF9CF1F920F920FB60F9211242F934F
:104410003F938F939F93AF93BF938091B8059091F3
:10442000B905A091BA05B091BB053091B70523E05D
:10443000230F2D3768F126E8230F0296A11DB11D29
:104440002093B7058093B8059093B905A093BA055A
:10445000B093BB058091B3059091B405A091B505CB
:10446000B091B6050196A11DB11D8093B30590933F
:10447000B405A093B505B093B605BF91AF919F91D8
:104480008F913F912F910F900FBE0F901F90189515
:104490000196A11DB11DD4CF2FB7F8946091B80536
:1044A0007091B9058091BA059091BB052FBF089511
:1044B0003FB7F8948091B3059091B405A091B505EC
:1044C000B091B60526B5A89B05C02F3F19F00196FF
:1044D000A11DB11D3FBFBA2FA92F982F8827BC015E
:1044E000CD01620F711D811D911D42E0660F771F86
:1044F000881F991F4A95D1F708958F929F92AF9286
:10450000BF92CF92DF92EF92FF926B017C010E94EB
:1045100058224B015C01C114D104E104F104E9F01B
:104520000E9495230E945822681979098A099B09DB
:10453000683E73408105910570F321E0C21AD108ED
:10454000E108F10888EE880E83E0981EA11CB11CDA
:10455000C114D104E104F10429F7FF90EF90DF903A
:10456000CF90BF90AF909F908F900895823091052B
:1045700038F0880F991F880F991F05970197F1F759
:104580000895789484B5836084BD85B5836085BDC6
:10459000EEE6F0E0808181608083E1E8F0E082E097
:1045A0008083808181608083E0E8F0E080818160A9
:1045B0008083E1EBF0E0808184608083E0EBF0E0D9
:1045C000808181608083E1E9F0E080818360808385
:1045D000E0E9F0E080818160808387E880937A0061
:1045E0001092C100089582508A3088F5E82FF0E0DB
:1045F000E450FD4D0C94B8232423282306230C23D8
:1046000027232723102316231A2320238091800099
:104610008F77809380000895809180008F7DF9CFFF
:104620008091B0008F778093B00008958091B000A2
:104630008F7DF9CF809190008F77809390000895BF
:10464000809190008F7DF9CF84B58F7784BD0895D8
:1046500084B58F7DFBCFCF93DF9390E0FC01E454D2
:10466000FF4F249184529F4FFC0184918823C9F00D
:1046700090E0880F991FFC01EA5FFE4FA591B4916D
:10468000FC01E450FF4FC591D49161110DC09FB75B
:10469000F8948C91209582238C93888128232883F9
:1046A0009FBFDF91CF910895623051F49FB7F89486
:1046B0003C91822F809583238C93E8812E2BEFCF22
:1046C0008FB7F894EC912E2B2C938FBFEACF1F93CA
:1046D000CF93DF93282F30E0F901E456FF4F849108
:1046E000F901E454FF4FD491F901E452FF4FC49112
:1046F000CC23A9F0162F81110E94F322EC2FF0E0B9
:10470000EE0FFF1FE450FF4FA591B4918FB7F894BF
:10471000EC91111108C0D095DE23DC938FBFDF919F
:10472000CF911F910895DE2BF8CF0895A1E21A2EA4
:10473000AA1BBB1BFD010DC0AA1FBB1FEE1FFF1F45
:10474000A217B307E407F50720F0A21BB30BE40B95
:10475000F50B661F771F881F991F1A9469F76095DC
:104760007095809590959B01AC01BD01CF01089596
:10477000EE0FFF1F0024001C0BBE0790F691E02DEA
:1047800009940E94CC23A59F900DB49F900DA49FE7
:10479000800D911D11240895A29FB001B39FC00107
:1047A000A39F700D811D1124911DB29F700D811D5D
:1047B0001124911D08950F931F93CF93DF9382309F
:1047C000910510F482E090E0E091BE05F091BF0504
:1047D00030E020E0B0E0A0E0309799F421153105F9
:1047E00009F44AC0281B390B24303105D8F58A81D9
:1047F0009B816115710589F1FB0193838283FE0121
:1048000011C0408151810281138148175907E0F09E
:104810004817590799F4109761F012960C93129764
:1048200013961C933296CF01DF91CF911F910F9178
:1048300008950093BE051093BF05F4CF21153105EF
:1048400051F04217530738F0A901DB019A01BD016D
:10485000DF01F801C1CFEF01F9CF9093BF0580933D
:10486000BE05CDCFFE01E20FF31F8193919322503D
:10487000310939832883D7CF2091BC053091BD05FC
:10488000232B41F420910201309103013093BD05A7
:104890002093BC05209100013091010121153105C3
:1048A00041F42DB73EB74091040150910501241BFE
:1048B000350BE091BC05F091BD05E217F307A0F4BC
:1048C0002E1B3F0B2817390778F0AC014E5F5F4F66
:1048D0002417350748F04E0F5F1F5093BD054093D6
:1048E000BC05819391939FCFF0E0E0E09CCFCF9304
:1048F000DF930097E9F0FC01329713821282A091B6
:10490000BE05B091BF05ED0130E020E01097A1F4A5
:1049100020813181820F931F2091BC053091BD050C
:104920002817390709F061C0F093BD05E093BC0575
:10493000DF91CF910895EA01CE17DF07E8F54A81AC
:104940005B819E0141155105B1F7E901FB83EA83C3
:1049500049915991C40FD51FEC17FD0761F480816F
:1049600091810296840F951FE90199838883828142
:1049700093819B838A83F0E0E0E012968D919C9175
:1049800013970097B9F52D913C911197CD0102969F
:10499000820F931F2091BC053091BD052817390760
:1049A00039F6309751F51092BF051092BE05B093BD
:1049B000BD05A093BC05BCCFD383C2834081518188
:1049C000840F951FC817D90761F44E5F5F4F888128
:1049D0009981480F591F518340838A819B8193831A
:1049E00082832115310509F0B0CFF093BF05E09324
:1049F000BE059ECFFD01DC01C0CF13821282D7CF4E
:104A00004F925F926F927F928F929F92AF92BF92DE
:104A1000CF92DF92EF92FF920F931F93CF93DF938A
:104A20008C01009799F4CB01DF91CF911F910F91E9
:104A3000FF90EF90DF90CF90BF90AF909F908F90BE
:104A40007F906F905F904F900C94DB23FC01E60FFA
:104A5000F71F9C0122503109E217F30708F4AEC09A
:104A6000D901CD91DC911197C617D70720F1C53038
:104A7000D10578F0CE0104978617970750F0C61B32
:104A8000D70B2297C193D1936D937C93CF010E9452
:104A90007724C801DF91CF911F910F91FF90EF9084
:104AA000DF90CF90BF90AF909F908F907F906F904E
:104AB0005F904F9008955B01AC1ABD0A4C018C0EBB
:104AC0009D1EA091BE05B091BF05512C412CF12C2B
:104AD000E12C109731F58091BC059091BD058815AA
:104AE000990509F05CC04616570608F058C0809139
:104AF000000190910101009741F48DB79EB740915C
:104B0000040150910501841B950BE817F90708F083
:104B100055C0F093BD05E093BC05F9017183608336
:104B2000B8CF8D919C91119712966C901297139615
:104B30007C901397A815B90559F56C0142E0C40E95
:104B4000D11CCA14DB0420F1AC014A195B09DA015B
:104B50001296159780F06282738251834083D90147
:104B60006D937C93E114F10471F0D7011396FC93DB
:104B7000EE9312978ECF22968C0F9D1FF901918391
:104B80008083F301EFCFF093BF05E093BE0581CFA3
:104B90004816590608F42C017D01D3019ACFCB01A8
:104BA0000E94DB237C01009749F0AE01B8010E940E
:104BB000EE25C8010E94772487016BCF10E000E04A
:104BC00068CFFB01DC0104C08D910190801921F4B4
:104BD00041505040C8F7881B990B0895FB01DC0138
:104BE00002C001900D9241505040D8F70895FC0149
:104BF0008191861721F08823D9F799270895319755
:104C0000CF010895FB01DC0101900D920020E1F736
:104C10000895FB01DC014150504048F001900D9295
:104C20000020C9F701C01D9241505040E0F708959F
:104C30002532310520F4223010F00C942326FA019D
:104C40001082CA010895BB27FA01A62F62177105C9
:104C500081059105330B30FB66F0AA27660F771F9D
:104C6000881F991FAA1FA21710F0A21B6395385026
:104C7000A9F7A05DAA3308F0A95DA19336F7B11199
:104C8000B1931082CA010C946A264532510520F472
:104C9000423010F00C945026FB011082CB01089595
:104CA000BB27FB015527AA27880F991FAA1FA41706
:104CB00010F0A41B83955051B9F7A05DAA3308F0FA
:104CC000A95DA193009779F7B111B1931192CB012E
:104CD0000C946A26DC01FC01672F71917723E1F7C0
:104CE000329704C07C916D9370836291AE17BF07B9
:104CF000C8F3089510E0CDE8D0E004C0FE010E94A2
:0E4D0000B8232196CE38D107C9F7F894FFCF1B
:104D0E000000C005800003010002FFFFFFFF372EE9
:104D1E00342E302D2E4C3530305F003861343466F1
:104D2E00333661653161313039343263373535357B
:104D3E003739313634393861646435353565366224
:104D4E006565632C43495F616374696F6E00244827
:104D5E004953542C0023534420696E6974206661B4
:104D6E006C7365002353442066616C7365002E746A
:104D7E007874002346696C656E616D652C00234363
:104D8E0076616B2E2E2E0023486D6D6D2E2E2E000D
:104D9E0024444F532C4C4142444F533031412C004C
:104DAE0030370030002346696C6573697A652C00D4
:104DBE0000000000620791073507610738073F07BB
:104DCE00520700000000680A7E0A35079B0A4E0B48
:104DDE00BA0AC40A2F00000000009C18621F350793
:104DEE007B1100000000261E621FBA1D061E8C1DC0
:084DFE00A61D981D0D0A00001E
:00000001FF
