:100000000C9485000C94AF000C94AF000C94AF00DE
:100010000C94AF000C94AF000C94AF000C94AF00A4
:100020000C94AF000C94AF000C94AF000C94AF0094
:100030000C94AF000C94AF000C94AF000C94AF0084
:100040000C94AF000C94AF000C94970F0C94AF007D
:100050000C94A90C0C94DF0C0C94AF000C94AF0022
:100060000C94AF000C94AF000C944D0A0C94AF00AC
:100070000C94AF000C94AF000C94AF000C94AF0044
:100080000C94AF000C94AF000C94AF000000000281
:1000900003000A0B0000000005040908000000002E
:1000A0000000000000000000000000000102040841
:1000B0001020408001020408102040800102040842
:1000C0001020408001020408102040800202020239
:1000D00002020202040404040404040403030303EC
:1000E00003030303010101010101010100002200DA
:1000F000250028002B0000002100240027002A00F2
:10010000770234065309130D830211241FBECFEF6B
:10011000D0E4DEBFCDBF11E0A0E0B1E0E2EDF8E257
:1001200000E00BBF02C007900D92AC3BB107D9F7BE
:1001300023E0ACEBB1E001C01D92A335B207E1F7BB
:1001400010E0C4E8D0E004C02197FE010E9498119D
:10015000C038D107C9F70E94880F0C945C140C9426
:1001600000004F925F926F927F928F929F92AF9218
:10017000BF92CF92DF92EF92FF920F931F93CF9394
:10018000DF93CDB7DEB7CC50D4400FB6F894DEBFC6
:100190000FBECDBFFE0131968E010F5F1B4F7F0159
:1001A00011921192E017F107D9F78091060120E42E
:1001B000829FC0011124806180937C0010927B009B
:1001C00080917A00806280937A0080917A008064C6
:1001D00080937A0080917A00846080937A00809185
:1001E0007A00826080937A0080917A0081608093A7
:1001F0007A0081E085B980917A00806180937A00ED
:1002000080917A0084FFFCCF8FE984B984E690E086
:100210000E943F108EE984B980917A0080618093BA
:100220007A0080917A0084FFFCCF8FE984B90000C6
:1002300000000000000000008EE984B980917A007F
:10024000806180937A0070EBA72E73EBB72ED12CD0
:10025000C12CEFE99E2EFEE98F2E80917A0084FF5B
:10026000FCCF86E990E00E943F1094B887E090E0D0
:100270000E943F1084B880917A00806180937A0058
:10028000209178002093D301809179008093D2014E
:1002900030E8839FC001112430E035952795822BEB
:1002A000932B8F3F910511F00CF045C093959093DF
:1002B000D1018093D0018091D0019091D101E09142
:1002C000CE01F091CF01E817F907B8F59093CF016F
:1002D0008093CE018FEFC81AD80AE1E0AE1AB108B8
:1002E00009F0BBCF50E040E06CEB71E086EE91E0AE
:1002F0000E944C078CEB91E00E94AC042B013C0166
:100300002091070130910801C9010296FC01EE0F0E
:10031000FF1FEE0DFF1D812C912C540124503F4FE7
:1003200082179307C0F441915191840E951EA11C30
:10033000B11C0196F5CF9A95BACFEE0FFF1FEE0DC7
:10034000FF1D808191810196918380831092CF015E
:100350001092CE01C2CF61E087E10E94F0106BEBFA
:1003600071E0CE01895F9B4F0E94260E64E371E02D
:10037000CE01895F9B4F0E944B0F6091D801709115
:10038000D9014AE0C8010E94720EB801CE01895F0E
:100390009B4F0E94440FC8010E94B70D68E871E0AE
:1003A000CE01895F9B4F0E944B0FB301A2014058C1
:1003B00053446D4678432AE0C8010E949E0EB8015E
:1003C000CE01895F9B4F0E94440FC8010E94B70D68
:1003D00068E871E0CE01895F9B4F0E944B0F4AE0B5
:1003E000B601C8010E94720EB801CE01895F9B4F11
:1003F0000E94440FC8010E94B70D68E871E0CE0169
:10040000895F9B4F0E944B0F2AE0B501A401C801F0
:100410000E94CB0EB801CE01895F9B4F0E94440F12
:10042000C8010E94B70D80910701909108016C01ED
:10043000F1E0CF1AD10881509048880F991FE80E3B
:10044000F91E809107019091080185509F4FC816B1
:10045000D906E0F468E871E0CE01895F9B4F0E9405
:100460004B0FF701619171917F014AE0C8010E9431
:10047000720EB801CE01895F9B4F0E94440FC801E4
:100480000E94B70DFFEFCF1ADF0ADBCF8091D801B2
:100490009091D90101969093D9018093D801BE0122
:1004A000695F7B4F89EA92E00E948E0D60E087E1F0
:1004B0000E94F010CE01895F9B4F0E94B70DC45F70
:1004C000DB4F0FB6F894DEBF0FBECDBFDF91CF91EB
:1004D0001F910F91FF90EF90DF90CF90BF90AF9062
:1004E0009F908F907F906F905F904F9008956BE3F7
:1004F00071E080EE91E00E94260E6FE371E08AEDDC
:1005000091E00C94260E8AED91E00E94B70D80EEEA
:1005100091E00C94B70DFF920F931F93CF93DF934D
:10052000CDB7DEB762970FB6F894DEBF0FBECDBF72
:1005300061E085E10E94B41061E085E10E94F01065
:1005400064E670E080E090E00E94061026E040E063
:1005500052EC61E070E089EA92E00E94510C68E69A
:1005600071E089EA92E00E94A00D8091060120E4EA
:10057000829FC0011124806180937C0010927B00D7
:1005800080917A00806280937A0080917A00806402
:1005900080937A0080917A00846080937A008091C1
:1005A0007A00826080937A0080917A0081608093E3
:1005B0007A0061E080E00E94B4108EE984B915B839
:1005C0008CEF81B912B89CEE97B918B88AB980E857
:1005D0008BB940EA56E861E070E089EE91E00E9454
:1005E000C70861E085E10E94B41061E085E10E94E6
:1005F000F01064E670E080E090E00E94061061E791
:1006000071E089EA92E00E94A00D61E086E10E941B
:10061000B41061E086E10E94F01064E670E080E0D2
:1006200090E00E94061058E0F52E8091060130E41B
:10063000839FC0011124816180937C0062E370E09C
:1006400080E090E00E94061010927B0080917A007A
:10065000806280937A0080917A00806480937A002F
:1006600080917A00846080937A0080917A00826021
:1006700080937A0080917A00816080937A008091E3
:100680007A00806180937A0080917A0084FFFCCFA9
:1006900080917A00806180937A0020917800209385
:1006A000D301809179008093D20130E8839FC0010B
:1006B000112430E035952795822B932B8F3F9105A0
:1006C00011F00CF0F9C093959093D1018093D00173
:1006D0008091D0019091D101080F191FFA94F11067
:1006E000A4CF83E0169507958A95E1F7109308014A
:1006F0000093070161E087E10E94B41061E087E1A7
:100700000E94F01064E670E080E090E00E94061025
:1007100060910701709108014AE0CE0101960E94A4
:10072000720E6AE771E0CE0107960E94260E60EE17
:1007300071E0CE0107960E945A0F68E871E00E94AE
:100740006D0FBE016F5F7F4F0E945A0F68E871E026
:100750000E946D0F6AED71E00E945A0F68E871E027
:100760000E946D0FBC01CE010D960E940F0FCE01AD
:1007700007960E94B70DCE0101960E94B70D68E55D
:1007800070E089EE91E00E94D50868E089EE91E082
:100790000E946B0860E089EE91E00E946B0889EE90
:1007A00091E00E94500940E168E589EE91E00E94E5
:1007B0004D0910E189EE91E00E944808082F803130
:1007C00030F46AE871E0CE010D960E944B0F40E1D3
:1007D000602FCE0101960E94450EBE016F5F7F4FD4
:1007E000CE010D960E94440FCE0101960E94B70DD6
:1007F0008091D4019091D501A091D601B091D701FB
:10080000800F911DA11DB11D8093D4019093D5013E
:10081000A093D601B093D701115061F6BE01635F7A
:100820007F4F89EA92E00E948E0D61E085E10E948F
:10083000B41060E085E10E94F01064E670E080E0B2
:1008400090E00E94061061E086E10E94B41060E032
:1008500086E10E94F01064E670E080E090E00E9483
:10086000061061E087E10E94B41060E087E10E9419
:10087000F01064E670E080E090E00E94061026E050
:100880004CE851E06FE871E086EE91E00E9463066B
:1008900086EE91E00E945506CE010D960E94B70D9E
:1008A00062960FB6F894DEBF0FBECDBFDF91CF9139
:1008B0001F910F91FF9008959A9506CFCF93DF93E4
:1008C000CDB7DEB72D970FB6F894DEBF0FBECDBF04
:1008D0002DE0E9E0F1E0DE01119601900D922A95FC
:1008E000E1F7623021F483709927892B81F0E1E0F0
:1008F000F0E0EC0FFD1FE60FF11D80812D960FB685
:10090000F894DEBF0FBECDBFDF91CF9108958DE18A
:10091000F5CFDF92EF92FF920F931F93CF93DF9368
:100920007C01D62E142F61E0D0E0C0E06D1548F4B4
:1009300001E0060FC7010E945E04C80FD11D602FA1
:10094000F5CFCE01810F911DDF91CF911F910F91B6
:10095000FF90EF90DF9008957F928F929F92AF92D9
:10096000BF92CF92DF92EF92FF920F931F93CF939C
:10097000DF93EC01888199816CE370E00E94431160
:100980002A813B81620F731F7B836A8397FD33C08B
:10099000998388838A819B816CE370E00E94431174
:1009A0002C813D81620F731F7D836C8397FD2BC06B
:1009B0009B838A838C819D8168E170E00E94431152
:1009C0002E813F81620F731F7F836E8397FD23C04B
:1009D0009D838C83888599850C9740F48E819F81B7
:1009E0003BE0A32EB12C18161906FCF0CC24CA94B7
:1009F000DC2C7601D4C0CC96998388836150710930
:100A00007B836A83C7CFCC969B838A8361507109AD
:100A10007D836C83CFCF48969D838C836150710911
:100A20007F836E83D7CFD986C886C884D98477243C
:100A300073947C0C0A851B85480184E9881A88EF29
:100A4000980A672DC4010E945E04EE80FF8090E04A
:100A50008E159F0594F4E81AF90AFF82EE828FEF53
:100A6000C81AD80A8CE0C816D104E9F61986188687
:100A70000F5F1F4F1B870A87D8CF1E141F04DCF09F
:100A800081E0C81AD10880F0D986C88668856F5F72
:100A90008A859B858459984F0E945E048E0D9F2DF8
:100AA000911D9F838E83C1CFB986A88601501109FD
:100AB0001B870A87EBCF4E2D672DC4010E94890446
:100AC000FC013197FF87EE8706548DE691E0089F81
:100AD0009001099F300D1124032E000C440B550B7F
:100AE000802F86958695280F311D411D511D60E888
:100AF00071E581E090E00E941F110370C12CD12CA0
:100B00007601033039F420E8C22E21E5D22EEE24FE
:100B1000E394F12CC60ED71EE81EF91EDF0120E873
:100B200031E541E050E00E94B311C60ED71EE81E29
:100B3000F91EAC81BD8120E13EE00E94A111C60EEC
:100B4000D71EE81EF91E2A813B814CE3429FC0015B
:100B5000439F900D1124C80ED91EE11CF11C888101
:100B60009981092E000CAA0BBB0BC80ED91EEA1ED8
:100B7000FB1EC701B60120E831E541E050E00E94CC
:100B80007911CA01B9016C5F7F4F8F4F9F4F27E0EA
:100B900030E040E050E00E9457117D876C87C7012C
:100BA000B601DF91CF911F910F91FF90EF90DF90F1
:100BB000CF90BF90AF909F908F907F900895982F87
:100BC00092959F708F702AE0929F800D1124089556
:100BD000CF93DF93CDB7DEB76E970FB6F894DEBF35
:100BE0000FBECDBF9C018FE0E6E1F1E0DE01509643
:100BF00001900D928A95E1F78FE0E5E2F1E0DE01E8
:100C0000119601900D928A95E1F7F901A181B281C7
:100C100095E09A9FF0019B9FF00D1124A1E0B0E0B8
:100C2000AC0FBD1FEA0FFB1FE60FF71F8081FA0113
:100C30008083D90111962D913C91929FF001939F51
:100C4000F00D112481E090E08C0F9D1FE80FF91F3B
:100C5000E60FF71F87856E960FB6F894DEBF0FBEBE
:100C6000CDBFDF91CF910895E6EEF1E088E6808375
:100C7000128211820895CF93DF93D62FC42FFC01E7
:100C8000608189EE91E00E94CB086D2F89EE91E0A2
:100C90000E946B086C2F89EE91E00E946B0889EE30
:100CA00091E0DF91CF910C945009FC0121813281B8
:100CB0002230310531F44CE26FE20E943B0681E0C4
:100CC000089580E008958F929F92AF92BF92CF9245
:100CD000DF92EF92FF920F931F93CF93DF934C011C
:100CE0007B018A01C22ED12CD0E0C0E0CC15DD05FD
:100CF000E9F15801F801608189EE91E00E94CB088A
:100D000060E089EE91E00E946B0889EE91E00E941C
:100D1000500941E0F80161918F0189EE91E00E9454
:100D20004D0989EE91E00E9441089E012F5F3F4FDF
:100D3000892BD1F0CC0FDD1FCE0DDF1D888199816D
:100D4000F5012081F40120839283818381E0DF918A
:100D5000CF911F910F91FF90EF90DF90CF90BF90B8
:100D6000AF909F908F900895E901C0CF80E0EFCFC2
:100D70001F93CF93DF93EC01162F688189EE91E0EA
:100D80000E94CB08612F89EE91E00E946B0889EEEA
:100D900091E00E94500941E0688189EE91E00E9453
:100DA0004D0989EE91E00E944808C82F89EE91E034
:100DB0000E9450098C2FDF91CF911F910895EF92DF
:100DC000FF920F931F93CF93DF938C01EB01E42EDF
:100DD000F22EFC01608189EE91E00E94CB086E2D1D
:100DE00089EE91E00E946B0889EE91E00E94500923
:100DF0004F2DF801608189EE91E00E944D09198222
:100E0000188289EE91E00E9448088F770E94DF05E2
:100E100090E09B838A8389EE91E00E9448088F735B
:100E20000E94DF0590E09D838C831D861C8689EEE1
:100E300091E00E9448088F730E94DF0590E09F8335
:100E40008E8389EE91E00E9448088C018F710E9488
:100E5000DF058150990B9987888785E0159507955F
:100E60008A95E1F707701127015011091D870C873A
:100E700086E490E09B878A878FEF9FEF9F878E871E
:100E800089EE91E00E94500981E0DF91CF911F919E
:100E90000F91FF90EF9008955F926F927F928F92E3
:100EA0009F92AF92BF92CF92DF92EF92FF920F93F9
:100EB0001F93CF93DF931F92CDB7DEB77C018B01D9
:100EC0006A011982AE014F5F5F4FB6010E94E805CB
:100ED000582E298180E0222371F0F70181819281CF
:100EE0000197D1F4C60103970297B0F4452DB801DC
:100EF000C7010E94DF060F90DF91CF911F910F91E4
:100F0000FF90EF90DF90CF90BF90AF909F908F9029
:100F10007F906F905F90089586E4882E912C6624D0
:100F20006A94762CF701608189EE91E00E94CB08EB
:100F3000652D89EE91E00E946B0889EE91E00E9498
:100F400050094981F701608189EE91E00E944D09C5
:100F500089EE91E00E9448088F770E94DF0590E0BB
:100F6000F8019183808389EE91E00E9448088F7791
:100F70000E94DF0590E0F8019383828389EE91E07F
:100F80000E944808B82E86FF4CC08F710E94DF0572
:100F900090E0B5FC44C0F80195838483F70181811A
:100FA0009281029709F042C089EE91E00E944808C0
:100FB0008F730E94DF0590E0F8019783868389EEA6
:100FC00091E00E94480887709927F80195878487E7
:100FD00089EE91E00E9448088F710E94DF058150E0
:100FE000990BF8019187808789818730A8F189EE74
:100FF00091E00E9448080E94DF0590E08C599F4FC5
:10100000F80193878287F8017786668689EE91E0FA
:101010000E945009C114D10411F181E06CCF0C96EB
:10102000BACF8F730E94DF0590E0B5CF89EE91E0D3
:101030000E944808877099270197F801958784874F
:1010400089EE91E00E9448088F730E94DF0590E0CE
:10105000F80197838683BCCF93868286D4CFF8012C
:10106000A080B180652DC7010E94B8068F770E94CD
:10107000DF058A151B0409F055CFCFCF90E080E043
:1010800008958091190290911A02891B990B089575
:1010900090911A02809119022FEF3FEF981748F4B0
:1010A000E92FF0E0E55EFD4F208130E09F5F9093F7
:1010B0001A02C9010895E0911A0280911902E817F5
:1010C00030F4F0E0E55EFD4F808190E008958FEF11
:1010D0009FEF08950895CF93DF931F92CDB7DEB7AA
:1010E00069832091F5012223F9F02091F601203245
:1010F00058F021E030E0FC013383228390E080E06F
:101100000F90DF91CF9108958091F701E82FF0E0E3
:10111000E850FE4F998190838F5F8093F701809311
:10112000F60181E090E0ECCF61E0CE0101960E94F3
:10113000160AF7CFCF92DF92EF92FF920F931F9391
:10114000CF93DF937C01CB018A012091F50122230B
:1011500089F0EB016B01C40ED51ECC15DD0569F0DD
:101160006991D701ED91FC910190F081E02DC701CB
:101170000995F3CF642F0E94160AC801DF91CF9121
:101180001F910F91FF90EF90DF90CF900895CB01CA
:10119000BA010C94640981E08093F5016093180210
:1011A0001092F7011092F60108950C94CB080F935A
:1011B000062F21E04091F60168EF71E0809118025E
:1011C0000E94BF091092F7011092F6011092F501EA
:1011D0000F9108954F925F926F927F92AF92BF925C
:1011E000CF92EF92FF920F931F93CF93DF935C0107
:1011F000F62ED42F28013901EE2019F10E94CB08D8
:10120000CE2DC43008F0C3E0C150B8F028E0C29F32
:10121000C0011124A301920104C05695479537954A
:1012200027958A95D2F7B901D501ED91FC910190EE
:10123000F081E02DC5010995E7CF60E0C5010E946E
:10124000D7084D2FD13208F040E22C2D6BE172E02F
:101250008F2D0E94770910921A0280931902DF9154
:10126000CF911F910F91FF90EF90CF90BF90AF90D3
:101270007F906F905F904F900895CF92EF920F9371
:101280001F93C22EE12C00E010E098010E94EA08B2
:101290001F910F91EF90CF90089521E00C943D099C
:1012A00061E00C94D708E9EEF1E01382128288EE37
:1012B00093E0A0E0B0E084839583A683B78389E9B7
:1012C00091E09183808308959B01AC0160E074E21A
:1012D00084EF90E00E9457112051310941095109D2
:1012E00056954795379527952093B8000895413234
:1012F00008F043C09091A8029111FCCF91E0909327
:10130000A8022093A6022FEF20933B0210928002A6
:10131000240F20937F029093A7029091A702880F39
:10132000892B8093A7028091A502813009F5109244
:10133000A5028091A7028093BB008091BC0083FD31
:10134000F8CF85EC8093BC008091A8028130E1F356
:1013500080918002841710F440918002A1E8B2E0ED
:10136000962FFB018E2F891B841720F0842F089560
:1013700085EEE8CF8D918193F5CF40E0F7CF0F93C5
:10138000413208F04BC09091A8029111FCCF92E03D
:101390009093A8020093A6029FEF90933B021092B5
:1013A000800240937F02362FA1E8B2E0FB019E2F1E
:1013B000931B941770F11092A7029091A702880FC7
:1013C000892B8093A7028091A502813029F5109284
:1013D000A5028091A7028093BB008091BC0083FD91
:1013E000F8CF85EC8093BC00222321F08091A802E5
:1013F0008230D1F380913B028F3F91F080913B028C
:10140000803281F080913B02803371F084E00F9153
:10141000089591919D93CBCF85EEE4CF81E0F7CFF6
:1014200080E0F5CF82E0F3CF83E0F1CF20915D0241
:10143000260F3327331F21323105ECF42091A80207
:10144000FC0190E080E0243069F082E00895A091F2
:101450005D022191AC01415A5D4FA40FB52FB11D22
:101460002C930196861798F380915D02680F609324
:101470005D0280E0089581E0089585ED8093BC00D1
:101480008091BC0084FDFCCF1092A802089585ECE9
:101490008093BC001092A80208951F920F920FB67D
:1014A0000F9211240BB60F922F933F934F935F939C
:1014B0006F937F938F939F93AF93BF93EF93FF931C
:1014C0008091B900887F803609F44EC008F041C091
:1014D000883209F4AAC028F5803109F49EC0C8F406
:1014E000882309F4FBC0883009F497C0FF91EF917D
:1014F000BF91AF919F918F917F916F915F914F912C
:101500003F912F910F900BBE0F900FBE0F901F9029
:101510001895883109F489C0803241F780933B02E5
:1015200015C0803409F49EC048F48033B9F3883381
:10153000E9F680933B020E94470AD8CF803509F430
:1015400085C0883509F496C0883481F60E943D0A2A
:10155000CDCF883909F48CC038F5883729F050F49C
:10156000883611F0803711F683E08093A80210923C
:101570003C0257C0883809F47BC0803919F08038A4
:1015800009F0B4CF80913C02803208F071C0E09144
:101590003C0281E08E0F80933C028091BB00F0E022
:1015A000E35CFD4F80833DC0803B39F0E0F4803A3E
:1015B00009F479C0883A09F099CF84E08093A802B1
:1015C00010925E0210925D02E091A302F091A402DB
:1015D000099580915D0281110FC081E080935D02C9
:1015E00010925F0209C0803C09F476C0883C09F47F
:1015F00073C0883B09F07ACFE0915E0281E08E0FE4
:1016000080935E02F0E0E15AFD4F80818093BB0041
:1016100090915E0280915D0229C08091A702809323
:10162000BB0085EC8093BC0061CF909180028091DB
:101630007F02981758F5E091800281E08E0F809329
:101640008002F0E0EF57FD4F8081E9CFE09180020A
:1016500081E08E0F809380028091BB00F0E0EF5715
:10166000FD4F80839091800280917F029817C8F28D
:1016700085E8D8CFE091800281E08E0F80938002D0
:101680008091BB00F0E0EF57FD4F80838091A60270
:1016900081115CCF81E08093A50284EA8093BC0035
:1016A0001092A80223CF0E94470A80913C02803208
:1016B00030F4E0913C02F0E0E35CFD4F1082609179
:1016C0003C0270E0E091A102F091A2028DE392E071
:1016D000099510923C020ACF85ECE0CF10923B02B4
:1016E00035CFFC01918D228D892F90E0805C9F4F3A
:1016F000821B91098F7399270895FC01918D828D2A
:10170000981731F0828DE80FF11D858D90E00895D6
:101710008FEF9FEF0895FC01918D828D981761F0F6
:10172000A28DAE0FBF2FB11D5D968C91928D9F5FE4
:101730009F73928F90E008958FEF9FEF0895FC01C3
:10174000538D448D252F30E0842F90E0821B930B26
:10175000541710F0CF9608950197089589E09DE001
:10176000892B49F080E090E0892B29F00E94090D37
:1017700081110E94000080E090E0892B49F080E018
:1017800090E0892B29F00E94000081110C94000048
:101790000895FC01A48DA80FB92FB11DA35ABF4F06
:1017A0002C91848D90E001968F739927848FA68960
:1017B000B7892C93A089B1898C9180648C93938D87
:1017C000848D981306C00288F389E02D80818F7D77
:1017D00080830895CF93DF93EC01888D8823B9F03F
:1017E000AA89BB89E889F9898C9185FD03C080812C
:1017F00086FD0DC00FB607FCF7CF8C9185FFF2CFA9
:10180000808185FFEDCFCE010E94C90BE9CFDF912A
:10181000CF910895EF92FF920F931F93CF93DF9391
:10182000EC0181E0888F9B8D8C8D981316C0E88920
:10183000F989808185FF11C0EE89FF896083E8897D
:10184000F98980818064808381E090E0DF91CF918D
:101850001F910F91FF90EF900895F62E0B8D10E0E1
:101860000F5F1F4F0F731127E02E8C8D8E110CC050
:101870000FB607FCFACFE889F989808185FFF5CF9B
:10188000CE010E94C90BF1CFEB8DEC0FFD2FF11DA6
:10189000E35AFF4FF0820B8FEA89FB8980818062D7
:1018A000D2CFCF92DF92EF92FF921F93CF93DF932D
:1018B000EC016A017B01122FE889F98982E08083BB
:1018C000C11481EED806E104F104A1F060E079E0F2
:1018D0008DE390E0A70196010E9457112150310934
:1018E000410951095695479537952795211580E16E
:1018F000380798F0E889F989108260E874E88EE189
:1019000090E0A70196010E94571121503109410929
:1019100051095695479537952795EC85FD85308378
:10192000EE85FF852083188EEC89FD891083EA8976
:10193000FB89808188698083EA89FB8980818F7D2A
:101940008083DF91CF911F91FF90EF90DF90CF9038
:1019500008951F920F920FB60F9211240BB60F929B
:101960002F938F939F93EF93FF93E091B902F091A0
:10197000BA028081E091BF02F091C00282FD1DC0D9
:1019800090818091C2028F5F8F732091C302821772
:1019900041F0E091C202F0E0E755FD4F958F809352
:1019A000C202FF91EF919F918F912F910F900BBEEB
:1019B0000F900FBE0F901F9018958081F2CF1F924D
:1019C0000F920FB60F9211240BB60F922F933F93E5
:1019D0004F935F936F937F938F939F93AF93BF9337
:1019E000EF93FF9389EA92E00E94C90BFF91EF9178
:1019F000BF91AF919F918F917F916F915F914F9127
:101A00003F912F910F900BBE0F900FBE0F901F9024
:101A1000189589EA92E00E94710B21E0892B09F464
:101A200020E0822F0895E9EAF2E01382128288EE24
:101A300093E0A0E0B0E084839583A683B7838BEA2C
:101A400091E09183808385EC90E09587848784EC96
:101A500090E09787868780EC90E0918B808B81EC7B
:101A600090E0938B828B82EC90E0958B848B86EC5C
:101A700090E0978B868B118E128E138E148E0895A4
:101A8000AF92BF92CF92DF92EF92FF920F931F938C
:101A9000CF93DF936C017B018B01040F151FEB01CA
:101AA0005E01AE18BF08C017D10759F06991D60181
:101AB000ED91FC910190F081E02DC6010995892BF3
:101AC00079F7C501DF91CF911F910F91FF90EF90B2
:101AD000DF90CF90BF90AF900895FB010190002060
:101AE000E9F73197AF01461B570BDC01ED91FC91F3
:101AF0000280F381E02D0994DB0114964D915C91F5
:101B000015976D917C91DC01ED91FC910280F38140
:101B1000E02D099469EB71E00C946D0D0F931F9308
:101B2000CF93DF93EC010E947C0D8C01CE010E94CB
:101B30008A0D800F911FDF91CF911F910F91089512
:101B40000F931F93CF93DF938C01D0E0C0E061151A
:101B5000710519F00E946D0DEC01C8010E948A0DFB
:101B60008C0F9D1FDF91CF911F910F910895FC0164
:101B7000808191810C946612CF93DF93EC01888170
:101B80009981009711F00E946612198218821D82B5
:101B90001C821B821A82DF91CF9108950F931F93AD
:101BA000CF93DF93EC018B016F5F7F4F8881998129
:101BB0000E94EF12009751F0998388831B830A8358
:101BC00081E0DF91CF911F910F91089580E0F9CFCF
:101BD000CF93DF93EC0188819981892B49F08A8129
:101BE0009B818617970720F081E0DF91CF910895C0
:101BF000CE010E94CE0D8823C1F38C819D81892B5B
:101C000099F7E881F9811082EFCFEF92FF920F935D
:101C10001F93CF93DF93EC017B018A01BA010E94ED
:101C2000E80D81110BC0CE010E94BC0DCE01DF91E9
:101C3000CF911F910F91FF90EF9008951D830C831A
:101C4000B701888199810E94D913F0CFFC011182DC
:101C5000108213821282158214826115710551F06F
:101C6000FB0101900020E9F73197AF01461B570BAC
:101C70000C94050E0895FB0101900020E9F73197BF
:101C8000AF01461B570B0C94050E0F931F93CF9378
:101C9000DF93CDB7DEB729970FB6F894DEBF0FBE3E
:101CA000CDBF8C01862FF80111821082138212821F
:101CB0001582148250E0BE016F5F7F4F90E00E945A
:101CC0002714BE016F5F7F4FC8010E943B0E29960B
:101CD0000FB6F894DEBF0FBECDBFDF91CF911F913D
:101CE0000F9108950F931F93CF93DF93CDB7DEB776
:101CF00061970FB6F894DEBF0FBECDBF8C01CB014C
:101D0000F80111821082138212821582148250E02F
:101D1000BE016F5F7F4F0E942714BE016F5F7F4F30
:101D2000C8010E943B0E61960FB6F894DEBF0FBE4D
:101D3000CDBFDF91CF911F910F9108950F931F9306
:101D4000CF93DF93CDB7DEB7A2970FB6F894DEBF7F
:101D50000FBECDBF8C01CB01BA01F80111821082F8
:101D6000138212821582148230E0AE014F5F5F4F02
:101D70000E94E013BE016F5F7F4FC8010E943B0EBF
:101D8000A2960FB6F894DEBF0FBECDBFDF91CF9104
:101D90001F910F9108950F931F93CF93DF93CDB7AA
:101DA000DEB7A1970FB6F894DEBF0FBECDBF8C0192
:101DB000CB01BA01F80111821082138212821582BE
:101DC000148230E0AE014F5F5F4F0E94FA13BE01F4
:101DD0006F5F7F4FC8010E943B0EA1960FB6F8942B
:101DE000DEBF0FBECDBFDF91CF911F910F91089540
:101DF000CF93DF93EC01FB018617970749F06081D1
:101E000071816115710541F0448155810E94050E73
:101E1000CE01DF91CF9108950E94BC0DF9CFFC0156
:101E20001182108213821282158214820C94F80E91
:101E3000EF92FF920F931F93CF93DF93611571057C
:101E400041F480E0DF91CF911F910F91FF90EF90CF
:101E5000089541155105B1F07B01EC010C811D8104
:101E6000040F151FB8010E94E80D882351F3288143
:101E700039818C819D81B701820F931F0E94D913F4
:101E80001D830C8381E0DECFFB014481558160819D
:101E900071810C94180F6115710551F0FB010190CF
:101EA0000020E9F73197AF01461B570B0C94180F30
:101EB00080E00895CF93DF93EC01FB0144815581CD
:101EC000608171810E94180F811103C0CE010E94B0
:101ED000BC0DCE01DF91CF910895CF93DF93EC013C
:101EE0006115710539F4CE010E94BC0DCE01DF9160
:101EF000CF910895FB0101900020E9F73197AF01E0
:101F0000461B570B0E94180F882369F3EFCF0895E3
:101F10000E944A100E94870F0E948B02CEEADBE0EB
:101F20000E94B1002097E1F30E94AE0BF9CF1F92FF
:101F30000F920FB60F9211242F933F938F939F937D
:101F4000AF93BF9380914B0390914C03A0914D03AD
:101F5000B0914E0330914A0323E0230F2D3768F1EF
:101F600026E8230F0296A11DB11D20934A038093FA
:101F70004B0390934C03A0934D03B0934E03809179
:101F8000460390914703A0914803B09149030196FD
:101F9000A11DB11D8093460390934703A09348036E
:101FA000B0934903BF91AF919F918F913F912F9132
:101FB0000F900FBE0F901F9018950196A11DB11D97
:101FC000D4CF3FB7F8948091460390914703A091F6
:101FD0004803B091490326B5A89B05C02F3F19F0CF
:101FE0000196A11DB11D3FBFBA2FA92F982F882799
:101FF000BC01CD01620F711D811D911D42E0660F74
:10200000771F881F991F4A95D1F708958F929F9245
:10201000AF92BF92CF92DF92EF92FF926B017C0161
:102020000E94E10F4B015C01C114D104E104F104F1
:10203000E9F00E941E110E94E10F681979098A09CE
:102040009B09683E73408105910570F321E0C21A37
:10205000D108E108F10888EE880E83E0981EA11CE3
:10206000B11CC114D104E104F10429F7FF90EF90F1
:10207000DF90CF90BF90AF909F908F900895823067
:10208000910538F0880F991F880F991F05970197C0
:10209000F1F70895789484B5836084BD85B5836035
:1020A00085BDEEE6F0E0808181608083E1E8F0E0CC
:1020B00082E08083808181608083E0E8F0E080813D
:1020C00081608083E1EBF0E0808184608083E0EBDD
:1020D000F0E0808181608083E1E9F0E080818360CD
:1020E0008083E0E9F0E080818160808387E88093ED
:1020F0007A001092C100089582508A3088F5E82F46
:10210000F0E0EB57FF4E0C949811AD10B1108F100A
:102110009510B010B01099109F10A310A9108091C5
:1021200080008F77809380000895809180008F7D5C
:10213000F9CF8091B0008F778093B000089580919F
:10214000B0008F7DF9CF809190008F7780939000C1
:102150000895809190008F7DF9CF84B58F7784BDED
:10216000089584B58F7DFBCFCF93DF9390E0FC0182
:10217000E455FF4F249184539F4FFC0184918823A1
:10218000C9F090E0880F991FFC01EA50FF4FA5911C
:10219000B491FC01E451FF4FC591D49161110DC080
:1021A0009FB7F8948C91209582238C938881282363
:1021B00028839FBFDF91CF910895623051F49FB77C
:1021C000F8943C91822F809583238C93E8812E2B69
:1021D000EFCF8FB7F894EC912E2B2C938FBFEACFD3
:1021E0001F93CF93DF93282F30E0F901E457FF4F7F
:1021F0008491F901E455FF4FD491F901E453FF4F65
:10220000C491CC23A9F0162F81110E947C10EC2FD1
:10221000F0E0EE0FFF1FE451FF4FA591B4918FB78F
:10222000F894EC91111108C0D095DE23DC938FBF98
:10223000DF91CF911F910895DE2BF8CF0895DB0138
:102240008F939F930E94A811BF91AF91A29F800D81
:10225000911DA39F900DB29F900D11240895AA1B6C
:10226000BB1B51E107C0AA1FBB1FA617B70710F081
:10227000A61BB70B881F991F5A95A9F780959095B3
:10228000BC01CD01089597FB072E16F4009407D0EA
:1022900077FD09D00E942F1107FC05D03EF49095E0
:1022A00081959F4F0895709561957F4F0895A1E2A4
:1022B0001A2EAA1BBB1BFD010DC0AA1FBB1FEE1FC0
:1022C000FF1FA217B307E407F50720F0A21BB30B0B
:1022D000E40BF50B661F771F881F991F1A9469F787
:1022E00060957095809590959B01AC01BD01CF01E3
:1022F0000895052E97FB1EF400940E94901157FD3F
:1023000007D00E94571107FC03D04EF40C94901193
:1023100050954095309521953F4F4F4F5F4F089511
:1023200090958095709561957F4F8F4F9F4F089541
:10233000EE0FFF1F0024001C0BBE0790F691E02D4E
:1023400009940E94BB11B7FF0895821B930B089557
:102350000E94BB11A59F900DB49F900DA49F800D6E
:10236000911D11240895B7FF0C94A8110E94A81183
:10237000821B930B0895A29FB001B39FC001A39F3E
:10238000700D811D1124911DB29F700D811D1124AE
:10239000911D08950F931F93CF93DF938230910582
:1023A00010F482E090E0E0915103F091520330E0AC
:1023B00020E0B0E0A0E0309799F42115310509F450
:1023C0004AC0281B390B24303105D8F58A819B81FE
:1023D0006115710589F1FB0193838283FE0111C0B0
:1023E000408151810281138148175907E0F0481755
:1023F000590799F4109761F012960C93129713965F
:102400001C933296CF01DF91CF911F910F910895C8
:102410000093510310935203F4CF2115310551F06D
:102420004217530738F0A901DB019A01BD01DF0112
:10243000F801C1CFEF01F9CF90935203809351037C
:10244000CDCFFE01E20FF31F81939193225031090A
:1024500039832883D7CF20914F0330915003232B0A
:1024600041F42091020130910301309350032093F5
:102470004F0320910001309101012115310541F4F4
:102480002DB73EB74091040150910501241B350B37
:10249000E0914F03F0915003E217F307A0F42E1BD5
:1024A0003F0B2817390778F0AC014E5F5F4F2417B8
:1024B000350748F04E0F5F1F5093500340934F0372
:1024C000819391939FCFF0E0E0E09CCFCF93DF9397
:1024D0000097E9F0FC01329713821282A091510318
:1024E000B0915203ED0130E020E01097A1F420817B
:1024F0003181820F931F20914F0330915003281791
:10250000390709F061C0F0935003E0934F03DF9166
:10251000CF910895EA01CE17DF07E8F54A815B8184
:102520009E0141155105B1F7E901FB83EA83499109
:102530005991C40FD51FEC17FD0761F4808191817B
:102540000296840F951FE901998388838281938184
:102550009B838A83F0E0E0E012968D919C91139723
:102560000097B9F52D913C911197CD010296820FFC
:10257000931F20914F03309150032817390739F6E4
:10258000309751F51092520310925103B0935003BB
:10259000A0934F03BCCFD383C28340815181840F6A
:1025A000951FC817D90761F44E5F5F4F88819981E5
:1025B000480F591F518340838A819B819383828373
:1025C0002115310509F0B0CFF0935203E093510388
:1025D0009ECFFD01DC01C0CF13821282D7CF4F9274
:1025E0005F926F927F928F929F92AF92BF92CF92A3
:1025F000DF92EF92FF920F931F93CF93DF938C01A3
:10260000009799F4CB01DF91CF911F910F91FF902B
:10261000EF90DF90CF90BF90AF909F908F907F9082
:102620006F905F904F900C94CA11FC01E60FF71F5A
:102630009C0122503109E217F30708F4AEC0D9011A
:10264000CD91DC911197C617D70720F1C530D10580
:1026500078F0CE0104978617970750F0C61BD70B6A
:102660002297C193D1936D937C93CF010E94661200
:10267000C801DF91CF911F910F91FF90EF90DF90F4
:10268000CF90BF90AF909F908F907F906F905F9012
:102690004F9008955B01AC1ABD0A4C018C0E9D1E33
:1026A000A0915103B0915203512C412CF12CE12CFB
:1026B000109731F580914F0390915003881599053B
:1026C00009F05CC04616570608F058C0809100011A
:1026D00090910101009741F48DB79EB7409104019C
:1026E00050910501841B950BE817F90708F055C0B8
:1026F000F0935003E0934F03F90171836083B8CFE7
:102700008D919C91119712966C90129713967C90D4
:102710001397A815B90559F56C0142E0C40ED11CF8
:10272000CA14DB0420F1AC014A195B09DA011296E4
:10273000159780F06282738251834083D9016D9333
:102740007C93E114F10471F0D7011396FC93EE939E
:1027500012978ECF22968C0F9D1FF9019183808353
:10276000F301EFCFF0935203E093510381CF48166A
:10277000590608F42C017D01D3019ACFCB010E94A8
:10278000CA117C01009749F0AE01B8010E94D01334
:10279000C8010E94661287016BCF10E000E068CF8D
:1027A000FB01DC0102C001900D9241505040D8F76E
:1027B0000895FB01DC0101900D920020E1F70895DE
:1027C0002532310520F4223010F00C94EB13FA017D
:1027D0001082CA010895BB272A3051F4992342F48C
:1027E000BDE290958095709561957F4F8F4F9F4F7B
:1027F0000C9406142532310520F4223010F00C948C
:102800000514FA011082CA010895BB27FA01A62F08
:102810006217710581059105330B30FB66F0AA271D
:10282000660F771F881F991FAA1FA21710F0A21BFF
:1028300063953850A9F7A05DAA3308F0A95DA1936C
:1028400036F7B111B1931082CA010C944C14453281
:10285000510520F4423010F00C943214FB01108228
:10286000CB010895BB27FB015527AA27880F991F85
:10287000AA1FA41710F0A41B83955051B9F7A05DAF
:10288000AA3308F0A95DA193009779F7B111B1932C
:102890001192CB010C944C14DC01FC01672F719157
:1028A0007723E1F7329704C07C916D937083629136
:1028B000AE17BF07C8F3089510E0C4E8D0E004C025
:1028C000FE010E9498112196C538D107C9F7F894E6
:0228D000FFCF38
:1028D200000053038000030001001F1C1F1E1F1E67
:1028E2001F1F1E1F1E1F00FFFFFFFF000A11181CE3
:1028F20001080DFFFF070000000007060604040799
:102902000000000024484953542C004C303200335C
:102912006133363264326665306136333062366432
:10292200393433326336623339363564333462666E
:102932006335303834646400234376616B2E2E2E67
:102942000023486D6D6D2E2E2E0024444F532C4CC7
:102952004142444F533031412C00300051000002BB
:102962000000000000000000006B089A083E086AA0
:1029720008410848085B08000000000A0C400D9F4F
:0C2982000BEA0B710B8B0B7D0B0D0A0098
:00000001FF
