:100000000C9485000C94AF000C94AF000C94AF00DE
:100010000C94AF000C94AF000C94AF000C94AF00A4
:100020000C94AF000C94AF000C94AF000C94AF0094
:100030000C94AF000C94AF000C94AF000C94AF0084
:100040000C94AF000C94AF000C94980F0C94AF007C
:100050000C94A70C0C94DD0C0C94AF000C94AF0026
:100060000C94AF000C94AF000C943E0A0C94AF00BB
:100070000C94AF000C94AF000C94AF000C94AF0044
:100080000C94AF000C94AF000C94AF000000000281
:1000900003000A0B0000000005040908000000002E
:1000A0000000000000000000000000000102040841
:1000B0001020408001020408102040800102040842
:1000C0001020408001020408102040800202020239
:1000D00002020202040404040404040403030303EC
:1000E00003030303010101010101010100002200DA
:1000F000250028002B0000002100240027002A00F2
:10010000770234065309110D830211241FBECFEF6D
:10011000D0E4DEBFCDBF11E0A0E0B1E0E4EDF8E255
:1001200000E00BBF02C007900D92AC3BB107D9F7BE
:1001300023E0ACEBB1E001C01D92A533B207E1F7BB
:1001400010E0C4E8D0E004C02197FE010E9499119C
:10015000C038D107C9F70E94890F0C945D140C9424
:1001600000004F925F926F927F928F929F92AF9218
:10017000BF92CF92DF92EF92FF920F931F93CF9394
:10018000DF93CDB7DEB7CC50D4400FB6F894DEBFC6
:100190000FBECDBFFE0131968E010F5F1B4F7F0159
:1001A00011921192E017F107D9F78091060120E42E
:1001B000829FC0011124806180937C0010927B009B
:1001C00080917A00806280937A0080917A008064C6
:1001D00080937A0080917A00846080937A00809185
:1001E0007A00826080937A0080917A0081608093A7
:1001F0007A0081E085B980917A00806180937A00ED
:1002000080917A0084FFFCCF8FE984B984E690E086
:100210000E9440108EE984B980917A0080618093B9
:100220007A0080917A0084FFFCCF8FE984B90000C6
:1002300000000000000000008EE984B980917A007F
:10024000806180937A0070EBA72E73EBB72ED12CD0
:10025000C12CEFE99E2EFEE98F2E80917A0084FF5B
:10026000FCCF86E990E00E94401094B887E090E0CF
:100270000E94401084B880917A00806180937A0057
:10028000209178002093D301809179008093D2014E
:1002900030E8839FC001112430E035952795822BEB
:1002A000932B8F3F910511F00CF045C093959093DF
:1002B000D1018093D0018091D0019091D101E09142
:1002C000CE01F091CF01E817F907B8F59093CF016F
:1002D0008093CE018FEFC81AD80AE1E0AE1AB108B8
:1002E00009F0BBCF50E040E06CEB71E086EE91E0AE
:1002F0000E944C078CEB91E00E94AC042B013C0166
:100300002091070130910801C9010296FC01EE0F0E
:10031000FF1FEE0DFF1D812C912C540124503F4FE7
:1003200082179307C0F441915191840E951EA11C30
:10033000B11C0196F5CF9A95BACFEE0FFF1FEE0DC7
:10034000FF1D808191810196918380831092CF015E
:100350001092CE01C2CF61E087E10E94F1106BEBF9
:1003600071E0CE01895F9B4F0E94270E64E371E02C
:10037000CE01895F9B4F0E944C0F6091D801709114
:10038000D9014AE0C8010E94730EB801CE01895F0D
:100390009B4F0E94450FC8010E94B50D68E871E0AF
:1003A000CE01895F9B4F0E944C0FB301A2014058C0
:1003B00053446D4678432AE0C8010E949F0EB8015D
:1003C000CE01895F9B4F0E94450FC8010E94B50D69
:1003D00068E871E0CE01895F9B4F0E944C0F4AE0B4
:1003E000B601C8010E94730EB801CE01895F9B4F10
:1003F0000E94450FC8010E94B50D68E871E0CE016A
:10040000895F9B4F0E944C0F2AE0B501A401C801EF
:100410000E94CC0EB801CE01895F9B4F0E94450F10
:10042000C8010E94B50D80910701909108016C01EF
:10043000F1E0CF1AD10881509048880F991FE80E3B
:10044000F91E809107019091080185509F4FC816B1
:10045000D906E0F468E871E0CE01895F9B4F0E9405
:100460004C0FF701619171917F014AE0C8010E9430
:10047000730EB801CE01895F9B4F0E94450FC801E2
:100480000E94B50DFFEFCF1ADF0ADBCF8091D801B4
:100490009091D90101969093D9018093D801BE0122
:1004A000695F7B4F8BE892E00E948C0D60E087E1F2
:1004B0000E94F110CE01895F9B4F0E94B50DC45F71
:1004C000DB4F0FB6F894DEBF0FBECDBFDF91CF91EB
:1004D0001F910F91FF90EF90DF90CF90BF90AF9062
:1004E0009F908F907F906F905F904F9008956BE3F7
:1004F00071E080EE91E00E94270E6FE371E08AEDDB
:1005000091E00C94270E8AED91E00E94B50D80EEEB
:1005100091E00C94B50DFF920F931F93CF93DF934F
:10052000CDB7DEB762970FB6F894DEBF0FBECDBF72
:1005300061E085E10E94B51061E085E10E94F11063
:1005400064E670E080E090E00E94071026E040E062
:1005500052EC61E070E08BE892E00E94550C68E696
:1005600071E08BE892E00E949E0D8091060120E4EC
:10057000829FC0011124806180937C0010927B00D7
:1005800080917A00806280937A0080917A00806402
:1005900080937A0080917A00846080937A008091C1
:1005A0007A00826080937A0080917A0081608093E3
:1005B0007A0061E080E00E94B5108EE984B915B838
:1005C0008CEF81B912B89CEE97B918B88AB980E857
:1005D0008BB940EA56E861E070E089EE91E00E9454
:1005E000C70861E085E10E94B51061E085E10E94E5
:1005F000F11064E670E080E090E00E94071061E78F
:1006000071E08BE892E00E949E0D61E086E10E941D
:10061000B51061E086E10E94F11064E670E080E0D0
:1006200090E00E94071058E0F52E8091060130E41A
:10063000839FC0011124816180937C0062E370E09C
:1006400080E090E00E94071010927B0080917A0079
:10065000806280937A0080917A00806480937A002F
:1006600080917A00846080937A0080917A00826021
:1006700080937A0080917A00816080937A008091E3
:100680007A00806180937A0080917A0084FFFCCFA9
:1006900080917A00806180937A0020917800209385
:1006A000D301809179008093D20130E8839FC0010B
:1006B000112430E035952795822B932B8F3F9105A0
:1006C00011F00CF0F9C093959093D1018093D00173
:1006D0008091D0019091D101080F191FFA94F11067
:1006E000A4CF83E0169507958A95E1F7109308014A
:1006F0000093070161E087E10E94B51061E087E1A6
:100700000E94F11064E670E080E090E00E94071023
:1007100060910701709108014AE0CE0101960E94A4
:10072000730E6AE771E0CE0107960E94270E60EE15
:1007300071E0CE0107960E945B0F68E871E00E94AD
:100740006E0FBE016F5F7F4F0E945B0F68E871E024
:100750000E946E0F6AED71E00E945B0F68E871E025
:100760000E946E0FBC01CE010D960E94100FCE01AB
:1007700007960E94B50DCE0101960E94B50D68E561
:1007800070E089EE91E00E94D50868E089EE91E082
:100790000E946B0860E089EE91E00E946B0889EE90
:1007A00091E00E94500940E168E589EE91E00E94E5
:1007B0004D0910E189EE91E00E944808082F803130
:1007C00030F46AE871E0CE010D960E944C0F40E1D2
:1007D000602FCE0101960E94460EBE016F5F7F4FD3
:1007E000CE010D960E94450FCE0101960E94B50DD7
:1007F0008091D4019091D501A091D601B091D701FB
:10080000800F911DA11DB11D8093D4019093D5013E
:10081000A093D601B093D701115061F6BE01635F7A
:100820007F4F8BE892E00E948C0D61E085E10E9491
:10083000B51060E085E10E94F11064E670E080E0B0
:1008400090E00E94071061E086E10E94B51060E030
:1008500086E10E94F11064E670E080E090E00E9482
:10086000071061E087E10E94B51060E087E10E9417
:10087000F11064E670E080E090E00E94071026E04E
:100880004CE851E06FE871E086EE91E00E9463066B
:1008900086EE91E00E945506CE010D960E94B50DA0
:1008A00062960FB6F894DEBF0FBECDBFDF91CF9139
:1008B0001F910F91FF9008959A9506CFCF93DF93E4
:1008C000CDB7DEB72D970FB6F894DEBF0FBECDBF04
:1008D0002DE0E9E0F1E0DE01119601900D922A95FC
:1008E000E1F7623021F483709927892B81F0E1E0F0
:1008F000F0E0EC0FFD1FE60FF11D80812D960FB685
:10090000F894DEBF0FBECDBFDF91CF9108958DE18A
:10091000F5CFDF92EF92FF920F931F93CF93DF9368
:100920007C01D62E142F61E0D0E0C0E06D1548F4B4
:1009300001E0060FC7010E945E04C80FD11D602FA1
:10094000F5CFCE01810F911DDF91CF911F910F91B6
:10095000FF90EF90DF9008957F928F929F92AF92D9
:10096000BF92CF92DF92EF92FF920F931F93CF939C
:10097000DF93EC01888199816CE370E00E9444115F
:100980002A813B81620F731F7B836A8397FD33C08B
:10099000998388838A819B816CE370E00E94441173
:1009A0002C813D81620F731F7D836C8397FD2BC06B
:1009B0009B838A838C819D8168E170E00E94441151
:1009C0002E813F81620F731F7F836E8397FD23C04B
:1009D0009D838C83888599850C9740F48E819F81B7
:1009E0003BE0A32EB12C18161906FCF0CC24CA94B7
:1009F000DC2C7601D4C0CC96998388836150710930
:100A00007B836A83C7CFCC969B838A8361507109AD
:100A10007D836C83CFCF48969D838C836150710911
:100A20007F836E83D7CFD986C886C884D98477243C
:100A300073947C0C0A851B85480184E9881A88EF29
:100A4000980A672DC4010E945E04EE80FF8090E04A
:100A50008E159F0594F4E81AF90AFF82EE828FEF53
:100A6000C81AD80A8CE0C816D104E9F61986188687
:100A70000F5F1F4F1B870A87D8CF1E141F04DCF09F
:100A800081E0C81AD10880F0D986C88668856F5F72
:100A90008A859B858459984F0E945E048E0D9F2DF8
:100AA000911D9F838E83C1CFB986A88601501109FD
:100AB0001B870A87EBCF4E2D672DC4010E94890446
:100AC000FC013197FF87EE8706548DE691E0089F81
:100AD0009001099F300D1124032E000C440B550B7F
:100AE000802F86958695280F311D411D511D60E888
:100AF00071E581E090E00E9420110370C12CD12C9F
:100B00007601033039F420E8C22E21E5D22EEE24FE
:100B1000E394F12CC60ED71EE81EF91EDF0120E873
:100B200031E541E050E00E94B411C60ED71EE81E28
:100B3000F91EAC81BD8120E13EE00E94A211C60EEB
:100B4000D71EE81EF91E2A813B814CE3429FC0015B
:100B5000439F900D1124C80ED91EE11CF11C888101
:100B60009981092E000CAA0BBB0BC80ED91EEA1ED8
:100B7000FB1EC701B60120E831E541E050E00E94CC
:100B80007A11CA01B9016C5F7F4F8F4F9F4F27E0E9
:100B900030E040E050E00E9458117D876C87C7012B
:100BA000B601DF91CF911F910F91FF90EF90DF90F1
:100BB000CF90BF90AF909F908F907F900895982F87
:100BC00092959F708F702AE0929F800D1124089556
:100BD000CF93DF93CDB7DEB76E970FB6F894DEBF35
:100BE0000FBECDBF9C018FE0E6E1F1E0DE01509643
:100BF00001900D928A95E1F78FE0E5E2F1E0DE01E8
:100C0000119601900D928A95E1F7F901A181B281C7
:100C100095E09A9FF0019B9FF00D1124A1E0B0E0B8
:100C2000AC0FBD1FEA0FFB1FE60FF71F8081FA0113
:100C30008083D90111962D913C91929FF001939F51
:100C4000F00D112481E090E08C0F9D1FE80FF91F3B
:100C5000E60FF71F87856E960FB6F894DEBF0FBEBE
:100C6000CDBFDF91CF910895E6EEF1E088E6808375
:100C7000128211820895CF93DF93D62FC42FFC01E7
:100C8000608189EE91E00E94CB086D2F89EE91E0A2
:100C90000E946B086C2F89EE91E00E946B0889EE30
:100CA00091E0DF91CF910C945009FC0121813281B8
:100CB0002230310531F44CE26FE20E943B0681E0C4
:100CC000089580E008958F929F92AF92BF92CF9245
:100CD000DF92EF92FF920F931F93CF93DF934C011C
:100CE0007B018A01C22ED12CD0E0C0E0CC15DD05FD
:100CF000E9F15801F801608189EE91E00E94CB088A
:100D000060E089EE91E00E946B0889EE91E00E941C
:100D1000500941E0F80161918F0189EE91E00E9454
:100D20004D0989EE91E00E9441089E012F5F3F4FDF
:100D3000892BD1F0CC0FDD1FCE0DDF1D888199816D
:100D4000F5012081F40120839283818381E0DF918A
:100D5000CF911F910F91FF90EF90DF90CF90BF90B8
:100D6000AF909F908F900895E901C0CF80E0EFCFC2
:100D70001F93CF93DF93EC01162F688189EE91E0EA
:100D80000E94CB08612F89EE91E00E946B0889EEEA
:100D900091E00E94500941E0688189EE91E00E9453
:100DA0004D0989EE91E00E944808C82F89EE91E034
:100DB0000E9450098C2FDF91CF911F910895EF92DF
:100DC000FF920F931F93CF93DF938C01EB01E42EDF
:100DD000F22EFC01608189EE91E00E94CB086E2D1D
:100DE00089EE91E00E946B0889EE91E00E94500923
:100DF0004F2DF801608189EE91E00E944D09198222
:100E0000188289EE91E00E9448088F770E94DF05E2
:100E100090E09B838A8389EE91E00E9448088F735B
:100E20000E94DF0590E09D838C831D861C8689EEE1
:100E300091E00E9448088F730E94DF0590E09F8335
:100E40008E8389EE91E00E9448088C018F710E9488
:100E5000DF058150990B9987888785E0159507955F
:100E60008A95E1F707701127015011091D870C873A
:100E700086E490E09B878A878FEF9FEF9F878E871E
:100E800089EE91E00E94500981E0DF91CF911F919E
:100E90000F91FF90EF9008955F926F927F928F92E3
:100EA0009F92AF92BF92CF92DF92EF92FF920F93F9
:100EB0001F93CF93DF931F92CDB7DEB77C018B01D9
:100EC0006A011982AE014F5F5F4FB6010E94E805CB
:100ED000582E298180E0222371F0F70181819281CF
:100EE0000197D1F4C60103970297B0F4452DB801DC
:100EF000C7010E94DF060F90DF91CF911F910F91E4
:100F0000FF90EF90DF90CF90BF90AF909F908F9029
:100F10007F906F905F90089586E4882E912C6624D0
:100F20006A94762CF701608189EE91E00E94CB08EB
:100F3000652D89EE91E00E946B0889EE91E00E9498
:100F400050094981F701608189EE91E00E944D09C5
:100F500089EE91E00E9448088F770E94DF0590E0BB
:100F6000F8019183808389EE91E00E9448088F7791
:100F70000E94DF0590E0F8019383828389EE91E07F
:100F80000E944808B82E86FF4CC08F710E94DF0572
:100F900090E0B5FC44C0F80195838483F70181811A
:100FA0009281029709F042C089EE91E00E944808C0
:100FB0008F730E94DF0590E0F8019783868389EEA6
:100FC00091E00E94480887709927F80195878487E7
:100FD00089EE91E00E9448088F710E94DF058150E0
:100FE000990BF8019187808789818730A8F189EE74
:100FF00091E00E9448080E94DF0590E08C599F4FC5
:10100000F80193878287F8017786668689EE91E0FA
:101010000E945009C114D10411F181E06CCF0C96EB
:10102000BACF8F730E94DF0590E0B5CF89EE91E0D3
:101030000E944808877099270197F801958784874F
:1010400089EE91E00E9448088F730E94DF0590E0CE
:10105000F80197838683BCCF93868286D4CFF8012C
:10106000A080B180652DC7010E94B8068F770E94CD
:10107000DF058A151B0409F055CFCFCF90E080E043
:1010800008958091190290911A02891B990B089575
:1010900090911A02809119022FEF3FEF981748F4B0
:1010A000E92FF0E0E55EFD4F208130E09F5F9093F7
:1010B0001A02C9010895E0911A0280911902E817F5
:1010C00030F4F0E0E55EFD4F808190E008958FEF11
:1010D0009FEF08950895CF93DF931F92CDB7DEB7AA
:1010E00069832091F5012223F9F02091F601203245
:1010F00058F021E030E0FC013383228390E080E06F
:101100000F90DF91CF9108958091F701E82FF0E0E3
:10111000E850FE4F998190838F5F8093F701809311
:10112000F60181E090E0ECCF61E0CE0101960E94F3
:10113000070AF7CFCF92DF92EF92FF920F931F93A0
:10114000CF93DF937C01CB018A012091F50122230B
:1011500089F0EB016B01C40ED51ECC15DD0569F0DD
:101160006991D701ED91FC910190F081E02DC701CB
:101170000995F3CF642F0E94070AC801DF91CF9130
:101180001F910F91FF90EF90DF90CF900895CB01CA
:10119000BA010C94640981E08093F5016093180210
:1011A0001092F7011092F60108950C94CB080F935A
:1011B000062F21E04091F60168EF71E0809118025E
:1011C0000E94B7091092F7011092F6011092F501F2
:1011D0000F9108954F925F926F927F92AF92BF925C
:1011E000CF92EF92FF920F931F93CF93DF935C0107
:1011F000F62ED42F28013901EE2019F10E94CB08D8
:10120000CE2DC43008F0C3E0C150B8F028E0C29F32
:10121000C0011124A301920104C05695479537954A
:1012200027958A95D2F7B901D501ED91FC910190EE
:10123000F081E02DC5010995E7CF60E0C5010E946E
:10124000D7084D2FD13208F040E22C2D6BE172E02F
:101250008F2D0E94770910921A0280931902DF9154
:10126000CF911F910F91FF90EF90CF90BF90AF90D3
:101270007F906F905F904F900895CF92EF920F9371
:101280001F93C22EE12C00E010E098010E94EA08B2
:101290001F910F91EF90CF90089521E00C943D099C
:1012A00061E00C94D708E9EEF1E01382128288EE37
:1012B00093E0A0E0B0E084839583A683B78389E9B7
:1012C00091E09183808308959B01AC0160E072E11D
:1012D0008AE790E00E9458112051310941095109D3
:1012E00056954795379527952093B8000895413234
:1012F000E0F590918A029111FCCF91E090938A02DF
:10130000209388022FEF20933B0270938202609318
:10131000810210928002240F20937F029093890211
:1013200090918902880F892B80938902809187028E
:101330008130C9F410928702809189028093BB00AA
:101340008091BC0083FDF8CF85EC8093BC00809138
:101350008A028130E1F380918002841710F4409179
:101360008002842F089585EEF0CF40E0FACF0F93EE
:10137000413208F044C090918A029111FCCF92E072
:1013800090938A02009388029FEF90933B027093A0
:101390008202609381021092800240937F02109239
:1013A000890290918902880F892B8093890280910C
:1013B0008702813011F51092870280918902809313
:1013C000BB008091BC0083FDF8CF85EC8093BC000E
:1013D000222321F080918A028230D1F380913B0256
:1013E0008F3F79F080913B02803269F080913B021F
:1013F000803359F084E00F91089585EEE7CF81E0C6
:10140000FACF80E0F8CF82E0F6CF83E0F4CF2091EE
:101410005D02260F3327331F21323105ECF4209172
:101420008A02FC0190E080E0243069F082E00895B7
:10143000A0915D022191AC01415A5D4FA40FB52FDF
:10144000B11D2C930196861798F380915D02680F69
:1014500060935D0280E0089581E0089585ED8093BA
:10146000BC008091BC0084FDFCCF10928A020895DC
:1014700085EC8093BC0010928A0208951F920F920F
:101480000FB60F9211240BB60F922F933F934F93E9
:101490005F936F937F938F939F93AF93BF93EF93DC
:1014A000FF938091B900887F803609F44EC008F020
:1014B00041C0883209F4AAC028F5803109F49EC0E1
:1014C000C8F4882309F407C1883009F497C0FF9154
:1014D000EF91BF91AF919F918F917F916F915F91AC
:1014E0004F913F912F910F900BBE0F900FBE0F9019
:1014F0001F901895883109F489C0803241F7809394
:101500003B0215C0803409F4A6C048F48033B9F317
:101510008833E9F680933B020E94380AD8CF8035A1
:1015200009F489C0883509F49EC0883481F60E9488
:101530002E0ACDCF883909F494C038F5883729F0C0
:1015400050F4883611F0803711F683E080938A02D8
:1015500010923C0257C0883809F483C0803919F0D2
:10156000803809F0B4CF80913C02803208F079C015
:10157000E0913C0281E08E0F80933C028091BB00A1
:10158000F0E0E35CFD4F80833DC0803B39F0E0F448
:10159000803A09F485C0883A09F099CF84E08093B5
:1015A0008A0210925E0210925D02E0918502F09133
:1015B0008602099580915D0281110FC081E08093C0
:1015C0005D0210925F0209C0803C09F482C0883C31
:1015D00009F47FC0883B09F07ACFE0915E0281E098
:1015E0008E0F80935E02F0E0E15AFD4F8081809380
:1015F000BB0090915E0280915D0231C080918902B2
:101600008093BB0085EC8093BC0061CF90918002F9
:1016100080917F029817B8F58091810290918202A3
:10162000E091800221E02E0F20938002E80FF92F35
:10163000F11D8081E5CF2091810230918202E091FD
:10164000800281E08E0F809380028091BB00E20FC8
:10165000F32FF11D80839091800280917F02981773
:1016600088F285E8D0CF2091810230918202E0910A
:10167000800281E08E0F809380028091BB00E20F98
:10168000F32FF11D808380918802811150CF81E07A
:101690008093870284EA8093BC0010928A0217CF5D
:1016A0000E94380A80913C02803230F4E0913C0282
:1016B000F0E0E35CFD4F108260913C0270E0E0914D
:1016C0008302F09184028DE392E0099510923C022E
:1016D000FECE85ECE0CF10923B0229CFFC01918D2C
:1016E000228D892F90E0805C9F4F821B91098F7320
:1016F00099270895FC01918D828D981731F0828D84
:10170000E80FF11D858D90E008958FEF9FEF08950C
:10171000FC01918D828D981761F0A28DAE0FBF2FC5
:10172000B11D5D968C91928D9F5F9F73928F90E01B
:1017300008958FEF9FEF0895FC01538D448D252F61
:1017400030E0842F90E0821B930B541710F0CF965B
:1017500008950197089587E09DE0892B49F080E086
:1017600090E0892B29F00E94070D81110E94000052
:1017700080E090E0892B49F080E090E0892B29F00F
:101780000E94000081110C9400000895FC01A48DBA
:10179000A80FB92FB11DA35ABF4F2C91848D90E093
:1017A00001968F739927848FA689B7892C93A08976
:1017B000B1898C91837080648C93938D848D981300
:1017C00006C00288F389E02D80818F7D8083089593
:1017D000CF93DF93EC01888D8823B9F0AA89BB8968
:1017E000E889F9898C9185FD03C0808186FD0DC053
:1017F0000FB607FCF7CF8C9185FFF2CF808185FF74
:10180000EDCFCE010E94C60BE9CFDF91CF910895B5
:10181000EF92FF920F931F93CF93DF93EC0181E040
:10182000888F9B8D8C8D98131AC0E889F9898081E7
:1018300085FF15C09FB7F894EE89FF896083E8891A
:10184000F98980818370806480839FBF81E090E00C
:10185000DF91CF911F910F91FF90EF900895F62E99
:101860000B8D10E00F5F1F4F0F731127E02E8C8D33
:101870008E110CC00FB607FCFACFE889F989808178
:1018800085FFF5CFCE010E94C60BF1CFEB8DEC0F9B
:10189000FD2FF11DE35AFF4FF0829FB7F8940B8F95
:1018A000EA89FB8980818062CFCFCF92DF92EF926D
:1018B000FF921F93CF93DF93EC016A017B01122FFC
:1018C00060E874E88EE190E0A70196010E9458114B
:1018D000215031094109510956954795379527956A
:1018E000E889F98982E08083211580E1380798F042
:1018F000E889F989108260E472E48FE090E0A70142
:1019000096010E94581121503109410951095695FB
:10191000479537952795EC85FD853083EE85FF85C6
:101920002083188EEC89FD891083EA89FB898081E8
:1019300088698083EA89FB8980818F7D8083DF913C
:10194000CF911F91FF90EF90DF90CF9008951F925D
:101950000F920FB60F9211240BB60F922F938F9305
:101960009F93EF93FF93E0919B02F0919C02808103
:10197000E091A102F091A20282FD1DC090818091B0
:10198000A4028F5F8F732091A502821741F0E0912E
:10199000A402F0E0E557FD4F958F8093A402FF91DC
:1019A000EF919F918F912F910F900BBE0F900FBED3
:1019B0000F901F9018958081F2CF1F920F920FB653
:1019C0000F9211240BB60F922F933F934F935F9377
:1019D0006F937F938F939F93AF93BF93EF93FF93F7
:1019E0008BE892E00E94C60BFF91EF91BF91AF91FF
:1019F0009F918F917F916F915F914F913F912F9127
:101A00000F900BBE0F900FBE0F901F9018958BE894
:101A100092E00E946E0B21E0892B09F420E0822FD6
:101A20000895EBE8F2E01382128288EE93E0A0E0E2
:101A3000B0E084839583A683B7838BEA91E091839A
:101A4000808385EC90E09587848784EC90E097878D
:101A5000868780EC90E0918B808B81EC90E0938B7B
:101A6000828B82EC90E0958B848B86EC90E0978B58
:101A7000868B118E128E138E148E0895AF92BF92A4
:101A8000CF92DF92EF92FF920F931F93CF93DF934A
:101A90006C017B018B01040F151FEB015E01AE1879
:101AA000BF08C017D10759F06991D601ED91FC919B
:101AB0000190F081E02DC6010995892B79F7C501C8
:101AC000DF91CF911F910F91FF90EF90DF90CF901A
:101AD000BF90AF900895FB0101900020E9F7319786
:101AE000AF01461B570BDC01ED91FC910280F381A5
:101AF000E02D0994DB0114964D915C9115976D9141
:101B00007C91DC01ED91FC910280F381E02D099440
:101B100069EB71E00C946B0D0F931F93CF93DF93E0
:101B2000EC010E947A0D8C01CE010E94880D800F7D
:101B3000911FDF91CF911F910F9108950F931F93E4
:101B4000CF93DF938C01D0E0C0E06115710519F0EF
:101B50000E946B0DEC01C8010E94880D8C0F9D1F27
:101B6000DF91CF911F910F910895FC0180819181A8
:101B7000009711F00C9467120895CF93DF93EC0156
:101B800088819981009711F00E946712198218824A
:101B90001D821C821B821A82DF91CF9108950F93C0
:101BA0001F93CF93DF93EC018B016F5F7F4F888191
:101BB00099810E94F012009751F0998388831B83CA
:101BC0000A8381E0DF91CF911F910F91089580E00A
:101BD000F9CFCF93DF93EC0188819981892B49F06C
:101BE0008A819B818617970720F081E0DF91CF9152
:101BF0000895CE010E94CF0D8823C1F38C819D8171
:101C0000892B99F7E881F9811082EFCFEF92FF924B
:101C10000F931F93CF93DF93EC017B018A01BA01ED
:101C20000E94E90D81110BC0CE010E94BD0DCE01B5
:101C3000DF91CF911F910F91FF90EF9008951D8339
:101C40000C83B701888199810E94DA13F0CFFC01DF
:101C5000118210821382128215821482611571051D
:101C600051F0FB0101900020E9F73197AF01461BCD
:101C7000570B0C94060E0895FB0101900020E9F724
:101C80003197AF01461B570B0C94060E0F931F9311
:101C9000CF93DF93CDB7DEB729970FB6F894DEBFA9
:101CA0000FBECDBF8C01862FF801118210821382E6
:101CB00012821582148250E0BE016F5F7F4F90E068
:101CC0000E942814BE016F5F7F4FC8010E943C0E26
:101CD00029960FB6F894DEBF0FBECDBFDF91CF912E
:101CE0001F910F9108950F931F93CF93DF93CDB75B
:101CF000DEB761970FB6F894DEBF0FBECDBF8C0183
:101D0000CB01F80111821082138212821582148293
:101D100050E0BE016F5F7F4F0E942814BE016F5FCD
:101D20007F4FC8010E943C0E61960FB6F894DEBF4B
:101D30000FBECDBFDF91CF911F910F9108950F93EB
:101D40001F93CF93DF93CDB7DEB7A2970FB6F8946A
:101D5000DEBF0FBECDBF8C01CB01BA01F8011182ED
:101D60001082138212821582148230E0AE014F5F1E
:101D70005F4F0E94E113BE016F5F7F4FC8010E9459
:101D80003C0EA2960FB6F894DEBF0FBECDBFDF911A
:101D9000CF911F910F9108950F931F93CF93DF93CE
:101DA000CDB7DEB7A1970FB6F894DEBF0FBECDBF9B
:101DB0008C01CB01BA01F8011182108213821282C8
:101DC0001582148230E0AE014F5F5F4F0E94FB131B
:101DD000BE016F5F7F4FC8010E943C0EA1960FB6F7
:101DE000F894DEBF0FBECDBFDF91CF911F910F9151
:101DF0000895CF93DF93EC01FB018617970749F015
:101E0000608171816115710541F0448155810E94A5
:101E1000060ECE01DF91CF9108950E94BD0DF9CF3E
:101E2000FC011182108213821282158214820C949A
:101E3000F90EEF92FF920F931F93CF93DF936115EB
:101E4000710541F480E0DF91CF911F910F91FF90D8
:101E5000EF90089541155105B1F07B01EC010C8123
:101E60001D81040F151FB8010E94E90D882351F34D
:101E7000288139818C819D81B701820F931F0E9437
:101E8000DA131D830C8381E0DECFFB014481558191
:101E9000608171810C94190F6115710551F0FB017E
:101EA00001900020E9F73197AF01461B570B0C94C6
:101EB000190F80E00895CF93DF93EC01FB0144817B
:101EC0005581608171810E94190F811103C0CE017B
:101ED0000E94BD0DCE01DF91CF910895CF93DF9386
:101EE000EC016115710539F4CE010E94BD0DCE01E2
:101EF000DF91CF910895FB0101900020E9F7319720
:101F0000AF01461B570B0E94190F882369F3EFCFCF
:101F100008950E944B100E94880F0E948B02CBEA0A
:101F2000DBE00E94B1002097E1F30E94AB0BF9CFF8
:101F30001F920F920FB60F9211242F933F938F93FE
:101F40009F93AF93BF9380912D0390912E03A09107
:101F50002F03B091300330912C0326E0230F2D374F
:101F600068F129E8230F0396A11DB11D20932C03CE
:101F700080932D0390932E03A0932F03B0933003EF
:101F80008091280390912903A0912A03B0912B03FB
:101F90000196A11DB11D8093280390932903A0935E
:101FA0002A03B0932B03BF91AF919F918F913F91E3
:101FB0002F910F900FBE0F901F9018950296A11DA4
:101FC000B11DD4CF3FB7F894809128039091290395
:101FD000A0912A03B0912B0326B5A89B05C02F3FE3
:101FE00019F00196A11DB11D3FBFBA2FA92F982F3F
:101FF0008827BC01CD01620F711D811D911D43E039
:10200000660F771F881F991F4A95D1F708958F9201
:102010009F92AF92BF92CF92DF92EF92FF926B01AD
:102020007C010E94E20F4B015C01C114D104E10468
:10203000F104E9F00E941F110E94E20F681979096A
:102040008A099B09683E73408105910570F321E080
:10205000C21AD108E108F10888EE880E83E0981EC4
:10206000A11CB11CC114D104E104F10429F7FF90B3
:10207000EF90DF90CF90BF90AF909F908F9008959A
:10208000000000008330910528F0880F991F059704
:102090000197F1F70895789484B5836084BD85B580
:1020A000836085BDEEE6F0E0808181608083E1E8B9
:1020B000F0E082E08083808181608083E0E8F0E06E
:1020C000808181608083E1EBF0E0808184608083A7
:1020D000E0EBF0E0808181608083E1E9F0E08081E5
:1020E00083608083E0E9F0E080818160808386E81E
:1020F00080937A001092C100089582508A3088F54A
:10210000E82FF0E0EA57FF4E0C949911AE10B21090
:1021100090109610B110B1109A10A010A410AA102F
:10212000809180008F778093800008958091800057
:102130008F7DF9CF8091B0008F778093B0000895A4
:102140008091B0008F7DF9CF809190008F77809340
:1021500090000895809190008F7DF9CF84B58F779E
:1021600084BD089584B58F7DFBCFCF93DF9390E03E
:10217000FC01E455FF4F249184539F4FFC0184914F
:102180008823C9F090E0880F991FFC01EA50FF4FA7
:10219000A591B491FC01E451FF4FC591D491611117
:1021A0000DC09FB7F8948C91209582238C938881E1
:1021B000282328839FBFDF91CF910895623051F487
:1021C0009FB7F8943C91822F809583238C93E8816C
:1021D0002E2BEFCF8FB7F894EC912E2B2C938FBF33
:1021E000EACF1F93CF93DF93282F30E0F901E45714
:1021F000FF4F8491F901E455FF4FD491F901E45365
:10220000FF4FC491CC23A9F0162F81110E947D109D
:10221000EC2FF0E0EE0FFF1FE451FF4FA591B491BA
:102220008FB7F894EC91111108C0D095DE23DC93A0
:102230008FBFDF91CF911F910895DE2BF8CF0895C6
:10224000DB018F939F930E94A911BF91AF91A29F31
:10225000800D911DA39F900DB29F900D11240895A4
:10226000AA1BBB1B51E107C0AA1FBB1FA617B707BC
:1022700010F0A61BB70B881F991F5A95A9F78095D8
:102280009095BC01CD01089597FB072E16F400949C
:1022900007D077FD09D00E94301107FC05D03EF42D
:1022A000909581959F4F0895709561957F4F089502
:1022B000A1E21A2EAA1BBB1BFD010DC0AA1FBB1F4A
:1022C000EE1FFF1FA217B307E407F50720F0A21BBC
:1022D000B30BE40BF50B661F771F881F991F1A9429
:1022E00069F760957095809590959B01AC01BD0153
:1022F000CF010895052E97FB1EF400940E949111C2
:1023000057FD07D00E94581107FC03D04EF40C94DF
:10231000911150954095309521953F4F4F4F5F4F0C
:10232000089590958095709561957F4F8F4F9F4F41
:102330000895EE0FFF1F0024001C0BBE0790F691BE
:10234000E02D09940E94BC11B7FF0895821B930BE6
:1023500008950E94BC11A59F900DB49F900DA49F5D
:10236000800D911D11240895B7FF0C94A9110E94AE
:10237000A911821B930B0895A29FB001B39FC001C6
:10238000A39F700D811D1124911DB29F700D811DA1
:102390001124911D08950F931F93CF93DF938230E3
:1023A000910510F482E090E0E0913303F091340362
:1023B00030E020E0B0E0A0E0309799F4211531053D
:1023C00009F44AC0281B390B24303105D8F58A811D
:1023D0009B816115710589F1FB0193838283FE0165
:1023E00011C0408151810281138148175907E0F0E3
:1023F0004817590799F4109761F012960C931297A9
:1024000013961C933296CF01DF91CF911F910F91BC
:1024100008950093330310933403F4CF211531054D
:1024200051F04217530738F0A901DB019A01BD01B1
:10243000DF01F801C1CFEF01F9CF9093340380930E
:102440003303CDCFFE01E20FF31F8193919322500E
:10245000310939832883D7CF20913103309132035A
:10246000232B41F420910201309103013093320378
:102470002093310320910001309101012115310594
:1024800041F42DB73EB74091040150910501241B42
:10249000350BE0913103F0913203E217F307A0F41A
:1024A0002E1B3F0B2817390778F0AC014E5F5F4FAA
:1024B0002417350748F04E0F5F1F509332034093A7
:1024C0003103819391939FCFF0E0E0E09CCFCF93D5
:1024D000DF930097E9F0FC01329713821282A091FA
:1024E0003303B0913403ED0130E020E01097A1F404
:1024F00020813181820F931F20913103309132036B
:102500002817390709F061C0F0933203E0933103D3
:10251000DF91CF910895EA01CE17DF07E8F54A81F0
:102520005B819E0141155105B1F7E901FB83EA8307
:1025300049915991C40FD51FEC17FD0761F48081B3
:1025400091810296840F951FE90199838883828186
:1025500093819B838A83F0E0E0E012968D919C91B9
:1025600013970097B9F52D913C911197CD010296E3
:10257000820F931F209131033091320328173907BE
:1025800039F6309751F51092340310923303B0931B
:102590003203A0933103BCCFD383C28340815181E6
:1025A000840F951FC817D90761F44E5F5F4F88816C
:1025B0009981480F591F518340838A819B8193835E
:1025C00082832115310509F0B0CFF0933403E093F5
:1025D00033039ECFFD01DC01C0CF13821282D7CF1F
:1025E0004F925F926F927F928F929F92AF92BF9223
:1025F000CF92DF92EF92FF920F931F93CF93DF93CF
:102600008C01009799F4CB01DF91CF911F910F912D
:10261000FF90EF90DF90CF90BF90AF909F908F9002
:102620007F906F905F904F900C94CB11FC01E60F60
:10263000F71F9C0122503109E217F30708F4AEC0DE
:10264000D901CD91DC911197C617D70720F1C5307C
:10265000D10578F0CE0104978617970750F0C61B76
:10266000D70B2297C193D1936D937C93CF010E9496
:102670006712C801DF91CF911F910F91FF90EF90EA
:10268000DF90CF90BF90AF909F908F907F906F9092
:102690005F904F9008955B01AC1ABD0A4C018C0EFF
:1026A0009D1EA0913303B0913403512C412CF12C89
:1026B000E12C109731F58091310390913203881508
:1026C000990509F05CC04616570608F058C080917D
:1026D000000190910101009741F48DB79EB74091A0
:1026E000040150910501841B950BE817F90708F0C8
:1026F00055C0F0933203E0933103F9017183608395
:10270000B8CF8D919C91119712966C901297139659
:102710007C901397A815B90559F56C0142E0C40ED9
:10272000D11CCA14DB0420F1AC014A195B09DA019F
:102730001296159780F06282738251834083D9018B
:102740006D937C93E114F10471F0D7011396FC931F
:10275000EE9312978ECF22968C0F9D1FF9019183D5
:102760008083F301EFCFF0933403E093330381CF01
:102770004816590608F42C017D01D3019ACFCB01EC
:102780000E94CB117C01009749F0AE01B8010E9474
:10279000D113C8010E94671287016BCF10E000E0DF
:1027A00068CFFB01DC0102C001900D924150504006
:1027B000D8F70895FB01DC0101900D920020E1F7AC
:1027C00008952532310520F4223010F00C94EC13DA
:1027D000FA011082CA010895BB272A3051F49923C7
:1027E00042F4BDE290958095709561957F4F8F4F33
:1027F0009F4F0C9407142532310520F4223010F03D
:102800000C940614FA011082CA010895BB27FA013C
:10281000A62F6217710581059105330B30FB66F019
:10282000AA27660F771F881F991FAA1FA21710F0EB
:10283000A21B63953850A9F7A05DAA3308F0A95DE3
:10284000A19336F7B111B1931082CA010C944D14C3
:102850004532510520F4423010F00C943314FB0142
:102860001082CB010895BB27FB015527AA27880FAB
:10287000991FAA1FA41710F0A41B83955051B9F7F4
:10288000A05DAA3308F0A95DA193009779F7B11173
:10289000B1931192CB010C944D14DC01FC01672F14
:1028A00071917723E1F7329704C07C916D93708327
:1028B0006291AE17BF07C8F3089510E0C4E8D0E0F6
:1028C00004C0FE010E9499112196C538D107C9F7AD
:0428D000F894FFCFAA
:1028D400000035038000030001001F1C1F1E1F1E83
:1028E4001F1F1E1F1E1F00FFFFFFFF000A11181CE1
:1028F40001080DFFFF070000000007060604040797
:102904000000000024484953542C004C303200305D
:102914003363613461366132633032616530653509
:1029240066313064363532313130343638623439D8
:102934003063363562346500234376616B2E2E2E68
:102944000023486D6D6D2E2E2E0024444F532C4CC5
:102954004142444F533031412C00300051000002B9
:102964000000000000000000006B089A083E086A9E
:1029740008410848085B0800000000080C3E0D9C54
:0C2984000BE80B6E0B880B7A0B0D0A00A1
:00000001FF
